:0610000055EF08F012009C
:101008005B82FACF4FF0FBCF50F0E1CF51F0E2CF47
:1010180052F0D9CF53F0DACF54F0F3CF55F0F4CFE4
:1010280056F0F6CF57F0F7CF58F0F8CF59F0F5CF84
:101038005AF09DB09EA005D074EC1AF05AEC1AF044
:1010480016D09DBA9EAA05D05DEC1AF0A4EC1BF050
:101058000ED09DB89EA803D0B8EC1BF008D0A0BC59
:10106800A1AC03D04DEC1AF002D05CEC2BF05AC0C6
:10107800F5FF59C0F8FF58C0F7FF57C0F6FF56C034
:10108800F4FF55C0F3FF54C0DAFF53C0D9FF52C074
:10109800E2FF51C0E1FF50C0FBFF4FC0FAFF5B9277
:0610A8001100D4EF1FF05F
:10349A00A19C1200CD801200BA8412002A50120098
:0434AA008F6B120012
:1034AF00497602010100018F811200010E2A6E017F
:1034BF000CC86FC8C0F8F01200C86FC8C09CF012DB
:1034CF0000C86FC8C08EF01200C86FC8C0F7F012E6
:1034DF0000BCCFC8F0C85112009E9081C0CFFF80B2
:1034EF00C0CEFF12000001C96F8A9AC951A2EF1A0C
:1034FF00F0C96F8A8A0001C951A2EF1AF00D0ECCE4
:10350F00EC1CF00A0ECCEF1CF0C76A210EC66EC879
:10351F006AC688C79C1200C86F0001C8B3942BC835
:10352F00B7992B12007A0EBA6E9B0EBB6EBC6A9EB9
:10353F009251EF1AF0C86FC69EC8C0C9FFC7A0FE50
:10354F00D7C9501200A09C9C0E986E9A8A9A929A94
:10355F0096A19CA09C9C0C0001CA6F8A98CA51AF7F
:10356F00087AEC1AF08A881200C851C911D8B4121F
:10357F0000C8C0F5F0C9C0F6F01200C86FC8C0A9E6
:10358F00FFA69CA69EA68000F000F0A8501200CACD
:10359F006FB00E0001CA138A98CA517AEC1AF08ADA
:1035AF008812000001CA6FA60ECA278A98CA517ADC
:1035BF00EC1AF08A881200A00E7D6E010EC26E0802
:1035CF000EC16E8E0EC06EC36AC46A1200800E9B4F
:1035DF006E700ED36E100ED26ED2AEFED7900EB5A9
:1035EF006E900C000E3FEC1BF0010E3FEC1BF00237
:1035FF000E3FEC1BF0030E3FEF1BF0A3942050097E
:10360F00E1C8C073F0C9C074F0CAC092F0010E9047
:10361F006F206EA3841200720EC96F7A0ECA6F32BA
:10362F00EC1CF09DB8FED70001C96B140EC86FCC0F
:10363F00EF1BF0648465986082010E0001876F3C78
:10364F006A750E3B6E3D6A3E6A406A3F6A11EF1E15
:10365F00F0CA6F8A980001CA390F0B10097AEC1A59
:10366F00F00001CA510F0B7AEC1AF08A8812000091
:10367F0001D56FD66BD6C0CBF0D5C0CCF0200E3BAA
:10368F00EC21F0D62B0F0ED665F5D70F0CEEEC1AFA
:10369F00F0EEEC1DF08CEC1AF073EC1CF09AEC1AB7
:1036AF00F05DEC1CF0E3EC1AF0AAEF1AF0876B3C1C
:1036BF006A740E3B6E3D6A3E6A406A3F6A11EC1EA9
:1036CF00F06092649401D0659465A41200FCD70059
:1036DF0001CF6F060ECF25C86FC96BFF0EC923CB65
:1036EF006B050ECA6F36EC1EF0C851D06FD0511259
:1036FF000093949398939A1EEC29F0000ED9EC1A2C
:10370F00F0490E0001C86F760EC96FBCEC1AF0F9C4
:10371F00EF1AF0C86F0F0E0001C8170A0EC8610329
:10372F00D0C851300F1200090EC865000C100EC81A
:10373F0061000CC851370F1200ABA203D0AB98AB8E
:10374F00881200000E2424D96EDA6A010EDA22AE36
:10375F00CFDFFF242A3F0E246401D0246A232A12CC
:10376F0000400E26600FD0000E2824D96EDA6A02B0
:10377F000EDA22DF50AD6E282A3F0E286401D028C2
:10378F006A262A12009D981200CB6BCC6B0BD010BF
:10379F000ECA6F940EE82EFED7CA2FFCD700D000AA
:1037AF0001CB4BCC2BC851CB5DC951CC59F0E31297
:1037BF0000C96F080E0001CA6FCB6BD890C935CB0B
:1037CF0035CB6FD890C937C851CB5D02E3C851CB09
:1037DF005FCA2FF3D7CB511200C86F2F0E0001C84D
:1037EF006506D03A0EC86103D0C851D00F12004001
:1037FF000EC8652D0C470EC8612D0CC851C90F128C
:10380F00002EC034F02FC035F008D034C0D9FF35AA
:10381F00C0DAFF30C0DFFF344A352A3206D8A03372
:10382F00063228F3E13328F1E11200C8C0CEF0C907
:10383F00C0CFF008D0CEC0D9FFCFC0DAFFCAC0DFEB
:10384F00FFCE4BCF2BCC07D8A0CD07CC29F3E1CDA2
:10385F0029F1E112000BD0C9C0F6FFCAC0F7FF086B
:10386F0000F550CCEC1CF00001C94BCA2BC9C0F6B7
:10387F00FFCAC0F7FF0800F550EEE186EF1AF09D82
:10388F009A9D98480EB86E900EAB6E260EAC6E7168
:10389F000EAF6E020EB06E276A286A400E266E2497
:1038AF006A256A236A9D8AAB8812009D9A9D984863
:1038BF000EB86E900EAB6E260EAC6E710EAF6E0222
:1038CF000EB06E276A286A400E266E246A256A2378
:1038DF006A9D8AAB881200CD6ACC6AD00ECF6E205B
:1038EF000ECE6ECE50CFCFC8F00001C96BC8C0C985
:1038FF00F0C86BC811806FC951816F9E909D804F2A
:10390F00EF1AF08A51D8A41200606A646A160E6228
:10391F006E9F0E666E7B0E646ED08EA584A384F2AE
:10392F008E01D0608660A6FDD7010E8A6F010C0054
:10393F0001C86B000EC825D96EDA6A010EDA22DFD4
:10394F006AC82B3F0EC865F5D7246A256A236A9D7E
:10395F0098276A286A400E266E400C01D0898E2364
:10396F0050FDE09D9A000E2524D96EDA6A010EDA19
:10397F0022DF500001C86F252A3F0E256401D02594
:10398F006A23069D8AC85112000001C86F2650FE97
:10399F00E09DB803D0C8C0ADFF0FD09D98000E2793
:1039AF0024D96EDA6A020EDA22C8C0DFFF272A3F57
:1039BF000E276401D0276A26069D881200396E36BD
:1039CF00A404D02E6A3950F3EC22F036A205D001B0
:1039DF000E2E6E3950F3EC22F06A0E3924376E3802
:1039EF006A0F0E382237C0D9FF38C0DAFF36C0DF72
:1039FF00FF0F0CC96F0001CB6BC85114E0010ECA49
:103A0F006F03D0D890C837CA2BC8AFFBD7D890CB8D
:103A1F0037C851C95D03E3C851C95FCB81D890C87E
:103A2F0033CA2FF4D7CB511200CFEC1EF0C06B0866
:103A3F000EC26FC16BBC6B4B0EBD6FBE6BBF6B47C6
:103A4F00EC1CF03A6A400E3A24D96EDA6A010EDAAB
:103A5F0022DF6A3A2A3F0E3A64F5D71A6A196A12B8
:103A6F0000B1EC21F00001C96B140EC86FCCEC1B38
:103A7F00F052EC25F0F9EC1AF0C96B140EC86FCCAC
:103A8F00EC1BF04CEC1FF022EC1FF05DEC26F0C9A4
:103A9F006B140EC86FCCEF1BF0C96F000EF2BE0196
:103AAF000E0001CA6FC9C0A9FFC8C0A8FFA69EA675
:103ABF009CA684F29E550EA76EAA0EA76EA682A68E
:103ACF00B2FED7A6940001CAB102D0F29E01D0F285
:103ADF008E12000001CC6FCCC0CAF0CA47CA47C2D1
:103AEF0050CA19830BCA19C26EC280140EE82EFE7B
:103AFF00D7C282C2B2FED7C4500001CB6FCA6BC30C
:103B0F0050CA25C86F000ECB21C96F12006AA01BC7
:103B1F00D015C0D9FF16C0DAFF800EDE1813E10FE3
:103B2F00C0D9FF10C0DAFF840EDE180CE115C0D922
:103B3F00FF16C0DAFF0C0EDF6E15C0D9FF16C0DA04
:103B4F00FF000EDB8E6A90659A1200CA51CB1117D7
:103B5F00E0010ECC6F04D0D890CA37CB37CC2BCB2B
:103B6F00AFFAD7CA51C85DCB51C95904E3CA51C87E
:103B7F005FCB51C95BD890CB33CA33CC2FF2D7C8A8
:103B8F00C0C8F0C9C0C9F012000001C86BC851C34A
:103B9F000FD96EDA6ADF6AC82B020EC865F7D7C96C
:103BAF006BC00EC925D96EDA6A010EDA22DF6AC937
:103BBF002B210EC965F5D7CA6BCA51B40FD96EDA6E
:103BCF006ADF6ACA2B090ECA65F7D7090C92809271
:103BDF0082928492869298929A929C929E939093BC
:103BEF009293949396939A948094829484949C94B1
:103BFF008E8988899A899C899E8A948A908A9A8BC1
:103C0F00948B9C0F015B915B835B855B875D9F5DF5
:103C1F009D12003BC041F03CC042F0425004E07F97
:103C2F000AD8A4120019D04150010A02E11CEF1D5D
:103C3F00F0030AD8B41200010A02E1AFEF22F00636
:103C4F000AD8B41200770AD8B41200010AD8B412F5
:103C5F0000070AD8A4010A1200411C1200CD6BCE36
:103C6F006BCA51CB111BE0010ECC6F04D0D890CA98
:103C7F0037CB37CC2BCBAFFAD7D890CD37CE37CA7F
:103C8F0051C85DCB51C95905E3CA51C85FCB51C962
:103C9F005BCD81D890CB33CA33CC2FEED7CDC0C8F4
:103CAF00F0CEC0C9F012000001C96B23501FE0B560
:103CBF00EC1CF0CA6F0D0ECA190BE1800E2924D926
:103CCF006EDA6A010EDA22DF6A010EC96F296A0EF7
:103CDF00D0CA510CE00A0ECA1909E0800E2924D966
:103CEF006EDA6A010EDA22CAC0DFFF292AC9511221
:103CFF000082A002D082B214D0662B000E67236818
:103D0F00236923370E661967116811691107E19D41
:103D1F006B82B002D0010E0FD0020E0DD0C86B0C0B
:103D2F00D0140E9D1906E1666B676B686B696B9D0E
:103D3F006B01D09D2B030EC86FC8511200020E21CC
:103D4F001802E161EF2DF0216A86511FE120EE018B
:103D5F00F01750D9261850DA22080EDF6E20EE0227
:103D6F00F01750D9261850DA22300EDE6E040EDD11
:103D7F006E17C0D9FF18C0DAFF0C0EDF6E17C0D94F
:103D8F00FF18C0DAFF000EDB8E000C866B120000EE
:103D9F0001BC6B4B0EBD6FBE6BBF6BC06BC16B08B5
:103DAF000EC26F916B1A0E366E010EE6EC1CF01EF2
:103DBF000E366E020EE6EC1CF0000E2E6E400E2F2D
:103DCF006E050E306E400E316E020E10EC24F02E8A
:103DDF00C078F02FC079F00001766B776B206A12F4
:103DEF0000AAC0BCF0ABC0BDF0ACC0BEF0ADC0BF50
:103DFF00F02E6A1B0E2F6EB70E306E316ABCC032BA
:103E0F00F0BDC033F0BEC034F0BFC035F000EC21C0
:103E1F00F0FF0E2E243B6EFF0E2F203C6EFF0E3058
:103E2F00203D6EFF0E31203E6E3BC0AFFF3CC0B059
:103E3F00FF47EF1CF0230ED56F7F0ED66FD76B01A8
:103E4F000ED86F65EC20F0898C898E010E0001C9A8
:103E5F006FF40EC86FCCEC1BF0899C899E010EC9C4
:103E6F006FF40EC86FCCEC1BF0898C898E010EC9D4
:103E7F006FF40EC86FCCEC1BF0899C899E010EC9A4
:103E8F006FF40EC86FCCEF1BF0E60ED56F7E0ED61B
:103E9F006FD76BD86B65EC20F0010ECCEC20F001E6
:103EAF000EC96FF40EC86FCCEC1BF0000ECCEC20DB
:103EBF00F0010EC96FF40EC86FCCEC1BF0010ECCE5
:103ECF00EC20F0010EC96FF40EC86FCCEC1BF000A4
:103EDF000ECCEC20F0010EC96FF40EC86FCCEF1BA7
:103EEF00F0DC6F0A0E0001C86FDC51E0EC1BF03004
:103EFF000FDF6F0A0EC86FDC5101EC1DF0DC6F0A8B
:103F0F000EC86FDC51E0EC1BF0300FDE6F0A0EC8ED
:103F1F006FDC5101EC1DF0DC6F0A0EC86FDC51E055
:103F2F00EC1BF0300FDD6FE06BDD0ED56FD66BDA6B
:103F3F00C0D7F0DBC0D8F065EF20F02B6A1E6A887F
:103F4F006B896B866B216A0FC0D9FF10C0DAFF7FB8
:103F5F000EDF16040E0F1A0FC0D9FF10C0DAFF7F45
:103F6F000EDF16040E0F1A17C0D9FF18C0DAFF7F25
:103F7F000EDF160C6A0D6A0E6A046A056A066A5F1E
:103F8F00EC24F03C6A030E3B6E3D6A3E6A406A3F8A
:103F9F006A11EC1EF0F9EF29F002EE00F0400EEE80
:103FAF006AE806FDE101EE00F0D80EEE6AE806FDC4
:103FBF00E100EE60F0680EEE6AE806FDE100EE014A
:103FCF00F02D0EEE6AE806FDE1AF0EF66E340EF739
:103FDF006E000EF86E00EEF5F010EE05F00900F52C
:103FEF00CFEEFFE550E150FAE15B905B92000EF8E7
:103FFF006E0001DEEF27F0CD6F0001CC51A00FD97D
:10400F006EDA6A0A0EC86FCD51E0EC1BF0300FDF8D
:10401F006E0A0EC86FCD5101EC1DF0CD6FCC519FC4
:10402F000FD96EDA6A0A0EC86FCD51E0EC1BF03073
:10403F000FDF6E0A0EC86FCD5101EC1DF0CD6FCCA6
:10404F00519E0FD96EDA6A0A0EC86FCD51E0EC1B84
:10405F00F0300FDF6E1200CF6BCD6BCE6BAC9A8B47
:10406F009CC96B0A0EC86FCCEC1BF0AC8AC96B05F0
:10407F000EC86FCCEC1BF0550EAD6EACA2FED7FD8B
:10408F000EC96F7F0ECA6F32EC1CF00001C96B288E
:10409F000EC86FCCEC1BF00ED05BEC1EF0000903CA
:1040AF00E0010ECF6F07D0CD4BCE2B890ECD5D1318
:1040BF000ECE59F6E2CF51F0E11200D7C0D9F00F72
:1040CF000ED96501D00F0CD5C0F6FFD6C0F7FFF89B
:1040DF006A070EF76403D00800F55005D0F6CFE15C
:1040EF00FFF7CFE2FFE7500009D8B41200D9C0CBD9
:1040FF00F0D8C0CCF0D5C0F6FFD6C0F7FFF86A07EE
:10410F000EF76403D00800F55005D0F6CFE1FFF7A6
:10411F00CFE2FFE7503BEC21F0D54BD62BD92BCF7D
:10412F00D729D0C8C0D9FFC9C0DAFFDF500DE0C80A
:10413F00C0D9FFC9C0DAFFDF50CE6FCAC0F6FFCBC0
:10414F00C0F7FF0800F51812E0C8C0D9FFC9C0DAE0
:10415F00FFDF50CE6FCAC0F6FFCBC0F7FF0800F5E8
:10416F0050CE5DC86FC96BD8A0C9071200C84BC924
:10417F002BCA4BCB2BCC07D8A0CD07CC29D2E1CD66
:10418F0029D0E1C86BC96B12000001CD6FC96B322A
:10419F000EC86FCCEC1BF0CD5113E03E0EC96F7AF9
:1041AF000ECA6F32EC1CF00001C96B320EC86FCC17
:1041BF00EC1BF0580EC96F7A0ECA6F32EC1CF0125E
:1041CF00D00A0EC96F7A0ECA6F32EC1CF00001C90B
:1041DF006B320EC86FCCEC1BF0240EC96F7A0ECA6F
:1041EF006F32EC1CF00001C96B320EC86FCCEF1BA5
:1041FF00F0366A376A386A396A32503310341035FC
:10420F001029E0010E3A6E06D0D89032363336348C
:10421F003635363A2A35AEF8D7D89036363736385F
:10422F0036393632502E5C33502F58345030583583
:10423F0050315809E332502E5E33502F5A345030DC
:10424F005A3550315A3680D8903532343233323273
:10425F00323A2EE2D736C02EF037C02FF038C030AA
:10426F00F039C031F012000001D36FCC51CFEC1AEE
:10427F00F00001CB51080DF35030EC1BF08A980081
:10428F0001D46BCD6BCE69D351CF6FD06BD890CF9C
:10429F0037D037D890CF37D037D890CF37D037F5F2
:1042AF00C0D1F0F6C0D2F0CF51D127D051D223D404
:1042BF0051D127000ED223CD51D127CE51D223D1A8
:1042CF00C0F6FFD2C0F7FF0800F55080EC1AF000DF
:1042DF0001D42B070ED465D5D78A88070C2ED0FFB3
:1042EF00D7F9EC1AF02D0ED56F7F0ED66F010ED7C2
:1042FF006FD86B65EC20F0870E0001D56F7F0ED65F
:10430F006F020ED76F010ED86F65EC20F0370E00DD
:10431F0001D56F7E0ED66FD76B020ED86F65EC206E
:10432F00F0010E000105D0200E8A6101D00ED002DF
:10433F000E9C6F0BD002EC26F008D000019C51D0E0
:10434F00E0010AF1E0030AF6E0CAD780B0F6D70021
:10435F00F01200F9EC1AF0630ED56F7F0ED66FD7FF
:10436F006BD86B65EC20F0860E0001D56F7C0ED6F6
:10437F006FD76B060ED86F65EC20F0950E0001D548
:10438F006F7C0ED66FD76B080ED86F65EC20F03CA4
:10439F000E0001D56F7C0ED66FD76B010ED86F65EF
:1043AF00EC20F0970E0001D56F7E0ED66FD76B0203
:1043BF000ED86F65EC20F06C0E0001D56F7F0ED616
:1043CF006FD76B030ED86F65EF20F00401386B3990
:1043DF006B2AD00C8E1D042EE138832CD00C8E2A24
:1043EF00D00C8E34BF06D034510F0B020DF350603A
:1043FF000F05D034510F0B020DF3500F0FD96EDA9A
:10440F006ADECF2EF0DDCF2FF02EC0D9FF2FC0DA0E
:10441F00FFDFAE10D02EC0D9FF2FC0DAFFDFA40A06
:10442F00D0010E386F07D030511F0BD3E0010AD6E1
:10443F00E0030AD6E00CAE1200380E096E040E0A25
:10444F006E0C80020E0D6E020C82A2FED713EC1BB7
:10445F00F0010EB3EC1AF0C290F29EF29EF29C0F96
:10446F00015B81A08C878087828784F2868250824D
:10447F005082500001F95101E0D180F290A19C00CF
:10448F00F0030000F0D1909FEC1CF0F2968790871C
:10449F00928794A09CF28EEEEC1DF05DEC1CF0F276
:1044AF00A005D0F290010E0001D76F04D00A0E00C4
:1044BF0001996FD76B0F015B91000EB3EC1AF0806F
:1044CF00EC1BF033EC20F0D7511200C8C0D9FFC954
:1044DF00C0DAFFDF50CE6FCAC0F6FFCBC0F7FF08C0
:1044EF0000F5CFD0F0CE512CE0020EC827000EC938
:1044FF0023D051CE1925E12FEEFFF0C851D926C98F
:10450F0051DA22DF50CF6FCA29CC6F000ECB21CDED
:10451F006FCCC0F6FFCDC0F7FF0800F5CFD0F0CFBE
:10452F005107E1D051CF5DC86FC96BD8A0C9071231
:10453F0000020ECA27000ECB23CF51D019F2E1C5CE
:10454F00D7D051CE5DC86FC96BD8A0C90712000470
:10455F000130511F0BE80601E012003039E8320339
:10456F000BE80601E0120034512BE0340529E0126C
:10457F0000D00E096E010E0A6E0E6A080E0D6E0C3B
:10458F00800C8E080CD00E096E010E0A6E0C8E1266
:10459F000036C405F037C406F0AA0E016EF00E0700
:1045AF006E3D0E086E048E1200BC0E096E0A6A0E66
:1045BF006A070E0D6EC10E0C6EC10C32510C8E12AD
:1045CF00003151D6E0010ADEE0210AE2E0010AECF7
:1045DF00E0030AF3E01200336E346A040E356E2ED8
:1045EF00502F6E306AD8902F3630363350316E32AE
:1045FF006AD89031363236D890313632362F503124
:10460F002630503222D89031363236D89031363269
:10461F0036315034263250352234C0D9FF35C0DA06
:10462F00FFDF9E2E5005E13350020DF350600F0453
:10463F00D03350020DF3500F0FD96EDA6A34C0DE4B
:10464F00FF35C0DDFF34C0D9FF35C0DAFFDF9C2056
:10465F00EE04F03450D9263550DA22DF8C12008860
:10466F006B896B020E21181FE120EE01F01750D954
:10467F00261850DA22080EDF6E20EE02F01750D9FE
:10468F00261850DA22380EDE6E040EDD6E17C0D9F2
:10469F00FF18C0DAFF480EDF6E17C0D9FF18C0DA57
:1046AF00FF000EDB8E000C0D500401365D0E5037EF
:1046BF005904E236C40DF037C40EF016EC27F02083
:1046CF00EE02F00F50D9261050DA22380EDE6E04AB
:1046DF000EDD6E0FC0D9FF10C0DAFF480EDF6E0F70
:1046EF00C0D9FF10C0DAFF000EDB8E000C916B7883
:1046FF0051791109E078C0D9FF79C0DAFF010EDFD7
:10470F00AE000ED36F01D0D36BD46BD351D4113411
:10471F00E120EE01F07851D9267951DA22D151DE1C
:10472F005C08E220EE01F07851D9267951DA22DFC8
:10473F0050D16F916B0FD0400E9125D96EDA6A056B
:10474F000EDA229151CF25E16E000ED021E26EDFFD
:10475F00CFE7FF912BD151915DEEE3000EC86F4073
:10476F000EC96F050ECA6F400ECB6F020EAEEC2452
:10477F00F0C8C078F0C9C079F0915112000BD0C9C0
:10478F00C0F6FFCAC0F7FF0800F550CCEC1CF000D4
:10479F0001C94BCA2BC9C0F6FFCAC0F7FF0800F505
:1047AF0050EEE1CE6BCB51CE25D96EDA6ADF50CC0D
:1047BF00EC1CF00001CE2B020ECE65F4D7CB51D9F5
:1047CF006EDA6A030ED926DF50CCEC1CF0040E0013
:1047DF0001CF6F19D0CB51CF25D96EDA6ADF50CD0B
:1047EF006FCD390F0B91EC1BF0CCEC1CF00001CB13
:1047FF0051CF25D96EDA6ADF500F0B91EC1BF0CC3D
:10480F00EC1CF00001CF2BCC51CF5DE4E386EF1A07
:10481F00F0326E2E5005E03250020DF3500F0F04A0
:10482F00D03250020DF350600FD96EDA6ADECF33FB
:10483F00F0DDCF34F03350341003E12E6A2F6A12BB
:10484F000020EE02F03350D9263450DA222FC0DE8A
:10485F00FF30C0DDFF20EE01F03350D9263450DA9F
:10486F002231C0DFFF33C0D9FF34C0DAFF400EDF83
:10487F001633C0D9FF34C0DAFF000EDB8633C0D940
:10488F00FF34C0DAFFDB8E2E5005E03250020DF3FD
:10489F00500F0F04D03250020DF350600FD96EDA63
:1048AF006A040EDF1A33C02EF034C02FF0040C044C
:1048BF00013039E832030B2AE012000C8E080E008B
:1048CF00018A6F080C2C0E096E0A6A0C80010E0DFE
:1048DF006E0C8E010C3451C60F4A6E4AC009F00A95
:1048EF006A0C80010E0D6E0C8E010C0C8E3451C6AD
:1048FF000FD96EDA6A32C4DFFF12003C6A020E3B38
:10490F006E3D6A3E6A406A3F6A11EF1EF0315102F6
:10491F00E1EDEF21F0010A02E1DFEF2EF0020A02D2
:10492F00E1DFEF2EF0060AC9E0030A02E15BEF2C8C
:10493F00F0010AE3E00F0AC6E0010A02E1FEEF24EC
:10494F00F0030AC8E0010AD1E0070A1200CC6F0099
:10495F0001C85105E0CC51020DF3500F0F04D0CC1C
:10496F0051020DF350600FD96EDA6ADECFCDF0DD54
:10497F00CFCEF0CD51CE1103E1C86BC96B12002021
:10498F00EE02F0CD51D926CE51DA22C9C0DEFFCAD0
:10499F00C0DDFF20EE01F0CD51D926CE51DA22CB6A
:1049AF00C0DFFFCDC0D9FFCEC0DAFF400EDF16CD7E
:1049BF00C0D9FFCEC0DAFF000EDB86CDC0D9FFCE47
:1049CF00C0DAFFDB8EC85105E0CC51020DF3500F5A
:1049DF000F04D0CC51020DF350600FD96EDA6A0478
:1049EF000EDF1ACDC0C8F0CEC0C9F0040C0C8E6B10
:1049FF000E2E6E0F0E2F6E316A306A336A020E3230
:104A0F006E08EC1CF02E6A040E2F6E316A306A337A
:104A1F006A300E326E08EC1CF0608C436A43506AA9
:104A2F000FD96EDA6ADF6A43506D0FD96EDA6ADF1B
:104A3F006A432A020E4364F2D7C60E2E6E2F6A31D6
:104A4F006A306A336A020E326E08EC1CF0609C0802
:104A5F000E0F6E040E106E000E156E040E166E15F0
:104A6F00C017F016C018F032C42CF02C5004E1100F
:104A7F000E00018A6F100C3C6A010E3B6E2C0E3D2E
:104A8F006E3E6A406A010E3F6E11EC1EF0200E0062
:104A9F00018A6F200C010EDB6FF40EDA6FDC6BF9FD
:104AAF00EC1AF0030ED56F7E0ED66FD76BD86B65F1
:104ABF00EC20F082A002D082B20BD0A30E0001D561
:104ACF006F7E0ED66FD76B030ED86F65EC20F0306C
:104ADF00D02A0E0001D56F7E0ED66FD76B010ED880
:104AEF006F65EC20F025D082B00CD0100ED56F7E04
:104AFF000ED66FD76B020ED86F65EC20F0080E0044
:104B0F0001DC2782B20CD01D0ED56F7E0ED66FD76B
:104B1F006B030ED86F65EC20F0800E0001DC278848
:104B2F000EDC1901E11200C96B0A0EC86FCCEC1B29
:104B3F00F00001DA07D8A0DB07DA29D5E1DB29D3AA
:104B4F00E112002D0E1F6E2DC04BF0FD0E4B164BBC
:104B5F00E1D8902D303F0B040D000EF324156E0499
:104B6F000EF420166E15C017F016C018F0040E17AD
:104B7F001A15C0D9FF16C0DAFFDF30E8320F0B0D60
:104B8F000A02E0A6EF1EF04D6A20EE02F01550D992
:104B9F00261650DA22DECF4BF0DDCF4CF04BC0D9CA
:104BAF00FF4CC0DAFF300E4D24E16EE26A040EE2D4
:104BBF0022DFCFE7FF20EE02F01550D9261650DA8C
:104BCF0022DE2A000EDD224D2A070E4D64DDD7208E
:104BDF00EE02F01550D9261650DA22300EDE6E0492
:104BEF000EDD6EA5EF1FF02D50FD0B040AD8B47724
:104BFF00EC27F012001F0E8A651F0C60B21F0C1BF2
:104C0F00500EE1400ECF6F010ED06F400ED16F7E70
:104C1F00EC23F0196E195003E0010E1B6E1C6A1B7A
:104C2F005010E0ACA20ED0400E1C24D96EDA6A01EF
:104C3F000EDA22DF50CCEC1CF01C2A19501C180184
:104C4F00E11B6A23501CE053EC1AF0000918E03FF7
:104C5F000E1A6015D000F0B5EC1CF0D56F400E1A8F
:104C6F0024D96EDA6A010EDA22D5C0DFFF1A2A4084
:104C7F000E1A24D96EDA6A010EDA22DF6A2A6A2046
:104C8F005002E0DBEF2BF01A5002E1DBEF2BF0408C
:104C9F000E0001C86F010EC96F1AC0CAF005EC1BD8
:104CAF00F002EC08F01A6ADBEF2BF0F9EC1AF07E49
:104CBF000ED56F7F0ED66FD76BD86B65EC20F0A734
:104CCF000E0001D56F7F0ED66FD76B010ED86F65B3
:104CDF00EC20F00E0E0001CB6F010ECC6F430E3B9C
:104CEF00EC21F0AF0ED56F7F0ED66FD76B020ED8BB
:104CFF006F65EC20F00001E96BC96B320EC86FCC09
:104D0F00EC1BF0020E71EC1DF0C8C0E6F0C9C0E755
:104D1F00F0E6516FEC1BF0E86FC96B320EC86FCC29
:104D2F00EC1BF0030E71EC1DF0C8C0E4F0C9C0E538
:104D3F00F00A0EDA6F010EDB6FE85178EC1FF0E42A
:104D4F00C0DAF0E5C0DBF00A0E0001DC6F020EDD09
:104D5F006FE2EC2AF00001E92B310EE965CDD73176
:104D6F000C00018B51D8A41200010E8B6F8C51D8FF
:104D7F00A41200010E8C6F020E211814E120EE0117
:104D8F00F00F50D9261050DA22DF6A0FC0D9FF106A
:104D9F00C0DAFF480EDF6E0FC0D9FF10C0DAFF0078
:104DAF000EDB8E000C2104D8A41200866B20EE01BE
:104DBF00F01550D9261650DA22080EDF6E20EE02BB
:104DCF00F01550D9261650DA22300EDE6E040EDDA5
:104DDF006E15C0D9FF16C0DAFFDF6E15C0D9FF16EA
:104DEF00C0DAFF000EDB8E010E866F20EE01F0178A
:104DFF0050D9261850DA22080EDF6E20EE02F01777
:104E0F0050D9261850DA22300EDE6E040EDD6E17E2
:104E1F00C0D9FF18C0DAFF800EDF6E800C080E2E8F
:104E2F006E0E500DE1080E0D5C0AE20DC02EF02B38
:104E3F005002E1010E03D02B0402E1020E2B6E2E65
:104E4F00500D5E000E0E5A20EE01F00F50D92610B5
:104E5F0050DA222EC0DFFF380E00017C6F040E7D6A
:104E6F006F0CB03AD01BD009C0F6FF0AC0F7FFF89D
:104E7F006A7CC0D9FF7DC0DAFF070EF76403D00844
:104E8F0000F55005D0F6CFE1FFF7CFE2FFE750DF97
:104E9F006E094A0A2A00017C4B7D2B2E062E50E309
:104EAF00E1120009C0F6FF0AC0F7FFF86A7CC0D90B
:104EBF00FF7DC0DAFF070EF76403D00800F5500539
:104ECF00D0F6CFE1FFF7CFE2FFE750DF6E094A0AD6
:104EDF002A00017C4B7D2B2E062E50E3E112000F92
:104EEF00C0D9FF10C0DAFF000EDFBC010E3F6E0409
:104EFF000E0F1A080E8A190AE1040132517F0B6353
:104F0F006E6350100ED8B4040E00018A6F2104385E
:104F1F00E120EE02F00F50D9261050DA22380EDEC3
:104F2F006E040EDD6E16EC27F0020E2B180DE10F3E
:104F3F00C0D9FF10C0DAFF040EDF6E0FC0D9FF100B
:104F4F00C0DAFF000EDB8E000C3F500DE10FC0D911
:104F5F00FF10C0DAFF480EDF6E0FC0D9FF10C0DAA6
:104F6F00FF000EDB8E000C0FC0D9FF10C0DAFF0858
:104F7F000EDF6E0FC0D9FF10C0DAFF000EDB8E0000
:104F8F000C04AE12D0075008100EE020EE07F0010F
:104F9F00D80AD00500FA6EDE50FD6EDE50FE6EF8B8
:104FAF0050FF6EFA501200049E216A12004EEC1B45
:104FBF00F080EC1BF047EC28F089EC1CF0F28CF23F
:104FCF008E010EC96F2C0EC86FCCEC1BF033EC208A
:104FDF00F0010EC96F2C0EC86FCCEC1BF0000EC584
:104FEF00EC1AF00001966F550E961907E038EC1D7C
:104FFF00F0550EC86F000E54EC1DF00001956B00BC
:10500F000E64EC1AF0F9EC1AF02D0ED56F7D0ED65A
:10501F006FD76BD86B65EC20F01E0E0001D56F7D3E
:10502F000ED66FD76B010ED86F65EC20F00F0E0008
:10503F0001D56F7D0ED66FD76B030ED86F65EC2041
:10504F00F0020E0001C96FBC0EC86FCCEC1BF01143
:10505F00D0FFD776EC21F0010E0001956F60EC1AAE
:10506F00F008D0EFEC2DF0040A04E1956B000E640C
:10507F00EC1AF000019551EDE0010AF3E0E9D7A336
:10508F0094676A656A6A6A6B0EC86F0F0EC96FCB39
:10509F006BCA6BCD6B020ECC6F1DEC1CF0160E6243
:1050AF006E9F0E666E7B0E646ED06BD051040D003A
:1050BF000EF324D96E040EF420DA6EDE6ADE6ADE99
:1050CF006ADD6AD02B0B0ED065F0D7608C636A60F7
:1050DF0098609C05D065960C6A046A056A066A6535
:1050EF00B6F9D7010E8B6F8C6F886B896B876BD07E
:1050FF006BD051020DF3500F0FD96EDA6ADE6ADDF5
:10510F006AD051020DF350600FD96EDA6ADE6ADD94
:10511F006AD0516A0FD96EDA6ADF6AD0516D0FD932
:10512F006EDA6ADF6AD02B020ED065E2D7080E0F57
:10513F006E040E106E160E6A6E040E0401036F30AD
:10514F000E026F080E016F040E006F008F2C6A00A5
:10515F00018A6B1200A394676A656A6A6A6B0E2EE6
:10516F006E0F0E2F6E316A306A336A020E326E087E
:10517F00EC1CF0160E626E9F0E666E7B0E646E3622
:10518F006A3650040D000EF324D96E040EF420DAA3
:10519F006EDE6ADE6ADE6ADD6A362A0B0E3664F070
:1051AF00D7608C636A6098609C05D065960C6A0422
:1051BF006A056A066A65B6F9D7010E00018B6F8C16
:1051CF006F886B896B876B366A3650020DF3500F01
:1051DF000FD96EDA6ADE6ADD6A3650020DF350605F
:1051EF000FD96EDA6ADE6ADD6A36506A0FD96EDA67
:1051FF006ADF6A36506D0FD96EDA6ADF6A362A02B5
:10520F000E3664E2D7080E0F6E040E106E160E6A7D
:10521F006E040E0401036F300E026F080E016F044F
:10522F000E006F008F2C6A00018A6B12008A888A29
:10523F008A8A84500EE82EFED78A94040E0001CA83
:10524F006F1C0EE82EFED7CA2FFCD700D08A848A97
:10525F0098040E0001CA6F1C0EE82EFED7CA2FFC51
:10526F00D700D08A9A040E0001CA6F1C0EE82EFEDA
:10527F00D7CA2FFCD700D0AE0E7AEC1AF0D50E7A23
:10528F00EC1AF0800E7AEC1AF0A80E7AEC1AF01FD6
:10529F000E7AEC1AF0D30E7AEC1AF0000E7AEC1AA2
:1052AF00F08D0E7AEC1AF0140E7AEC1AF0400E7A9A
:1052BF00EC1AF0A60E7AEC1AF0A40E7AEC1AF0A003
:1052CF000E7AEC1AF0C00E7AEC1AF0DA0E7AEC1AAB
:1052DF00F0420E7AEC1AF0810E7AEC1AF07F0E7A09
:1052EF00EC1AF0D90E7AEC1AF0F10E7AEC1AF0DB18
:1052FF000E7AEC1AF0400E7AEC1AF0AF0E7AEC1A26
:10530F00F08A881200844B852B84C0C8F085C0C9F1
:10531F00F0CB6B0A0ECA6FADEC1DF0C851C911D896
:10532F00A412008F8384C0C8F085C0C9F0CB6B6412
:10533F000ECA6FADEC1DF0C851C911D8A412008F61
:10534F008584C0C8F085C0C9F0030ECB6FE80ECAC4
:10535F006FADEC1DF0C851C911D8A412008F87840E
:10536F00C0C8F085C0C9F0EA0ECB6F600ECA6FAD32
:10537F00EC1DF0C851C911D8A41200824B832B8F9A
:10538F008982C0C8F083C0C9F0CB6B3C0ECA6FAD29
:10539F00EC1DF0C851C911D8A412008F8B82C0C860
:1053AF00F083C0C9F0020ECB6FD00ECA6FADEC1DEB
:1053BF00F0C851C911D8A412008F8D82C0C8F083D4
:1053CF00C0C9F0050ECB6FA00ECA6FADEC1DF0C8B3
:1053DF0051C911D8A412008F8F846B856B826B8398
:1053EF006B120060980CBE37D004AE0AD0020E21AB
:1053FF006E0001895102E137EC23F08C6B8B6B123D
:10540F000020EE01F01750D9261850DA22080EDFCF
:10541F006E20EE02F01750D9261850DA22300EDE29
:10542F006E040EDD6E17C0D9FF18C0DAFF0C0EDF49
:10543F006E17C0D9FF18C0DAFF000EDB8E0FC0D970
:10544F00FF10C0DAFF040EDF6E0FC0D9FF10C0DAF5
:10545F00FF000EDB8E000C040130AF0ED0010E21C9
:10546F006E0001885102E137EC23F08C6B8B6B1EC1
:10547F0050D8A41200B8EF26F0020E216E20EE01D4
:10548F00F01750D9261850DA22080EDF6E20EE02E0
:10549F00F01750D9261850DA22300EDE6E040EDDCA
:1054AF006E17C0D9FF18C0DAFFDF6E17C0D9FF180B
:1054BF00C0DAFF000EDB8E00018C6B8B6B1E50026F
:1054CF00E1B8EF26F012000001C96B640EC86FCC73
:1054DF00EC1BF08E510DE0000EC96F7D0ECA6F32BE
:1054EF00EC1CF00001C96B640EC86FCCEC1BF03FD5
:1054FF00D01C0EC96F7C0ECA6F32EC1CF0F2D78E27
:10550F000EC96F7D0ECA6F32EC1CF041D09B0EC9D5
:10551F006F7D0ECA6F32EC1CF03AD0A80EC96F7DAA
:10552F000ECA6F32EC1CF033D0B50EC96F7D0ECAA8
:10553F006F32EC1CF02CD0C20EC96F7D0ECA6F32C9
:10554F00EC1CF025D0CF0EC96F7D0ECA6F32EC1C4C
:10555F00F01ED0DC0EC96F7D0ECA6F32EC1CF01737
:10556F00D0E90EC96F7D0ECA6F32EC1CF010D0F768
:10557F0051C6E0010ACBE0030AD0E0010AD5E007EB
:10558F000ADAE0010ADFE0030AE4E0010AE9E000D9
:10559F0001C96B640EC86FCCEC1BF0480EC96F7F4E
:1055AF000ECA6F32EC1CF0010E0001C96F2C0EC831
:1055BF006FCCEF1BF0DAC0C8F0DBC0C9F0CB6B0AC1
:1055CF000ECA6FADEC1DF0C851300FE26FDAC0C8D4
:1055DF00F0DBC0C9F0CB6B0A0ECA6F36EC1EF0C8F9
:1055EF00C0DAF0C9C0DBF0DAC0C8F0DBC0C9F0CB5D
:1055FF006B0A0ECA6FADEC1DF0C851300FE16FDAB8
:10560F00C0C8F0DBC0C9F0CB6B0A0ECA6F36EC1EF8
:10561F00F0C8C0DAF0C9C0DBF0DAC0C8F0DBC0C92F
:10562F00F0CB6B0A0ECA6FADEC1DF0C851300FE016
:10563F006FDAC0C8F0DBC0C9F0CB6B0A0ECA6F3689
:10564F00EC1EF0C8C0DAF0C9C0DBF0DAC0C8F0DB7E
:10565F00C0C9F0CB6B0A0ECA6FADEC1DF0C851304C
:10566F000FDF6FDAC0C8F0DBC0C9F0CB6B0A0ECA10
:10567F006F36EC1EF0C8C0DAF0C9C0DBF0DAC0C874
:10568F00F0DBC0C9F0CB6B0A0ECA6FADEC1DF0C8D2
:10569F0051300FDE6FE36BDE0ED56FD66BDCC0D7EC
:1056AF00F0DDC0D8F065EF20F000018A0507E1605A
:1056BF00BA05D0656A64806488020E8A6F65B46427
:1056CF00A403D065945EEC1BF060A202D0A49412E8
:1056DF000065B064A006D0B2EC28F0A384040E8A53
:1056EF006F659065B864A803D021EC1BF0659865D1
:1056FF00AC14D064AC0AD03C6A730E3B6E3D6A3E6C
:10570F006A406A010E3F6E11EC1EF0659C1F50013E
:10571F00E01F061F5002E1B8EC26F065BA64AA023A
:10572F00D08EEC1DF065B264A20BD07F0E3C6E3BA9
:10573F00683D6A3E6A406A010E3F6E11EC1EF067CB
:10574F006A040E00018A6102D0A494040C64A62995
:10575F00D04E6A65A626D061CF2DF02D30E832E805
:10576F00320F0B226E65962DB403D022506D0F02AF
:10577F00D022506A0FD96EDA6A0001DF702250030F
:10578F00E1A9EC25F00AD03C6A720E3B6E2D0E3D5E
:10579F006E3E6A406A3F6A11EC1EF04E2A030E4EAF
:1057AF0064D8D7A4941200A39400017651771109FD
:1057BF00E076C0D9FF77C0DAFF010EDFAE000ECF63
:1057CF006F01D0CF6BD06BCF51D01102E0A38412F9
:1057DF0000030E201801E1206A205002E1A3841279
:1057EF0000020E201810E1010EC86F000EC96FCA1B
:1057FF006FCB6F020EAEEC24F0C8C076F0C9C07745
:10580F00F0030E206E4ED020044CE1400E92650244
:10581F00D0D26F02D092C0D2F0D251925F000E70F0
:10582F006F050E716FD2C0D1F0905110E021D0737F
:10583F00C0D9FF74C0DAFF70C0E1FF71C0E2FFDFB3
:10584F00CFE7FF704B712B734B742BD107D15112D4
:10585F00E0EED773C0D9FF74C0DAFF70C0E1FF71FB
:10586F00C0E2FFDFCFE7FF704B712B734B742BD16F
:10587F0007D151EFE1925106E1400ED219020ED835
:10588F00A4030E206E010EC86F000EC96F050ECA5D
:10589F006FD2C0CBF0020EAEEC24F0C8C076F0C9C8
:1058AF00C077F0A3841200800E04013019D8A4121F
:1058BF0000C00E0C6E71D0F40E096E790E0A6E0ECA
:1058CF006A120E0D6E120C32513DE13251020D472C
:1058DF000EF324F66E760EF420F76E0900F5CF095D
:1058EF00F00A00F5CF0AF0020E09242E6E000E0A00
:1058FF00202F6E2EC0F6FF2FC0F7FFF86A070EF7A6
:10590F006403D00800F55005D0F6CFE1FFF7CFE2E2
:10591F00FFE7500D6E030E09242E6E000E0A202F86
:10592F006E2EC0F6FF2FC0F7FFF86A070EF764035D
:10593F00D00800F55005D0F6CFE1FFF7CFE2FFE733
:10594F00500E6E12000C6A1200030E326121D0321B
:10595F0051020D410EF324F66E760EF420F76E0908
:10596F0000F5CF09F00A00F5CF0AF009C0F6FF0ADB
:10597F00C0F7FFF86A070EF76403D00800F550056B
:10598F00D0F6CFE1FFF7CFE2FFE7500D6E0E6A12B0
:10599F00000C6A12000C6A12003351010A8CE003EA
:1059AF000A92E0010AD1E0F6D7D151A20FD96EDAEF
:1059BF006ACFC0C8F0D0C0C9F0CB6B0A0ECA6FADAA
:1059CF00EC1DF0C851300FDF6ECFC0C8F0D0C0C98A
:1059DF00F0CB6B0A0ECA6F36EC1EF0C8C0CFF0C901
:1059EF00C0D0F0D151A10FD96EDA6ACFC0C8F0D0B4
:1059FF00C0C9F0CB6B0A0ECA6FADEC1DF0C85130A9
:105A0F000FDF6ECFC0C8F0D0C0C9F0CB6B0A0ECA83
:105A1F006F36EC1EF0C8C0CFF0C9C0D0F0D151A086
:105A2F000FD96EDA6ACFC0C8F0D0C0C9F0CB6B0AFD
:105A3F000ECA6FADEC1DF0C851300FDF6ECFC0C86E
:105A4F00F0D0C0C9F0CB6B0A0ECA6F36EC1EF0C88F
:105A5F00C0CFF0C9C0D0F0D1519F0FD96EDA6ACF45
:105A6F00C0C8F0D0C0C9F0CB6B0A0ECA6FADEC1D29
:105A7F00F0C851300FDF6ECFC0C8F0D0C0C9F0CB27
:105A8F006B0A0ECA6F36EC1EF0C8C0CFF0C9C0D07B
:105A9F00F0D1519E0FD96EDA6ACFC0C8F0D0C0C90D
:105AAF00F0CB6B0A0ECA6FADEC1DF0C851300FDF93
:105ABF006E120020EE01F01550D9261650DA22DFB3
:105ACF0050406E4050055C000E065802E205C04083
:105ADF00F04050055E000E065A3F6A0DD0380E3F5B
:105AEF0024D96EDA6A040EDA220150E16EE26ADF1F
:105AFF00CFE7FF012A3F2A40503F5CF0E3055006F5
:105B0F001032E020EE01F01750D9261850DA220893
:105B1F000EDF6E20EE02F01750D9261850DA223819
:105B2F000EDE6E040EDD6E15C0D9FF16C0DAFFDF74
:105B3F00BC0DD017C0D9FF18C0DAFF480EDF6E17A3
:105B4F00C0D9FF18C0DAFF000EDB8E000C17C0D9CA
:105B5F00FF18C0DAFF080EDF6E17C0D9FF18C0DAC2
:105B6F00FF000EDB8E000C20EE01F01750D9261827
:105B7F0050DA22080EDF6E20EE02F01750D92618E9
:105B8F0050DA22300EDE6E040EDD6E17C0D9FF180C
:105B9F00C0DAFFDF6E17C0D9FF18C0DAFF000EDBC7
:105BAF008E075008100EE020EE07F001D80AD0053E
:105BBF0000FA6EDE50FD6EDE50FE6EF850FF6EFA8C
:105BCF00501200049E1E50D8B4B8EC26F0120001FB
:105BDF0001D86BD96BDC6B80A003D0040E0001F8E9
:105BEF006F00018FA107D055EC1AF08AEC29F08FC6
:105BFF005193EC1AF080EC1EF00101DD6FDD05060C
:105C0F00E10001996B010E0101D96F08D0020EDD81
:105C1F001905E10001996B010E0101DC6F5BEC1EB0
:105C2F00F0000904E0010E0101E06F02D00101E074
:105C3F006B060E0001981903E0020E981946E10455
:105C4F000E946543D00101DA6BDB6B0001C96B0A5F
:105C5F000EC86FCCEC1BF0200E0101DE6F030E712E
:105C6F00EC1DF07A51C8277B51C923D890C931F365
:105C7F006FC8317A6FF3C07BF00101DE07DE51EEA2
:105C8F00E10001C96B0A0EC86FCCEC1BF0200E01AE
:105C9F0001DF6F020E71EC1DF00101DA510001C836
:105CAF00270101DB510001C923D890C931F36FC817
:105CBF00310101DA6FF3C0DBF1DF07DF51EAE1DA1F
:105CCF00516FEC1BF07E6F7F6B946B995164E00901
:105CDF000E996561D0010E0101D86F0001996B5BC0
:105CEF00D0FFD7F9EC1AF0050ED56F7F0ED66F01E6
:105CFF000ED76FD86B65EC20F0510E0001D56F7F7A
:105D0F000ED66F020ED76F010ED86F65EC20F054D0
:105D1F000E0001D56F7B0ED66FD76B030ED86F6554
:105D2F00EC20F000018D6B020E29D0DCC1DAF001FE
:105D3F0001E051D9EC2FF0000937E0F9EC1AF0A986
:105D4F000ED56F7B0ED66FD76BD86B65EC20F0BA84
:105D5F000E0001D56F7B0ED66FD76B020ED86F6515
:105D6F00EC20F0100E0001D56F7B0ED66FD76B03B2
:105D7F000ED86F65EC20F00001986B030EF86F14CE
:105D8F00D0DCC1E4F0E0C1E5F0D8C1E6F00101D903
:105D9F005166EC32F009D0F851010AA3E0030AC5AD
:105DAF00E0010AEEE0070A9CE10001F8511200043D
:105DBF000132050BE130511F0B08E10C8E030E3140
:105DCF001903E1010E1D6E01D01D6A3251D8A412C4
:105DDF000030511F0B020AD8A4120034510F0BD8F8
:105DEF00B4120034510F0B436E030E4360030C20AB
:105DFF000E00018A19D8A412000C8E040134BF11B1
:105E0F00D034510F0B020DF350600FD96EDA6ADEEA
:105E1F00CF48F0DDCF49F034510F0B436E43506D37
:105E2F000F10D034510F0B020DF3500F0FD96EDA44
:105E3F006ADECF48F0DDCF49F034510F0B436E438C
:105E4F00506A0FD96EDA6ADF50476E47B002D048FA
:105E5F009401D0488434BF06D034510F0B020DF398
:105E6F0050600F05D034510F0B020DF3500F0FD9A7
:105E7F006EDA6A48C0DEFF49C0DDFF030E31192319
:105E8F00E148C0D9FF49C0DAFFDFAE11D034BF06F9
:105E9F00D034510F0B436E43506D0F05D034510F5B
:105EAF000B436E43506A0FD96EDA6A0001DF8248E6
:105EBF00C0D9FF49C0DAFF000EDB8448C0D9FF49C3
:105ECF00C0DAFFDB8E000C040E481A48C0D9FF4918
:105EDF00C0DAFFDFAE19D048C0D9FF49C0DAFF7F63
:105EEF000EDF1648C0D9FF49C0DAFF000EDB8C3C2D
:105EFF006A050E3B6E48C03DF049C03EF0406A0255
:105F0F000E3F6E11EC1EF006D048C0D9FF49C0DA23
:105F1F00FF000EDB8C040E481A47B206D048C0D9DA
:105F2F00FF49C0DAFFDFAE25D0040134BF06D034FD
:105F3F00510F0B436E43506D0F05D034510F0B4370
:105F4F006E43506A0FD96EDA6A0001DF9248C0D9EA
:105F5F00FF49C0DAFF3B0EDF163C6A050E3B6E4869
:105F6F00C03DF049C03EF0406A020E3F6E11EC1E7C
:105F7F00F006D048C0D9FF49C0DAFF3B0EDF160448
:105F8F000134510F0B436E446A6A0E4324456E0F62
:105F9F000E4420466E45C0D9FF46C0DAFFFE0EDF25
:105FAF0016FE0C0001DD6FDB6BDA5101E160D20CE4
:105FBF000E8D6F82A2FED75BD2FFD78B0EC96F7E7D
:105FCF000ECA6F32EC1CF00001C96B320EC86FCCD9
:105FDF00EC1BF0010E20D0DD5101E16DD2800EC817
:105FEF006F010EC96FEF0ECA6F7F0ECB6FCD6B02B5
:105FFF000ECC6F98EC20F0C851C9110FE1F60EC905
:10600F006F7D0ECA6F32EC1CF00001C96B320EC8E7
:10601F006FCCEC1BF0020E00010ED200018D6B4B0A
:10602F00D2DD5101E148D2800EC86F010EC96FF267
:10603F000ECA6F7F0ECB6F6DEC22F0C851C91102E3
:10604F00E1030EF9D1800EC86F010EC96F660ECA3B
:10605F006F7D0ECB6F6DEC22F0C851C91141E1F984
:10606F00EC1AF05A0ED56F7F0ED66F010ED76FD880
:10607F006B65EC20F09F0E0001D56F7F0ED66F027F
:10608F000ED76F010ED86F65EC20F0010E0001C91D
:10609F006FF40EC86FCCEC1BF0F9EC1AF0730ED541
:1060AF006F7E0ED66F010ED76FD86B65EC20F01494
:1060BF000E0001D56F7F0ED66F020ED76F010ED86F
:1060CF006F65EC20F00001C96BC80EC86FCCEC1BDC
:1060DF00F04A0EC96F7D0ECA6F32EC1CF0040E9B96
:1060EF00D7F60EC96F7D0ECA6F32EC1CF093D7DD59
:1060FF005101E1E1D1800EC86F010EC96F3F0ECA89
:10610F006F7F0ECB6F6DEC22F0C851C9111CE1F9F6
:10611F00EC1AF0FB0ED56F7E0ED66FD76BD86B6572
:10612F00EC20F0C50E0001D56F7E0ED66FD76B0138
:10613F000ED86F65EC20F00001C96BFA0EC86FCC5A
:10614F00EC1BF0060E78D1800EC86F010EC96FCC14
:10615F000ECA6F7F0ECB6F6DEC22F0C851C91107BD
:10616F00E1F60EC96F7D0ECA6F32EC1CF053D719D2
:10617F000EC96F7F0ECA6F32EC1CF02BD7DD5101A9
:10618F00E19AD1800EC86F010EC96FF20ECA6F7FF0
:10619F000ECB6F6DEC22F0C851C91102E1050E4B09
:1061AF00D1800EC86F010EC96F660ECA6F7D0ECB00
:1061BF006F6DEC22F0C851C91116E1F9EC1AF0DB42
:1061CF000ED56F7E0ED66FD76BD86B65EC20F03681
:1061DF000E0001D56F7F0ED66FD76B010ED86F658E
:1061EF00EC20F00B0E18D7800EC86F010EC96F5838
:1061FF000ECA6F7D0ECB6F6DEC22F0C851C911071F
:10620F00E14A0EC96F7D0ECA6F32EC1CF003D780C6
:10621F000EC86F010EC96FBA0ECA6F7E0ECB6F6DAF
:10622F00EC22F0C851C91101E1F8D645D1DD510179
:10623F00E142D1800EC86F010EC96F3F0ECA6F7F4A
:10624F000ECB6F6DEC22F0C851C9111CE1F9EC1A9D
:10625F00F0AF0ED56F7E0ED66FD76BD86B65EC2077
:10626F00F0C50E0001D56F7E0ED66FD76B010ED81D
:10627F006F65EC20F0010E0001C96FF40EC86FCCF2
:10628F00EC1BF05FD7800EC86F010EC96FCC0ECA22
:10629F006F7F0ECB6F6DEC22F0C851C91124E1F95D
:1062AF00EC1AF00F0ED56F7F0ED66F010ED76FD889
:1062BF006B65EC20F0C50E0001D56F7F0ED66F0217
:1062CF000ED76F010ED86F65EC20F04A0E0001C992
:1062DF006F7D0ECA6F32EC1CF00001C96B640EC8E3
:1062EF006FCCEC1BF0FBD6800EC86F010EC96FBAD6
:1062FF000ECA6F7E0ECB6F6DEC22F0C851C9110123
:10630F00E0DAD0F9EC1AF08F0ED56F7F0ED66F0151
:10631F000ED76FD86B65EC20F0970E0001D56F7F0D
:10632F000ED66F020ED76F010ED86F65EC20F07589
:10633F00D67F0EC96F7E0ECA6F32EC1CF00001C9FA
:10634F006B640EC86FCCEC1BF0080E75D0DD5101DD
:10635F00E1B2D0800EC86F010EC96F0C0ECA6F7DEF
:10636F000ECB6FCD6B020ECC6F98EC20F0C851C9DD
:10637F00110CE1010E68EC1AF0D00E0001C96F7E0E
:10638F000ECA6F32EC1CF0070E46D6800EC86F0196
:10639F000EC96F280ECA6F7C0ECB6FCD6B020ECC61
:1063AF006F98EC20F0C851C91101E0CBD6000E68F0
:1063BF00EC1AF0D00E0001C96F7E0ECA6F32EC1CC2
:1063CF00F0E2D7DD5178E0800EC86F010EC96F582B
:1063DF000ECA6F7D0ECB6F6DEC22F0C851C911073D
:1063EF00E1D00EC96F7E0ECA6F32EC1CF0CCD70114
:1063FF00018051D00F0001DC6F060EDC6502D00268
:10640F000EDC6FDC516CEC1AF06BEC2AF0090E13FA
:10641F00D0DD5151E0800EC86F010EC96FF20ECA68
:10642F006F7F0ECB6FCD6B020ECC6F98EC20F0C848
:10643F0051C91103E10A0E8D6F3ED0D00EC96F7E88
:10644F000ECA6F32EC1CF09FD7010EDB6F34D000F9
:10645F000EC86B54EC1DF082B002D082A2FCD700A4
:10646F0001C96B280EC86FCCEC1BF0FF0024D000C5
:10647F00018D5101E1A2D5010A01E1ADD5030A0158
:10648F00E1CFD5010A01E133D6070A01E177D60141
:10649F000A01E1CCD6030A01E14BD7010A92E00FC2
:1064AF000A01E154D7010AB4E0030ACEE0010A035E
:1064BF00E0070ACDE081D50001DB5112000001F2A7
:1064CF006FE65102E1F6EF3AF0F95102E1F6EF3AD9
:1064DF00F0200E9A65D8D0E96BEA6BC96B0A0EC82B
:1064EF006FCCEC1BF0200EEB6FEB5110E0030E7135
:1064FF00EC1DF07A51C8277B51C923D890C931E7D9
:10650F006FC8317A6FE7C07BF0EB07EED7C96B0A24
:10651F000EC86FCCEC1BF0200EEC6FEC5110E002AC
:10652F000E71EC1DF0E951C827EA51C923D890C963
:10653F0031E76FC831E96FE7C0EAF0EC07EED7E952
:10654F00516FEC1BF07E6F7F6B9A6BF9EC1AF06555
:10655F000ED56F7B0ED66FD76BD86B65EC20F043E3
:10656F000E0001D56F7E0ED66FD76B010ED86F65FB
:10657F00EC20F00A0E0001DA6F010EDB6F975178F5
:10658F00EC1FF0810E0001D56F7D0ED66FD76B0219
:10659F000ED86F65EC20F07AC0DAF07BC0DBF00329
:1065AF000E0001DC6F020EDD6FE2EC2AF00C0E0024
:1065BF0001DA6F020EDB6F7E5178EC1FF0FC0E00DC
:1065CF0001D56F7B0ED66FD76B030ED86F65EC209E
:1065DF00F0CCEC1DF070EC1AF0976F975103E105BA
:1065EF000E976F05D0DF0E976502D0CE0E9727CC92
:1065FF006B975103EC20F0200EA16F7AC0CFF07B88
:10660F00C0D0F0040ED16FDCEC2CF0090ECC6F7EF5
:10661F005103EC20F000F000019B2B030E9B65173C
:10662F00D09B6BF90ED56F7F0ED66F0F0ED76F0104
:10663F000ED86F65EC20F0670E0001C96F7E0ECA91
:10664F006F9E0ECB6F0C0ECC6FC6EC23F015D0FBEC
:10665F000ED56F7F0ED66F0F0ED76F010ED86F65E9
:10666F00EC20F03C0E0001C96F7D0ECA6F9E0ECB61
:10667F006F0C0ECC6FC6EC23F0070E0001996F085C
:10668F000E986FF6EF3AF09A2B0E0E986F010EE4FC
:10669F006FF6EF3AF0FFD7F25103E1E451D8B4129D
:1066AF0000F9EC1AF0EC0ED56F7B0ED66FD76BD8C6
:1066BF006B65EC20F0DC0E0001D56F7B0ED66FD72B
:1066CF006B010ED86F65EC20F0FC0E0001D56F7BCF
:1066DF000ED66FD76B030ED86F65EC20F0010E004E
:1066EF0001986F010CF25122E0F9EC1AF0CC0ED5A3
:1066FF006F7A0ED66FD76BD86B65EC20F0BB0E00A0
:10670F0001D56F7A0ED66FD76B010ED86F65EC205F
:10671F00F0FC0E0001D56F7B0ED66FD76B030ED832
:10672F006F65EC20F0030E0001986F030CE451D855
:10673F00B41200F9EC1AF0EC0ED56F7B0ED66FD7B2
:10674F006BD86B65EC20F0BE0E0001D56F7F0ED6B7
:10675F006FD76B010ED86F65EC20F0B70E0001D527
:10676F006F7F0ED66FD76B020ED86F65EC20F0F9E6
:10677F000E0001D56F7F0ED66F0C0ED76F020ED89D
:10678F006F65EC20F000017E517F1115E07AC0DAC1
:10679F00F07BC0DBF0060EDC6F010EDD6FE2EC2A42
:1067AF00F07EC0DAF07FC0DBF0060E0001DC6F0276
:1067BF000EDD6FE2EC2AF0020E0001986F020C7AE8
:1067CF00C0DAF07BC0DBF0060EDC6F010EDD6FE28E
:1067DF00EC2AF07EC0DAF07FC0DBF0060E0001DCA1
:1067EF006F020EDD6FE2EC2AF00001F25103E1E4DB
:1067FF0051D8B41200F9EC1AF0EC0ED56F7B0ED60F
:10680F006FD76BD86B65EC20F0DC0E0001D56F7B7A
:10681F000ED66FD76B010ED86F65EC20F0FC0E0013
:10682F0001D56F7B0ED66FD76B030ED86F65EC203B
:10683F00F055D7F25122E0F9EC1AF0FF0ED56F7A2E
:10684F000ED66FD76BD86B65EC20F0320E0001D5EA
:10685F006F7B0ED66FD76B010ED86F65EC20F0FCF7
:10686F000E0001D56F7B0ED66FD76B030ED86F65F9
:10687F00EC20F0060E0001986F060CE451D8B4120C
:10688F0000F9EC1AF0F70ED56F7F0ED66F0F0ED7FB
:10689F006FD86B65EC20F0790E0001D56F7C0ED6AA
:1068AF006FD76BD86B65EC20F0880E0001D56F7C2D
:1068BF000ED66FD76B010ED86F65EC20F0970E00D8
:1068CF0001D56F7C0ED66FD76B020ED86F65EC209B
:1068DF00F0A60E0001D56F7C0ED66FD76B030ED8C6
:1068EF006F65EC20F00001F7510AE1F50ED56F7FCF
:1068FF000ED66F0E0ED76FD86B65EC20F028D0F741
:10690F00050BE1F50ED56F7F0ED66F0E0ED76F010B
:10691F000ED86F65EC20F01BD0020EF7190BE1F5C6
:10692F000ED56F7F0ED66F0E0ED76F020ED86F6516
:10693F00EC20F00DD0030EF7190AE1F50ED56F7F9D
:10694F000ED66F0E0ED76F030ED86F65EC20F004C6
:10695F000E0001986F040CF25101E1C0D2932B0984
:10696F000E93659DD2936B9BD2F9EC1AF0F70ED56F
:10697F006F7F0ED66F0F0ED76FD86B65EC20F07947
:10698F000E0001D56F7C0ED66FD76BD86B65EC20E0
:10699F00F0880E0001D56F7C0ED66FD76B010ED825
:1069AF006F65EC20F0970E0001D56F7C0ED66FD778
:1069BF006B020ED86F65EC20F0A60E0001D56F7C30
:1069CF000ED66FD76B030ED86F65EC20F00001F772
:1069DF005101E114D2F70501E1C2D0020EF71901FE
:1069EF00E1CAD0030E80D0F9EC1AF0F70ED56F7F05
:1069FF000ED66F0F0ED76FD86B65EC20F0880E0098
:106A0F0001D56F7C0ED66FD76BD86B65EC20F097E6
:106A1F000E0001D56F7C0ED66FD76B010ED86F6548
:106A2F00EC20F0A60E0001D56F7C0ED66FD76B024F
:106A3F000ED86F65EC20F0B50E0001D56F7C0ED629
:106A4F006FD76B030ED86F65EC20F00001F70501CF
:106A5F00E1D5D1020EF71901E182D0030EF719012A
:106A6F00E18AD0040E40D0F9EC1AF0F70ED56F7F03
:106A7F000ED66F0F0ED76FD86B65EC20F0970E0008
:106A8F0001D56F7C0ED66FD76BD86B65EC20F0A657
:106A9F000E0001D56F7C0ED66FD76B010ED86F65C8
:106AAF00EC20F0B50E0001D56F7C0ED66FD76B02C0
:106ABF000ED86F65EC20F0C40E0001D56F7C0ED69A
:106ACF006FD76B030ED86F65EC20F0020E0001F745
:106ADF001901E194D1030EF71901E141D0040EF72A
:106AEF001901E149D0050EF7194FD0F9EC1AF0F75B
:106AFF000ED56F7F0ED66F0F0ED76FD86B65EC204C
:106B0F00F0A60E0001D56F7C0ED66FD76BD86B65D4
:106B1F00EC20F0B50E0001D56F7C0ED66FD76B0150
:106B2F000ED86F65EC20F0C40E0001D56F7C0ED629
:106B3F006FD76B020ED86F65EC20F0D30E0001D526
:106B4F006F7C0ED66FD76B030ED86F65EC20F003FA
:106B5F000E0001F71901E152D1040EF71909E1F501
:106B6F000ED56F7F0ED66F0E0ED76F010EBCEF3A9C
:106B7F00F0050EF71907E1F50ED56F7F0ED66F0EE4
:106B8F000ED76F44D0060EAFD7D8A4120080D1F91C
:106B9F00EC1AF0F70ED56F7F0ED66F0F0ED76FD89A
:106BAF006B65EC20F0B50E0001D56F7C0ED66FD75C
:106BBF006BD86B65EC20F0C40E0001D56F7C0ED640
:106BCF006FD76B010ED86F65EC20F0D30E0001D597
:106BDF006F7C0ED66FD76B020ED86F65EC20F0E28C
:106BEF000E0001D56F7C0ED66FD76B030ED86F6575
:106BFF00EC20F0040E0001F71901E100D1050EF7AA
:106C0F001901E1ADD7060EF71904E1B5D7020EBC95
:106C1F00EF3AF0070E68D7F9EC1AF0F70ED56F7F41
:106C2F000ED66F0F0ED76FD86B65EC20F0C40E0029
:106C3F0001D56F7C0ED66FD76BD86B65EC20F0D378
:106C4F000E0001D56F7C0ED66FD76B010ED86F6516
:106C5F00EC20F0E20E0001D56F7C0ED66FD76B02E1
:106C6F000ED86F65EC20F0F10E0001D56F7C0ED6BB
:106C7F006FD76B030ED86F65EC20F0050E0001F790
:106C8F001901E1BCD0060EF71901E169D7070EF71C
:106C9F001901E171D78E51D8B41200F9D0F9EC1A5D
:106CAF00F0F70ED56F7F0ED66F0F0ED76FD86B65BF
:106CBF00EC20F0D30E0001D56F7C0ED66FD76BD8BA
:106CCF006B65EC20F0E20E0001D56F7C0ED66FD70E
:106CDF006B010ED86F65EC20F0F10E0001D56F7CC3
:106CEF000ED66FD76B020ED86F65EC20F04C0E00EE
:106CFF0001D56F7C0ED66FD76B030ED86F65EC2066
:106D0F00F0060E0001F71901E179D0070EF719010E
:106D1F00E126D78E51D8B412002ED7F9EC1AF0F71E
:106D2F000ED56F7F0ED66F0F0ED76FD86B65EC2019
:106D3F00F0E20E0001D56F7C0ED66FD76BD86B6566
:106D4F00EC20F0F10E0001D56F7C0ED66FD76B01E2
:106D5F000ED86F65EC20F04C0E0001D56F7C0ED66F
:106D6F006FD76B020ED86F65EC20F0790E0001D54E
:106D7F006F7C0ED66FD76B030ED86F65EC20F007C4
:106D8F000E0001F71901E13AD08E5101E0E8D6F774
:106D9F0051FBD6F9EC1AF0F70ED56F7F0ED66F0FA9
:106DAF000ED76FD86B65EC20F0F10E0001D56F7C1C
:106DBF000ED66FD76BD86B65EC20F04C0E0001D55B
:106DCF006F7C0ED66FD76B010ED86F65EC20F07904
:106DDF000E0001D56F7C0ED66FD76B020ED86F6584
:106DEF00EC20F0880E0001D56F7C0ED66FD76B03A9
:106DFF000ED86F65EC20F000018E5109E0F50ED52D
:106E0F006F7F0ED66F0E0ED76FD86B65EF20F0F732
:106E1F005101E1B1D6F705B8D6F9EC1AF0F70ED556
:106E2F006F7F0ED66F0F0ED76FD86B65EC20F04CBF
:106E3F000E0001D56F7C0ED66FD76BD86B65EC202B
:106E4F00F0790E0001D56F7C0ED66FD76B010ED87F
:106E5F006F65EC20F0880E0001D56F7C0ED66FD7D2
:106E6F006B020ED86F65EC20F0970E0001D56F7C8A
:106E7F000ED66FD76B030ED86F65EC20F00001F7BD
:106E8F005101E16DD6F70501E176D6020E2CD6F54C
:106E9F000ED56F7F0ED66F0E0ED76F030E65D39381
:106EAF005101E162D5010A01E19ED5030A01E1DB3F
:106EBF00D5010A01E11AD6070A01E169D6010A01D3
:106ECF00E1AAD6030A01E1EAD6010A01E126D70FAA
:106EDF000A01E15FD7010AD8A412009ED7E451D866
:106EEF00B41200090E931921E1F9EC1AF0936BCC4F
:106EFF000ED56F7A0ED66FD76BD86B65EC20F0BBC3
:106F0F000E0001D56F7A0ED66FD76B010ED86F6555
:106F1F00EC20F0FC0E0001D56F7B0ED66FD76B0304
:106F2F000ED86F65EC20F09AEF33F0080E93191B13
:106F3F00E18E510CE0590ED56F7C0ED66F0E0ED729
:106F4F006FD86B65EC20F000018E6B16D0F50ED567
:106F5F006F7F0ED66F0E0ED76FD86B65EC20F001DA
:106F6F000E00018E6F09D0F50ED56F7F0ED66F0E06
:106F7F000ED76FD86B65EC20F0590E0001D56F7CE2
:106F8F000ED66F0E0ED76F010ED86F65EC20F0592D
:106F9F000E0001D56F7C0ED66F0E0ED76F020ED876
:106FAF006F65EC20F0590E0001D56F7C0ED66F0E79
:106FBF000ED76F030ED86F65EC20F000018E51686D
:106FCF00EC1AF0000193516CEC1AF06BEC2AF007FD
:106FDF000E8D6F070CF25122E0F9EC1AF0EE0ED580
:106FEF006F7A0ED66FD76BD86B65EC20F0DD0E0085
:106FFF0001D56F7A0ED66FD76B010ED86F65EC2067
:10700F00F0FC0E0001D56F7B0ED66FD76B030ED839
:10701F006F65EC20F00A0E0001986F0A0CE451D84E
:10702F00B412009A6BF9EC1AF0980ED56F7B0ED64E
:10703F006FD76BD86B65EC20F0740E0001D56F7DA8
:10704F000ED66FD76B010ED86F65EC20F0860E0051
:10705F0001D56F7A0ED66FD76B030ED86F65EC2004
:10706F00F0CCEC1DF070EC1AF0976F975103E1051F
:10707F000E976F05D0DF0E976502D0CE0E97270CB7
:10708F000EDA6F010EDB6F975178EC1FF00001CC19
:10709F006B975103EC20F0200EA16F7AC0CFF07BDD
:1070AF00C0D0F0040ED16FDCEC2CF0090ECC6F7E4B
:1070BF005103EC20F000F0070E0001986F070CF25F
:1070CF00510AE03C0EC96F7D0ECA6F9E0ECB6F0C3E
:1070DF000ECC6FC6EC23F00001E4510AE0670EC935
:1070EF006F7E0ECA6F9E0ECB6F0C0ECC6FC6EC234D
:1070FF00F00001F25103E1E451D8B41200F9EC1A97
:10710F00F05B0ED56F7E0ED66FD76BD86B65EC200C
:10711F00F0810E0001D56F7D0ED66FD76B010ED8A3
:10712F006F65EC20F07AC0DAF07BC0DBF0030E0065
:10713F0001DC6F020EDD6FE2EC2AF00C0E0001DABB
:10714F006F020EDB6F7E5178EC1FF04F0E0001D5F2
:10715F006F7E0ED66FD76B010ED86F65EC20F00CDB
:10716F000E0001DA6F010EDB6F975178EC1FF0897B
:10717F009C080E0001986F080CE55101E1FFD080CB
:10718F000EC86F010EC96FF20ECA6F7F0ECB6F6DF7
:10719F00EC22F0C851C91103E1898C080E986F8059
:1071AF000EC86F010EC96FE10ECA6F7F0ECB6FCD88
:1071BF006B060ECC6F98EC20F0C851C91101E08A14
:1071CF00D0070EF16F800EF125D96EDA6A010EDA53
:1071DF0022DF50C36FF12B800EF125D96EDA6A01D1
:1071EF000EDA22DF50C46FF12B200EC4190DE08090
:1071FF000EF125D96EDA6A010EDA22DF50C56FF172
:10720F002B200EC51901E0F12BEF6B0F0EEF65016F
:10721F00D023D0800EF125D96EDA6A010EDA22DF83
:10722F0050F4EC1BF0ED6FF12B800EF125D96EDAD7
:10723F006A010EDA22DF50F4EC1BF0EE6FF12BC077
:10724F000EEF25D96EDA6A010EDA22ED51100DF329
:10725F0050EE25DF6EEF2BD9D7F12BF12BF06B070B
:10726F000EF06501D021D0800EF125D96EDA6A01BA
:10727F000EDA22DF50F4EC1BF0ED6FF12B800EF1E4
:10728F0025D96EDA6A010EDA22DF50F4EC1BF0EE2C
:10729F006FF12BF051B40FD96EDA6AED51100DF377
:1072AF0050EE25DF6EF02BDBD7898E899C210ED512
:1072BF006F7B0ED66FD76B020ED86F65EC20F0AADE
:1072CF000E0001D56F7A0ED66FD76B030ED86F6590
:1072DF00EC20F04ED0800EC86F010EC96FE80ECAB9
:1072EF006F7F0ECB6FCD6B060ECC6F98EC20F0C876
:1072FF0051C9110BE1899C760ED56F7B0ED66FD7D6
:10730F006B030ED86F65EC20F033D0800EC86F0181
:10731F000EC96FDA0ECA6F7F0ECB6FCD6B060ECC18
:10732F006F98EC20F0C851C9110AE1980ED56F7A09
:10733F000ED66FD76B030ED86F65EC20F019D08087
:10734F000EC86F010EC96FD30ECA6F7F0ECB6FCDF4
:10735F006B060ECC6F98EC20F0C851C91109E12CC7
:10736F000ED56F7C0ED66FD76B030ED86F65EC20E2
:10737F00F00001C96B140EC86FCCEC1BF0F2510377
:10738F00E1E451D8B41200F9EC1AF0FF0ED56F7A80
:10739F000ED66FD76BD86B65EC20F0320E0001D58F
:1073AF006F7B0ED66FD76B010ED86F65EC20F0FC9C
:1073BF000E0001D56F7B0ED66FD76B030ED86F659E
:1073CF00EC20F041EF34F0F2512EE0F9EC1AF043DB
:1073DF000ED56F7B0ED66FD76BD86B65EC20F00098
:1073EF0001F9510AE05B0ED56F7C0ED66FD76B0299
:1073FF000ED86F65EC20F009D06A0ED56F7C0ED6D3
:10740F006FD76B020ED86F65EC20F0FC0E0001D524
:10741F006F7B0ED66FD76B030ED86F65EC20F00C19
:10742F000E0001986F0C0CE451D8B41200F9EC1A4D
:10743F00F0899ECB0ED56F7B0ED66FD76BD86B6551
:10744F00EC20F0F10E0001D56F7E0ED66FD76B01D9
:10745F000ED86F65EC20F0C30E0001D56FD66B0907
:10746F000ED76F010ED86F65EC20F0600E0001D5BE
:10747F006F7E0ED66FD76B020ED86F65EC20F0B40F
:10748F000E0001D56FD66B060ED76F020ED86F6543
:10749F00EC20F0590E0001D56F7C0ED66F0B0ED776
:1074AF006F020ED86F65EC20F0B90E0001D56FD6C4
:1074BF006B0C0ED76F020ED86F65EC20F0C00E006C
:1074CF0001D56F010ED66FD76B030ED86F65EC2009
:1074DF00F00B0E0001986F0B0CF25103E1E451D841
:1074EF00B41200F9EC1AF0EE0ED56F7A0ED66FD7F4
:1074FF006BD86B65EC20F0DD0E0001D56F7A0ED6E0
:10750F006FD76B010ED86F65EC20F0FC0E0001D524
:10751F006F7B0ED66FD76B030ED86F65EC20F07AAA
:10752F00D5F25118E0F9EC1AF0870ED56F7B0ED615
:10753F006FD76BD86B65EC20F00C0E0001D56F7C0C
:10754F000ED66FD76B030ED86F65EC20F00E0E00C2
:10755F0001986F0E0CE451D8B41200F95108E0F9FC
:10756F006B6A0ED56F7C0E08D0D86F65EF20F001D7
:10757F000EF96F5B0ED56F7C0ED66FD76B0EEF3695
:10758F00F0E45109E02CEC22F0000903E0010EF2C7
:10759F006F02D0090E996FF251D8B41200F9EC1A9C
:1075AF00F0EC0ED56F7B0ED66FD76BD86B65EC20DA
:1075BF00F0DC0E0001D56F7B0ED66FD76B010ED8A6
:1075CF006F65EC20F0FC0E0001D56F7B0ED66FD7E8
:1075DF006B030ED86F65EC20F076EF33F098510205
:1075EF00E153EF33F0010A02E17AEF33F0030A02BD
:1075FF00E1E7EF33F0010A02E121EF34F0070A026D
:10760F00E1B3EF34F0020A01E1E5D4010A01E157D9
:10761F00D50F0A01E1B1D5020A01E1D5D6010A0160
:10762F00E15BD7070A01E17CD7020AAAE052EF33E8
:10763F00F000067A8C79C0794979000000000000CB
:10764F0000000000005F00000000000003000300C6
:10765F000000643C26643C2624002649497F4949A2
:10766F003200422512082452210020504E55225834
:10767F002800000000030000000000001C22410051
:10768F00000000000041221C00000015150E0E1511
:10769F0015000008083E08080000000000503000E8
:1076AF000000000808080808000000000040000063
:1076BF0000004020100804020100003E4141413EFD
:1076CF0000000000417F4000000000426151496E00
:1076DF0000000022414949360000001814127F10A3
:1076EF0000000027494949710000003C4A49487091
:1076FF000000004321110D030000003649494936AF
:10770F00000000060949291E0000000000120000B9
:10771F000000000000523000000000000814142286
:10772F000000001414141414140000002214140880
:10773F00000000020159050200003E415D554D5108
:10774F002E00407C4A094A7C4000417F4949494903
:10775F0036001C22414141412200417F41414122DB
:10776F001C00417F49495D416300417F49091D016B
:10777F0003001C224149493A0800417F0808087F4D
:10778F0041000041417F41410000304041413F01F4
:10779F000100417F080C12614100417F4140404090
:1077AF006000417F420C427F4100417F420C117FBC
:1077BF0001001C22414141221C00417F4909090956
:1077CF0006000C12212161524C00417F09091969F1
:1077DF00460066494949494933000301417F410148
:1077EF000300013F4140413F0100010F3140310F84
:1077FF000100011F6114611F01004141360836412C
:10780F00410001034478440301004361514945435A
:10781F00610000007F4141000000010204081020B8
:10782F004000000041417F000000000402010102FE
:10783F0004000040404040404000000102000000B2
:10784F00000000344A4A4A3C400000413F48484843
:10785F003000003C42424224000000304848493F7B
:10786F004000003C4A4A4A2C00000000487E49096B
:10787F00000000264949493F0100417F48044478F0
:10788F0040000000447D40000000000040443D00E7
:10789F000000417F1018244242000040417F4040C9
:1078AF000000427E027C027E4000427E4402427C07
:1078BF004000003C4242423C000000417F49090920
:1078CF00060000060909497F410000427E4402027A
:1078DF00040000644A4A4A36000000043F44442032
:1078EF00000000023E4040227E40020E3240320E27
:1078FF000200021E6218621E020042621408146225
:10790F0042000143453805030100004662524A46D2
:10791F00620000000836410000000000007F0000F8
:10792F000000000000413608000000180808101081
:10793F001800AA55AA55AA55AA55090243000201D3
:10794F0000C03209040000010202010005240010EA
:10795F000104240202052406000105240100010789
:10796F0005810308000209040100020A0000000754
:10797F000502024000000705820240000034034D5B
:10798F00006900630072006F006300680069007097
:10799F0000200054006500630068006E006F006CEB
:1079AF00006F0067007900200049006E0063002E11
:1079BF000034034300440043002000520053002DC5
:1079CF0000320033003200200045006D0075006C5E
:1079DF00006100740069006F006E002000440065B4
:1079EF00006D006F001201000202000008D8040AA7
:1079FF00000001010200010403090473797320736D
:107A0F0065742070696E646967204750494F313043
:107A1F0020300D0A00737973207365742070696EBE
:107A2F00646967204750494F313120300D0A007388
:107A3F007973207365742070696E6469672047508D
:107A4F00494F313020310D0A0073797320736574FB
:107A5F002070696E646967204750494F313120317A
:107A6F000D0A0073797320736C656570203939398D
:107A7F003939393939390028554E434E4629202096
:107A8F00202028434E462920004D61632045727205
:107A9F006F72204F6363757265640020202020523F
:107AAF0065636569766564202020200020202044CE
:107ABF0061746120526174652020202000202053C2
:107ACF00656C656374204C6F52612020200020206C
:107ADF004C617374204D65737361676520200020BE
:107AEF005669657720446F776E6C696E6B20200046
:107AFF00202049737375652055706C696E6B20205B
:107B0F0000202853312920202020202028533229DB
:107B1F00200053657276657220526573706F6E73B5
:107B2F00652000204C6F526157414E205061636BAE
:107B3F006574200020547820536C6565702045765D
:107B4F00656E742000526552756E205077725473B3
:107B5F00743C53323E004973737565205065726FE4
:107B6F006469632054580044617461205472616EDB
:107B7F00736D697474656400456E74657220536C1F
:107B8F00656570204D6F64650055706C696E6B2074
:107B9F0050636B742054797065004D6F62696C652A
:107BAF00204D6F7465202D417070004E61766967AE
:107BBF00617465202053656C65637400446F776E44
:107BCF006C696E6B20446973706C617900202020A2
:107BDF0020446973706C617920202020002020538D
:107BEF00656E736F722044617461202000284E41CE
:107BFF005629202020202853454C292000284E416B
:107C0F0056292020202028534C502920006D6163D5
:107C1F002073657420616472206F6666004E6F205A
:107C2F0046726565204368616E6E656C00427569CA
:107C3F006C6420446174652F54696D6500457869E3
:107C4F0074204D656E7520202020200020202020DC
:107C5F00456E61626C656420202000202020204446
:107C6F00697361626C656420200044617461205205
:107C7F006174653A202020300044617461205261A4
:107C8F0074653A2020203100446174612052617480
:107C9F00653A20202032004461746120526174657E
:107CAF003A20202033004461746120526174653A98
:107CBF0020202034004461746120526174653A20A1
:107CCF00202035004461746120526174653A202090
:107CDF002036004461746120526174653A2020207F
:107CEF0037004175746F204461746120526174656F
:107CFF00006D61632073657420616472206F6E0084
:107D0F0020202052433320436F6465202020002021
:107D1F0020204C6F52612044656D6F2020004D690B
:107D2F0063726F63686970204D6F7465006D616376
:107D3F0020747820756E636E6620006D6163206A13
:107D4F006F696E206F74616100696E76616C696432
:107D5F005F706172616D006B6579735F6E6F745FD9
:107D6F00696E6974005468726F7520506F72742356
:107D7F0020004C3A20202020202020543A20006D53
:107D8F006163207365742064722030006D6163201D
:107D9F007365742064722031006D616320736574A4
:107DAF002064722032006D616320736574206472E9
:107DBF002033006D6163207365742064722034007A
:107DCF006D6163207365742064722035006D61638B
:107DDF00207365742064722036006D6163207365B3
:107DEF00742064722037006D6163206A6F696E20A2
:107DFF0061627000427574746F6E20546573743ACB
:107E0F0000427574746F6E312050415353004275A8
:107E1F0074746F6E322050415353005072657373F8
:107E2F0020427574746F6E005553422048616E6422
:107E3F006C6572004F6E20506F727420233A2000D1
:107E4F00547820506F727420233A200053656E745B
:107E5F0020446174613A20006D616320747820635F
:107E6F006E662000547279696E67204F544141004D
:107E7F006D6163206765742061647200737973208C
:107E8F0067657420766572004E6F7620313320322D
:107E9F0030313500427574746F6E204641494C0085
:107EAF004F544141204A6F696E20006E6F5F6672BA
:107EBF0065655F6368005375636365737366756C9F
:107ECF00006D6163206765742064720056616C6990
:107EDF0064204B65797300436F6D6D205465737427
:107EEF003A00527820506F72742320004142502084
:107EFF004A6F696E20004D4F5445204D6F646500E9
:107F0F004F544141204A6F696E006D616320726565
:107F1F00736574004C454420546573743A004344B0
:107F2F0043204D6F64650052657175697265640019
:107F3F006163636570746564006D6163207361765E
:107F4F0065005374617274696E6700414250204A34
:107F5F006F696E004D6F54652076202E0031313AD7
:107F6F0035383A323200524620546573743A004124
:107F7F004443205465737400436F6D6D616E6400EC
:107F8F004E4F2046524545004348414E4E454C000A
:107F9F004E6F204B6579730054656D7020203D0046
:107FAF004C69676874203D0054656D70203A004C31
:107FBF00696768743A0044656E6965640064656E4C
:107FCF00696564006E6F5F667265006D61635F6502
:107FDF0072006D61635F7278006D61635F7478002A
:107FEF00524E006F6B002A003C00430055007A0090
:027FFF0000FF81
:020000040020DA
:08000000FFFFFFFFFFFFFFFF00
:020000040030CA
:0E00000021081F3EFFD181FF0FC00FE00F400F
:00000001FF
