:0610000055EF08F012009C
:101008005B82FACF4FF0FBCF50F0E1CF51F0E2CF47
:1010180052F0D9CF53F0DACF54F0F3CF55F0F4CFE4
:1010280056F0F6CF57F0F7CF58F0F8CF59F0F5CF84
:101038005AF09DB09EA005D09AEC21F084EC21F0E6
:1010480016D09DBA9EAA05D087EC21F0ECEC22F0D0
:101058000ED09DB89EA803D000EC23F008D0A0BC09
:10106800A1AC03D07AEC21F002D08BEC30F05AC05E
:10107800F5FF59C0F8FF58C0F7FF57C0F6FF56C034
:10108800F4FF55C0F3FF54C0DAFF53C0D9FF52C074
:10109800E2FF51C0E1FF50C0FBFF4FC0FAFF5B9277
:0610A8001100B1EF26F07B
:1042F400A19C1200CD801200BA8412002A50120030
:10430400956B1200000195811200010E2A6E010CBA
:10431500A1770101010101B86FB8C0FDF01200B825
:104325006FB8C0A1F01200BCCFB8F0B85112009E12
:104335009086C0CFFF85C0CEFF12000001B96F8AFD
:104345009AB951C8EF21F0B96F8A8A0001B951C8ED
:10435500EF21F00D0EEBEC23F00A0EEBEF23F0C787
:104365006A210EC66EC86AC688C79C1200B86F005F
:1043750001B8B39A2BB8B79F2B12007A0EBA6E9B71
:104385000EBB6EBC6A9E927EEF21F0B86FC69EB8DA
:10439500C0C9FFC7A0FED7C9501200A09C9C0E98AB
:1043A5006E9A8A9A929A96A19CA09C9C0C0001BA3E
:1043B5006F8A98BA51AF08A0EC21F08A881200B82C
:1043C50051B911D8B41200B8C0F9F0B9C0FAF01259
:1043D50000B86FB8C0A9FFA69CA69EA68000F000F5
:1043E500F0A8501200BA6FB00E0001BA138A98BA3D
:1043F50051A0EC21F08A8812000001BA6FA60EBA0E
:10440500278A98BA51A0EC21F08A881200A00E7D67
:104415006E010EC26E080EC16E8E0EC06EC36AC4EA
:104425006A1200800E9B6E700ED36E100ED26ED285
:10443500AEFED7900EB56E900C000E65EC22F00125
:104445000E65EC22F0020E65EC22F0030E65EF22FC
:10445500F0A394205009E1B8C073F0B9C074F0BA64
:10446500C099F0010E976F206EA3841200A50EB9B6
:104475006F7C0EBA6F2BEC26F09DB8FED70001B904
:104485006B140EB86F14EF23F06484659860820195
:104495000E00018E6F3C6A750E3B6E3D6A3E6A40AA
:1044A5006A3F6AF3EF24F0BA6F8A980001BA390FB0
:1044B5000B1009A0EC21F00001BA510F0BA0EC2163
:1044C500F08A8812000001C56FC66BC6C0BBF0C577
:1044D500C0BCF0200E1AEC28F0C62B0F0EC665F5F1
:1044E500D70F0CBA6F0001B96B3A0EBA6105D02F20
:1044F5000EBA6502D0010EB96FB9C0B8F0B8311265
:104505000014EC22F088EC25F0B2EC21F092EC23BB
:10451500F0C0EC21F07CEC23F009EC22F0D0EF2187
:10452500F08E6B3C6A740E3B6E3D6A3E6A406A3F94
:104535006AF3EC24F06092649401D0659465A4124A
:1045450000FCD7BF6F060E0001BF25B86FB96BFF22
:104555000EB923BB6B050EBA6F18EC25F0B851C028
:104565006FC051120093949398939AC4EC2EF00067
:104575000EFFEC21F0A10E0001B86F770EB96FE2C6
:10458500EC21F01FEF22F0B851BA03F3CFBCF0F4E1
:10459500CFBDF0B851BB03F350BD27B951BA03F3F2
:1045A50050BD27BCC0B8F0BDC0B9F01200B86F0F40
:1045B5000E0001B8170A0EB86103D0B851300F12BA
:1045C50000090EB865000C100EB861000CB8513723
:1045D5000F1200ABA203D0AB98AB881200000E24DB
:1045E50024D96EDA6A020EDA22AECFDFFF242A3F23
:1045F5000E246401D0246A232A1200400E26600F7F
:10460500D0400E2824D96EDA6A020EDA22DF50ADC8
:104615006E282A3F0E286401D0286A262A12009D9A
:10462500981200BB6BBC6B0BD0100EBA6F940EE8E2
:104635002EFED7BA2FFCD700D00001BB4BBC2BB840
:1046450051BB5DB951BC59F0E31200B96F080E00BA
:1046550001BA6FBB6BD890B935BB35BB6FD890B974
:1046650037B851BB5D02E3B851BB5FBA2FF3D7BB77
:104675005112002EC034F02FC035F008D034C0D907
:10468500FF35C0DAFF30C0DFFF344A352A3206D89D
:10469500A033063228F3E13328F1E11200B8C0BE99
:1046A500F0B9C0BFF008D0BEC0D9FFBFC0DAFFBAAD
:1046B500C0DFFFBE4BBF2BBC07D8A0BD07BC29F38D
:1046C500E1BD29F1E112009D9A9D98480EB86E90C2
:1046D5000EAB6E260EAC6E710EAF6E020EB06E276F
:1046E5006A286A400E266E246A256A236A9D8AAB6B
:1046F5008812009D9A9D98480EB86E900EAB6E2656
:104705000EAC6E710EAF6E020EB06E276A286A404F
:104715000E266E246A256A236A9D8AAB881200CD0F
:104725006ACC6AD00ECF6E200ECE6ECE50CFCFB8EB
:10473500F00001B96BB8C0B9F0B86BB811856FB9A5
:1047450051866F9E909D807CEF21F09151D8A412E7
:1047550000606A646A160E626E9F0E666E7B0E645A
:104765006ED08EA584A384F28E01D0608660A6FDEE
:10477500D7010E916F010C0001B86B000EB825D959
:104785006EDA6A020EDA22DF6AB82B3F0EB865F5DB
:10479500D7246A256A236A9D98276A286A400E26C7
:1047A5006E400C01D0898E2350FDE09D9A000E25A8
:1047B50024D96EDA6A020EDA22DF500001B86F25BD
:1047C5002A3F0E256401D0256A23069D8AB8511219
:1047D500000001B86F2650FEE09DB803D0B8C0AD0B
:1047E500FF0FD09D98400E2724D96EDA6A020EDAA3
:1047F50022B8C0DFFF272A3F0E276401D0276A268B
:10480500069D881200396E36A404D02E6A395011DF
:10481500EC29F036A205D0010E2E6E395011EC2987
:10482500F06A0E3924376E386A0F0E382237C0D930
:10483500FF38C0DAFF36C0DFFF0F0CB96F0001BBD0
:104845006BB85114E0010EBA6F03D0D890B837BADF
:104855002BB8AFFBD7D890BB37B851B95D03E3B8D8
:1048650051B95FBB81D890B833BA2FF4D7BB511279
:1048750000D8EC25F0B36B080EB56FB46BAF6B4B7E
:104885000EB06FB16BB26B66EC23F03A6A180E3A54
:1048950024D96EDA6A010EDA22DF6A3A2A3F0E3A25
:1048A50064F5D71A6A196A1200BC6FBCC0BAF00069
:1048B50001BA47BA47C250BA19830BBA19C26EC2B8
:1048C50080140EE82EFED7C282C2B2FED7C45000B5
:1048D50001BB6FBA6BC350BA25B86F000EBB21B9C7
:1048E5006F1200B96F000EF2BE010E0001BA6FB96A
:1048F500C0A9FFB8C0A8FFA69EA69CA684F29E5597
:104905000EA76EAA0EA76EA682A6B2FED7A6940023
:1049150001BAB102D0F29E01D0F28E12006AA01B3C
:10492500D015C0D9FF16C0DAFF800EDE1813E10FCF
:10493500C0D9FF10C0DAFF840EDE180CE115C0D90E
:10494500FF16C0DAFF0C0EDF6E15C0D9FF16C0DAF0
:10495500FF000EDB8E6A90659A1200C151C21117D5
:10496500E0010EC36F04D0D890C137C237C32BC244
:10497500AFFAD7C151BF5DC251C05904E3C151BFA0
:104985005FC251C05BD890C233C133C32FF2D7BFCA
:10499500C0BFF0C0C0C0F012000001B86BB85176BE
:1049A5000FD96EDA6ADF6AB82B020EB865F7D7B988
:1049B5006B000EB925D96EDA6A010EDA22DF6AB903
:1049C5002B210EB965F5D7BA6B100EBA25D96EDA5B
:1049D5006A010EDA22DF6ABA2B090EBA65F5D70924
:1049E5000C3BC041F03CC042F0425004E07F0AD885
:1049F500A4120019D04150010A02E13BEF24F00353
:104A05000AD8B41200010A02E155EF29F0060AD8C6
:104A1500B41200770AD8B41200010AD8B4120007FC
:104A25000AD8A4010A1200411C1200BD6BBE6BBA64
:104A350051BB111BE0010EBC6F04D0D890BA37BB37
:104A450037BC2BBBAFFAD7D890BD37BE37BA51B8F4
:104A55005DBB51B95905E3BA51B85FBB51B95BBDEF
:104A650081D890BB33BA33BC2FEED7BDC0B8F0BEEA
:104A7500C0B9F012000001B96B23501FE0D4EC233C
:104A8500F0BA6F0D0EBA190BE1980E2924D96EDA1A
:104A95006A010EDA22DF6A010EB96F296A0ED0BAF1
:104AA500510CE00A0EBA1909E0980E2924D96EDADC
:104AB5006A010EDA22BAC0DFFF292AB95112008233
:104AC500A002D082B214D0662B000E67236823693A
:104AD50023370E661967116811691107E1A26B8208
:104AE500B002D0010E0FD0020E0DD0B86B0CD01451
:104AF5000EA21906E1666B676B686B696BA26B01A9
:104B0500D0A22B030EB86FB85112009280928292F8
:104B15008492869298929A929C929E939093929365
:104B2500949396939A948094829484949C948E936F
:104B35009C938E8988899A899C899E8A948A908A71
:104B45009A8A9C8A9E8B948B9C0F015B915B835BFD
:104B5500855B875D9F5D9D1200020E211802E19025
:104B6500EF32F0216A8D511FE120EE01F01750D987
:104B7500261850DA22080EDF6E20EE02F01750D903
:104B8500261850DA22300EDE6E040EDD6E17C0D9FF
:104B9500FF18C0DAFF0C0EDF6E17C0D9FF18C0DA98
:104BA500FF000EDB8E000C8D6B12000001AF6B4B0E
:104BB5000EB06FB16BB26BB36BB46B080EB56F987B
:104BC5006B1A0E366E010E05EC24F01E0E366E02C3
:104BD5000E05EC24F0000E2E6E400E2F6E050E30E5
:104BE5006E400E316E020E74EC2AF02EC07BF02F53
:104BF500C07CF00001796B7A6B206A1200D8C1AFD6
:104C0500F0D9C1B0F0DAC1B1F0DBC1B2F02E6A1B48
:104C15000E2F6EB70E306E316AAFC032F0B0C033B2
:104C2500F0B1C034F0B2C035F0DFEC27F0FF0E2E46
:104C3500243B6EFF0E2F203C6EFF0E30203D6EFF95
:104C45000E31203E6E3BC0AFFF3CC0B0FF66EF2388
:104C5500F015D0B9C0F6FFBAC0F7FFF86A070EF72E
:104C65006403D00800F55005D0F6CFE1FFF7CFE299
:104C7500FFE750EBEC23F00001B94BBA2BB9C0F6B6
:104C8500FFBAC0F7FFF86A070EF76403D00800F50E
:104C95005005D0F6CFE1FFF7CFE2FFE7500009D985
:104CA500E1ACEF21F0CC6F0A0E0001B86FCC5128B2
:104CB500EC23F0300FCF6F0A0EB86FCC5120EC24E7
:104CC500F0CC6F0A0EB86FCC5128EC23F0300FCE24
:104CD5006F0A0EB86FCC5120EC24F0CC6F0A0EB8D9
:104CE5006FCC5128EC23F0300FCD6FD06BCD0EC5B6
:104CF5006FC66BCAC0C7F0CBC0C8F042EF27F02B18
:104D05006A1E6A8F6B906B8D6B216A0FC0D9FF107D
:104D1500C0DAFF7F0EDF16040E0F1A0FC0D9FF1081
:104D2500C0DAFF7F0EDF16040E0F1A17C0D9FF1861
:104D3500C0DAFF7F0EDF160C6A0D6A0E6A046A057B
:104D45006A066AC3EC2AF03C6A030E3B6E3D6A3E76
:104D55006A406A3F6AF3EC24F09FEF2FF002EE0001
:104D6500F0800EEE6AE806FDE101EE00F0EA0EEED7
:104D75006AE806FDE100EE60F0580EEE6AE806FD11
:104D8500E100EE01F02D0EEE6AE806FDE1150EF6E6
:104D95006E430EF76E000EF86E00EEF9F010EE079A
:104DA500F00900F5CFEEFFE550E150FAE15B905BCD
:104DB50092000EF86E00016AEF2CF0BD6F0001BC89
:104DC50051A50FD96EDA6A0A0EB86FBD5128EC23CA
:104DD500F0300FDF6E0A0EB86FBD5120EC24F0BD28
:104DE5006FBC51A40FD96EDA6A0A0EB86FBD51288F
:104DF500EC23F0300FDF6E0A0EB86FBD5120EC24A6
:104E0500F0BD6FBC51A30FD96EDA6A0A0EB86FBD3B
:104E15005128EC23F0300FDF6E1200BF6BBD6BBE67
:104E25006BAC9A8B9CB96B0A0EB86F14EC23F0AC83
:104E35008AB96B050EB86F14EC23F0550EAD6EAC48
:104E4500A2FED7FD0EB96F7F0EBA6F2BEC26F000D0
:104E550001B96B280EB86F14EC23F00ED03DEC258C
:104E6500F0000903E0010EBF6F07D0BD4BBE2B89D3
:104E75000EBD5D130EBE59F6E2BF51F0E11200C73B
:104E8500C0C9F00F0EC96501D00F0CC5C0F6FFC62D
:104E9500C0F7FFF86A070EF76403D00800F5500560
:104EA500D0F6CFE1FFF7CFE2FFE7500009D8B41203
:104EB50000C9C0BBF0C8C0BCF0C5C0F6FFC6C0F78E
:104EC500FFF86A070EF76403D00800F55005D0F621
:104ED500CFE1FFF7CFE2FFE7501AEC28F0C54BC64C
:104EE5002BC92BCFD729D0B8C0D9FFB9C0DAFFDF7E
:104EF500500DE0B8C0D9FFB9C0DAFFDF50BE6FBAB8
:104F0500C0F6FFBBC0F7FF0800F51812E0B8C0D91E
:104F1500FFB9C0DAFFDF50BE6FBAC0F6FFBBC0F7FE
:104F2500FF0800F550BE5DB86FB96BD8A0B9071280
:104F350000B84BB92BBA4BBB2BBC07D8A0BD07BCDF
:104F450029D2E1BD29D0E1B86BB96B120082A2FE6E
:104F5500D739EC22F0010ED9EC21F0C290F29EF285
:104F65009EF29C0F015B81A08C878087828784F2EB
:104F750086825082508250F290A19C00F00300007E
:104F8500F0BEEC23F0F296879087928794A09CF26E
:104F95008E88EC25F07CEC23F0F2A002D0F2900391
:104FA500D00A0E00019F6F0F015B91000ED9EC2115
:104FB500F0B5EC22F010EF27F0366A376A386A3917
:104FC5006A325033103410351029E0010E3A6E065E
:104FD500D0D89032363336343635363A2A35AEF8AF
:104FE500D7D890363637363836393632502E5C3388
:104FF500502F58345030583550315809E332502E1F
:105005005E33502F5A3450305A3550315A3680D885
:105015009035323432333232323A2EE2D736C02E20
:10502500F037C02FF038C030F039C031F012000031
:1050350001C36FBC51F5EC21F00001BB51080DF324
:105045005056EC22F08A980001C46BBD6BBE69C353
:1050550051BF6FC06BD890BF37C037D890BF37C02E
:1050650037D890BF37C037F9C0C1F0FAC0C2F0BF1A
:1050750051C127C051C223C451C127000EC223BD4F
:1050850051C127BE51C223C1C0F6FFC2C0F7FF08F8
:1050950000F550A6EC21F00001C42B070EC465D520
:1050A500D78A88070C2ED0FFD71FEC22F0320EC509
:1050B5006F7F0EC66F010EC76FC86B42EC27F0837A
:1050C5000E0001C56F7F0EC66F020EC76F010EC8B9
:1050D5006F42EC27F0950E0001C56F7E0EC66FC7B7
:1050E5006B020EC86F42EC27F0010E000105D020BF
:1050F5000E916101D00ED0020EA16F0BD00FEC2CDA
:10510500F008D00001A151D0E0010AF1E0030AF650
:10511500E0CAD780B0F6D700F012000401386B3929
:105125006B2AD00C8E1D042EE138832CD00C8E2AD0
:10513500D00C8E34BF06D034510F0B020DF35060E6
:105145000F05D034510F0B020DF3500F0FD96EDA46
:105155006ADECF2EF0DDCF2FF02EC0D9FF2FC0DABB
:10516500FFDFAE10D02EC0D9FF2FC0DAFFDFA40AB3
:10517500D0010E386F07D030511F0BD3E0010AD68E
:10518500E0030AD6E00CAE1200380E096E040E0AD2
:105195006E0C80020E0D6E020CB8C0D9FFB9C0DAD4
:1051A500FFDF50BE6FBAC0F6FFBBC0F7FF0800F5C2
:1051B500CFC0F0BE512CE0020EB827000EB923C0B7
:1051C50051BE1925E12FEEFFF0B851D926B951DAB4
:1051D50022DF50BF6FBA29BC6F000EBB21BD6FBC6B
:1051E500C0F6FFBDC0F7FF0800F5CFC0F0BF5107FF
:1051F500E1C051BF5DB86FB96BD8A0B90712000205
:105205000EBA27000EBB23BF51C019F2E1C5D7C0A6
:1052150051BE5DB86FB96BD8A0B9071200336E34B3
:105225006A040E356E2E502F6E306AD8902F3630A8
:10523500363350316E326AD89031363236D89031A5
:105245003632362F50312630503222D89031363210
:1052550036D89031363236315034263250352234F4
:10526500C0D9FF35C0DAFFDF9E2E5005E13350026D
:105275000DF350600F04D03350020DF3500F0FD9CA
:105285006EDA6A34C0DEFF35C0DDFF34C0D9FF35C4
:10529500C0DAFFDF9C20EE04F03450D9263550DA11
:1052A50022DF8C1200040130511F0BE80601E012C9
:1052B500003039E832030BE80601E0120034512DC5
:1052C500E034052BE01200E20E096E010E0A6E0EA7
:1052D5006A080E0D6E0C800C8E080CE20E096E012C
:1052E5000E0A6E0C8E120036C405F037C406F0D8CF
:1052F5000E016E010E026E020E076E4C0E086E0454
:105305008E1200AF0E096E0A6A0E6A070E0D6EC187
:105315000E0C6EC10C32510C8E12003151D4E001CD
:105325000ADCE0210AE0E0010AECE0030AF3E012FE
:10533500008F6B906B020E21181FE120EE01F01714
:1053450050D9261850DA22080EDF6E20EE02F0172B
:1053550050D9261850DA22380EDE6E040EDD6E178F
:10536500C0D9FF18C0DAFF480EDF6E17C0D9FF1885
:10537500C0DAFF000EDB8E000C0D500401365D0E09
:1053850050375904E236C40DF037C40EF025EC2D24
:10539500F020EE02F00F50D9261050DA22380EDE3A
:1053A5006E040EDD6E0FC0D9FF10C0DAFF480EDFA8
:1053B5006E0FC0D9FF10C0DAFF000EDB8E000C980F
:1053C5006B7B517C1109E07BC0D9FF7CC0DAFF0102
:1053D5000EDFAE000EC36F01D0C36BC46BC351C4E7
:1053E5001134E120EE01F07B51D9267C51DA22C13E
:1053F50051DE5C08E220EE01F07B51D9267C51DAC2
:1054050022DF50C16F986B0FD0400E9825D96EDA08
:105415006A050EDA229851BF25E16E000EC021E221
:105425006EDFCFE7FF982BC151985DEEE3000EB814
:105435006F400EB96F050EBA6F400EBB6F020E12AC
:10544500EC2BF0B8C07BF0B9C07CF0985112000B82
:10545500D0B9C0F6FFBAC0F7FF0800F550EBEC2352
:10546500F00001B94BBA2BB9C0F6FFBAC0F7FF0877
:1054750000F550EEE1BE6BBB51BE25D96EDA6ADF91
:1054850050EBEC23F00001BE2B020EBE65F4D7BB3A
:1054950051D96EDA6A030ED926DF50EBEC23F004FE
:1054A5000E0001BF6F19D0BB51BF25D96EDA6ADF77
:1054B50050BD6FBD390F0BD9EC22F0EBEC23F0009A
:1054C50001BB51BF25D96EDA6ADF500F0BD9EC222B
:1054D500F0EBEC23F00001BF2BBC51BF5DE4E3AC66
:1054E500EF21F0326E2E5005E03250020DF3500FD1
:1054F5000F04D03250020DF350600FD96EDA6ADE18
:10550500CF33F0DDCF34F03350341003E12E6A2F62
:105515006A120020EE02F03350D9263450DA222FD9
:10552500C0DEFF30C0DDFF20EE01F03350D9263458
:1055350050DA2231C0DFFF33C0D9FF34C0DAFF4073
:105545000EDF1633C0D9FF34C0DAFF000EDB863319
:10555500C0D9FF34C0DAFFDB8E2E5005E032500291
:105565000DF3500F0F04D03250020DF350600FD9D8
:105575006EDA6A040EDF1A33C02EF034C02FF00441
:105585000C04013039E832030B2AE012000C8E08B6
:105595000E0001916F080C2C0E096E0A6A0C800131
:1055A5000E0D6E0C8E010C3451B60F4A6E4AC009B1
:1055B500F00A6A0C80010E0D6E0C8E010C0C8E34F7
:1055C50051B60FD96EDA6A32C4DFFF12003C6A02A7
:1055D5000E3B6E3D6A3E6A406A3F6AF3EF24F03146
:1055E5005102E190EF28F0010A02E1BBEF34F0022D
:1055F5000A02E1BBEF34F0060AC9E0030A02E18AB8
:10560500EF31F0010AE3E00F0AC6E0010A02E162A8
:10561500EF2BF0030AC8E0010AD1E0070A1200BC2B
:105625006F0001B85105E0BC51020DF3500F0F0496
:10563500D0BC51020DF350600FD96EDA6ADECFBDD2
:10564500F0DDCFBEF0BD51BE1103E1B86BB96B12F1
:105655000020EE02F0BD51D926BE51DA22B9C0DED6
:10566500FFBAC0DDFF20EE01F0BD51D926BE51DAEB
:1056750022BBC0DFFFBDC0D9FFBEC0DAFF400EDFD1
:1056850016BDC0D9FFBEC0DAFF000EDB86BDC0D98E
:10569500FFBEC0DAFFDB8EB85105E0BC51020DF349
:1056A500500F0F04D0BC51020DF350600FD96EDAC4
:1056B5006A040EDF1ABDC0B8F0BEC0B9F0040C0C08
:1056C5008E6B0E2E6E0F0E2F6E316A306A336A02A4
:1056D5000E326E3CEC23F02E6A040E2F6E316A30CA
:1056E5006A336A300E326E3CEC23F0608C436A43B9
:1056F500506A0FD96EDA6ADF6A43506D0FD96EDAD8
:105705006ADF6A432A020E4364F2D7B60E2E6E2F65
:105715006A316A306A336A020E326E3CEC23F060FD
:105725009C080E0F6E040E106E000E156E040E16FC
:105735006E15C017F016C018F032C42CF02C5004AA
:10574500E1100E0001916F100C3C6A010E3B6E2CAE
:105755000E3D6E3E6A406A010E3F6EF3EC24F0206A
:105765000E0001916F200C2D0E1F6E2DC04BF0FD0C
:105775000E4B164BE1D8902D303F0B040D000EF368
:1057850024156E040EF420166E15C017F016C018F9
:10579500F0040E171A15C0D9FF16C0DAFFDF30E87E
:1057A500320F0B0D0A02E0AFEF25F04D6A20EE0235
:1057B500F01550D9261650DA22DECF4BF0DDCF4C4E
:1057C500F04BC0D9FF4CC0DAFF300E4D24E16EE23C
:1057D5006A040EE222DFCFE7FF20EE02F01550D972
:1057E500261650DA22DE2A000EDD224D2A070E4D3E
:1057F50064DDD720EE02F01550D9261650DA223096
:105805000EDE6E040EDD6E82EF26F02D50FD0B04CC
:105815000AD8B486EC2DF012001F0E91651F0C609E
:10582500B21F0C1B500EE1180EBF6F010EC06F406A
:105835000EC16FE2EC29F0196E195003E0010E1B41
:105845006E1C6A1B5010E0ACA20ED0180E1C24D999
:105855006EDA6A010EDA22DF50EBEC23F01C2A190E
:10586500501C1801E11B6A23501CE080EC21F0005C
:105875000918E03F0E1A6015D000F0D4EC23F0C5EE
:105885006F180E1A24D96EDA6A010EDA22C5C0DF46
:10589500FF1A2A180E1A24D96EDA6A010EDA22DFE7
:1058A5006A2A6A205002E00AEF31F01A5002E10A32
:1058B500EF31F0180E0001B86F010EB96F1AC0BABA
:1058C500F02BEC22F002EC08F01A6A0AEF31F083B3
:1058D500EC22F0B5EC22F0EDEC2DF0A8EC23F0F283
:1058E5008CF28E010EB96F2C0EB86F14EC23F010EC
:1058F500EC27F0010EB96F2C0EB86F14EC23F000F5
:105905000EEBEC21F000019C6B000E92EC21F01FD8
:10591500EC22F0D10EC56F7D0EC66FC76BC86B420A
:10592500EC27F0280E0001C56F7F0EC66FC76B010F
:105935000EC86F42EC27F0A30E0001C56F7D0EC6A1
:105945006FC76B030EC86F42EC27F0020E0001B95A
:105955006FBC0EB86F14EC23F011D0FFD755EC28AF
:10596500F0010E00019C6F8EEC21F008D0E5EC33C0
:10597500F0040A04E19C6B000E92EC21F000019CFE
:1059850051EDE0010AF3E0E9D700019251D8A412E4
:1059950000010E926F9351D8A41200010E936F026D
:1059A5000E211814E120EE01F00F50D9261050DA1F
:1059B50022DF6A0FC0D9FF10C0DAFF480EDF6E0F75
:1059C500C0D9FF10C0DAFF000EDB8E000C2104D811
:1059D500A412008D6B20EE01F01550D9261650DA71
:1059E50022080EDF6E20EE02F01550D9261650DA89
:1059F50022300EDE6E040EDD6E15C0D9FF16C0DA3C
:105A0500FFDF6E15C0D9FF16C0DAFF000EDB8E0171
:105A15000E8D6F20EE01F01750D9261850DA2208A6
:105A25000EDF6E20EE02F01750D9261850DA22301C
:105A35000EDE6E040EDD6E17C0D9FF18C0DAFF80CA
:105A45000EDF6E800C080E2E6E0E500DE1080E0D49
:105A55005C0AE20DC02EF02B5002E1010E03D02BA3
:105A65000402E1020E2B6E2E500D5E000E0E5A2022
:105A7500EE01F00F50D9261050DA222EC0DFFF3884
:105A85000E00017F6F040E806F0CB03AD01BD00959
:105A9500C0F6FF0AC0F7FFF86A7FC0D9FF80C0DAF9
:105AA500FF070EF76403D00800F55005D0F6CFE1E7
:105AB500FFF7CFE2FFE750DF6E094A0A2A00017FB0
:105AC5004B802B2E062E50E3E1120009C0F6FF0A8B
:105AD500C0F7FFF86A7FC0D9FF80C0DAFF070EF76D
:105AE5006403D00800F55005D0F6CFE1FFF7CFE20B
:105AF500FFE750DF6E094A0A2A00017F4B802B2EF3
:105B0500062E50E3E112000FC0D9FF10C0DAFF00E6
:105B15000EDFBC010E3F6E040E0F1A080E91190A16
:105B2500E1040132517F0B636E6350100ED8B4044B
:105B35000E0001916F210438E120EE02F00F50D9DB
:105B4500261050DA22380EDE6E040EDD6E25EC2DA1
:105B5500F0020E2B180DE10FC0D9FF10C0DAFF04BB
:105B65000EDF6E0FC0D9FF10C0DAFF000EDB8E000E
:105B75000C3F500DE10FC0D9FF10C0DAFF480EDF12
:105B85006E0FC0D9FF10C0DAFF000EDB8E000C0FC0
:105B9500C0D9FF10C0DAFF080EDF6E0FC0D9FF10A5
:105BA500C0DAFF000EDB8E000C04AE12D0075008E1
:105BB500100EE020EE07F001D80AD00500FA6EDEDF
:105BC50050FD6EDE50FE6EF850FF6EFA5012000466
:105BD5009E216A1200A394676A656A6A6A6B0EB8A9
:105BE5006F0F0EB96FBB6BBA6BBD6B020EBC6F51FD
:105BF500EC23F0160E626E9F0E666E7B0E646EC011
:105C05006BC051040D000EF324D96E040EF420DA96
:105C15006EDE6ADE6ADE6ADD6AC02B0B0EC065F0D9
:105C2500D7608C636A6098609C05D065960C6A04A1
:105C35006A056A066A65B6F9D7010E926F936F8F8A
:105C45006B906B8E6BC06BC051020DF3500F0FD96B
:105C55006EDA6ADE6ADD6AC051020DF350600FD953
:105C65006EDA6ADE6ADD6AC0516A0FD96EDA6ADFFA
:105C75006AC0516D0FD96EDA6ADF6AC02B020EC099
:105C850065E2D7080E0F6E040E106E160E6A6E04CE
:105C95000E0401036F300E026F080E016F040E0033
:105CA5006F008F2C6A0001916B1200A394676A65DF
:105CB5006A6A6A6B0E2E6E0F0E2F6E316A306A336A
:105CC5006A020E326E3CEC23F0160E626E9F0E6673
:105CD5006E7B0E646E366A3650040D000EF324D9C1
:105CE5006E040EF420DA6EDE6ADE6ADE6ADD6A367E
:105CF5002A0B0E3664F0D7608C636A6098609C0549
:105D0500D065960C6A046A056A066A65B6F9D70114
:105D15000E0001926F936F8F6B906B8E6B366A36A8
:105D250050020DF3500F0FD96EDA6ADE6ADD6A365E
:105D350050020DF350600FD96EDA6ADE6ADD6A36FD
:105D4500506A0FD96EDA6ADF6A36506D0FD96EDA8E
:105D55006ADF6A362A020E3664E2D7080E0F6E0431
:105D65000E106E160E6A6E040E0401036F300E02DD
:105D75006F080E016F040E006F008F2C6A000191F1
:105D85006B12008A888A8A8A84500EE82EFED78A8A
:105D950094040E0001BA6F1C0EE82EFED7BA2FFC34
:105DA500D700D08A848A98040E0001BA6F1C0EE8C9
:105DB5002EFED7BA2FFCD700D08A9A040E0001BA5E
:105DC5006F1C0EE82EFED7BA2FFCD700D0AE0EA062
:105DD500EC21F0D50EA0EC21F0800EA0EC21F0A86E
:105DE5000EA0EC21F01F0EA0EC21F0D30EA0EC21AB
:105DF500F0000EA0EC21F08D0EA0EC21F0140EA009
:105E0500EC21F0400EA0EC21F0A60EA0EC21F0A4B0
:105E15000EA0EC21F0A00EA0EC21F0C00EA0EC210C
:105E2500F0DA0EA0EC21F0420EA0EC21F0810EA0DC
:105E3500EC21F07F0EA0EC21F0D90EA0EC21F0F1C1
:105E45000EA0EC21F0DB0EA0EC21F0400EA0EC2121
:105E5500F0AF0EA0EC21F08A881200894B8A2B89BD
:105E6500C0BFF08AC0C0F0C26B0A0EC16FB0EC248F
:105E7500F0BF51C011D8A41200958389C0BFF08A24
:105E8500C0C0F0C26B640EC16FB0EC24F0BF51C04E
:105E950011D8A41200958589C0BFF08AC0C0F0034F
:105EA5000EC26FE80EC16FB0EC24F0BF51C011D81F
:105EB500A41200958789C0BFF08AC0C0F0EA0EC25F
:105EC5006F600EC16FB0EC24F0BF51C011D8A412A1
:105ED50000874B882B958987C0BFF088C0C0F0C26A
:105EE5006B3C0EC16FB0EC24F0BF51C011D8A412A9
:105EF50000958B87C0BFF088C0C0F0020EC26FD07E
:105F05000EC16FB0EC24F0BF51C011D8A41200959A
:105F15008D87C0BFF088C0C0F0050EC26FA00EC14E
:105F25006FB0EC24F0BF51C011D8A41200958F8931
:105F35006B8A6B876B886B120060980CBE37D00438
:105F4500AE0AD0020E216E0001905102E19BEC29B0
:105F5500F0936B926B120020EE01F01750D92618C2
:105F650050DA22080EDF6E20EE02F01750D92618FF
:105F750050DA22300EDE6E040EDD6E17C0D9FF1822
:105F8500C0DAFF0C0EDF6E17C0D9FF18C0DAFF00AC
:105F95000EDB8E0FC0D9FF10C0DAFF040EDF6E0FC7
:105FA500C0D9FF10C0DAFF000EDB8E000C040130F3
:105FB500AF0ED0010E216E00018F5102E19BEC293D
:105FC500F0936B926B1E50D8A41200C7EF2CF00211
:105FD5000E216E20EE01F01750D9261850DA22084E
:105FE5000EDF6E20EE02F01750D9261850DA223057
:105FF5000EDE6E040EDD6E17C0D9FF18C0DAFFDFA6
:106005006E17C0D9FF18C0DAFF000EDB8E000193B2
:106015006B926B1E5002E1C7EF2CF01200CAC0BF95
:10602500F0CBC0C0F0C26B0A0EC16FB0EC24F0BF5C
:1060350051300FD26FCAC0B8F0CBC0B9F0BB6B0AF4
:106045000EBA6F18EC25F0B8C0CAF0B9C0CBF0CACB
:10605500C0BFF0CBC0C0F0C26B0A0EC16FB0EC245C
:10606500F0BF51300FD16FCAC0B8F0CBC0B9F0BB8B
:106075006B0A0EBA6F18EC25F0B8C0CAF0B9C0CBE0
:10608500F0CAC0BFF0CBC0C0F0C26B0A0EC16FB082
:10609500EC24F0BF51300FD06FCAC0B8F0CBC0B9F7
:1060A500F0BB6B0A0EBA6F18EC25F0B8C0CAF0B990
:1060B500C0CBF0CAC0BFF0CBC0C0F0C26B0A0EC1E6
:1060C5006FB0EC24F0BF51300FCF6FCAC0B8F0CB22
:1060D500C0B9F0BB6B0A0EBA6F18EC25F0B8C0CA90
:1060E500F0B9C0CBF0CAC0BFF0CBC0C0F0C26B0ADC
:1060F5000EC16FB0EC24F0BF51300FCE6FD36BCE15
:106105000EC56FC66BCCC0C7F0CDC0C8F042EF2737
:10611500F00001910507E160BA05D0656A64806405
:1061250088020E916F65B464A403D0659493EC2244
:10613500F060A202D0A494120065B064A006D05805
:10614500EC2EF0A384040E916F659065B864A803E6
:10615500D047EC22F0659865AC14D064AC0AD03C0D
:106165006A730E3B6E3D6A3E6A406A010E3F6EF3EE
:10617500EC24F0659C1F5001E01F061F5002E1C78B
:10618500EC2CF065BA64AA02D091EC24F065B264F7
:10619500A20BD07F0E3C6E3B683D6A3E6A406A01A9
:1061A5000E3F6EF3EC24F0676A040E000191610264
:1061B500D0A494040C64A629D04E6A65A626D061A5
:1061C500CF2DF02D30E832E8320F0B226E65962D7B
:1061D500B403D022506D0F02D022506A0FD96EDA67
:1061E5006A0001DF70225003E1B6EC2BF00AD03CC7
:1061F5006A720E3B6E2D0E3D6E3E6A406A3F6AF333
:10620500EC24F04E2A030E4E64D8D7A4941200A3B2
:1062150094000179517A1109E079C0D9FF7AC0DA81
:10622500FF010EDFAE000EBF6F01D0BF6BC06BBFAD
:1062350051C01102E0A3841200030E201801E120D1
:106245006A205002E1A3841200020E201810E10119
:106255000EB86F000EB96FBA6FBB6F020E12EC2B42
:10626500F0B8C079F0B9C07AF0030E206E4ED02098
:10627500044CE1400E996502D0C26F02D099C0C2AC
:10628500F0C251995F000E706F050E716FC2C0C1EB
:10629500F0975110E021D073C0D9FF74C0DAFF70B8
:1062A500C0E1FF71C0E2FFDFCFE7FF704B712B73D9
:1062B5004B742BC107C15112E0EED773C0D9FF74DF
:1062C500C0DAFF70C0E1FF71C0E2FFDFCFE7FF700A
:1062D5004B712B734B742BC107C151EFE1995106DB
:1062E500E1400EC219020ED8A4030E206E010EB8AD
:1062F5006F000EB96F050EBA6FC2C0BBF0020E1269
:10630500EC2BF0B8C079F0B9C07AF0A38412008004
:106315000E04013019D8A41200C00E0C6E71D04CB9
:106325000E096E7B0E0A6E0E6A120E0D6E120C327F
:10633500513DE13251020D9F0EF324F66E770EF4B6
:1063450020F76E0900F5CF09F00A00F5CF0AF00233
:106355000E09242E6E000E0A202F6E2EC0F6FF2F7A
:10636500C0F7FFF86A070EF76403D00800F550057B
:10637500D0F6CFE1FFF7CFE2FFE7500D6E030E0930
:10638500242E6E000E0A202F6E2EC0F6FF2FC0F7AA
:10639500FFF86A070EF76403D00800F55005D0F63C
:1063A500CFE1FFF7CFE2FFE7500E6E12000C6A1245
:1063B50000030E326121D03251020D990EF324F6FD
:1063C5006E770EF420F76E0900F5CF09F00A00F597
:1063D500CF0AF009C0F6FF0AC0F7FFF86A070EF703
:1063E5006403D00800F55005D0F6CFE1FFF7CFE202
:1063F500FFE7500D6E0E6A12000C6A12000C6A124D
:10640500003351010A8CE0030A92E0010AD1E0F65B
:10641500D7C651A70FD96EDA6AC4C0BFF0C5C0C0D0
:10642500F0C26B0A0EC16FB0EC24F0BF51300FDF24
:106435006EC4C0B8F0C5C0B9F0BB6B0A0EBA6F1810
:10644500EC25F0B8C0C4F0B9C0C5F0C651A60FD947
:106455006EDA6AC4C0BFF0C5C0C0F0C26B0A0EC117
:106465006FB0EC24F0BF51300FDF6EC4C0B8F0C57B
:10647500C0B9F0BB6B0A0EBA6F18EC25F0B8C0C4F2
:10648500F0B9C0C5F0C651A50FD96EDA6AC4C0BF50
:10649500F0C5C0C0F0C26B0A0EC16FB0EC24F0BFEE
:1064A50051300FDF6EC4C0B8F0C5C0B9F0BB6B0A80
:1064B5000EBA6F18EC25F0B8C0C4F0B9C0C5F0C667
:1064C50051A40FD96EDA6AC4C0BFF0C5C0C0F0C20E
:1064D5006B0A0EC16FB0EC24F0BF51300FDF6EC4F4
:1064E500C0B8F0C5C0B9F0BB6B0A0EBA6F18EC2581
:1064F500F0B8C0C4F0B9C0C5F0C651A30FD96EDA63
:106505006AC4C0BFF0C5C0C0F0C26B0A0EC16FB08F
:10651500EC24F0BF51300FDF6E120020EE01F015B4
:1065250050D9261650DA22DF50406E4050055C00E7
:106535000E065802E205C040F04050055E000E060A
:106545005A3F6A0FD0380E3F24D96EDA6A040EDA44
:106555002201C0E1FF02C0E2FFDFCFE7FF014A02EF
:106565002A3F2A40503F5CEEE30550061032E020FA
:10657500EE01F01750D9261850DA22080EDF6E20EA
:10658500EE02F01750D9261850DA22380EDE6E04C6
:106595000EDD6E15C0D9FF16C0DAFFDFBC0DD017B2
:1065A500C0D9FF18C0DAFF480EDF6E17C0D9FF1833
:1065B500C0DAFF000EDB8E000C17C0D9FF18C0DA59
:1065C500FF080EDF6E17C0D9FF18C0DAFF000EDB1B
:1065D5008E000C20EE01F01750D9261850DA22084B
:1065E5000EDF6E20EE02F01750D9261850DA223051
:1065F5000EDE6E040EDD6E17C0D9FF18C0DAFFDFA0
:106605006E17C0D9FF18C0DAFF000EDB8E075008E1
:10661500100EE020EE07F001D80AD00500FA6EDE74
:1066250050FD6EDE50FE6EF850FF6EFA50120004FB
:106635009E1E50D8B4C7EC2CF01200D65101E1BF14
:10664500D0200EA065B9D0D96BDA6BB96B0A0EB83C
:106655006F14EC23F0200EDB6F030E57EC24F07D56
:1066650051B8277E51B923D890B931D76FB8317D4C
:106675006FD7C07EF0DB07DB51EFE1B96B0A0EB8CF
:106685006F14EC23F0200EDC6F020E57EC24F0D9CA
:1066950051B827DA51B923D890B931D76FB831D964
:1066A5006FD7C0DAF0DC07DC51EFE1D951A4EC2259
:1066B500F0836F846BA06B1FEC22F0FD0EC56F7C21
:1066C5000EC66FC76BC86B42EC27F0A10E0001C563
:1066D5006F7E0EC66FC76B010EC86F42EC27F00ABE
:1066E5000E0001CA6F010ECB6F9D5155EC26F0DFF0
:1066F5000E0001C56F7D0EC66FC76B020EC86F42D7
:10670500EC27F07DC0CAF07EC0CBF0030E0001CCB3
:106715006F020ECD6F11EC30F00C0E0001CA6F0246
:106725000ECB6F835155EC26F0630E0001C56F7DCE
:106735000EC66FC76B030EC86F42EC27F0CFEC2473
:10674500F096EC21F09D6F9D5103E1050E9D6F05BF
:10675500D0DF0E9D6502D0CE0E9D27BC6B9D51E00E
:10676500EC26F0200EA66F7DC0C4F07EC0C5F004F7
:106775000EC66F0BEC32F0090EBC6F8351E0EC26B0
:10678500F000F0910E0001C56F7B0EC66F0F0EC7AE
:106795006F010EC86F42EC27F0000E0001B96F7F44
:1067A5000EBA6FA30EBB6F0C0EBC6F2AEC2AF00756
:1067B5000E00019F6F080E02D0A02B0E0E9E6FA932
:1067C500EC27F0FFD70001F06BF16BF46B80A002B2
:1067D500D0040EFD6F95A107D082EC21F030EC2F8F
:1067E500F09551B9EC21F062EC25F0F56FF5050453
:1067F500E19F6B010EF16F06D0020EF51903E19FC3
:106805006B010EF46F3DEC25F0000903E0010EF875
:106815006F01D0F86B060E9E1903E0020E9E193B20
:10682500E1040E9A6538D0F26BF36BB96B0A0EB8BA
:106835006F14EC23F0200EF66F030E57EC24F07D59
:1068450051B8277E51B923D890B931EE6FB8317D53
:106855006FEEC07EF0F607F651EFE1B96B0A0EB8A0
:106865006F14EC23F0200EF76F020E57EC24F0F2B4
:1068750051B827F351B923D890B931EE6FB831F239
:106885006FEEC0F3F0F707F751EFE1F251A4EC22F8
:10689500F0836F846B9A6B9F5160E0090E9F655D75
:1068A500D0010EF06F9F6B59D0FFD71FEC22F00A75
:1068B5000EC56F7F0EC66F010EC76FC86B42EC2702
:1068C500F0560E0001C56F7F0EC66F020EC76F0131
:1068D5000EC86F42EC27F0EC0E0001C56F7C0EC6AA
:1068E5006FC76B030EC86F42EC27F00001946B0273
:1068F5000E28D0F4C0DDF0F8518BEC37F0000936E6
:10690500E01FEC22F0410EC56F7D0EC66FC76BC848
:106915006B42EC27F0520E0001C56F7D0EC66FC7A6
:106925006B020EC86F42EC27F0CA0E0001C56F7CE2
:106935000EC66FC76B030EC86F42EC27F000019EB1
:106945006B030EFD6F13D0F4C0D4F0F8C0D5F0F092
:10695500C0D6F0F15120EC33F009D0FD51010AA564
:10696500E0030AC7E0010AEFE0070A9EE1FD5112C4
:1069750000040132050BE130511F0B08E10C8E03B9
:106985000E311903E1010E1D6E01D01D6A3251D879
:10699500A4120030511F0B020AD8A4120034510F63
:1069A5000BD8B4120034510F0B436E030E43600332
:1069B5000C200E00019119D8A412000C8E0401348C
:1069C500BF11D034510F0B020DF350600FD96EDAA1
:1069D5006ADECF48F0DDCF49F034510F0B436E43EB
:1069E500506D0F10D034510F0B020DF3500F0FD90E
:1069F5006EDA6ADECF48F0DDCF49F034510F0B4334
:106A05006E43506A0FD96EDA6ADF50476E47B0029F
:106A1500D0489401D0488434BF06D034510F0B02BE
:106A25000DF350600F05D034510F0B020DF3500FCD
:106A35000FD96EDA6A48C0DEFF49C0DDFF030E31AB
:106A45001923E148C0D9FF49C0DAFFDFAE11D034C0
:106A5500BF06D034510F0B436E43506D0F05D03434
:106A6500510F0B436E43506A0FD96EDA6A0001DF8E
:106A75008248C0D9FF49C0DAFF000EDB8448C0D97F
:106A8500FF49C0DAFFDB8E000C040E481A48C0D956
:106A9500FF49C0DAFFDFAE19D048C0D9FF49C0DAD7
:106AA500FF7F0EDF1648C0D9FF49C0DAFF000EDBB5
:106AB5008C3C6A050E3B6E48C03DF049C03EF04037
:106AC5006A020E3F6EF3EC24F006D048C0D9FF49A8
:106AD500C0DAFF000EDB8C040E481A47B206D04818
:106AE500C0D9FF49C0DAFFDFAE25D0040134BF06A7
:106AF500D034510F0B436E43506D0F05D034510FF9
:106B05000B436E43506A0FD96EDA6A0001DF924873
:106B1500C0D9FF49C0DAFF3B0EDF163C6A050E3BC4
:106B25006E48C03DF049C03EF0406A020E3F6EF32C
:106B3500EC24F006D048C0D9FF49C0DAFF3B0EDF90
:106B450016040134510F0B436E446A6A0E43244503
:106B55006E0F0E4420466E45C0D9FF46C0DAFFFED3
:106B65000EDF16FE0CC80ED46FC1D1250EDC190937
:106B7500E0C4C0D9FFC5C0DAFFDCC0DFFFC44BC528
:106B85002BB5D1DA6BDB6BD96B03D0D985C64BC777
:106B95002BC6C0F6FFC7C0F7FF0800F550300AF551
:106BA500E0C6C0F6FFC7C0F7FF0800F55074EC2239
:106BB500F001E287D0DA6BDB6BDAC0B8F0DBC0B985
:106BC500F0BB6B0A0EBA6FC6EC22F0B8C0DAF0B9AA
:106BD500C0DBF0D00ECC6FCD69C6C0F6FFC7C0F7DD
:106BE500FF0800F550CE6FCF6BCC51CE27CD51CFDE
:106BF50023CE51DA27CF51DB23C64BC72BC6C0F6B0
:106C0500FFC7C0F7FF0800F55074EC22F05AE3D433
:106C1500D7D98F6ED0D451D96EDA6ADECFD2F0DDF6
:106C2500CFD3F0020ED427D251D31104E1AB0ED24B
:106C35006F7F0ED36FD56BD66B02D0D54BD62BD5C8
:106C450051D225CC6FD651D321CD6FCCC0F6FFCD17
:106C5500C0F7FF0800F550F1E1DA51D55DDB51D6FB
:106C65005905E2D551DA5FD651DB5B0BD0DA6BDB28
:106C75006B08D0C4C0D9FFC5C0DAFF200EDF6EC4D3
:106C85004BC52BDA07D8A0DB07DA29F3E1DB29109E
:106C9500E0F0D7D2C0F6FFD3C0F7FFC4C0D9FFC517
:106CA500C0DAFF0800F5CFDFFFD24BD32BC44BC5AD
:106CB5002BD507D8A0D607D529ECE1D62901E116B1
:106CC500D1E8D7C6C0F6FFC7C0F7FFC64BC72B082C
:106CD50000F5CFDCF0DC5101E115D1580A99E03C13
:106CE5000A07E00D0A05E01A0A95E00B0A91E0FE95
:106CF500D0D9BF12D0D451D96EDA6ADECFD7F0DD44
:106D0500CFD8F0020ED427D8AF3DD0030ED913D774
:106D15006DD81FD8B0D82B36D0D451D96EDA6ADEEB
:106D2500CFD7F0DDCFD8F0020ED4272CD0010EDC62
:106D35006FDC51020D870EF324F66E770EF420F703
:106D45006E0900F550D75D0900F550D85920E3DCF0
:106D55002B050EDC191CE0ECD7010EDC6FDC5102B3
:106D65000D910EF324F66E770EF420F76E0900F5FB
:106D750050D75D0900F550D8590AE3DC2B040EDC29
:106D85001906E0ECD7D951800BD1E0800AE5E0DAAD
:106D950051DB1108E0D9C0CCF0030ECC1703E0DAC3
:106DA50007D8A0DB07800EDCBF7F0ECC6FDA51DC85
:106DB5005DDB51800ACC5907E2DC51DA5F000EDC5D
:106DC500BFFF0EDB5B02D0DA6BDB6BD9A51CD0D91C
:106DD500C0CCF0030ECC1708E0C4C0D9FFC5C0DA9B
:106DE500FF2D0EDF6EC44BC52BDA51DB112AE0C433
:106DF500C0D9FFC5C0DAFF300EDF6EC44BC52BDA34
:106E050007D8A0DB07F1D7DA51DB110EE0C4C0D9F2
:106E1500FFC5C0DAFF200EDF6EC44BC52BDA07D8DD
:106E2500A0DB07DA51DB11F2E1D9C0CCF0030ECCBF
:106E35001708E0C4C0D9FFC5C0DAFF2D0EDF6EC448
:106E45004BC52BDCC0D1F04FD0D151020D870EF3CD
:106E550024F66E770EF420F76E0900F5CFBAF00A26
:106E650000F5CFBBF0D7C0B8F0D8C0B9F018EC2505
:106E7500F0B8C0BFF0B9C0C0F0C26B0A0EC16FB0A8
:106E8500EC24F0BF51300FDC6F26D0D7C0B8F0D856
:106E9500C0B9F0D151020D910EF324F66E770EF4C0
:106EA50020F76E0900F5CFBAF00A00F5CFBBF01850
:106EB500EC25F0B8510F0BD06FB90ED025F66EF753
:106EC5006A7C0EF7220800F5CFDCF005D0D9518099
:106ED5000BBBE0800ADAE0C4C0D9FFC5C0DAFFDC2D
:106EE500C0DFFFC44BC52BD107D129F0E1C6C0F6E1
:106EF500FFC7C0F7FFC64BC72B0800F5CFDCF0DC9A
:106F05005101E033D6C4C0D9FFC5C0DAFFDF6A003E
:106F15000CED6F0001E86BFCD3FFD7899E899C3D82
:106F2500EC25F00009FCE1B90EB96F7E0EBA6F2BA6
:106F3500EC26F01FEC22F0BD0EC56F7E0EC66FC7A6
:106F45006BC86B42EC27F00001B96B640EB86F1487
:106F5500EC23F0010E75D2ED5102E1C0EF3BF09A42
:106F65000EB86F010EB96FF80EBA6F7F0EBB6FBD0D
:106F75006B040EBC6F75EC27F0B851B91118E12CF4
:106F85000EB96F7C0EBA6F2BEC26F01FEC22F0AD1C
:106F95000EC56F7E0EC66FC76BC86B42EC27F0003F
:106FA50001B96B500EB86F14EC23F0020E49D21FD5
:106FB500EC22F0980EC56F010EC66FC76B030EC8A5
:106FC5006F42EC27F0030E0001B96FE80EB86F149D
:106FD500EC23F0946BD2D3ED5101E1CFD3980EB8E9
:106FE5006F010EB96FBF0EBA6F7D0EBB6FCFEC2868
:106FF500F0B851B911EEE1930EB96F7B0EBA6F2B54
:10700500EC26F01FEC22F0D10EC56F7E0EC66FC7C1
:107015006BC86B42EC27F00001B96B500EB86F14CA
:10702500EC23F0030E0DD2ED5101E1A7D3980EB874
:107035006F010EB96FBF0EBA6F7D0EBB6FCFEC2817
:10704500F0B851B911C6E1620EB96F7B0EBA6F2B5C
:10705500EC26F01FEC22F0C50EC56F7E0EC66FC77D
:107065006BC86B42EC27F00001B96B500EB86F147A
:10707500EC23F0040EE5D1ED5101E17FD3980EB874
:107085006F010EB96FBF0EBA6F7D0EBB6FCFEC28C7
:10709500F0B851B9119EE1830EB96F7D0EBA6F2B11
:1070A500EC26F01FEC22F0930EC56F7F0EC66FC75E
:1070B5006BC86B42EC27F00001B96B500EB86F142A
:1070C500EC23F0050EBDD1ED5101E157D3980EB873
:1070D5006F010EB96FBF0EBA6F7D0EBB6FCFEC2877
:1070E500F0B851B91101E075D7730EB96F7D0EBABD
:1070F5006F2BEC26F01FEC22F03B0EC56F7F0EC602
:107105006FC76BC86B42EC27F00001B96B500EB826
:107115006F14EC23F0070E94D1ED5101E12ED398B5
:107125000EB86F010EB96FBF0EBA6F7D0EBB6FCF74
:10713500EC28F0B851B91101E04CD75D0EB96F7C60
:107145000EBA6F2BEC26F01FEC22F08B0EC56F7F6D
:107155000EC66FC76BC86B42EC27F00001B96B50C8
:107165000EB86F14EC23F08B6B8C6B060E69D1EDAA
:107175005101E103D3980EB86F010EB96FBF0EBA76
:107185006F7D0EBB6FCFEC28F0B851B91101E0212E
:10719500D78CBF0CD08C5103E1310E8B5D07E38C8E
:1071A500BF09D08C5103E1340E8B5D04E38F0EE0F3
:1071B5006F7D0E03D0CE0EE06F7D0EE16F580EC4CD
:1071C5006F010EC56F8D0EC66F7C0EC76F8BC0C865
:1071D500F08CC0C9F0E0C0CAF0E1C0CBF0B5EC3529
:1071E500F0580EB96F010EBA6F2BEC26F01FEC228A
:1071F500F0EA0EC56F7F0EC66FC76BC86B42EC27F2
:10720500F06A0E0001C56F010EC66FC76B010EC88F
:107215006F42EC27F00001B96B500EB86F14EC23E8
:10722500F08B4B8C2B8CBFA1D78C5103E1480E8B77
:107235005D9CE3080E05D1ED5101E19FD2980EB892
:107245006F010EB96FBF0EBA6F7D0EBB6FCFEC2805
:10725500F0B851B91101E0BDD6B96BC80EB86F14BD
:10726500EC23F0540EB96F7E0EBA6F2BEC26F01F8F
:10727500EC22F0580EC56F7E0EC66FC76BC86B4209
:10728500EC27F00001B96B500EB86F14EC23F00930
:107295000ED7D0ED5101E171D2980EB86F010EB93C
:1072A5006FBF0EBA6F7D0EBB6FCFEC28F0B851B92A
:1072B5001101E08FD61FEC22F0DB0EC56F7C0EC6E8
:1072C5006FC76BC86B42EC27F00001B96B500EB865
:1072D5006F14EC23F00A0EB4D0ED5101E14ED298B3
:1072E5000EB86F010EB96F440EBA6F7F0EBB6FCF2C
:1072F500EC28F0B851B9111AE1450EB96F7C0EBAF8
:107305006F2BEC26F01FEC22F0F10EC56F7F0EC639
:107315006FC76BC86B42EC27F00001B96B960EB8CE
:107325006F14EC23F00B0E946F898C27D21FEC227F
:10733500F00E0EC56F7D0EC66FC76BC86B42EC278E
:10734500F00001946B010EB96FF40EB86F14EC23C5
:10735500F023D0ED5101E111D2980EB86F010EB9AD
:107365006FBF0EBA6F7D0EBB6FCFEC28F0B851B969
:107375001115E11FEC22F0B30EC56F7D0EC66FC768
:107385006BC86B42EC27F00B0E0001B96FB80EB855
:107395006F14EC23F00C0E946F898EEFD11FEC2245
:1073A500F0140EC56F7F0EC66FC76BC86B42EC2716
:1073B500F00001946B010EB96FF40EB86F14EC2355
:1073C500F0899CDBD1898E899C1FEC22F0B90EC512
:1073D5006F7F0EC66FC76BC86B42EC27F000019636
:1073E5005104E1E30EE26F7F0E03D0B20EE26F7F30
:1073F5000EE36FE2C0C5F0E3C0C6F0060EC76FC866
:107405006B42EC27F0300E0001C56F7D0EC66FC7CD
:107415006B010EC86F42EC27F01F0E0001C56F7D92
:107425000EC66FC76B020EC86F42EC27F00001B99C
:107435006B500EB86F14EC23F08B6B8C6B0D0E0E2E
:10744500D1946F9BD1965102E19B5102E08B4B8CFD
:107455002BB96B640EB86F14EC23F0000E82B001EB
:107465000EFB6F000E82B2010EFC6FFB5123E1FE95
:107475000521E19651010ED8A4000E966FB90EC5EF
:107485006F7F0EC66FC76BC86B42EC27F000019685
:107495005104E1E30EE46F7F0E03D0B20EE46F7F7B
:1074A5000EE56FE4C0C5F0E5C0C6F0060EC76FC8AF
:1074B5006B42EC27F00001FC5104E1FF0502E101FC
:1074C5000E9B6FFBC0FEF0FCC0FFF08CBF56D18C4D
:1074D5005104E1150E8B5D01E250D19B6B8B6B8CDA
:1074E5006BE96BEA6BB96B0A0EB86F14EC23F020ED
:1074F5000EEB6FEB5110E0030E57EC24F07D51B805
:10750500277E51B923D890B931DE6FB8317D6FDE52
:10751500C07EF0EB07EED7B96B0A0EB86F14EC23FB
:10752500F0200EEC6FEC5110E0020E57EC24F0E960
:1075350051B827EA51B923D890B931DE6FB831E98E
:107545006FDEC0EAF0EC07EED7E951A4EC22F08338
:107555006F846B9A6B814B822B1FEC22F0B90EC5A1
:107565006F7F0EC66FC76BC86B42EC27F0000196A4
:107575005104E1E30EE66F7F0E03D0B20EE66F7F96
:107585000EE76FE6C0C5F0E7C0C6F0060EC76FC8C8
:107595006B42EC27F0D50E0001C56F7F0EC66FC795
:1075A5006B010EC86F42EC27F0C00E0001C56F7F5E
:1075B5000EC66FC76B020EC86F42EC27F0910E0026
:1075C50001C56F7B0EC66F0C0EC76F020EC86F42EA
:1075D500EC27F07DC0CAF07EC0CBF0060E0001CCD2
:1075E5006F010ECD6F11EC30F083C0CAF084C0CBB3
:1075F500F0060E0001CC6F020ECD6F11EC30F0DC01
:107605000E0001C56F7F0EC66FC76B030EC86F42B4
:10761500EC27F081C0CAF082C0CBF0060E0001CC89
:107625006F030ECD6F11EC30F0580E0001C46F01E1
:107635000EC56F750EC66F7C0EC76F83C0C8F0840C
:10764500C0C9F07DC0CAF07EC0CBF0B5EC35F058AE
:107655000EB96F010EBA6F2BEC26F00E0E0001F07D
:10766500D6CE0EC56F7F0EC66FC76B030EC86F42B1
:10767500EC27F081C0CAF082C0CBF0060E0001CC29
:107685006F030ECD6F11EC30F00001B96B500EB8E1
:107695006F14EC23F00F0ED4D6ED516FE0980EB8B1
:1076A5006F010EB96FB80EBA6F7D0EBB6FCFEC28A8
:1076B500F0B851B91162E1C70EC56F7F0EC66FC72D
:1076C5006B030EC86F42EC27F081C0CAF082C0CBB5
:1076D500F0060E0001CC6F030ECD6F11EC30F0AE4D
:1076E500D6010EE86FB96B500EB86F14EC23F04558
:1076F500D0000EB86B74EC24F082B002D082A2FCEC
:10770500D70001B96B280EB86F14EC23F0FF0035D4
:10771500D0945101E102D4010A01E11DD4030A010B
:10772500E15AD4010A01E17FD4070A01E1A4D40199
:107735000A01E1C9D4030A01E11AD5010A01E1EC04
:10774500D40F0A01E178D5010A01E1A3D5030A01A5
:10775500E1C3D5010A01E1FDD5070A01E133D601EF
:107765000A01E170D6030A01E17BD7010A95E01F02
:107775000AB7E0010ABDE08FEF37F00001E85112CA
:10778500000001000A006400E80310270100100052
:10779500000100105E7BE47A187BA17A00000000EE
:1077A500000000000000005F000000000000030072
:1077B50003000000643C26643C2624002649497FDA
:1077C50049493200422512082452210020504E55C5
:1077D50022582800000000030000000000001C22C1
:1077E5004100000000000041221C00000015150E9C
:1077F5000E1515000008083E08080000000000509E
:1078050030000000000808080808000000000040DB
:10781500000000004020100804020100003E414124
:10782500413E00000000417F4000000000426151E0
:10783500496E000000224149493600000018141223
:107845007F1000000027494949710000003C4A4962
:1078550048700000004321110D030000003649491E
:107865004936000000060949291E000000000012E3
:107875000000000000000052300000000000081465
:10788500142200000014141414141400000022140F
:107895001408000000020159050200003E415D5533
:1078A5004D512E00407C4A094A7C4000417F4949A0
:1078B500494936001C22414141412200417F414155
:1078C50041221C00417F49495D416300417F4909CF
:1078D5001D0103001C224149493A0800417F08085F
:1078E500087F41000041417F414100003040414156
:1078F5003F010100417F080C12614100417F414079
:1079050040406000417F420C427F4100417F420C74
:10791500117F01001C22414141221C00417F490980
:10792500090906000C12212161524C00417F090909
:107935001969460066494949494933000301417FB0
:1079450041010300013F4140413F0100010F31402A
:10795500310F0100011F6114611F0100414136080B
:107965003641410001034478440301004361514914
:107975004543610000007F41410000000102040809
:1079850010204000000041417F000000000402017A
:107995000102040000404040404040000001020058
:1079A5000000000000344A4A4A3C400000413F487C
:1079B50048483000003C424242240000003048481C
:1079C500493F4000003C4A4A4A2C00000000487EDE
:1079D5004909000000264949493F0100417F480403
:1079E500447840000000447D400000000000404411
:1079F5003D000000417F1018244242000040417FB5
:107A050040400000427E027C027E4000427E4402ED
:107A1500427C4000003C4242423C000000417F491C
:107A25000909060000060909497F410000427E4414
:107A35000202040000644A4A4A36000000043F443A
:107A45004420000000023E4040227E40020E3240AB
:107A5500320E0200021E6218621E02004262140803
:107A65001462420001434538050301000046625295
:107A75004A46620000000836410000000000007F11
:107A8500000000000000004136080000001808084A
:107A950010101800AA55AA55AA55AA55090243005F
:107AA500020100C0320904000001020201000524A0
:107AB500001001042402020524060001052401002A
:107AC500010705810308000209040100020A0000FC
:107AD500000705020240000007058202400000344D
:107AE500034D006900630072006F00630068006960
:107AF500007000200054006500630068006E006F90
:107B0500006C006F0067007900200049006E00637B
:107B1500002E00340343004400430020005200536C
:107B2500002D00320033003200200045006D007545
:107B3500006C006100740069006F006E0020004455
:107B45000065006D006F001201000202000008D8F8
:107B5500040A00000101020001040309046D6163C8
:107B650020736574206E776B736B657920324237AD
:107B75004531353136323841454432413641424648
:107B850037313538383039434634463343006D6133
:107B9500632073657420617070736B657920324260
:107BA5003745313531363238414544324136414227
:107BB5004637313538383039434634463343007318
:107BC5007973207365742070696E64696720475006
:107BD500494F313020300D0A007379732073657475
:107BE5002070696E646967204750494F31312030F4
:107BF5000D0A00737973207365742070696E64696A
:107C050067204750494F313020310D0A0073797391
:107C1500207365742070696E646967204750494F09
:107C2500313120310D0A006D616320736574206464
:107C350065766164647220414243443030303200DD
:107C45006D616320747820756E636E662031203017
:107C550030303030303030006D6163207365742012
:107C650072783220382039323333303030303000BA
:107C75006D616320747820756E636E6620312025F2
:107C850030345825303458006D6163207365742095
:107C950063682073746174757320256420257300EF
:107CA50073797320736C65657020393939393939C1
:107CB5003939390030313233343536373839414284
:107CC50043444546002028533129202020202020E8
:107CD50028533229200057616974206163636570F8
:107CE5007465642E2E2E00526552756E2050777283
:107CF5005473743C53323E00497373756520506567
:107D0500726F646963205458006D6F7465576169BB
:107D1500744163636570746564005332203D206D62
:107D2500616E75616C2073656E64005331203D2072
:107D35006175746F206F6E2F6F6666004D6F626997
:107D45006C65204D6F7465202D417070004E617615
:107D55006967617465202053656C65637400284EFE
:107D6500415629202020202853454C2920006D61AB
:107D750063207365742073796E63203334006D61FD
:107D8500632073657420616472206F6666004275B6
:107D9500696C6420446174652F54696D6500202009
:107DA500206275696C6420303131202020007761B4
:107DB5006974206D61635F74785F6F6B006D6163DB
:107DC5002073657420616472206F6E00536372695D
:107DD50070747220496F542D58004C3A2020202091
:107DE500202020543A20006D61632073657420645F
:107DF500722030006D6163207365742064722031D8
:107E0500006D6163207365742064722032006D61BA
:107E150063207365742064722033006D6163207381
:107E250065742064722034006D616320736574206D
:107E350064722035006D616320736574206472205F
:107E450036006D6163207365742064722037006DA0
:107E55006163206A6F696E20616270004275747497
:107E65006F6E20546573743A00427574746F6E3189
:107E7500205041535300427574746F6E3220504147
:107E8500535300507265737320427574746F6E009E
:107E95005553422048616E646C6572004F6E2050E8
:107EA5006F727420233A20007365742064657661CF
:107EB5006464720073797320676574207665720057
:107EC500736574206E776B736B65790073657420C9
:107ED500617070736B6579004D617920313720329F
:107EE50030313600427574746F6E204641494C003E
:107EF500436F6D6D20546573743A00726164696FE8
:107F050020747820004D4F5445204D6F6465006DF9
:107F15006F7465496E695478004C45442054657307
:107F2500743A00204465763A205332200043444396
:107F3500204D6F6465007365742073796E6300610D
:107F450063636570746564006D6163207361766554
:107F5500005374617274696E67004D6F54652076C5
:107F6500202E0031333A32343A303700524620540D
:107F75006573743A00414443205465737400436F3C
:107F85006D6D616E6400736574207278320073657F
:107F950074206164720054656D7020203D004C6949
:107FA500676874203D00286E756C6C290041555436
:107FB5004F2020004D6F64653A200054656D702098
:107FC5003A00506B74732D3A00506B74732F3A005E
:107FD5004C696768743A00506B74737C3A004D4184
:107FE5004E55414C0073657420636800696E6920C5
:0B7FF50074780032393033007A00004D
:020000040020DA
:08000000FFFFFFFFFFFFFFFF00
:020000040030CA
:0E00000021081F3EFFD181FF0FC00FE00F400F
:00000001FF
