:0610000055EF08F001FFAE
:101008005A82FACF4EF0FBCF4FF0E1CF50F0E2CF4B
:1010180051F0D9CF52F0DACF53F0F3CF54F0F4CFE8
:1010280055F0F6CF56F0F7CF57F0F8CF58F0F5CF88
:1010380059F09DB09EA005D09CEC1DF088EC1DF0E9
:1010480016D09DBA9EAA05D08BEC1DF02EEC1FF091
:101058000ED09DB89EA803D0F2EC1EF008D0A0BC1C
:10106800A1AC03D07EEC1DF002D0E4EC2DF059C009
:10107800F5FF58C0F8FF57C0F7FF56C0F6FF55C038
:10108800F4FF54C0F3FF53C0DAFF52C0D9FF51C078
:10109800E2FF50C0E1FF4FC0FBFF4EC0FAFF5A927B
:0610A8001100E9EF23F046
:103AF80012009977A19C1200CD801200BA8412009E
:103B080028501200F56B12000001F5811200010E19
:103B1800286E010CBCCF60F0605112000001606F8C
:103B280060C0F9F012000001606F60C053F112002C
:103B38009E903CC1CFFF3BC1CEFF12000001616FD8
:103B48008A9A6151C3EF1DF0616F8A8A0001615141
:103B5800C3EF1DF00D0EFBEC1FF00A0EFBEF1FF07C
:103B6800C76A210EC66EC86AC688C79C12007A0E3C
:103B7800BA6E9B0EBB6EBC6A9E9282EF1DF0606FA0
:103B8800C69E60C0C9FFC7A0FED7C9501200A09C3E
:103B98009C0E986E9A8A9A929A96A19CA09C9C0CCC
:103BA80060516111D8B4120060C0FDF161C0FEF12E
:103BB80012000001626F8A986251AF08A2EC1DF0F2
:103BC8008A881200606F60C0A9FFA69CA69EA68086
:103BD80000F000F0A8501200626FB00E00016213EE
:103BE8008A986251A2EC1DF08A881200606F000169
:103BF80060A302D00101502B000160B7292A1200EE
:103C08000001626FA60E62278A986251A2EC1DF02D
:103C18008A881200A00E7D6E010EC26E080EC16E5B
:103C28008E0EC06EC36AC46A1200800E9B6E700E40
:103C3800D36E100ED26ED2AEFED7900EB56E900C2B
:103C4800000E6BEC1EF0010E6BEC1EF0020E6BEC1E
:103C58001EF0030E6BEF1EF019EC1EF091EC21F034
:103C6800B4EC1DF0C8EC1FF0BBEC1DF00EEC1EF020
:103C7800CBEF1DF0648465986082010E0101476FE7
:103C88003C6A750E3B6E3D6A3E6A406A3F6AFCEFCD
:103C980020F0A3941F500AE160C02BF161C02CF101
:103CA80062C0F7F0010E01014D6F1F6EA384120070
:103CB800626F8A98000162390F0B1009A2EC1DF09F
:103CC800000162510F0BA2EC1DF08A88120000015E
:103CD8006D6F6E6B6EC063F06DC064F0200E5BECB0
:103CE80024F06E2B0F0E6E65F5D70F0C626F000176
:103CF800616B3A0E626105D02F0E626502D0010E2B
:103D0800616F61C060F060311200220E0001616FC6
:103D18007C0E626F35EC22F09DB8FED70001616B16
:103D2800140E606F06EF1FF093949398939AB2EC79
:103D38002AF0000E04EC1EF0990E0001606F770E59
:103D4800616FD4EC1DF024EF1EF00001676F060EC2
:103D58006725606F616BFF0E6123636B050E626FF1
:103D680021EC21F06051686F685112000101476B26
:103D78003C6A740E3B6E3D6A3E6A406A3F6AFCECE0
:103D880020F06092649401D0659465A41200FCD779
:103D980060516203F3CF64F0F4CF65F060516303C0
:103DA800F350652761516203F350652764C060F0E2
:103DB80065C061F01200606F0F0E000160170A0EF7
:103DC800606103D06051300F1200090E6065000C6D
:103DD800100E6061000C6051370F1200400E236016
:103DE8000FD0400E2524D96EDA6A020EDA22DF508F
:103DF800AD6E252A3F0E256401D0256A232A1200BC
:103E08009D981200636B646B0BD0100E626F940E5A
:103E1800E82EFED7622FFCD700D00001634B642B3D
:103E28006051635D61516459F0E31200616F080EDF
:103E38000001626F636BD89061356335636FD8900A
:103E480061376051635D02E36051635F622FF3D7AE
:103E580063511200ABA203D0AB98AB881200000EDE
:103E680001014E25D96EDA6A020EDA22AECFDFFFE3
:103E78004E2B3F0E4E6501D04E6B222A12002EC0EB
:103E880034F02FC035F008D034C0D9FF35C0DAFF80
:103E980030C0DFFF344A352A3206D8A0330632282C
:103EA800F3E13328F1E1120060C066F061C067F009
:103EB80008D066C0D9FF67C0DAFF62C0DFFF664B73
:103EC800672B6407D8A065076429F3E16529F1E148
:103ED8001200F451D8A41200606A646A160E626E69
:103EE8009F0E666E7B0E646ED08EA584A384F28EC0
:103EF80001D0608660A6FDD7010EF46F010C9D9A73
:103F08009D98480EB86E900EAB6E260EAC6E710E74
:103F1800AF6E020EB06E246A256A400E236E010150
:103F28004E6B4F6B226A9D8AAB8812000001606B52
:103F3800000E6025D96EDA6A020EDA22DF6A602B7B
:103F48003F0E6065F5D701014E6B4F6B226A9D9855
:103F5800246A256A400E236E400C9D9A9D98480E4F
:103F6800B86E900EAB6E260EAC6E710EAF6E020E72
:103F7800B06E246A256A400E236E01014E6B4F6BAA
:103F8800226A9D8AAB881200CD6ACC6AD00ECF6EA9
:103F9800200ECE6ECE50CFCF60F00001616B60C0B6
:103FA80061F0606B601101013B6F0001615101011B
:103FB8003C6F9E909D8080EF1DF001D0898E22502D
:103FC800FDE09D9A000E01014F25D96EDA6A020EB6
:103FD800DA22DF500001606F01014F2B3F0E4F6561
:103FE80001D04F6B22069D8A00016051120000012A
:103FF800606F2350FEE09DB803D060C0ADFF0FD0C6
:104008009D98400E2424D96EDA6A020EDA2260C026
:10401800DFFF242A3F0E246401D0246A23069D88EA
:104028001200396E36A404D02E6A3950E7EC25F018
:1040380036A205D0010E2E6E3950E7EC25F06A0E37
:104048003924376E386A0F0E382237C0D9FF38C086
:10405800DAFF36C0DFFF0F0C616F0001636B605140
:1040680014E0010E626F03D0D8906037622B60AF06
:10407800FBD7D89063376051615D03E36051615F9E
:104088006381D8906033622FF4D7635112000BEC30
:1040980022F0F86B080EFA6FF96BF46B4B0EF56FA4
:1040A800F66BF76B83EC1FF03A6A560E3A24D96E1A
:1040B800DA6A010EDA22DF6A3A2A3F0E3A64F5D745
:1040C8001A6A196A12000001646F64C062F06247DC
:1040D8006247C2506219830B6219C26EC280140E05
:1040E800E82EFED7C282C2B2FED7C4500001636F69
:1040F800626BC3506225606F000E6321616F12000E
:10410800616F000EF2BE010E0001626F61C0A9FF6F
:1041180060C0A8FFA69EA69CA684F29E550EA76E18
:10412800AA0EA76EA682A6B2FED7A694000162B117
:1041380002D0F29E01D0F28E12000001606F2F0EA5
:10414800606506D03A0E606103D06051D00F12004E
:10415800400E606506D0470E606103D06051C90FFC
:104168001200600E6065000C670E6061000C605103
:10417800A90F12006AA01BD015C0D9FF16C0DAFF1C
:10418800800EDE1813E10FC0D9FF10C0DAFF840ECD
:10419800DE180CE115C0D9FF16C0DAFF0C0EDF6E71
:1041A80015C0D9FF16C0DAFF000EDB8E6A90659A3B
:1041B800120069516A1117E0010E6B6F04D0D89094
:1041C80069376A376B2B6AAFFAD76951675D6A51ED
:1041D800685904E36951675F6A51685BD8906A332C
:1041E80069336B2FF2D767C067F068C068F01200B8
:1041F8003BC041F03CC042F0425004E07F0AD8A4E2
:10420800120019D04150010A02E14BEF20F0030AD5
:10421800D8B41200010A02E159EF25F0060AD8B411
:104228001200770AD8B41200010AD8B41200070A9B
:10423800D8A4010A1200411C1200656B666B62511A
:1042480063111BE0010E646F04D0D89062376337A6
:10425800642B63AFFAD7D890653766376251605DD3
:104268006351615905E36251605F6351615B658128
:10427800D89063336233642FEED765C060F066C0B0
:1042880061F012000001616B22501FE0E1EC1FF0A9
:10429800626F0D0E62190BE1960E2624D96EDA6A4A
:1042A800010EDA22DF6A010E616F266A0ED06251B2
:1042B8000CE00A0E621909E0960E2624D96EDA6A15
:1042C800010EDA2262C0DFFF262A615112000001C6
:1042D800606B2E0E6025D96EDA6A010EDA22DF6A6B
:1042E800602B020E6065F5D7616B000E6125D96EF3
:1042F800DA6A010EDA22DF6A612B210E6165F5D7D1
:10430800626B100E6225D96EDA6A010EDA22DF6A54
:10431800622B090E6265F5D7090C9280928292840D
:1043280092869298929A929C929E9390939293944A
:104338009396939A948094829484949C948E939C5C
:10434800938E8988899A899C899E8A948A908A9A68
:104358008A9C8A9E8B948B9C0F015B915B835B8507
:104368005B875D9F5D9D1200020E201802E10DEF34
:1043780030F0206A45511FE120EE01F01750D92690
:104388001850DA22080EDF6E20EE02F01750D926F8
:104398001850DA22300EDE6E040EDD6E17C0D9FF1B
:1043A80018C0DAFF0C0EDF6E17C0D9FF18C0DAFF8D
:1043B800000EDB8E000C456B1200E2C1F4F1E3C184
:1043C800F5F1E4C1F6F1E5C1F7F12E6A1B0E2F6E87
:1043D800B70E306E316AF4C132F0F5C133F0F6C170
:1043E80034F0F7C135F020EC24F0FF0E2E243B6E9C
:1043F800FF0E2F203C6EFF0E30203D6EFF0E312049
:104408003E6E3BC0AFFF3CC0B0FF83EF1FF0010121
:10441800F46B4B0EF56FF66BF76BF86BF96B080ED8
:10442800FA6F0001F66B1A0E366E010E15EC20F0CD
:104438001E0E366E020E15EC20F0000E2E6E400E8B
:104448002F6E050E306E400E316E020E6EEC27F0A8
:104458002EC033F12FC034F10101316B326B1F6A6A
:10446800120015D061C0F6FF62C0F7FFF86A070EA8
:10447800F76403D00800F55005D0F6CFE1FFF7CF79
:10448800E2FFE750FBEC1FF00001614B622B61C0BB
:10449800F6FF62C0F7FFF86A070EF76403D008005A
:1044A800F55005D0F6CFE1FFF7CFE2FFE75000095E
:1044B800D9E1AEEF1DF082A002D082B216D0010180
:1044C8001E2B000E1F2320232123370E1E191F1118
:1044D8002011211107E1556B82B002D0010E11D0D5
:1044E800020E0FD00001606B0ED0140E0101551999
:1044F80006E11E6B1F6B206B216B556B01D0552B92
:10450800030E0001606F605112000001746F0A0E03
:10451800606F74511AEC1FF0300F776F0A0E606FDE
:10452800745130EC20F0746F0A0E606F74511AECFD
:104538001FF0300F766F0A0E606F745130EC20F068
:10454800746F0A0E606F74511AEC1FF0300F756F9C
:10455800786B750E6D6F6E6B72C06FF073C070F014
:1045680017EF23F02A6A1D6A486B496B456B206A6E
:104578000FC0D9FF10C0DAFF7F0EDF16040E0F1A26
:104588000FC0D9FF10C0DAFF7F0EDF16040E0F1A16
:1045980017C0D9FF18C0DAFF7F0EDF160C6A0D6A44
:1045A8000E6A046A056A066ACCEC26F03C6A030EB9
:1045B8003B6E3D6A3E6A406A3F6AFCEC20F01EEFA3
:1045C8002BF0676B656B666BAC9A8B9C616B0A0E04
:1045D800606F06EC1FF0AC8A616B050E606F06EC2D
:1045E8001FF0550EAD6EACA2FED7FD0E616F7F0EAB
:1045F800626F35EC22F00001616B280E606F06ECEB
:104608001FF00ED046EC21F0000903E0010E676FA1
:1046180007D0654B662B890E655D130E6659F6E269
:104628006751F0E112006FC071F00F0E716501D093
:104638000F0C6DC0F6FF6EC0F7FFF86A070EF7643F
:1046480003D00800F55005D0F6CFE1FFF7CFE2FF21
:10465800E7500009D8B4120071C063F070C064F06C
:104668006DC0F6FF6EC0F7FFF86A070EF76403D057
:104678000800F55005D0F6CFE1FFF7CFE2FFE7508D
:104688005BEC24F06D4B6E2B712BCFD729D060C01B
:10469800D9FF61C0DAFFDF500DE060C0D9FF61C00B
:1046A800DAFFDF50666F62C0F6FF63C0F7FF0800ED
:1046B800F51812E060C0D9FF61C0DAFFDF50666FFD
:1046C80062C0F6FF63C0F7FF0800F550665D606FD3
:1046D800616BD8A061071200604B612B624B632BA2
:1046E8006407D8A065076429D2E16529D0E1606B29
:1046F800616B120082A2FED789EC1EF0010EDDEC80
:104708001DF0C290F29EF29EF29C0F015B81A08C7C
:10471800878087828784F286825082508250F29006
:10472800A19C00F0030000F09AEC1FF0F29687902D
:1047380087928794A09CF28E91EC21F0B1EC1FF047
:10474800F2A002D0F29002D00A0E296E0F015B91FE
:10475800000EDDEC1DF098EC1EF0E5EF22F00001F4
:10476800656FD80E6425D96EDA6A010EDA220A0E50
:10477800606F65511AEC1FF0300FDF6E0A0E606F24
:10478800655130EC20F0656FD70E6425D96EDA6A72
:10479800010EDA220A0E606F65511AEC1FF0300F15
:1047A800DF6E0A0E606F655130EC20F0656FD60E33
:1047B8006425D96EDA6A010EDA220A0E606F655135
:1047C8001AEC1FF0300FDF6E120002EE00F0800EC0
:1047D800EE6AE806FDE101EE00F0FD0EEE6AE8067D
:1047E800FDE10001F86BF76BF66BF56BF46B00EE0F
:1047F80001F02D0EEE6AE806FDE1FA0EF66E3A0EAD
:10480800F76E000EF86E0900F5CFFDF10900F5CF3F
:10481800FEF1040EF66E100EF76E000EF86E09002B
:10482800F5CFF9F00900F5CFFAF05A905A92000E38
:10483800F86E000189EF29F0366A376A386A396AF2
:10484800325033103410351029E0010E3A6E06D07C
:10485800D89032363336343635363A2A35AEF8D72C
:10486800D890363637363836393632502E5C335093
:104878002F58345030583550315809E332502E5E95
:1048880033502F5A3450305A3550315A3680D890D8
:1048980035323432333232323A2EE2D736C02EF045
:1048A80037C02FF038C030F039C031F012000001A5
:1048B8006B6F6451F0EC1DF000016351080DF3506B
:1048C8005CEC1EF08A9800016C6B656B66696B5135
:1048D800676F686BD89067376837D89067376837DD
:1048E800D89067376837FDC169F0FEC16AF0675133
:1048F800692768516A236C516927000E6A2365513C
:10490800692766516A2369C0F6FF6AC0F7FF080085
:10491800F550A8EC1DF000016C2B070E6C65D5D77F
:104928008A88070C2FD0FFD724EC1EF0390E6D6F44
:104938007F0E6E6F010E6F6F706B17EC23F0A50E74
:1049480000016D6F7F0E6E6F020E6F6F010E706F3C
:1049580017EC23F07D0E00016D6F7E0E6E6F6F6B8E
:10496800020E706F17EC23F0010E06D0200E000126
:10497800F46101D00FD0020E0101536F0BD0CFECC0
:1049880028F008D001015351CFE0010AEFE0030AF3
:10499800F6E0C9D780B0F6D700F0120060C0D9FFA2
:1049A80061C0DAFFDF50666F62C0F6FF63C0F7FFD1
:1049B8000800F5CF68F066512CE0020E6027000E63
:1049C80061236851661925E12FEEFFF06051D92661
:1049D8006151DA22DF50676F6229646F000E63212C
:1049E800656F64C0F6FF65C0F7FF0800F5CF68F093
:1049F800675107E16851675D606F616BD8A0610717
:104A08001200020E6227000E632367516819F2E153
:104A1800C5D76851665D606F616BD8A061071200E9
:104A28000401386B396B30D00C8E0101460533E137
:104A38000401388330D00C8E2ED00C8E34BF0AD0AF
:104A480034510F0B020D180EF324D96E010EF42009
:104A5800DA6E07D034510F0B020DF3500F0FD96ED9
:104A6800DA6ADECF2EF0DDCF2FF02EC0D9FF2FC0AF
:104A7800DAFFDFAE10D02EC0D9FF2FC0DAFFDFA4D7
:104A88000AD0010E386F07D030511F0BCDE0010A54
:104A9800D2E0030AD2E00CAE1200380E096E040E02
:104AA8000A6E0C80020E0D6E020C040130511F0BB1
:104AB800E80601E012003039E832030BE80601E0AD
:104AC800120034512EE034052CE01200EC0E096E71
:104AD800010E0A6E0E6A080E0D6E0C800C8E080C04
:104AE800EC0E096E010E0A6E0C8E120036C405F02B
:104AF80037C406F0E20E016E010E026EC20E076E9A
:104B0800430E086E048E1200F40E096E010E0A6E32
:104B18000E6A070E0D6EC10E0C6EC10C32510C8E52
:104B280012003151D3E0010ADBE0210ADFE0010A7B
:104B3800EBE0030AF3E01200486B496B020E201801
:104B48001FE120EE01F01750D9261850DA22080E7E
:104B5800DF6E20EE02F01750D9261850DA22380EF0
:104B6800DE6E040EDD6E17C0D9FF18C0DAFF480EDE
:104B7800DF6E17C0D9FF18C0DAFF000EDB8E000CFD
:104B88000D500401365D0E50375904E236C40DF05D
:104B980037C40EF0E9EC29F020EE02F00F50D926C8
:104BA8001050DA22380EDE6E040EDD6E0FC0D9FF0B
:104BB80010C0DAFF480EDF6E0FC0D9FF10C0DAFF51
:104BC800000EDB8E000C336E346A040E356E2E50E8
:104BD8002F6E306AD8902F3630363350316E326AA5
:104BE800D89031363236D890313632362F50312679
:104BF80030503222D89031363236D890313632366B
:104C0800315034263250352234C0D9FF35C0DAFF4E
:104C1800DF9E2E5009E13350020D180EF324D96E91
:104C2800010EF420DA6E06D03350020DF3500F0F48
:104C3800D96EDA6A34C0DEFF35C0DDFF34C0D9FF73
:104C480035C0DAFFDF9C20EE04F03450D926355009
:104C5800DA22DF8C1200A235A335A96FA95105E12C
:104C6800A06BA16BA26BA36B1200A0C0A4F0A1C0A3
:104C7800A5F0A2C0A6F0A3C0A7F0200E05D0D8903A
:104C8800A733A633A533A433E82EF9D7A451A86FC8
:104C9800A28FA36B960EA95FA9AF0CD0A951800A69
:104CA800970FDEE3D890A333A233A133A033A93FF3
:104CB800F9D70CD01F0EA96507D0D2D7D890A03746
:104CC800A137A237A337A907A951F8E1A85108E0ED
:104CD800A31FA21FA11FA06D000EA123A223A3231F
:104CE800A0C0A0F0A1C0A1F0A2C0A2F0A3C0A3F0F0
:104CF8001200F66B0101335134110AE033C1D9FFB8
:104D080034C1DAFF010EDFAE000E00016B6F02D076
:104D180000016B6B6C6B6B516C1138E1010120EE7B
:104D280001F03351D9263451DA2200016951DE5C91
:104D38000AE2010120EE01F03351D9263451DA227A
:104D4800DF500001696FF66B0FD0400EF625D96E63
:104D5800DA6A050EDA22F6516725E16E000E68213F
:104D6800E26EDFCFE7FFF62B6951F65DEEE3000E4A
:104D7800606F400E616F050E626F400E636F020E2A
:104D8800C5EC27F060C033F161C034F1F651120070
:104D980004013039E832030B2CE012000C8E080EA7
:104DA8000001F46F080C2C0E096E0A6A0C80010EC3
:104DB8000D6E0C8E010CFB0E3425096E0A6A010E6D
:104DC8000A220C80010E0D6E0C8E010C0C8EFB0E4F
:104DD8003425D96EDA6A010EDA2232C4DFFF1200F6
:104DE8003C6A020E3B6E3D6A3E6A406A3F6AFCEFCF
:104DF80020F0315102E114EF25F0010A02E158EFE9
:104E080033F0020A02E158EF33F0060AC7E0030A5A
:104E180002E163EF2DF0010AE3E00F0AC4E0010AA2
:104E280002E11DEF28F0030AC6E0010ACFE0070AF5
:104E380012000BD061C0F6FF62C0F7FF0800F55002
:104E4800FBEC1FF00001614B622B61C0F6FF62C0F2
:104E5800F7FF0800F550EEE1676B67516325D96EDF
:104E6800000E6421DA6EDF50FBEC1FF00001672BA7
:104E7800020E6765F2D720EE03F06351D92664511C
:104E8800DA22DF50FBEC1FF0040E0001686F1DD022
:104E980068516325D96E000E6421DA6EDF50666FA3
:104EA80066390F0BDFEC1EF0FBEC1FF000016851B8
:104EB8006325D96E000E6421DA6EDF500F0BDFEC2C
:104EC8001EF0FBEC1FF00001682B6551685DE0E304
:104ED800AEEF1DF0326E2E5007E03250020DF35047
:104EE8000F0FD96EDA6A08D03250020D180EF3246B
:104EF800D96E010EF420DA6EDECF33F0DDCF34F058
:104F08003350341003E12E6A2F6A120020EE02F0AB
:104F18003350D9263450DA222FC0DEFF30C0DDFFEF
:104F280020EE01F03350D9263450DA2231C0DFFFA9
:104F380033C0D9FF34C0DAFF400EDF1633C0D9FFC3
:104F480034C0DAFF000EDB8633C0D9FF34C0DAFF85
:104F5800DB8E2E5007E03250020DF3500F0FD96E42
:104F6800DA6A08D03250020D180EF324D96E010EF9
:104F7800F420DA6E040EDF1A33C02EF034C02FF09E
:104F8800040C646F0001605107E06451020DF35096
:104F98000F0FD96EDA6A08D06451020D180EF32487
:104FA800D96E010EF420DA6EDECF65F0DDCF66F043
:104FB8006551661103E1606B616B120020EE02F02F
:104FC8006551D9266651DA2261C0DEFF62C0DDFF75
:104FD80020EE01F06551D9266651DA2263C0DFFF61
:104FE80065C0D9FF66C0DAFF400EDF1665C0D9FF7D
:104FF80066C0DAFF000EDB8665C0D9FF66C0DAFF3F
:10500800DB8E605107E06451020DF3500F0FD96E2B
:10501800DA6A08D06451020D180EF324D96E010E15
:10502800F420DA6E040EDF1A65C060F066C061F025
:10503800040C0C8E6B0E2E6E0F0E2F6E316A306ABA
:10504800336A020E326E43EC1FF02E6A040E2F6E86
:10505800316A306A336A300E326E43EC1FF0608C6E
:10506800436A220E4324D96EDA6A010EDA22DF6A15
:10507800250E4324D96EDA6A010EDA22DF6A432A42
:10508800020E4364EED7FB0E2E6E010E2F6E316AB0
:10509800306A336A020E326E43EC1FF0609C080ED1
:1050A8000F6E040E106E000E156E040E166E15C0EF
:1050B80017F016C018F032C42CF02C5004E1100E72
:1050C8000001F46F100C3C6A010E3B6E2C0E3D6E15
:1050D8003E6A406A010E3F6EFCEC20F0200E000193
:1050E800F46F200C2D0E1E6E2DC04AF0FD0E4A16D0
:1050F8004BE1D8902D303F0B040D000EF324156EB4
:10510800040EF420166E15C017F016C018F0040E21
:10511800171A15C0D9FF16C0DAFFDF30E8320F0BB7
:105128000D0A02E0B8EF21F04C6A20EE02F01550AB
:10513800D9261650DA22DECF4AF0DDCF4BF04AC02E
:10514800D9FF4BC0DAFF300E4C24E16EE26A040E40
:10515800E222DFCFE7FF20EE02F01550D9261650E5
:10516800DA22DE2A000EDD224C2A070E4C64DDD737
:1051780020EE02F01550D9261650DA22300EDE6ED7
:10518800040EDD6EB6EF22F02D50FD0B040AD8B4E4
:105198004AEC2AF012001F0E0001F4651F0C60B2E1
:1051A8001F0C1B500EE1560E676F010E686F400E04
:1051B800696F7DEC26F0196E195003E0010E1B6E25
:1051C8001C6A1B5010E0ACA20ED0560E1C24D96EDF
:1051D800DA6A010EDA22DF50FBEC1FF01C2A1950A4
:1051E8001C1801E11B6A22501CE084EC1DF0000928
:1051F80018E03F0E1A6015D000F0E1EC1FF06D6F5B
:10520800560E1A24D96EDA6A010EDA226DC0DFFF53
:105218001A2A560E1A24D96EDA6A010EDA22DF6AC1
:10522800286A1F5002E068EF2EF01A5002E168EF7A
:105238002EF0560E0001606F010E616F1AC062F009
:105248004DEC1EF07CEC1DF01A6A68EF2EF001019F
:105258004A51D8A41200010E4A6F4B51D8A412002B
:10526800010E4B6F020E201814E120EE01F00F50D2
:10527800D9261050DA22DF6A0FC0D9FF10C0DAFF32
:10528800480EDF6E0FC0D9FF10C0DAFF000EDB8EAC
:10529800000C2004D8A41200456B20EE01F0155034
:1052A800D9261650DA22080EDF6E20EE02F01550CD
:1052B800D9261650DA22300EDE6E040EDD6E15C0C9
:1052C800D9FF16C0DAFFDF6E15C0D9FF16C0DAFFA6
:1052D800000EDB8E010E456F20EE01F01750D92627
:1052E8001850DA22080EDF6E20EE02F01750D92689
:1052F8001850DA22300EDE6E040EDD6E17C0D9FFAC
:1053080018C0DAFF800EDF6E800C30EC1EF0D18002
:10531800040098EC1EF002EC2CF06DEC1FF0F28CFF
:10532800F28E010E616F2C0E606F06EC1FF0E5EC3B
:1053380022F0010E616F2C0E606F06EC1FF0000E5C
:10534800E6EC1DF00101516B000E97EC1DF024EC0A
:105358001EF0B60E6D6F7D0E6E6F6F6B706B17EC77
:1053680023F0A70E00016D6F7D0E6E6F6F6B010E3F
:10537800706F17EC23F0C50E00016D6F7D0E6E6F18
:105388006F6B030E706F17EC23F0020E0001616F54
:10539800BC0E606F06EC1FF012D0FFD796EC24F01D
:1053A800010E0101516F92EC1DF009D071EC31F042
:1053B800040A05E10101516B000E97EC1DF0010193
:1053C8005151ECE0010AF2E0E8D7080E2E6E0E50BB
:1053D8000DE1080E0D5C0AE20DC02EF02A5002E124
:1053E800010E03D02A0402E1020E2A6E2E500D5E31
:1053F800000E0E5A20EE01F00F50D9261050DA2276
:105408002EC0DFFF380E0101376F040E386F0CB065
:105418003AD01BD009C0F6FF0AC0F7FFF86A37C1B7
:10542800D9FF38C1DAFF070EF76403D00800F5503A
:1054380005D0F6CFE1FFF7CFE2FFE750DF6E094A6C
:105448000A2A0101374B382B2E062E50E3E11200B1
:1054580009C0F6FF0AC0F7FFF86A37C1D9FF38C19B
:10546800DAFF070EF76403D00800F55005D0F6CF31
:10547800E1FFF7CFE2FFE750DF6E094A0A2A010190
:10548800374B382B2E062E50E3E112000FC0D9FF00
:1054980010C0DAFF000EDFBC010E3F6E040E0F1ABB
:1054A800080E0001F4190AE1040132517F0B636E02
:1054B8006350100ED8B4040E0001F46F200438E1D4
:1054C80020EE02F00F50D9261050DA22380EDE6E88
:1054D800040EDD6EE9EC29F0020E2A180DE10FC06A
:1054E800D9FF10C0DAFF040EDF6E0FC0D9FF10C05D
:1054F800DAFF000EDB8E000C3F500DE10FC0D9FF24
:1055080010C0DAFF480EDF6E0FC0D9FF10C0DAFFF7
:10551800000EDB8E000C0FC0D9FF10C0DAFF080E9A
:10552800DF6E0FC0D9FF10C0DAFF000EDB8E000C53
:1055380004AE12D0075008100EE020EE07F001D894
:105548000AD00500FA6EDE50FD6EDE50FE6EF85091
:10555800FF6EFA501200049E206A12008A888A8A16
:105568008A84500EE82EFED78A94040E0001626FDA
:105578001C0EE82EFED7622FFCD700D08A848A98AA
:10558800040E0001626F1C0EE82EFED7622FFCD7B6
:1055980000D08A9A040E0001626F1C0EE82EFED716
:1055A800622FFCD700D0AE0EA2EC1DF0D50EA2ECF7
:1055B8001DF0800EA2EC1DF0A80EA2EC1DF01F0E2F
:1055C800A2EC1DF0D30EA2EC1DF0000EA2EC1DF013
:1055D8008D0EA2EC1DF0140EA2EC1DF0400EA2ECF4
:1055E8001DF0A60EA2EC1DF0A40EA2EC1DF0A00E5C
:1055F800A2EC1DF0C00EA2EC1DF0DA0EA2EC1DF01C
:10560800420EA2EC1DF0810EA2EC1DF07F0EA2EC62
:105618001DF0D90EA2EC1DF0F10EA2EC1DF0DB0E70
:10562800A2EC1DF0400EA2EC1DF0AF0EA2EC1DF096
:105638008A88120060980CBE37D004AE0AD0020ED9
:10564800206E0101495102E1A0EC25F04B6B4A6B39
:10565800120020EE01F01750D9261850DA22080E51
:10566800DF6E20EE02F01750D9261850DA22300EDD
:10567800DE6E040EDD6E17C0D9FF18C0DAFF0C0EFF
:10568800DF6E17C0D9FF18C0DAFF000EDB8E0FC01F
:10569800D9FF10C0DAFF040EDF6E0FC0D9FF10C0AB
:1056A800DAFF000EDB8E000C040130AF0ED0010EC5
:1056B800206E0101485102E1A0EC25F04B6B4A6BCA
:1056C8001D50D8A412002BEF29F0020E206E20EEF8
:1056D80001F01750D9261850DA22080EDF6E20EE96
:1056E80002F01750D9261850DA22300EDE6E040E5A
:1056F800DD6E17C0D9FF18C0DAFFDF6E17C0D9FFFB
:1057080018C0DAFF000EDB8E01014B6B4A6B1D508F
:1057180002E12BEF29F01200A394676A656A6A6AAE
:105728006B0E2E6E0F0E2F6E316A306A336A020EC0
:10573800326E43EC1FF0160E626E9F0E666E7B0E85
:10574800646E366A3650040D000EF324D96E040ECA
:10575800F420DA6EDE6ADE6ADE6ADD6A362A0B0E4D
:105768003664F0D7608C636A6098609C05D0659653
:105778000C6A046A056A066A65B6F9D7010E010162
:105788004A6F4B6F486B496B476B366A3650020D50
:10579800F3500F0FD96EDA6ADE6ADD6A3650020DF1
:1057A800180EF324D96E010EF420DA6EDE6ADD6A73
:1057B800220E3624D96EDA6A010EDA22DF6A250E45
:1057C8003624D96EDA6A010EDA22DF6A362A020E28
:1057D8003664DCD7080E0F6E040E106E160E6A6E55
:1057E800040E0401036F300E026F080E016F040EE1
:1057F800006F008F2C6A0001F46B1200A394676A93
:10580800656A6A6A6B0E606F0F0E616F636B626B1D
:10581800656B020E646F58EC1FF0160E626E9F0ED9
:10582800666E7B0E646E686B6851040D000EF3247F
:10583800D96E040EF420DA6EDE6ADE6ADE6ADD6A8C
:10584800682B0B0E6865F0D7608C636A6098609C63
:1058580005D065960C6A046A056A066A65B6F9D7C2
:10586800010E01014A6F4B6F486B496B476B000192
:10587800686B6851020DF3500F0FD96EDA6ADE6A51
:10588800DD6A6851020D180EF324D96E010EF4205A
:10589800DA6EDE6ADD6A220E6825D96EDA6A010ED2
:1058A800DA22DF6A250E6825D96EDA6A010EDA2255
:1058B800DF6A682B020E6865DCD7080E0F6E040ECF
:1058C800106E160E6A6E040E0401036F300E026F1E
:1058D800080E016F040E006F008F2C6A0001F46B34
:1058E800120001013F4B402B3FC167F040C168F0F7
:1058F80000016A6B0A0E696FDDEC20F067516811D0
:10590800D8A41200F5833FC167F040C168F06A6B04
:10591800640E696FDDEC20F067516811D8A412009D
:10592800F5853FC167F040C168F0030E6A6FE80E65
:10593800696FDDEC20F067516811D8A41200F58773
:105948003FC167F040C168F0EA0E6A6F600E696F88
:10595800DDEC20F067516811D8A4120001013D4B1D
:105968003E2B0001F5893DC167F03EC168F06A6BC6
:105978003C0E696FDDEC20F067516811D8A4120065
:10598800F58B3DC167F03EC168F0020E6A6FD00E1C
:10599800696FDDEC20F067516811D8A41200F58D0D
:1059A8003DC167F03EC168F0050E6A6FA00E696FD1
:1059B800DDEC20F067516811D8A41200F58F0101C1
:1059C8003F6B406B3D6B3E6B120072C067F073C05B
:1059D80068F06A6B0A0E696FDDEC20F06751300FD2
:1059E8007A6F72C060F073C061F0636B0A0E626F09
:1059F80021EC21F060C072F061C073F072C067F0F2
:105A080073C068F06A6B0A0E696FDDEC20F06751AD
:105A1800300F796F72C060F073C061F0636B0A0E6B
:105A2800626F21EC21F060C072F061C073F072C047
:105A380067F073C068F06A6B0A0E696FDDEC20F0DE
:105A48006751300F786F72C060F073C061F0636B9C
:105A58000A0E626F21EC21F060C072F061C073F031
:105A680072C067F073C068F06A6B0A0E696FDDEC8C
:105A780020F06751300F776F72C060F073C061F02B
:105A8800636B0A0E626F21EC21F060C072F061C096
:105A980073F072C067F073C068F06A6B0A0E696FC2
:105AA800DDEC20F06751300F766F7B6B760E6D6FF3
:105AB8006E6B74C06FF075C070F017EF23F0800E36
:105AC80004013019D8A41200C00E0C6E71D0440E17
:105AD800096E7B0E0A6E0E6A120E0D6E120C325192
:105AE8003DE13251020D970EF324F66E770EF42045
:105AF800F76E0900F5CF09F00A00F5CF0AF0020E9B
:105B080009242E6E000E0A202F6E2EC0F6FF2FC01D
:105B1800F7FFF86A070EF76403D00800F55005D0C0
:105B2800F6CFE1FFF7CFE2FFE7500D6E030E092431
:105B38002E6E000E0A202F6E2EC0F6FF2FC0F7FF24
:105B4800F86A070EF76403D00800F55005D0F6CFC1
:105B5800E1FFF7CFE2FFE7500E6E12000C6A120069
:105B6800030E326121D03251020D910EF324F66EEC
:105B7800770EF420F76E0900F5CF09F00A00F5CF8B
:105B88000AF009C0F6FF0AC0F7FFF86A070EF764C3
:105B980003D00800F55005D0F6CFE1FFF7CFE2FFBC
:105BA800E7500D6E0E6A12000C6A12000C6A1200A1
:105BB8003351010A8CE0030A92E0010AD1E0F6D7DA
:105BC8000001F40507E160BA05D0656A648064885D
:105BD800020EF46F65B464A403D06594BAEC1EF0A9
:105BE80060A202D0A494120065B064A006D090EC24
:105BF8002BF0A384040EF46F659065B864A803D0F5
:105C08003EEC1EF0659865AC14D064AC0AD03C6AD2
:105C1800730E3B6E3D6A3E6A406A010E3F6EFCECB5
:105C280020F0659C1E5001E01E061E5002E12BEC80
:105C380029F065BA64AA02D0BEEC20F065B264A26D
:105C48000BD07F0E3C6E3B683D6A3E6A406A010E8F
:105C58003F6EFCEC20F0676A040E0001F46102D08C
:105C6800A494040C64A62ED04D6A65A62BD061CFEF
:105C78002DF02D30E832E8320F0B216E65962DB4E9
:105C880006D0250E2124D96EDA6A010E05D0220E1F
:105C98002124D96EDA6A010EDA220101DF7021505F
:105CA80003E176EC28F00AD03C6A720E3B6E2D0EAA
:105CB8003D6E3E6A406A3F6AFCEC20F04D2A030EB6
:105CC8004D64D3D7A4941200A39401013151321129
:105CD8000AE031C1D9FF32C1DAFF010EDFAE000E92
:105CE8000001676F02D00001676B686B675168112C
:105CF80002E0A3841200030E1F1801E11F6A1F505F
:105D080002E1A3841200020E1F1810E1010E606F59
:105D1800000E616F626F636F020EC5EC27F060C002
:105D280031F161C032F1030E1F6E55D01F0453E1EB
:105D3800400EF76502D06A6F02D0F7C06AF06A5168
:105D4800F75F000E0101286F050E296F6AC069F020
:105D58004D5112E026D02BC1D9FF2CC1DAFF28C142
:105D6800E1FF29C1E2FFDFCFE7FF0101284B292B23
:105D78002B4B2C2B000169070001695115E0EBD76B
:105D88002BC1D9FF2CC1DAFF28C1E1FF29C1E2FFED
:105D9800DFCFE7FF0101284B292B2B4B2C2B0001D0
:105DA800690700016951ECE1F75106E1400E6A19F3
:105DB800020ED8A4030E1F6E010E606F000E616FF5
:105DC800050E626F6AC063F0020EC5EC27F060C072
:105DD80031F161C032F1A3841200686F000168518B
:105DE8001CE063AF1AD060C064F061C065F062C0A7
:105DF80066F063C067F0641F651F661F671F642B2A
:105E0800000E65236623672364C06AF065C06BF0E3
:105E180066C06CF067C06DF008D060C06AF061C001
:105E28006BF062C06CF063C06DF06051611162117B
:105E3800631105E1606B616B626B636B1200960E18
:105E4800696F06D0692BD8906D336C336B336A3326
:105E5800646B656B666BFE0E6D15676F645165113B
:105E6800661167110CE0EED7692B6A2B000E6B23C5
:105E78006C236D23D8906D336C336B336A33646B4A
:105E8800656B666B6D51676F6451651166116711BB
:105E980007E0EAD76907D8906A376B376C376D37F0
:105EA8006CBF03D0020E6961F5D769B102D07F0ECD
:105EB8006C17D890693369C064F0656B666B676B63
:105EC80064C067F0666B656B646B64516A136551F7
:105ED8006B1366516C1367516D13685102E063BF11
:105EE8006D8F6AC060F06BC061F06CC062F06DC00D
:105EF80063F01200DA0E6E25D96EDA6A010EDA2224
:105F08006CC067F06DC068F06A6B0A0E696FDDECF3
:105F180020F06751300FDF6E6CC060F06DC061F02B
:105F2800636B0A0E626F21EC21F060C06CF061C0F7
:105F38006DF0D90E6E25D96EDA6A010EDA226CC0C0
:105F480067F06DC068F06A6B0A0E696FDDEC20F0CF
:105F58006751300FDF6E6CC060F06DC061F0636B2D
:105F68000A0E626F21EC21F060C06CF061C06DF028
:105F7800D80E6E25D96EDA6A010EDA226CC067F087
:105F88006DC068F06A6B0A0E696FDDEC20F067512E
:105F9800300FDF6E6CC060F06DC061F0636B0A0E8D
:105FA800626F21EC21F060C06CF061C06DF0D70E1B
:105FB8006E25D96EDA6A010EDA226CC067F06DC000
:105FC80068F06A6B0A0E696FDDEC20F06751300FDC
:105FD800DF6E6CC060F06DC061F0636B0A0E626FBB
:105FE80021EC21F060C06CF061C06DF0D60E6E251A
:105FF800D96EDA6A010EDA226CC067F06DC068F0FB
:106008006A6B0A0E696FDDEC20F06751300FDF6EA6
:10601800120020EE01F01550D9261650DA22DF5072
:10602800406E4050055C000E065802E205C040F084
:106038004050055E000E065A3F6A0FD0380E3F24C6
:10604800D96EDA6A040EDA2201C0E1FF02C0E2FF6B
:10605800DFCFE7FF014A022A3F2A40503F5CEEE3C8
:106068000550061032E020EE01F01750D9261850DE
:10607800DA22080EDF6E20EE02F01750D9261850EB
:10608800DA22380EDE6E040EDD6E15C0D9FF16C09A
:10609800DAFFDFBC0DD017C0D9FF18C0DAFF480EF1
:1060A800DF6E17C0D9FF18C0DAFF000EDB8E000CB8
:1060B80017C0D9FF18C0DAFF080EDF6E17C0D9FF66
:1060C80018C0DAFF000EDB8E000C20EE01F017502E
:1060D800D9261850DA22080EDF6E20EE02F017508B
:1060E800D9261850DA22300EDE6E040EDD6E17C087
:1060F800D9FF18C0DAFFDF6E17C0D9FF18C0DAFF62
:10610800000EDB8E075008100EE020EE07F001D8D5
:106118000AD00500FA6EDE50FD6EDE50FE6EF850B5
:10612800FF6EFA501200049E1D50D8B42BEC29F0D3
:10613800120000017E5101E1CDD0200E010152650F
:10614800C6D00001816B826B616B0A0E606F06EC32
:106158001FF0200E836F030E67EC20F0010135510C
:10616800000160270101365100016123D890613197
:106178007F6F60310101356F7FC036F10001830701
:106188008351E9E1616B0A0E606F06EC1FF0200E87
:10619800846F020E67EC20F08151602782516123E1
:1061A800D89061317F6F6031816F7FC082F0840742
:1061B8008451EFE18151A9EC1EF00101396F3A6B6E
:1061C800526B24EC1EF0E50E6D6F7C0E6E6F6F6BDC
:1061D800706B17EC23F0890E00016D6F7E0E6E6FE9
:1061E8006F6B010E706F17EC23F00A0E0001726FCF
:1061F800010E736FF85189EC22F0D40E00016D6F17
:106208007D0E6E6F6F6B020E706F17EC23F035C149
:1062180072F036C173F0030E0001746F020E756FD1
:10622800E9EC2CF00C0E0001726F020E736F010185
:10623800395189EC22F0290E00016D6F7D0E6E6FC9
:106248006F6B030E706F17EC23F06BEC21F08EEC84
:106258001DF0F86FF85103E1050EF86F05D0DF0E59
:10626800F86502D0CE0EF827646BF851B3EC23F032
:10627800200E0101D96F35C16CF036C16DF0040EE6
:1062880000016E6F7EEC2FF0090E646F0101395129
:10629800B3EC23F000F0FB0E00016D6F7F0E6E6F04
:1062A8000F0E6F6F010E706F17EC23F0FD0E0001DB
:1062B800616F7E0E626FD60E636F010E646F0C0EF7
:1062C800656F1DEC27F0070E296E080E02D0522BC1
:1062D8000E0E276E7EEC23F0FFD70201806B816BD8
:1062E800846B80A003D0040E0001F96F0001F5A1B2
:1062F80008D086EC1DF075EC2CF00001F551FAEC95
:106308001DF05FEC22F00201856F850504E1296A22
:10631800010E816F06D0020E851903E1296A010E6C
:10632800846F46EC21F0000904E0010E0201886F39
:1063380002D00201886B060E271803E0020E271808
:106348004DE1040E0101506549D00201826B836B57
:106358000001616B0A0E606F06EC1FF0200E02014F
:10636800866F030E67EC20F00101355100016027AC
:106378000101365100016123D8906131F26F60311B
:106388000101356FF2C036F1020186078651E9E155
:106398000001616B0A0E606F06EC1FF0200E02010F
:1063A800876F020E67EC20F002018251000160271E
:1063B8000201835100016123D8906131F26F60318D
:1063C8000201826FF2C083F287078751EAE18251A6
:1063D800A9EC1EF00101396F3A6B506B295063E04C
:1063E800090E296460D0010E0201806F296A5BD012
:1063F800FFD724EC1EF0070E6D6F7F0E6E6F010E37
:106408006F6F706B17EC23F06F0E00016D6F7F0ECE
:106418006E6F020E6F6F010E706F17EC23F0D40EC3
:1064280000016D6F7C0E6E6F6F6B030E706F17EC53
:1064380023F001014C6B020E28D084C2AAF002019D
:10644800885130EC37F0000938E024EC1EF0070ED4
:106458006D6F7D0E6E6F6F6B706B17EC23F0180EFF
:1064680000016D6F7D0E6E6F6F6B020E706F17EC13
:1064780023F0900E00016D6F7C0E6E6F6F6B030E34
:10648800706F17EC23F0276A030E0001F96F15D01F
:1064980084C27CF088C27DF080C27EF00201815106
:1064A8009DEC30F00AD00001F951010AA2E0030A7C
:1064B800C4E0010AEDE0070A9BE10001F95112006E
:1064C8008A51800B936F8A518A259E6F89BF9E815E
:1064D8009E5108E09E2904E1876B886B896B8A6B63
:1064E800898F03D0876B886B896B8A6B8E51800B81
:1064F800931B8E518E259F6F8DBF9F819F5108E002
:106508009F2904E18B6B8C6B8D6B8E6B8D8F03D009
:106518008B6B8C6B8D6B8E6B8B518C118D118E11DF
:1065280011E1876B886B896B8A6B800E89137F0EEC
:106538008A1387C087F088C088F089C089F08AC02C
:106548008AF012009E5105E1876B886B896B8A6B14
:1065580012009F519EC08FF0906B8F5F000E905B72
:106568007F0E8F25986F000E9021996F87C094F049
:1065780088C095F089C096F08AC097F0876B886BC1
:10658800896B8A6B9A6B9B6B9C6B9D6B9F6B26D000
:106598009F5111E0D8909437953796379737D89010
:1065A8008737883789378A379DBF8781D8909A3748
:1065B8009B379C379D378B51945D8C5195598D51E4
:1065C80096598E51975909E39D8D8B51945F8C5143
:1065D800955B8D51965B8E51975B9F2B190E9F652E
:1065E800D7D7945195119611971111E09A810FD030
:1065F800D8908737883789378A379DBF8781D89061
:106608009A379B379C379D379807D8A0990789AF49
:10661800EFD79F6B9DAF13D09A518F6F9B51906F9F
:106628009C51916F7F0E9D15926F8F519011911112
:10663800921103E0010E9F6F02D087B1FBD79F51E3
:106648000EE0872B000E882389238A238AA107D08E
:106658008A358A33893388338733984B992B99BF86
:106668000AD0995102E1982906E3996B9869876BDA
:10667800886B896B8A6B99BF04D0995109E1980599
:1066880007E2986B996B876B886B896B8A6B936B46
:1066980098C09EF09EA102D0898F01D0899FD89082
:1066A8009E318A6F935144D7040132050DE1305170
:1066B8001F0B0AE10C8E030E311904E1010E0101D2
:1066C800466F02D00101466B04013251D8A4120072
:1066D80030511F0B020AD8A4120034510F0BD8B442
:1066E800120034510F0B436E030E4360030C200E4F
:1066F8000001F419D8A412000C8E040134BF16D07E
:1067080034510F0B020D180EF324D96E010EF4202C
:10671800DA6EDECF48F0DDCF49F034510F0B436E0F
:10672800446A250E4324D96E010E13D034510F0B41
:10673800020DF3500F0FD96EDA6ADECF48F0DDCFC5
:1067480049F034510F0B436E446A220E4324D96E2C
:10675800010E4420DA6EDF50476E47B002D04894ED
:1067680001D0488434BF0AD034510F0B020D180EE3
:10677800F324D96E010EF420DA6E07D034510F0BD2
:10678800020DF3500F0FD96EDA6A48C0DEFF49C018
:10679800DDFF030E311929E148C0D9FF49C0DAFFEE
:1067A800DFAE17D034BF09D034510F0B436E446AA3
:1067B800250E4324D96E010E08D034510F0B436EB9
:1067C800446A220E4324D96E010E4420DA6E010178
:1067D800DF8248C0D9FF49C0DAFF000EDB8448C019
:1067E800D9FF49C0DAFFDB8E000C040E481A48C0F6
:1067F800D9FF49C0DAFFDFAE19D048C0D9FF49C078
:10680800DAFF7F0EDF1648C0D9FF49C0DAFF000E55
:10681800DB8C3C6A050E3B6E48C03DF049C03EF03B
:10682800406A020E3F6EFCEC20F006D048C0D9FF4B
:1068380049C0DAFF000EDB8C040E481A47B206D0B6
:1068480048C0D9FF49C0DAFFDFAE2BD0040134BFFE
:1068580009D034510F0B436E446A250E4324D96E78
:10686800010E08D034510F0B436E446A220E4324A4
:10687800D96E010E4420DA6E0101DF9248C0D9FFBB
:1068880049C0DAFF3B0EDF163C6A050E3B6E48C076
:106898003DF049C03EF0406A020E3F6EFCEC20F02D
:1068A80006D048C0D9FF49C0DAFF3B0EDF16040105
:1068B80034510F0B436E446A6A0E4324456E0F0E23
:1068C8004420466E45C0D9FF46C0DAFFFE0EDF16EB
:1068D800FE0C7151800B7A6F715171257C6F70BFFE
:1068E8007C817C5108E07C2904E16E6B6F6B706BD6
:1068F800716B708F04D06E6B6F6B706B716B7551B1
:10690800800B7A1B755175257B6F74BF7B817B511A
:1069180008E07B2904E1726B736B746B756B748F81
:1069280004D0726B736B746B756B7B5102E07C5196
:1069380005E16E6B6F6B706B716B120074516E03B7
:10694800F3CF85F0F4CF86F085517D6F7E6B7F6B3A
:10695800806B8651816F826B836B846B73516F037D
:10696800F3CF85F0F4CF86F085517D27000E7E2386
:106978007F23802386518127000E8223832384234B
:1069880072517003F3CF85F0F4CF86F085517D27DF
:10699800000E7E237F23802386518127000E8223C9
:1069A800832384237FC080F07EC07FF07DC07EF08B
:1069B8007D6B72516F03F3CF85F0F4CF86F085516C
:1069C8007D2786517E23000E7F23802373516E031B
:1069D800F3CF85F0F4CF86F085517D2786517E234D
:1069E800000E7F2380237FC080F07EC07FF07DC0B3
:1069F8007EF07D6B72516E03F3CF85F0F4CF86F095
:106A080085517D2786517E23000E7F238023745174
:106A18006F03F3CF85F0F4CF86F085518127865137
:106A28008223000E8323842373517003F3CF85F0F0
:106A3800F4CF86F08551812786518223000E832367
:106A4800842374517003F3CF85F0F4CF86F0855119
:106A5800766F8651776F786B796B78C079F077C0ED
:106A680078F076C077F0766B76518127775182235C
:106A7800785183237951842380518127000E822302
:106A8800832384237FC080F07EC07FF07DC07EF0AA
:106A98007D6B7B517CC076F0776B7627000E772371
:106AA800820E7625856FFF0E7721866F0FD0D890DE
:106AB800813782378337843780BF8181D8907D378B
:106AC8007E377F3780378507D8A0860783AFEFD713
:106AD8007B6B80AF13D07D51766F7E51776F7F517E
:106AE800786F7F0E8015796F76517711781179114B
:106AF80003E0010E7B6F02D081B1FBD77B510EE022
:106B0800812B000E82238323842384A107D084351C
:106B18008433833382338133854B862B86BF0AD0F7
:106B2800865102E1852906E3816B826B800E836FB3
:106B38007F0E15D086BF04D0865108E1850506E290
:106B4800816B826B836B846B7A6B0AD085C07CF017
:106B58007F0E8317846B7CB1838FD8907C31846FD0
:106B68007A51841381C06EF082C06FF083C070F0D8
:106B780084C071F01200846F6E0E00017D6F5BD1CE
:106B8800250E851907E08451D96EDA6A85C0DFFFC2
:106B9800842B51D1826B836B816B03D081856C4BC5
:106BA8006D2B6CC0F6FF6DC0F7FF0800F550300A7A
:106BB800F5E06CC0F6FF6DC0F7FF0800F5507AEC01
:106BC8001EF030E3826B836B82C060F083C061F09B
:106BD800636B0A0E626FCCEC1EF060C082F061C07D
:106BE80083F0D00E786F79696CC0F6FF6DC0F7FF3F
:106BF8000800F5507A6F7B6B78517A2779517B239F
:106C08007A5182277B5183236C4B6D2B6CC0F6FF26
:106C18006DC0F7FF0800F5507AEC1EF003E3D4D7F7
:106C2800818F15D06CC0F6FF6DC0F7FF6C4B6D2BD4
:106C38000800F5CF85F0855101E109D1580AF0E047
:106C48003C0A05E00D0A03E0110AEAE0F4D081BF2E
:106C580012D07D51D96EDA6ADECF7FF0DDCF80F0B9
:106C6800020E7D2780AF3DD0030E81137F6D801FFC
:106C7800D8B0802B36D07D51D96EDA6ADECF7FF05E
:106C8800DDCF80F0020E7D272CD0010E856F855157
:106C9800020D7F0EF324F66E770EF420F76E0900CE
:106CA800F5507F5D0900F550805920E3852B050ECE
:106CB80085191CE0ECD7010E856F8551020D890EF0
:106CC800F324F66E770EF420F76E0900F5507F5D19
:106CD8000900F55080590AE3852B040E851906E052
:106CE800ECD78151800BD1E0800AE5E08251831115
:106CF80008E081C078F0030E781703E08207D8A077
:106D08008307800E85BF7F0E786F8251855D835122
:106D1800800A785907E28551825F000E85BFFF0E11
:106D2800835B02D0826B836B81A518D081C078F019
:106D3800030E781706E08451D96EDA6A2D0EDF6EDD
:106D4800842B8251831124E08451D96EDA6A300E83
:106D5800DF6E842B8207D8A08307F3D78251831173
:106D68000CE08451D96EDA6A200EDF6E842B82071C
:106D7800D8A0830782518311F4E181C078F0030E13
:106D8800781706E08451D96EDA6A2D0EDF6E842BEF
:106D980085C07EF04DD07E51020D7F0EF324F66E35
:106DA800770EF420F76E0900F5CF62F00A00F5CFF0
:106DB80063F07FC060F080C061F021EC21F060C01A
:106DC80067F061C068F06A6B0A0E696FDDEC20F04D
:106DD8006751300F856F26D07FC060F080C061F0AA
:106DE8007E51020D890EF324F66E770EF420F76EAD
:106DF8000900F5CF62F00A00F5CF63F021EC21F02D
:106E080060510F0B7C6F7F0E7C25F66EF76A7C0E47
:106E1800F7220800F5CF85F005D08151800BBBE043
:106E2800800ADAE08451D96EDA6A85C0DFFF842BE4
:106E38007E077E29F2E16CC0F6FF6DC0F7FF6C4B50
:106E48006D2B0800F5CF85F0855101E099D6845166
:106E5800D96EDA6ADF6A000C0001F16FEE6BAA5195
:106E680002E184EF3BF0110E01014C6F82A2FED7C4
:106E780084EF3BF0FFD7AD0E0001616F7E0E626FAD
:106E880035EC22F024EC1EF0B10E6D6F7E0E6E6FA5
:106E98006F6B706B17EC23F00001616B320E606F43
:106EA80006EC1FF081A00ED00101426B020E416F6B
:106EB8004B0E00016D6F7F0E6E6F6F6B706B17EC72
:106EC80023F00DD00101426B010E416F540E0001F9
:106ED8006D6F7F0E6E6F6F6B706B17EC23F0010E8A
:106EE8000001616FF40E606F06EC1FF0010EB8D35D
:106EF8000001F15102E1BCEF3BF0960E606F010E0C
:106F0800616FF80E626F7F0E636F656B020E646FC0
:106F18004AEC23F06051611118E1360E616F7C0E66
:106F2800626F35EC22F024EC1EF0B50E6D6F7F0E0B
:106F38006E6F6F6B706B17EC23F00001616B320E94
:106F4800606F06EC1FF0020E8BD301014C6BBCEF97
:106F58003BF00001F15102E1BCEF3BF0960E606F8F
:106F6800010E616FAA0E626F7E0E636FD2EC24F081
:106F780060516111EAE1A10E616F7C0E626F35EC20
:106F880022F024EC1EF0BD0E6D6F7F0E6E6F6F6BDE
:106F9800706B17EC23F00001616B320E606F06EC2A
:106FA8001FF0030E5DD30001F15101E1E1D3960E0C
:106FB800606F010E616FAA0E626F7E0E636FD2EC76
:106FC80024F060516111C1E15B0E616F7C0E626F4C
:106FD80035EC22F024EC1EF0DD0E6D6F7F0E6E6F27
:106FE8006F6B706B17EC23F00001616B320E606FF2
:106FF80006EC1FF0040E34D30001F15101E1B8D3BF
:10700800960E606F010E616FAA0E626F7E0E636F3F
:10701800D2EC24F06051611198E10E0E616F7C0E84
:10702800626F35EC22F024EC1EF0250E6D6F7F0E9A
:107038006E6F6F6B706B17EC23F00001616B320E93
:10704800606F06EC1FF0050E0BD30001F15101E152
:107058008FD3960E606F010E616FAA0E626F7E0E5F
:10706800636FD2EC24F06051611101E06ED7FA0E23
:10707800616F7B0E626F35EC22F024EC1EF0780E07
:107088006D6F7F0E6E6F6F6B706B17EC23F00001E6
:10709800616B320E606F06EC1FF0060EE1D2000144
:1070A800F15101E165D3960E606F010E616FAA0E72
:1070B800626F7E0E636FD2EC24F06051611101E0C3
:1070C80044D76D0E616F7C0E626F35EC22F024ECB4
:1070D8001EF01B0E6D6F7F0E6E6F6F6B706B17EC73
:1070E80023F00001616B320E606F06EC1FF0070E93
:1070F800B7D20001F15101E13BD3960E606F010E4A
:10710800616FAA0E626F7E0E636FD2EC24F060513D
:10711800611101E01AD7F60E616F7C0E626F35ECD3
:1071280022F024EC1EF0AD0E6D6F7F0E6E6F6F6B4C
:10713800706B17EC23F00001616B320E606F06EC88
:107148001FF0080E8DD20001F15101E111D3960E06
:10715800606F010E616FAA0E626F7E0E636FD2ECD4
:1071680024F06051611101E0F0D6B20E616F7C0E1F
:10717800626F35EC22F024EC1EF0E40E6D6F7F0E8A
:107188006E6F6F6B706B17EC23F00001616B320E42
:10719800606F06EC1FF0090E63D20001F15101E1A6
:1071A800E7D2960E606F010E616FAA0E626F7E0EB7
:1071B800636FD2EC24F06051611101E0C6D6390E3C
:1071C800616F7D0E626F35EC22F024EC1EF0C50E67
:1071D8006D6F7F0E6E6F6F6B706B17EC23F0000195
:1071E800616B320E606F06EC1FF00A0E39D2000197
:1071F800F15101E1BDD2960E606F010E616FAA0ECA
:10720800626F7E0E636FD2EC24F06051611101E071
:107218009CD6490E616F7C0E626F35EC22F024EC2F
:107228001EF05D0E6D6F7F0E6E6F6F6B706B17ECDF
:1072380023F00001616B320E606F06EC1FF00B0E3D
:107248000FD20001F15101E193D2960E606F010E49
:10725800616FAA0E626F7E0E636FD2EC24F06051EC
:10726800611101E072D6C30E616F7C0E626F35EC5E
:1072780022F024EC1EF0EB0E6D6F7F0E6E6F6F6BBD
:10728800706B17EC23F00001616B320E606F06EC37
:107298001FF00C0EE5D10001F15101E169D2960E03
:1072A800606F010E616FAA0E626F7E0E636FD2EC83
:1072B80024F06051611101E048D6110E616F7F0E14
:1072C800626F35EC22F024EC1EF0590E6D6F7D0EC6
:1072D8006E6F6F6B706B17EC23F0890E00016D6F8A
:1072E8007D0E6E6F6F6B010E706F17EC23F000014F
:1072F800616B320E606F06EC1FF00D0EB1D100010C
:10730800F15101E135D20101410542116DE1929A35
:107318008A908A928A948A968A9A8A988A9C000184
:10732800616B640E606F06EC1FF0938E8A8C616B44
:10733800050E606F06EC1FF0FAC0E8F0E96B000E6E
:1073480081BE010EFA6F8A9C0101434B442B000158
:10735800FA51E819E91108E1010144BFE0D74451A5
:1073680003E1970E435DDBE30101436B446B8A84C1
:107378008A8898EC1EF02B2A020E67EC20F060C079
:10738800EFF061C0F0F05A0E6C6F7B0E6D6F41C16B
:107398006EF042C16FF0FAC070F0716B2BC072F0E2
:1073A800736BF0C074F0756BEF51766F776BB20E3C
:1073B800BFEC35F0B20E616F626B35EC22F0040061
:1073C80024EC1EF0D10E6D6F7E0E6E6F6F6B706BBE
:1073D80017EC23F0BB0E00016D6F6E6B6F6B010E27
:1073E800706F17EC23F016D1545108E1DC0E000140
:1073F800616F7E0E626F35EC22F01AD02B2AE20EF6
:1074080000016C6F7B0E6D6F41C16EF042C16FF071
:10741800FAC070F0716B2BC072F0736BB20EBFECD8
:1074280035F0B20E616F626B35EC22F00101546BDE
:10743800720E0101961901E0EDD0720E9C1901E05F
:10744800E9D0780E9D1901E0E5D0410EA01901E0C0
:10745800E1D0410EA11901E0DDD0310EA31901E000
:10746800CFD00400310EA51911E1939E8A8E938C1A
:10747800010E0001FA6F24EC1EF0950E6D6F7E0E62
:107488006E6F6F6B706B17EC23F00FD0939E8A9E14
:10749800938C0001FA6B24EC1EF0E70E6D6F7E0EE4
:1074A8006E6F6F6B706B17EC23F0A80E00016D6F99
:1074B800010E6E6F6F6B010E706F17EC23F00101F8
:1074C800AB51A1EC20F0AB6F0101A951A1EC20F068
:1074D800AD6FAC6B0101A851A1EC20F0AE6FAF6BA2
:1074E800000EAE03F3CFB0F0F4CFB1F0AF03F3501A
:1074F800B127100EAE03F350B1270101AA51A1EC38
:1075080020F0100DF350B027F450B123AC51B02740
:10751800AD51B123AB51B025EA6F000EB121EB6F2D
:107528008B6B8C6B4F0E8D6F440E8E6F726B736B03
:10753800C80E746F420E756FEAC060F0EBC061F060
:10754800626B636B000EF1EC2EF060C06EF061C0F0
:107558006FF062C070F063C071F06DEC34F06EC013
:1075680087F06FC088F070C089F071C08AF064EC51
:1075780032F087C0E4F088C0E5F089C0E6F08AC040
:10758800E7F01F0E726F850E736F530E746F410E06
:10759800756FE4C06EF0E5C06FF0E6C070F0E7C04C
:1075A80071F06DEC34F06EC0A0F06FC0A1F070C047
:1075B800A2F071C0A3F02FEC26F0A0C0ECF0A1C09F
:1075C800EDF0F20E6C6F7F0E6D6FECC06EF0EDC0DB
:1075D8006FF0B20EBFEC35F0B20E6D6F6E6B050E2C
:1075E8006F6F010E706F17EC23F0898A0001616BD1
:1075F800320E606F06EC1FF0899A0101546B0AD0B5
:1076080024EC1EF0490E6D6F7D0E6E6F6F6B706B04
:1076180017EC23F00001616BFA0E606F06EC1FF0A7
:107628000E0E1ED00001F15101E1A2D00101410569
:10763800421101E05CD6960E0001606F010E616F89
:10764800AA0E626F7E0E636FD2EC24F06051611156
:1076580001E07BD4616B320E606F06EC1FF00F0EF9
:1076680001014C6F85D00001F15101E181D0960EE6
:10767800606F010E616FA10E626F7E0E636FD2ECB8
:1076880024F06051611101E060D4110E616F7F0E2A
:10769800626F35EC22F024EC1EF0930E6D6F7B0EBA
:1076A8006E6F6F6B706B17EC23F0420E00016D6FFD
:1076B8007F0E6E6F6F6B010E706F17EC23F0000179
:1076C800616BC80E606F06EC1FF017D6010E000143
:1076D800EE6F616B320E606F06EC1FF049D0000E42
:1076E8000001606B84EC20F082B002D082A2FCD74B
:1076F8000001616B280E606F06EC1FF0FF0038D0A8
:1077080001014C5102E13FEF37F0010A02E17CEF41
:1077180037F0030A01E11DD4010A01E144D4070A44
:1077280001E16AD4010A01E190D4030A01E1B7D466
:10773800010A01E1DED40F0A01E105D5010A01E1E0
:107748002CD5030A01E153D5010A01E17AD5070ACC
:1077580001E1A1D5010A01E1D2D5030A01E162D70D
:10776800010A81E01F0AB2E0010AB9E03EEF37F0F2
:107778000001EE5112000001000A006400E8031045
:10778800270100100000010010567BDC7A107B995D
:107798007A00000000000000000000005F00000008
:1077A800000000030003000000643C26643C26241B
:1077B800002649497F4949320042251208245221AE
:1077C8000020504E552258280000000003000000F9
:1077D8000000001C224100000000000041221C00A3
:1077E800000015150E0E1515000008083E080800C3
:1077F80000000000503000000000080808080800D9
:1078080000000000400000000040201008040201B1
:1078180000003E4141413E00000000417F40000021
:107828000000426151496E0000002241494936007A
:1078380000001814127F1000000027494949710000
:1078480000003C4A4948700000004321110D030024
:1078580000003649494936000000060949291E003A
:10786800000000001200000000000000523000007C
:107878000000000814142200000014141414141436
:10788800000000221414080000000201590502003B
:10789800003E415D554D512E00407C4A094A7C40CE
:1078A80000417F4949494936001C22414141412252
:1078B80000417F414141221C00417F49495D4163AC
:1078C80000417F49091D0103001C224149493A082A
:1078D80000417F0808087F41000041417F41410085
:1078E80000304041413F010100417F080C126141D5
:1078F80000417F414040406000417F420C427F414F
:1079080000417F420C117F01001C22414141221C91
:1079180000417F4909090906000C12212161524CD6
:1079280000417F09091969460066494949494933AF
:10793800000301417F41010300013F4140413F01F4
:1079480000010F3140310F0100011F6114611F0157
:10795800004141360836414100010344784403019F
:1079680000436151494543610000007F41410000E7
:10797800000102040810204000000041417F00007F
:107988000000040201010204000040404040404061
:1079980000000102000000000000344A4A4A3C404E
:1079A8000000413F4848483000003C424242240021
:1079B8000000304848493F4000003C4A4A4A2C00F1
:1079C800000000487E4909000000264949493F0156
:1079D80000417F4804447840000000447D40000096
:1079E80000000040443D000000417F10182442423E
:1079F800000040417F40400000427E027C027E4001
:107A080000427E4402427C4000003C4242423C002C
:107A18000000417F490909060000060909497F411C
:107A28000000427E440202040000644A4A4A3600CA
:107A38000000043F444420000000023E4040227EF3
:107A480040020E3240320E0200021E6218621E020E
:107A580000426214081462420001434538050301DC
:107A680000004662524A46620000000836410000A3
:107A7800000000007F000000000000004136080000
:107A8800000018080810101800AA55AA55AA55AAE7
:107A98005509024300020100C03209040000010236
:107AA8000201000524001001042402020524060036
:107AB80001052401000107058103080002090401EA
:107AC80000020A00000007050202400000070582C4
:107AD8000240000034034D006900630072006F002B
:107AE80063006800690070002000540065006300AE
:107AF80068006E006F006C006F006700790020005E
:107B080049006E0063002E00340343004400430024
:107B18002000520053002D003200330032002000B4
:107B280045006D0075006C006100740069006F000D
:107B38006E002000440065006D006F001201000215
:107B480002000008D8040A00000101020001040331
:107B58000904726164696F207478204141253032CC
:107B68005825303258253032582530325825303291
:107B78005800737973207365742070696E6469673F
:107B8800204750494F313020300D0A007379732057
:107B98007365742070696E646967204750494F3176
:107BA8003120300D0A007379732073657420706971
:107BB8006E646967204750494F313020310D0A0003
:107BC800737973207365742070696E6469672047E0
:107BD80050494F313120310D0A00726164696F20BC
:107BE80074782041412530325825303258253032BA
:107BF8005800726164696F207365742066646576E5
:107C0800203530303000726164696F2073657420EC
:107C18006166636277203132350073797320736C43
:107C2800656570203939393939393939390072611E
:107C380064696F20736574206D6F64206C6F726166
:107C480000726164696F207365742073796E6320B4
:107C5800313200726164696F207365742073662025
:107C68007366313200726164696F207365742070C5
:107C7800726C656E2038003031323334353637381F
:107C880039414243444546002028533129202020C9
:107C9800202020285332292000726164696F2073E4
:107CA80065742070777220323000726164696F20C9
:107CB80073657420637220342F3500726164696FB4
:107CC8002073657420627720313235005265527511
:107CD8006E205077725473743C53323E004973736C
:107CE8007565205065726F6469632054580072612D
:107CF80064696F2073657420637263206F6E004D32
:107D08006F62696C65204D6F7465202D417070003D
:107D18004E61766967617465202053656C6563748C
:107D280000284E415629202020202853454C292040
:107D380000726164696F2073657420776474203001
:107D480000476F74205258204D6573736167653A18
:107D58000050756D702064656661756C74204F4EB7
:107D6800006D61632073657420616472206F6666BC
:107D7800004275696C6420446174652F54696D65AF
:107D88000057616974696E6720666F7220525800E7
:107D98006D61632073657420616472206F6E0020CA
:107DA800202050524F544F202020202020004D45A5
:107DB8004E434F2D4C4F5245582020200020202064
:107DC8004275696C64203030352020004C3A202000
:107DD8002020202020543A20006D616320736574B0
:107DE8002064722030006D616320736574206472B2
:107DF8002031006D61632073657420647220320045
:107E08006D6163207365742064722033006D616353
:107E1800207365742064722034006D61632073657B
:107E2800742064722035006D61632073657420646A
:107E3800722036006D616320736574206472203788
:107E480000427574746F6E20546573743A004275FD
:107E580074746F6E31205041535300427574746FBF
:107E68006E3220504153530050726573732042752F
:107E780074746F6E005553422048616E646C65726D
:107E8800004F6E20506F727420233A200052582001
:107E980050756D70204F464600726164696F5F745B
:107EA800785F6F6B007379732067657420766572ED
:107EB8000041707220323120323031360042757400
:107EC800746F6E204641494C00726164696F20747A
:107ED800783A2000726164696F207278203000520D
:107EE800582050756D70204F4E00436F6D6D2054B3
:107EF8006573743A00726164696F20747820004D6C
:107F08004F5445204D6F6465006D61632070617545
:107F18007365007365742070726C656E00736574A8
:107F2800206166636277004C454420546573743A57
:107F380000434443204D6F64650053756363657364
:107F4800732100525820524553455400545820522A
:107F580045534554007365742073796E63006D61F1
:107F6800632073617665005374617274696E67008B
:107F78007365742066646576004D6F5465207620BD
:107F88002E0030333A32303A3232005246205465AD
:107F980073743A00414443205465737400436F6D11
:107FA8006D616E6400736574206372630073657439
:107FB800206D6F6400736574207077720073657448
:107FC800207764740054656D7020203D004C69670B
:107FD8006874203D007365742073660073657420AF
:107FE800637200736574206277002025646356000D
:087FF800524E0043007A000024
:020000040020DA
:08000000FFFFFFFFFFFFFFFF00
:020000040030CA
:0E00000021081F3EFFD181FF0FC00FE00F400F
:00000001FF
