:0610000055EF08F012009C
:101008005B82FACF4FF0FBCF50F0E1CF51F0E2CF47
:1010180052F0D9CF53F0DACF54F0F3CF55F0F4CFE4
:1010280056F0F6CF57F0F7CF58F0F8CF59F0F5CF84
:101038005AF09DB09EA005D02EEC25F01CEC25F0B2
:1010480016D09DBA9EAA05D01FEC25F05EEC26F0BE
:101058000ED09DB89EA803D072EC26F008D0A0BC94
:10106800A1AC03D012EC25F002D0F9EC33F05AC051
:10107800F5FF59C0F8FF58C0F7FF57C0F6FF56C034
:10108800F4FF55C0F3FF54C0DAFF53C0D9FF52C074
:10109800E2FF51C0E1FF50C0FBFF4FC0FAFF5B9277
:0610A8001100F5EF29F034
:104A21002D7801A19C1200CD801200BA8412002AB7
:104A31005012009B6B120000019B811200010E2A93
:104A41006E010CCE6FCEC0F7F01200CE6FCEC0A5B6
:104A5100F01200BCCFCEF0CE5112009E908CC0CF90
:104A6100FF8BC0CEFF12000001CF6F8A9ACF515C3D
:104A7100EF25F0CF6F8A8A0001CF515CEF25F00D51
:104A81000E8AEC27F00A0E8AEF27F0C76A210EC6BC
:104A91006EC86AC688C79C1200CE6F0001CEB39F54
:104AA1002BCEB7A32B12007A0EBA6E9B0EBB6EBC37
:104AB1006A9E9216EF25F0CE6FC69ECEC0C9FFC783
:104AC100A0FED7C9501200A09C9C0E986E9A8A9A9B
:104AD100929A96A19CA09C9C0C0001D06F8A98D0C0
:104AE10051AF0834EC25F08A881200CE51CF11D88D
:104AF100B41200CEC0F5F0CFC0F6F01200CE6FCEEA
:104B0100C0A9FFA69CA69EA68000F000F0A85012A6
:104B110000D06FB00E0001D0138A98D05134EC252B
:104B2100F08A8812000001D06FA60ED0278A98D093
:104B31005134EC25F08A881200A00E7D6E010EC260
:104B41006E080EC16E8E0EC06EC36AC46A120080FA
:104B51000E9B6E700ED36E100ED26ED2AEFED7903B
:104B61000EB56E900C000EF9EC25F0010EF9EC2556
:104B7100F0020EF9EC25F0030EF9EF25F0A39420D5
:104B81005009E1CEC07BF0CFC07CF0D0C09EF001D7
:104B91000E9C6F206EA38412007E0ECF6F7C0ED010
:104BA1006FD8EC26F09DB8FED70001CF6B140ECE66
:104BB1006F86EF26F0648465986082010E0001948F
:104BC1006F3C6A750E3B6E3D6A3E6A406A3F6A9071
:104BD100EF28F0D06F8A980001D0390F0B100934FB
:104BE100EC25F00001D0510F0B34EC25F08A88122E
:104BF100000001DB6FDC6BDCC0D1F0DBC0D2F02048
:104C01000E8CEC2BF0DC2B0F0EDC65F5D70F0CA80E
:104C1100EC25F025EC29F046EC25F019EC27F054B1
:104C2100EC25F003EC27F09DEC25F064EF25F094E2
:104C31006B3C6A740E3B6E3D6A3E6A406A3F6A9005
:104C4100EC28F06092649401D0659465A41200FC94
:104C5100D70001D56F060ED525CE6FCF6BFF0ECFD6
:104C610023D16B050ED06FB5EC28F0CE51D66FD69F
:104C710051120093949398939A32EC32F0000E9370
:104C8100EC25F02D0E0001CE6F780ECF6F76EC255E
:104C9100F0B3EF25F0CE6F0F0E0001CE170A0ECE46
:104CA1006103D0CE51300F1200090ECE65000C10F9
:104CB1000ECE61000CCE51370F1200ABA203D0AB68
:104CC10098AB881200000E2424D96EDA6A010EDA3C
:104CD10022AECFDFFF242A3F0E246401D0246A23B1
:104CE1002A1200400E26600FD0000E2824D96EDA59
:104CF1006A020EDA22DF50AD6E282A3F0E286401C7
:104D0100D0286A262A12009D981200D16BD26B0B13
:104D1100D0100ED06F940EE82EFED7D02FFCD70006
:104D2100D00001D14BD22BCE51D15DCF51D259F010
:104D3100E31200CF6F080E0001D06FD16BD890CF76
:104D410035D135D16FD890CF37CE51D15D02E3CE79
:104D510051D15FD02FF3D7D15112002EC034F02F93
:104D6100C035F008D034C0D9FF35C0DAFF30C0DF1C
:104D7100FF344A352A3206D8A033063228F3E1330C
:104D810028F1E11200CEC0D4F0CFC0D5F008D0D4C4
:104D9100C0D9FFD5C0DAFFD0C0DFFFD44BD52BD2AD
:104DA10007D8A0D307D229F3E1D329F1E112000BEF
:104DB100D0CFC0F6FFD0C0F7FF0800F5508AEC272E
:104DC100F00001CF4BD02BCFC0F6FFD0C0F7FF08CA
:104DD10000F550EEE140EF25F09D9A9D98480EB800
:104DE1006E900EAB6E260EAC6E710EAF6E020EB0F3
:104DF1006E276A286A400E266E246A256A236A9DF8
:104E01008AAB8812009D9A9D98480EB86E900EABA1
:104E11006E260EAC6E710EAF6E020EB06E276A2852
:104E21006A400E266E246A256A236A9D8AAB88121F
:104E310000CD6ACC6AD00ECF6E200ECE6ECE50CF92
:104E4100CFCEF00001CF6BCEC0CFF0CE6BCE118BA9
:104E51006FCF518C6F9E909D8014EF25F09751D8A4
:104E6100A41200606A646A160E626E9F0E666E7B03
:104E71000E646ED08EA584A384F28E01D06086600C
:104E8100A6FDD7010E976F010C0001CE6B000ECE6F
:104E910025D96EDA6A010EDA22DF6ACE2B3F0ECEF9
:104EA10065F5D7246A256A236A9D98276A286A408E
:104EB1000E266E400C01D0898E2350FDE09D9A0094
:104EC1000E2524D96EDA6A010EDA22DF500001CEF6
:104ED1006F252A3F0E256401D0256A23069D8ACEBF
:104EE100511200B3EC25F0AA0EDB6F7F0EDC6FDDF3
:104EF1006BDE6BB4EC2AF0F00E0001CF6F7D0ED0AB
:104F01006FD8EC26F0070E0001CF6FD00ECE6F8662
:104F1100EF26F00001CE6F2650FEE09DB803D0CE03
:104F2100C0ADFF0FD09D98000E2724D96EDA6A021A
:104F31000EDA22CEC0DFFF272A3F0E276401D027D9
:104F41006A26069D881200396E36A404D02E6A396D
:104F510050C5EC2CF036A205D0010E2E6E3950C58D
:104F6100EC2CF06A0E3924376E386A0F0E3822376E
:104F7100C0D9FF38C0DAFF36C0DFFF0F0CCF6F009A
:104F810001D16BCE5114E0010ED06F03D0D890CE79
:104F910037D02BCEAFFBD7D890D137CE51CF5D03D1
:104FA100E3CE51CF5FD181D890CE33D02FF4D7D17A
:104FB10051120075EC29F0C96B080ECB6FCA6BC595
:104FC1006B4B0EC66FC76BC86BEDEC26F03A6A509F
:104FD1000E3A24D96EDA6A010EDA22DF6A3A2A3FE2
:104FE1000E3A64F5D71A6A196A1200CF6F000EF2F1
:104FF100BE010E0001D06FCFC0A9FFCEC0A8FFA691
:105001009EA69CA684F29E550EA76EAA0EA76EA61A
:1050110082A6B2FED7A6940001D0B102D0F29E01C1
:10502100D0F28E12000001D26FD2C0D0F0D047D0A2
:1050310047C250D019830BD019C26EC280140EE83A
:105041002EFED7C282C2B2FED7C4500001D16FD0AA
:105051006BC350D025CE6F000ED121CF6F12006AE5
:10506100A01BD015C0D9FF16C0DAFF800EDE1813C1
:10507100E10FC0D9FF10C0DAFF840EDE180CE11574
:10508100C0D9FF16C0DAFF0C0EDF6E15C0D9FF16AE
:10509100C0DAFF000EDB8E6A90659A1200D051D102
:1050A1001117E0010ED26F04D0D890D037D137D28A
:1050B1002BD1AFFAD7D051CE5DD151CF5904E3D026
:1050C10051CE5FD151CF5BD890D133D033D22FF2B3
:1050D100D7CEC0CEF0CFC0CFF012000001CE6BCE44
:1050E100517E0FD96EDA6ADF6ACE2B020ECE65F7DA
:1050F100D7CF6B400ECF25D96EDA6A010EDA22DFE7
:105101006ACF2B210ECF65F5D7D06BD051600FD967
:105111006EDA6ADF6AD02B090ED065F7D7090C3B2E
:10512100C041F03CC042F0425004E07F0AD8A412D2
:105131000019D04150010A02E1DAEF27F0030AD841
:10514100B41200010A02E141EF2CF0060AD8B412B0
:1051510000770AD8B41200010AD8B41200070AD89D
:10516100A4010A1200411C1200D36BD46BD051D19F
:10517100111BE0010ED26F04D0D890D037D137D2B5
:105181002BD1AFFAD7D890D337D437D051CE5DD108
:1051910051CF5905E3D051CE5FD151CF5BD381D8E7
:1051A10090D133D033D22FEED7D3C0CEF0D4C0CFED
:1051B100F012000001CF6B23501FE05BEC27F0D011
:1051C1006F0D0ED0190BE1900E2924D96EDA6A0108
:1051D1000EDA22DF6A010ECF6F296A0ED0D0510C90
:1051E100E00A0ED01909E0900E2924D96EDA6A017D
:1051F1000EDA22D0C0DFFF292ACF51120082A0028D
:10520100D082B214D06E2B000E6F2370237123371E
:105211000E6E196F117011711107E1A66B82B00248
:10522100D0010E0FD0020E0DD0CE6B0CD0140EA6F5
:105231001906E16E6B6F6B706B716BA66B01D0A67B
:105241002B030ECE6FCE51120092809282928492E5
:10525100869298929A929C929E9390939293949311
:1052610096939A948094829484949C948E939C9324
:105271008E8988899A899C899E8A948A908A9A8A39
:105281009C8A9E8B948B9C0F015B915B835B855BFE
:10529100875D9F5D9D1200020E211802E1FEEF3530
:1052A100F0216A93511FE120EE01F01750D9261821
:1052B10050DA22080EDF6E20EE02F01750D92618C0
:1052C10050DA22300EDE6E040EDD6E17C0D9FF18E3
:1052D100C0DAFF0C0EDF6E17C0D9FF18C0DAFF006D
:1052E1000EDB8E000C936B12000001C56B4B0EC6DA
:1052F1006FC76BC86BC96BCA6B080ECB6F9D6B1AFE
:105301000E366E010EA4EC27F01E0E366E020EA4B0
:10531100EC27F0000E2E6E400E2F6E050E306E4003
:105321000E316E020EE2EC2DF02EC083F02FC08400
:10533100F00001816B826B206A1200B3C0C5F0B42A
:10534100C0C6F0B5C0C7F0B6C0C8F02E6A1B0E2F9C
:105351006EB70E306E316AC5C032F0C6C033F0C7C9
:10536100C034F0C8C035F051EC2BF0FF0E2E243BB9
:105371006EFF0E2F203C6EFF0E30203D6EFF0E3172
:10538100203E6E3BC0AFFF3CC0B0FFEDEF26F0E228
:105391006F0A0E0001CE6FE2519AEC26F0300FE554
:1053A1006F0A0ECE6FE251BFEC27F0E26F0A0ECE0C
:1053B1006FE2519AEC26F0300FE46F0A0ECE6FE2E5
:1053C10051BFEC27F0E26F0A0ECE6FE2519AEC2644
:1053D100F0300FE36FE66BE30EDB6FDC6BE0C0DDFB
:1053E100F0E1C0DEF0B4EF2AF002EE00F0400EEE84
:1053F1006AE806FDE101EE00F0D00EEE6AE806FD76
:10540100E100EE60F06E0EEE6AE806FDE100EE01ED
:10541100F02D0EEE6AE806FDE1210EF66E4A0EF75A
:105421006E000EF86E0900F5CFF5F00900F5CFF624
:10543100F00900F5CFF7F05B905B92000EF86E007B
:1054410001D8EF2FF02B6A1E6A956B966B936B2137
:105451006A0FC0D9FF10C0DAFF7F0EDF16040E0FEE
:105461001A0FC0D9FF10C0DAFF7F0EDF16040E0F2E
:105471001A17C0D9FF18C0DAFF7F0EDF160C6A0DAC
:105481006A0E6A046A056A066A31EC2EF03C6A0308
:105491000E3B6E3D6A3E6A406A3F6A90EC28F00D11
:1054A100EF33F0D36F0001D251A90FD96EDA6A0A36
:1054B1000ECE6FD3519AEC26F0300FDF6E0A0ECE6E
:1054C1006FD351BFEC27F0D36FD251A80FD96EDA49
:1054D1006A0A0ECE6FD3519AEC26F0300FDF6E0AB6
:1054E1000ECE6FD351BFEC27F0D36FD251A70FD996
:1054F1006EDA6A0A0ECE6FD3519AEC26F0300FDFC6
:105501006E1200D56BD36BD46BAC9A8B9CCF6B0AAC
:105511000ECE6F86EC26F0AC8ACF6B050ECE6F8671
:10552100EC26F0550EAD6EACA2FED7FC0ECF6F7F10
:105531000ED06FD8EC26F00001CF6B280ECE6F860F
:10554100EC26F00ED0DAEC28F0000903E0010ED5CC
:105551006F07D0D34BD42B890ED35D130ED459F6DC
:10556100E2D551F0E11200DDC0DFF00F0EDF650181
:10557100D00F0CDBC0F6FFDCC0F7FFF86A070EF7AF
:105581006403D00800F55005D0F6CFE1FFF7CFE274
:10559100FFE7500009D8B41200DFC0D1F0DEC0D25D
:1055A100F0DBC0F6FFDCC0F7FFF86A070EF7640313
:1055B100D00800F55005D0F6CFE1FFF7CFE2FFE7C5
:1055C100508CEC2BF0DB4BDC2BDF2BCFD729D0CE53
:1055D100C0D9FFCFC0DAFFDF500DE0CEC0D9FFCF79
:1055E100C0DAFFDF50D46FD0C0F6FFD1C0F7FF089B
:1055F10000F51812E0CEC0D9FFCFC0DAFFDF50D4DA
:105601006FD0C0F6FFD1C0F7FF0800F550D45DCED2
:105611006FCF6BD8A0CF071200CE4BCF2BD04BD181
:105621002BD207D8A0D307D229D2E1D329D0E1CEFA
:105631006BCF6B120082A2FED7CDEC25F0010E6D6F
:10564100EC25F0C290F29EF29EF29C0F015B81A0CC
:105651008C878087828784F286825082508250F2C2
:1056610090A19C00F0030000F045EC27F0F2968732
:105671009087928794A09CF28E25EC29F003EC2769
:10568100F0F2A002D0F29003D00A0E0001A36F0F36
:10569100015B91000E6DEC25F03AEC26F082EF2AC9
:1056A100F0366A376A386A396A3250331034103545
:1056B1001029E0010E3A6E06D0D8903236333634D6
:1056C1003635363A2A35AEF8D7D8903636373638A9
:1056D10036393632502E5C33502F583450305835CD
:1056E10050315809E332502E5E33502F5A34503026
:1056F1005A3550315A3680D89035323432333232BD
:10570100323A2EE2D736C02EF037C02FF038C030F3
:10571100F039C031F012000001D96FD25189EC2566
:10572100F00001D151080DF350EAEC25F08A980000
:1057310001DA6BD36BD469D951D56FD66BD890D5BB
:1057410037D637D890D537D637D890D537D637F51D
:10575100C0D7F0F6C0D8F0D551D727D651D823DA23
:1057610051D727000ED823D351D727D451D823D7C7
:10577100C0F6FFD8C0F7FF0800F5503AEC25F0005D
:1057810001DA2B070EDA65D5D78A88070C2ED0FFF0
:10579100D7B3EC25F0360EDB6F7F0EDC6F010EDD2B
:1057A1006FDE6BB4EC2AF0A20E0001DB6F7F0EDC22
:1057B1006F020EDD6F010EDE6FB4EC2AF0A70E0052
:1057C10001DB6F7E0EDC6FDD6B020EDE6FB4EC2A47
:1057D100F0010E000105D0200E976101D00ED0021C
:1057E1000EA56F0BD07DEC2FF008D00001A551D094
:1057F100E0010AF1E0030AF6E0CAD780B0F6D7006B
:10580100F012000401386B396B2AD00C8E1D042E66
:10581100E138832CD00C8E2AD00C8E34BF06D034C4
:10582100510F0B020DF350680F05D034510F0B02CD
:105831000DF3500F0FD96EDA6ADECF2EF0DDCF2FC8
:10584100F02EC0D9FF2FC0DAFFDFAE10D02EC0D9A5
:10585100FF2FC0DAFFDFA40AD0010E386F07D03066
:10586100511F0BD3E0010AD6E0030AD6E00CAE12B9
:1058710000380E096E040E0A6E0C80020E0D6E02C7
:105881000C040130511F0BE80601E012003039E829
:1058910032030BE80601E01200345129E0340527F8
:1058A100E01200BD0E096E0A6A0E6A080E0D6E0C3A
:1058B100800C8E080CBD0E096E0A6A0C8E12003621
:1058C100C405F037C406F0B30E016E3C0E076E53EB
:1058D1000E086E048E1200C50E096E0A6A0E6A0762
:1058E1000E0D6EC10E0C6EC10C32510C8E120031B8
:1058F10051D8E0010ADFE0210AE2E0010AECE0030D
:105901000AF3E01200CEC0D9FFCFC0DAFFDF50D4D6
:105911006FD0C0F6FFD1C0F7FF0800F5CFD6F0D4A5
:10592100512CE0020ECE27000ECF23D651D41925DB
:10593100E12FEEFFF0CE51D926CF51DA22DF50D53B
:105941006FD029D26F000ED121D36FD2C0F6FFD311
:10595100C0F7FF0800F5CFD6F0D55107E1D651D5F4
:105961005DCE6FCF6BD8A0CF071200020ED02700FB
:105971000ED123D551D619F2E1C5D7D651D45DCE7A
:105981006FCF6BD8A0CF071200336E346A040E3587
:105991006E2E502F6E306AD8902F363036335031FC
:1059A1006E326AD89031363236D890313632362F4F
:1059B10050312630503222D89031363236D890319B
:1059C100363236315034263250352234C0D9FF3583
:1059D100C0DAFFDF9E2E5005E13350020DF350680F
:1059E1000F04D03350020DF3500F0FD96EDA6A3421
:1059F100C0DEFF35C0DDFF34C0D9FF35C0DAFFDFBF
:105A01009C20EE04F03450D9263550DA22DF8C1276
:105A110000956B966B020E21181FE120EE01F01725
:105A210050D9261850DA22080EDF6E20EE02F01748
:105A310050D9261850DA22380EDE6E040EDD6E17AC
:105A4100C0D9FF18C0DAFF480EDF6E17C0D9FF18A2
:105A5100C0DAFF000EDB8E000C0D500401365D0E26
:105A610050375904E236C40DF037C40EF093EC30D0
:105A7100F020EE02F00F50D9261050DA22380EDE57
:105A81006E040EDD6E0FC0D9FF10C0DAFF480EDFC5
:105A91006E0FC0D9FF10C0DAFF000EDB8E000C9D27
:105AA1006B8351841109E083C0D9FF84C0DAFF01FF
:105AB1000EDFAE000ED96F01D0D96BDA6BD951DA96
:105AC1001134E120EE01F08351D9268451DA22D735
:105AD10051DE5C08E220EE01F08351D9268451DACF
:105AE10022DF50D76F9D6B0FD0400E9D25D96EDA06
:105AF1006A050EDA229D51D525E16E000ED621E20E
:105B01006EDFCFE7FF9D2BD7519D5DEEE3000ECEFB
:105B11006F400ECF6F050ED06F400ED16F020E8019
:105B2100EC2EF0CEC083F0CFC084F09D5112000B5B
:105B3100D0CFC0F6FFD0C0F7FF0800F5508AEC27A0
:105B4100F00001CF4BD02BCFC0F6FFD0C0F7FF083C
:105B510000F550EEE1D46BD151D425D96EDA6ADF6C
:105B6100508AEC27F00001D42B020ED465F4D7D172
:105B710051D96EDA6A030ED926DF508AEC27F00478
:105B81000E0001D56F19D0D151D525D96EDA6ADF52
:105B910050D36FD3390F0B4BEC26F08AEC27F00072
:105BA10001D151D525D96EDA6ADF500F0B4BEC26A6
:105BB100F08AEC27F00001D52BD251D55DE4E3400A
:105BC100EF25F0326E2E5005E03250020DF3500FEA
:105BD1000F04D03250020DF350680FD96EDA6ADE2D
:105BE100CF33F0DDCF34F03350341003E12E6A2F80
:105BF1006A120020EE02F03350D9263450DA222FF7
:105C0100C0DEFF30C0DDFF20EE01F03350D9263475
:105C110050DA2231C0DFFF33C0D9FF34C0DAFF4090
:105C21000EDF1633C0D9FF34C0DAFF000EDB863336
:105C3100C0D9FF34C0DAFFDB8E2E5005E0325002AE
:105C41000DF3500F0F04D03250020DF350680FD9ED
:105C51006EDA6A040EDF1A33C02EF034C02FF0045E
:105C61000C04013039E832030B2AE012000C8E08D3
:105C71000E0001976F080C2C0E096E0A6A0C800148
:105C81000E0D6E0C8E010C3451CC0F4A6E4AC009B8
:105C9100F00A6A0C80010E0D6E0C8E010C0C8E3414
:105CA10051CC0FD96EDA6A32C4DFFF12003C6A02AE
:105CB1000E3B6E3D6A3E6A406A3F6A90EF28F031C2
:105CC1005102E102EF2CF0010A02E142EF38F00249
:105CD1000A02E142EF38F0060AC9E0030A02E1F8DC
:105CE100EF34F0010AE3E00F0AC6E0010A02E1D055
:105CF100EF2EF0030AC8E0010AD1E0070A1200D230
:105D01006F0001CE5105E0D251020DF3500F0F0487
:105D1100D0D251020DF350680FD96EDA6ADECFD3BB
:105D2100F0DDCFD4F0D351D41103E1CE6BCF6B12A0
:105D31000020EE02F0D351D926D451DA22CFC0DEB1
:105D4100FFD0C0DDFF20EE01F0D351D926D451DAC6
:105D510022D1C0DFFFD3C0D9FFD4C0DAFF400EDFAC
:105D610016D3C0D9FFD4C0DAFF000EDB86D3C0D969
:105D7100FFD4C0DAFFDB8ECE5105E0D251020DF324
:105D8100500F0F04D0D251020DF350680FD96EDAC3
:105D91006A040EDF1AD3C0CEF0D4C0CFF0040C0CCD
:105DA1008E6B0E2E6E0F0E2F6E316A306A336A02C1
:105DB1000E326EAEEC26F02E6A040E2F6E316A3072
:105DC1006A336A300E326EAEEC26F0608C436A4361
:105DD10050720FD96EDA6ADF6A4350750FD96EDAE5
:105DE1006ADF6A432A020E4364F2D7CC0E2E6E2F6D
:105DF1006A316A306A336A020E326EAEEC26F060A6
:105E01009C080E0F6E040E106E000E156E040E1619
:105E11006E15C017F016C018F032C42CF02C5004C7
:105E2100E1100E0001976F100C3C6A010E3B6E2CC5
:105E31000E3D6E3E6A406A010E3F6E90EC28F020E6
:105E41000E0001976F200C2D0E1F6E2DC04BF0FD23
:105E51000E4B164BE1D8902D303F0B040D000EF385
:105E610024156E040EF420166E15C017F016C01816
:105E7100F0040E171A15C0D9FF16C0DAFFDF30E89B
:105E8100320F0B0D0A02E04CEF29F04D6A20EE02B1
:105E9100F01550D9261650DA22DECF4BF0DDCF4C6B
:105EA100F04BC0D9FF4CC0DAFF300E4D24E16EE259
:105EB1006A040EE222DFCFE7FF20EE02F01550D98F
:105EC100261650DA22DE2A000EDD224D2A070E4D5B
:105ED10064DDD720EE02F01550D9261650DA2230B3
:105EE1000EDE6E040EDD6E23EF2AF02D50FD0B0445
:105EF1000AD8B4F4EC30F012001F0E97651F0C6045
:105F0100B21F0C1B500EE1500ED56F010ED66F4023
:105F11000ED76F50EC2DF0196E195003E0010E1BD6
:105F21006E1C6A1B5010E0ACA20ED0500E1C24D97E
:105F31006EDA6A010EDA22DF508AEC27F01C2A1988
:105F4100501C1801E11B6A23501CE018EC25F000DD
:105F51000918E03F0E1A6015D000F05BEC27F0DB6A
:105F61006F500E1A24D96EDA6A010EDA22DBC0DF15
:105F7100FF1A2A500E1A24D96EDA6A010EDA22DFCC
:105F81006A2A6A205002E078EF34F01A5002E17870
:105F9100EF34F0500E0001CE6F010ECF6F1AC0D05A
:105FA100F0BFEC25F002EC08F01A6A78EF34F00843
:105FB100EC26F03AEC26F05BEC31F02FEC27F0F216
:105FC1008CF28E010ECF6F2C0ECE6F86EC26F082F6
:105FD100EC2AF0010ECF6F2C0ECE6F86EC26F0006E
:105FE1000E7FEC25F00001A06B000E26EC25F0B32E
:105FF100EC25F0D20EDB6F7D0EDC6FDD6BDE6BB45A
:10600100EC2AF0C30E0001DB6F7D0EDC6FDD6B014E
:106011000EDE6FB4EC2AF0E10E0001DB6F7D0EDCC9
:106021006FDD6B030EDE6FB4EC2AF0020E0001CFC0
:106031006FBC0ECE6F86EC26F011D0FFD7C7EC2BCC
:10604100F0010E0001A06F22EC25F008D052EC37D0
:10605100F0040A04E1A06B000E26EC25F00001A07B
:1060610051EDE0010AF3E0E9D700019851D8A412FB
:1060710000010E986F9951D8A41200010E996F0278
:106081000E211814E120EE01F00F50D9261050DA3C
:1060910022DF6A0FC0D9FF10C0DAFF480EDF6E0F92
:1060A100C0D9FF10C0DAFF000EDB8E000C2104D82E
:1060B100A41200936B20EE01F01550D9261650DA88
:1060C10022080EDF6E20EE02F01550D9261650DAA6
:1060D10022300EDE6E040EDD6E15C0D9FF16C0DA59
:1060E100FFDF6E15C0D9FF16C0DAFF000EDB8E018F
:1060F1000E936F20EE01F01750D9261850DA2208BE
:106101000EDF6E20EE02F01750D9261850DA223039
:106111000EDE6E040EDD6E17C0D9FF18C0DAFF80E7
:106121000EDF6E800C080E2E6E0E500DE1080E0D66
:106131005C0AE20DC02EF02B5002E1010E03D02BC0
:106141000402E1020E2B6E2E500D5E000E0E5A203F
:10615100EE01F00F50D9261050DA222EC0DFFF38A1
:106161000E0001876F040E886F0CB03AD01BD00966
:10617100C0F6FF0AC0F7FFF86A87C0D9FF88C0DA06
:10618100FF070EF76403D00800F55005D0F6CFE104
:10619100FFF7CFE2FFE750DF6E094A0A2A000187C5
:1061A1004B882B2E062E50E3E1120009C0F6FF0AA0
:1061B100C0F7FFF86A87C0D9FF88C0DAFF070EF77A
:1061C1006403D00800F55005D0F6CFE1FFF7CFE228
:1061D100FFE750DF6E094A0A2A0001874B882B2E00
:1061E100062E50E3E112000FC0D9FF10C0DAFF0004
:1061F1000EDFBC010E3F6E040E0F1A080E97190A2E
:10620100E1040132517F0B636E6350100ED8B40468
:106211000E0001976F210438E120EE02F00F50D9F2
:10622100261050DA22380EDE6E040EDD6E93EC304D
:10623100F0020E2B180DE10FC0D9FF10C0DAFF04D8
:106241000EDF6E0FC0D9FF10C0DAFF000EDB8E002B
:106251000C3F500DE10FC0D9FF10C0DAFF480EDF2F
:106261006E0FC0D9FF10C0DAFF000EDB8E000C0FDD
:10627100C0D9FF10C0DAFF080EDF6E0FC0D9FF10C2
:10628100C0DAFF000EDB8E000C04AE12D0075008FE
:10629100100EE020EE07F001D80AD00500FA6EDEFC
:1062A10050FD6EDE50FE6EF850FF6EFA5012000483
:1062B1009E216A1200A394676A656A6A6A6B0ECEB0
:1062C1006F0F0ECF6FD16BD06BD36B020ED26FC33A
:1062D100EC26F0160E626E9F0E666E7B0E646ED615
:1062E1006BD651040D000EF324D96E040EF420DA9E
:1062F1006EDE6ADE6ADE6ADD6AD62B0B0ED665F0CB
:10630100D7608C636A6098609C05D065960C6A04BE
:106311006A056A066A65B6F9D7010E986F996F9595
:106321006B966B946BD66BD651020DF3500F0FD950
:106331006EDA6ADE6ADD6AD651020DF350680FD952
:106341006EDA6ADE6ADD6AD651720FD96EDA6ADFF9
:106351006AD651750FD96EDA6ADF6AD62B020ED66C
:1063610065E2D7080E0F6E040E106E160E6A6E04EB
:106371000E0401036F300E026F080E016F040E0050
:106381006F008F2C6A0001976B1200A394676A65F6
:106391006A6A6A6B0E2E6E0F0E2F6E316A306A3387
:1063A1006A020E326EAEEC26F0160E626E9F0E661B
:1063B1006E7B0E646E366A3650040D000EF324D9DE
:1063C1006E040EF420DA6EDE6ADE6ADE6ADD6A369B
:1063D1002A0B0E3664F0D7608C636A6098609C0566
:1063E100D065960C6A046A056A066A65B6F9D70132
:1063F1000E0001986F996F956B966B946B366A36A8
:1064010050020DF3500F0FD96EDA6ADE6ADD6A367B
:1064110050020DF350680FD96EDA6ADE6ADD6A3612
:1064210050720FD96EDA6ADF6A3650750FD96EDA9B
:106431006ADF6A362A020E3664E2D7080E0F6E044E
:106441000E106E160E6A6E040E0401036F300E02FA
:106451006F080E016F040E006F008F2C6A00019708
:106461006B12008A888A8A8A84500EE82EFED78AA7
:1064710094040E0001D06F1C0EE82EFED7D02FFC25
:10648100D700D08A848A98040E0001D06F1C0EE8D0
:106491002EFED7D02FFCD700D08A9A040E0001D04F
:1064A1006F1C0EE82EFED7D02FFCD700D0AE0E34D5
:1064B100EC25F0D50E34EC25F0800E34EC25F0A857
:1064C1000E34EC25F01F0E34EC25F0D30E34EC2500
:1064D100F0000E34EC25F08D0E34EC25F0140E3462
:1064E100EC25F0400E34EC25F0A60E34EC25F0A49A
:1064F1000E34EC25F0A00E34EC25F0C00E34EC2562
:10650100F0DA0E34EC25F0420E34EC25F0810E3435
:10651100EC25F07F0E34EC25F0D90E34EC25F0F1AA
:106521000E34EC25F0DB0E34EC25F0400E34EC2576
:10653100F0AF0E34EC25F08A8812008F4B902B8F30
:10654100C0CEF090C0CFF0D16B0A0ED06F4FEC28C7
:10655100F0CE51CF11D8A412009B838FC0CEF09002
:10656100C0CFF0D16B640ED06F4FEC28F0CE51CF7D
:1065710011D8A412009B858FC0CEF090C0CFF0033C
:106581000ED16FE80ED06F4FEC28F0CE51CF11D85D
:10659100A412009B878FC0CEF090C0CFF0EA0ED13D
:1065A1006F600ED06F4FEC28F0CE51CF11D8A412EE
:1065B100008D4B8E2B9B898DC0CEF08EC0CFF0D13C
:1065C1006B3C0ED06F4FEC28F0CE51CF11D8A412F6
:1065D100009B8B8DC0CEF08EC0CFF0020ED16FD05C
:1065E1000ED06F4FEC28F0CE51CF11D8A412009BE2
:1065F1008D8DC0CEF08EC0CFF0050ED16FA00ED024
:106601006F4FEC28F0CE51CF11D8A412009B8F8F81
:106611006B906B8D6B8E6B120060980CBE37D00443
:10662100AE0AD0020E216E0001965102E109EC2D55
:10663100F0996B986B120020EE01F01750D92618D3
:1066410050DA22080EDF6E20EE02F01750D926181C
:1066510050DA22300EDE6E040EDD6E17C0D9FF183F
:10666100C0DAFF0C0EDF6E17C0D9FF18C0DAFF00C9
:106671000EDB8E0FC0D9FF10C0DAFF040EDF6E0FE4
:10668100C0D9FF10C0DAFF000EDB8E000C04013010
:10669100AF0ED0010E216E0001955102E109EC2DE2
:1066A100F0996B986B1E50D8A4120035EF30F002B0
:1066B1000E216E20EE01F01750D9261850DA22086B
:1066C1000EDF6E20EE02F01750D9261850DA223074
:1066D1000EDE6E040EDD6E17C0D9FF18C0DAFFDFC3
:1066E1006E17C0D9FF18C0DAFF000EDB8E000199CA
:1066F1006B986B1E5002E135EF30F01200E0C0CE16
:10670100F0E1C0CFF0D16B0A0ED06F4FEC28F0CE84
:1067110051300FE86FE0C0CEF0E1C0CFF0D16B0A8D
:106721000ED06FB5EC28F0CEC0E0F0CFC0E1F0E0C4
:10673100C0CEF0E1C0CFF0D16B0A0ED06F4FEC2884
:10674100F0CE51300FE76FE0C0CEF0E1C0CFF0D115
:106751006B0A0ED06FB5EC28F0CEC0E0F0CFC0E1EF
:10676100F0E0C0CEF0E1C0CFF0D16B0A0ED06F4F98
:10677100EC28F0CE51300FE66FE0C0CEF0E1C0CF93
:10678100F0D16B0A0ED06FB5EC28F0CEC0E0F0CF9F
:10679100C0E1F0E0C0CEF0E1C0CFF0D16B0A0ED085
:1067A1006F4FEC28F0CE51300FE56FE0C0CEF0E135
:1067B100C0CFF0D16B0A0ED06FB5EC28F0CEC0E09F
:1067C100F0CFC0E1F0E0C0CEF0E1C0CFF0D16B0A74
:1067D1000ED06F4FEC28F0CE51300FE46FE96BE42F
:1067E1000EDB6FDC6BE2C0DDF0E3C0DEF0B4EF2A5C
:1067F100F00001970507E160BA05D0656A6480641D
:1068010088020E976F65B464A403D0659418EC26D2
:10681100F060A202D0A494120065B064A006D0C6B4
:10682100EC31F0A384040E976F659065B864A803FA
:10683100D0DBEC25F0659865AC14D064AC0AD03C93
:106841006A730E3B6E3D6A3E6A406A010E3F6E906E
:10685100EC28F0659C1F5001E01F061F5002E13536
:10686100EC30F065BA64AA02D030EC28F065B2646D
:10687100A20BD07F0E3C6E3B683D6A3E6A406A01C6
:106881000E3F6E90EC28F0676A040E0001976102DA
:10689100D0A494040C64A629D04E6A65A626D061C2
:1068A100CF2DF02D30E832E8320F0B226E65962D98
:1068B100B403D02250750F02D02250720FD96EDA74
:1068C1006A0001DF70225003E124EC2FF00AD03C72
:1068D1006A720E3B6E2D0E3D6E3E6A406A3F6A90B3
:1068E100EC28F04E2A030E4E64D8D7A4941200A3CC
:1068F1009400018151821109E081C0D9FF82C0DA7F
:10690100FF010EDFAE000ED56F01D0D56BD66BD572
:1069110051D61102E0A3841200030E201801E120D8
:106921006A205002E1A3841200020E201810E10136
:106931000ECE6F000ECF6FD06FD16F020E80EC2E96
:10694100F0CEC081F0CFC082F0030E206E4ED02079
:10695100044CE1400E9E6502D0D86F02D09EC0D893
:10696100F0D8519E5F000E786F050E796FD8C0D7B1
:10697100F09C5110E021D07BC0D9FF7CC0DAFF78B8
:10698100C0E1FF79C0E2FFDFCFE7FF784B792B7BD6
:106991004B7C2BD707D75112E0EED77BC0D9FF7CB8
:1069A100C0DAFF78C0E1FF79C0E2FFDFCFE7FF780F
:1069B1004B792B7B4B7C2BD707D751EFE19E5106AF
:1069C100E1400ED819020ED8A4030E206E010ECE9E
:1069D1006F000ECF6F050ED06FD8C0D1F0020E80C0
:1069E100EC2EF0CEC081F0CFC082F0A384120080E3
:1069F1000E04013019D8A41200C00E0C6E71D0D84B
:106A01000E096E7B0E0A6E0E6A120E0D6E120C329C
:106A1100513DE13251020D2B0EF324F66E780EF446
:106A210020F76E0900F5CF09F00A00F5CF0AF00250
:106A31000E09242E6E000E0A202F6E2EC0F6FF2F97
:106A4100C0F7FFF86A070EF76403D00800F5500598
:106A5100D0F6CFE1FFF7CFE2FFE7500D6E030E094D
:106A6100242E6E000E0A202F6E2EC0F6FF2FC0F7C7
:106A7100FFF86A070EF76403D00800F55005D0F659
:106A8100CFE1FFF7CFE2FFE7500E6E12000C6A1262
:106A910000030E326121D03251020D250EF324F68E
:106AA1006E780EF420F76E0900F5CF09F00A00F5B3
:106AB100CF0AF009C0F6FF0AC0F7FFF86A070EF720
:106AC1006403D00800F55005D0F6CFE1FFF7CFE21F
:106AD100FFE7500D6E0E6A12000C6A12000C6A126A
:106AE100003351010A8CE0030A92E0010AD1E0F679
:106AF100D7D751AB0FD96EDA6AD5C0CEF0D6C0CF99
:106B0100F0D16B0A0ED06F4FEC28F0CE51300FDF71
:106B11006ED5C0CEF0D6C0CFF0D16B0A0ED06FB516
:106B2100EC28F0CEC0D5F0CFC0D6F0D751AA0FD9FE
:106B31006EDA6AD5C0CEF0D6C0CFF0D16B0A0ED0D6
:106B41006F4FEC28F0CE51300FDF6ED5C0CEF0D6AE
:106B5100C0CFF0D16B0A0ED06FB5EC28F0CEC0D506
:106B6100F0CFC0D6F0D751A90FD96EDA6AD5C0CE11
:106B7100F0D6C0CFF0D16B0A0ED06F4FEC28F0CE1B
:106B810051300FDF6ED5C0CEF0D6C0CFF0D16B0A39
:106B91000ED06FB5EC28F0CEC0D5F0CFC0D6F0D76F
:106BA10051A80FD96EDA6AD5C0CEF0D6C0CFF0D1D8
:106BB1006B0A0ED06F4FEC28F0CE51300FDF6ED53F
:106BC100C0CEF0D6C0CFF0D16B0A0ED06FB5EC2895
:106BD100F0CEC0D5F0CFC0D6F0D751A70FD96EDA1D
:106BE1006AD5C0CEF0D6C0CFF0D16B0A0ED06F4FB0
:106BF100EC28F0CE51300FDF6E120020EE01F015BF
:106C010050D9261650DA22DF50406E4050055C0004
:106C11000E065802E205C040F04050055E000E0627
:106C21005A3F6A0DD0380E3F24D96EDA6A040EDA63
:106C3100220150E16EE26ADFCFE7FF012A3F2A40DD
:106C4100503F5CF0E30550061032E020EE01F017F2
:106C510050D9261850DA22080EDF6E20EE02F01706
:106C610050D9261850DA22380EDE6E040EDD6E156C
:106C7100C0D9FF16C0DAFFDFBC0DD017C0D9FF188D
:106C8100C0DAFF480EDF6E17C0D9FF18C0DAFF0067
:106C91000EDB8E000C17C0D9FF18C0DAFF080EDF1B
:106CA1006E17C0D9FF18C0DAFF000EDB8E000C2072
:106CB100EE01F01750D9261850DA22080EDF6E20A7
:106CC100EE02F01750D9261850DA22300EDE6E048B
:106CD1000EDD6E17C0D9FF18C0DAFFDF6E17C0D9FD
:106CE100FF18C0DAFF000EDB8E075008100EE020FF
:106CF100EE07F001D80AD00500FA6EDE50FD6EDE17
:106D010050FE6EF850FF6EFA501200049E1E50D8CD
:106D1100B435EC30F012000001EC5101E1BFD0209C
:106D21000EA465B9D0EF6BF06BCF6B0A0ECE6F86F8
:106D3100EC26F0200EF16F030E13EC28F08551CEF6
:106D4100278651CF23D890CF31ED6FCE31856FEDAE
:106D5100C086F0F107F151EFE1CF6B0A0ECE6F86DD
:106D6100EC26F0200EF26F020E13EC28F0EF51CE5C
:106D710027F051CF23D890CF31ED6FCE31EF6FEDAA
:106D8100C0F0F0F207F251EFE1EF5129EC26F08962
:106D91006F8A6BA46BB3EC25F0300EDB6F7D0EDCDC
:106DA1006FDD6BDE6BB4EC2AF0B30E0001DB6F7E9E
:106DB1000EDC6FDD6B010EDE6FB4EC2AF00A0E0003
:106DC10001E06F010EE16FA151C8EC29F0FE0E0048
:106DD10001DB6F7D0EDC6FDD6B020EDE6FB4EC2A22
:106DE100F085C0E0F086C0E1F0030E0001E26F0221
:106DF1000EE36F7FEC33F00C0E0001E06F020EE149
:106E01006F8951C8EC29F0740E0001DB6F7D0EDC37
:106E11006FDD6B030EDE6FB4EC2AF06EEC28F02A06
:106E2100EC25F0A16FA15103E1050EA16F05D0DFA3
:106E31000EA16502D0CE0EA127D26BA15152EC2A30
:106E4100F0200EAA6F85C0D5F086C0D6F0040ED70B
:106E51006F79EC35F0090ED26F895152EC2AF000AE
:106E6100F0FA0E0001DB6F7F0EDC6F0F0EDD6F019C
:106E71000EDE6FB4EC2AF0FA0E0001CF6F7E0ED059
:106E81006FA70ED16F0C0ED26F98EC2DF0070E008C
:106E910001A36F080E02D0A42B0E0EA26F1BEC2BC8
:106EA100F0FFD70101D06BD16BD46B80A003D0046C
:106EB1000E0001F76F00019BA107D01AEC25F09E8F
:106EC100EC32F09B514DEC25F0FFEC28F00101D59F
:106ED1006FD50506E10001A36B010E0101D16F0819
:106EE100D0020ED51905E10001A36B010E0101D4F9
:106EF1006FDAEC28F0000904E0010E0101D86F02FD
:106F0100D00101D86B060E0001A21903E0020EA206
:106F11001946E1040E9F6543D00101D26BD36B008A
:106F210001CF6B0A0ECE6F86EC26F0200E0101D642
:106F31006F030E13EC28F08551CE278651CF23D84D
:106F410090CF31F36FCE31856FF3C086F00101D65A
:106F510007D651EEE10001CF6B0A0ECE6F86EC260B
:106F6100F0200E0101D76F020E13EC28F00101D2BF
:106F7100510001CE270101D3510001CF23D890CF79
:106F810031F36FCE310101D26FF3C0D3F1D707D7FF
:106F910051EAE1D25129EC26F0896F8A6B9F6BA3EC
:106FA1005164E0090EA36561D0010E0101D06F00AB
:106FB10001A36B5BD0FFD7B3EC25F0040EDB6F7F31
:106FC1000EDC6F010EDD6FDE6BB4EC2AF06C0E008F
:106FD10001DB6F7F0EDC6F020EDD6F010EDE6FB421
:106FE100EC2AF01F0E0001DB6F7D0EDC6FDD6B0301
:106FF1000EDE6FB4EC2AF000019A6B020E29D0D498
:10700100C1E0F00101D8513CEC39F0000937E0B39F
:10701100EC25F0520EDB6F7D0EDC6FDD6BDE6BB4A9
:10702100EC2AF0630E0001DB6F7D0EDC6FDD6B027D
:107031000EDE6FB4EC2AF0DB0E0001DB6F7C0EDCA0
:107041006FDD6B030EDE6FB4EC2AF00001A26B035F
:107051000EF76F14D0D4C1EAF0D8C1EBF0D0C1EC77
:10706100F00101D1518CEC36F009D0F751010AA39E
:10707100E0030AC5E0010AEEE0070A9CE10001F71E
:10708100511200040132050BE130511F0B08E10CD4
:107091008E030E311903E1010E1D6E01D01D6A32FE
:1070A10051D8A4120030511F0B020AD8A412003487
:1070B100510F0BD8B4120034510F0B436E030E4322
:1070C10060030C200E00019719D8A412000C8E0445
:1070D1000134BF11D034510F0B020DF350680FD999
:1070E1006EDA6ADECF48F0DDCF49F034510F0B4341
:1070F1006E4350750F10D034510F0B020DF3500F2A
:107101000FD96EDA6ADECF48F0DDCF49F034510F86
:107111000B436E4350720FD96EDA6ADF50476E47E8
:10712100B002D0489401D0488434BF06D034510F06
:107131000B020DF350680F05D034510F0B020DF304
:10714100500F0FD96EDA6A48C0DEFF49C0DDFF0378
:107151000E311923E148C0D9FF49C0DAFFDFAE1172
:10716100D034BF06D034510F0B436E4350750F0519
:10717100D034510F0B436E4350720FD96EDA6A004F
:1071810001DF8248C0D9FF49C0DAFF000EDB844825
:10719100C0D9FF49C0DAFFDB8E000C040E481A4843
:1071A100C0D9FF49C0DAFFDFAE19D048C0D9FF49C5
:1071B100C0DAFF7F0EDF1648C0D9FF49C0DAFF00F1
:1071C1000EDB8C3C6A050E3B6E48C03DF049C03E6B
:1071D100F0406A020E3F6E90EC28F006D048C0D90C
:1071E100FF49C0DAFF000EDB8C040E481A47B206D5
:1071F100D048C0D9FF49C0DAFFDFAE25D004013441
:10720100BF06D034510F0B436E4350750F05D03478
:10721100510F0B436E4350720FD96EDA6A0001DFD2
:107221009248C0D9FF49C0DAFF3B0EDF163C6A0520
:107231000E3B6E48C03DF049C03EF0406A020E3F31
:107241006E90EC28F006D048C0D9FF49C0DAFF3B68
:107251000EDF16040134510F0B436E446A6A0E436C
:1072610024456E0F0E4420466E45C0D9FF46C0DA54
:10727100FFFE0EDF16FE0C0001E26FE16BE0510133
:10728100E198D2110E9A6F82A2FED793D2FFD772E4
:10729100EC27F0CB0ECF6F7E0ED06FD8EC26F0B37B
:1072A100EC25F0CF0EDB6F7E0EDC6FDD6BDE6BB499
:1072B100EC2AF00001CF6B320ECE6F86EC26F08106
:1072C100A00CD0926B020E916F480EDB6F7F0EDC2B
:1072D1006FDD6BDE6BB4EC2AF00BD0926B010E917B
:1072E1006F510EDB6F7F0EDC6FDD6BDE6BB4EC2A52
:1072F100F0010E0001CF6FF40ECE6F86EC26F00187
:107301000E0DD2E25101E18AD2900ECE6F010ECF65
:107311006FF70ED06F7F0ED16FD36B020ED26FE776
:10732100EC2AF0CE51CF1118E1920ECF6F7C0ED026
:107331006FD8EC26F0B3EC25F0BA0EDB6F7F0EDCD4
:107341006FDD6BDE6BB4EC2AF00001CF6B320ECE39
:107351006F86EC26F0020EE2D19A6B60D2E2510107
:10736100E15DD2900ECE6F010ECF6FC80ED06F7E51
:107371000ED16F83EC2CF0CE51CF11EEE1EC0ECF9C
:107381006F7C0ED06FD8EC26F0B3EC25F0C20EDB8B
:107391006F7F0EDC6FDD6BDE6BB4EC2AF00001CF8A
:1073A1006B320ECE6F86EC26F0030EB8D1E251019E
:1073B100E135D2900ECE6F010ECF6FC80ED06F7E29
:1073C1000ED16F83EC2CF0CE51CF11C6E1B70ECFA9
:1073D1006F7C0ED06FD8EC26F0B3EC25F0E20EDB1B
:1073E1006F7F0EDC6FDD6BDE6BB4EC2AF00001CF3A
:1073F1006B320ECE6F86EC26F0040E90D1E2510175
:10740100E10DD2900ECE6F010ECF6FC80ED06F7E00
:107411000ED16F83EC2CF0CE51CF119EE16A0ECFCD
:107421006F7C0ED06FD8EC26F0B3EC25F0220EDB8A
:107431006F7F0EDC6FDD6BDE6BB4EC2AF00001CFE9
:107441006B320ECE6F86EC26F0050E68D1E251014B
:10745100E1E5D1900ECE6F010ECF6FC80ED06F7ED9
:107461000ED16F83EC2CF0CE51CF1101E075D756C0
:107471000ECF6F7C0ED06FD8EC26F0B3EC25F075F3
:107481000EDB6F7F0EDC6FDD6BDE6BB4EC2AF00080
:1074910001CF6B320ECE6F86EC26F0060E3FD1E2A5
:1074A1005101E1BCD1900ECE6F010ECF6FC80ED04D
:1074B1006F7E0ED16F83EC2CF0CE51CF1101E04CD9
:1074C100D7C90ECF6F7C0ED06FD8EC26F0B3EC2568
:1074D100F0180EDB6F7F0EDC6FDD6BDE6BB4EC2A18
:1074E100F00001CF6B320ECE6F86EC26F0070E1640
:1074F100D1E25101E193D1900ECE6F010ECF6FC851
:107501000ED06F7E0ED16F83EC2CF0CE51CF1101D6
:10751100E023D7410ECF6F7D0ED06FD8EC26F0B3AC
:10752100EC25F0B20EDB6F7F0EDC6FDD6BDE6BB432
:10753100EC2AF00001CF6B320ECE6F86EC26F008FC
:107541000EEDD0E25101E16AD1900ECE6F010ECF66
:107551006FC80ED06F7E0ED16F83EC2CF0CE51CF61
:107561001101E0FAD6FD0ECF6F7C0ED06FD8EC265C
:10757100F0B3EC25F0E90EDB6F7F0EDC6FDD6BDE27
:107581006BB4EC2AF00001CF6B320ECE6F86EC2685
:10759100F0090EC4D0E25101E141D1900ECE6F014C
:1075A1000ECF6FC80ED06F7E0ED16F83EC2CF0CE54
:1075B10051CF1101E0D1D6840ECF6F7D0ED06FD89F
:1075C100EC26F0B3EC25F0CA0EDB6F7F0EDC6FDD2D
:1075D1006BDE6BB4EC2AF00001CF6B320ECE6F86FE
:1075E100EC26F00A0E9BD0E25101E118D1900ECEAB
:1075F1006F010ECF6FC80ED06F7E0ED16F83EC2C52
:10760100F0CE51CF1101E0A8D6A50ECF6F7C0ED0E0
:107611006FD8EC26F0B3EC25F05A0EDB6F7F0EDC51
:107621006FDD6BDE6BB4EC2AF00001CF6B320ECE56
:107631006F86EC26F00B0E72D0E25101E1EFD09093
:107641000ECE6F010ECF6FC80ED06F7E0ED16F833D
:10765100EC2CF0CE51CF1101E07FD60E0ECF6F7D15
:107661000ED06FD8EC26F0B3EC25F0F00EDB6F7F77
:107671000EDC6FDD6BDE6BB4EC2AF00001CF6B32F8
:107681000ECE6F86EC26F00C0E49D0E25101E1C618
:10769100D0900ECE6F010ECF6FC80ED06F7E0ED17F
:1076A1006F83EC2CF0CE51CF1101E056D60E0ECFE8
:1076B1006F7F0ED06FD8EC26F0B3EC25F00E0EDB09
:1076C1006F7F0EDC6FDD6BDE6BB4EC2AF00001CF57
:1076D1006B320ECE6F86EC26F00D0E20D0E25101FA
:1076E100E19DD072EC27F0FDD7E25101E197D091F5
:1076F100059211ECE1900ECE6F010ECF6FC80ED046
:107701006F7E0ED16F83EC2CF0CE51CF1101E024AE
:10771100D6CF6B320ECE6F86EC26F00F0E9A6F7EAF
:10772100D0E2517CE0900ECE6F010ECF6FBF0ED034
:107731006F7E0ED16F83EC2CF0CE51CF1101E00C96
:10774100D60E0ECF6F7F0ED06FD8EC26F0B3EC259E
:10775100F0070EDB6F7C0EDC6FDD6BDE6BB4EC2AA9
:10776100F03F0E0001DB6F7F0EDC6FDD6B010EDE83
:107771006FB4EC2AF00001CF6BC80ECE6F86EC26F9
:10778100F0ABD7010EE16FCF6B320ECE6F86EC26D8
:10779100F045D0000ECE6BF6EC27F082B002D0821D
:1077A100A2FCD70001CF6B280ECE6F86EC26F0FF2E
:1077B1000035D000019A5101E16AD5010A01E1A128
:1077C100D5030A01E1CBD5010A01E1F0D5070A0190
:1077D100E115D6010A01E13AD6030A01E160D601B9
:1077E1000A01E186D60F0A01E1ACD6010A01E1D214
:1077F100D6030A01E1F8D6010A01E11ED7070A0101
:10780100E144D7010A01E16AD7030A01E16DD70119
:107811000A87E01F0AB6E0010ABCE038D50001E1A1
:1078210051120000EA7B707BA47B2D7B00000000DD
:10783100000000000000005F0000000000000300E5
:1078410003000000643C26643C2624002649497F4D
:1078510049493200422512082452210020504E5538
:1078610022582800000000030000000000001C2234
:107871004100000000000041221C00000015150E0F
:107881000E1515000008083E080800000000005011
:10789100300000000008080808080000000000404F
:1078A100000000004020100804020100003E414198
:1078B100413E00000000417F400000000042615154
:1078C100496E000000224149493600000018141297
:1078D1007F1000000027494949710000003C4A49D6
:1078E10048700000004321110D0300000036494992
:1078F1004936000000060949291E00000000001257
:1079010000000000000000523000000000000814D8
:107911001422000000141414141414000000221482
:107921001408000000020159050200003E415D55A6
:107931004D512E00407C4A094A7C4000417F494913
:10794100494936001C22414141412200417F4141C8
:1079510041221C00417F49495D416300417F490942
:107961001D0103001C224149493A0800417F0808D2
:10797100087F41000041417F4141000030404141C9
:107981003F010100417F080C12614100417F4140EC
:1079910040406000417F420C427F4100417F420CE8
:1079A100117F01001C22414141221C00417F4909F4
:1079B100090906000C12212161524C00417F09097D
:1079C1001969460066494949494933000301417F24
:1079D10041010300013F4140413F0100010F31409E
:1079E100310F0100011F6114611F0100414136087F
:1079F1003641410001034478440301004361514988
:107A01004543610000007F4141000000010204087C
:107A110010204000000041417F00000000040201ED
:107A210001020400004040404040400000010200CB
:107A31000000000000344A4A4A3C400000413F48EF
:107A410048483000003C424242240000003048488F
:107A5100493F4000003C4A4A4A2C00000000487E51
:107A61004909000000264949493F0100417F480476
:107A7100447840000000447D400000000000404484
:107A81003D000000417F1018244242000040417F28
:107A910040400000427E027C027E4000427E440261
:107AA100427C4000003C4242423C000000417F4990
:107AB1000909060000060909497F410000427E4488
:107AC1000202040000644A4A4A36000000043F44AE
:107AD1004420000000023E4040227E40020E32401F
:107AE100320E0200021E6218621E02004262140877
:107AF1001462420001434538050301000046625209
:107B01004A46620000000836410000000000007F84
:107B110000000000000000413608000000180808BD
:107B210010101800AA55AA55AA55AA5509024300D2
:107B3100020100C032090400000102020100052413
:107B4100001001042402020524060001052401009D
:107B5100010705810308000209040100020A00006F
:107B610000070502024000000705820240000034C0
:107B7100034D006900630072006F006300680069D3
:107B8100007000200054006500630068006E006F03
:107B9100006C006F0067007900200049006E0063EF
:107BA100002E0034034300440043002000520053E0
:107BB100002D00320033003200200045006D0075B9
:107BC100006C006100740069006F006E00200044C9
:107BD1000065006D006F001201000202000008D86C
:107BE100040A00000101020001040309047379730E
:107BF100207365742070696E646967204750494F2E
:107C0100313020300D0A0073797320736574207050
:107C1100696E646967204750494F313120300D0A40
:107C210000737973207365742070696E64696720CD
:107C31004750494F313020310D0A00737973207359
:107C410065742070696E646967204750494F31310E
:107C510020310D0A00726164696F207365742066BA
:107C6100646576203530303000726164696F20734D
:107C710065742061666362772031323500737973F0
:107C810020736C6565702039393939393939393999
:107C910000726164696F20736574206D6F64206C7C
:107CA1006F726100726164696F207365742073790A
:107CB1006E6320313200726164696F2073657420D4
:107CC1007366207366313200726164696F20736577
:107CD100742070726C656E20380020285331292081
:107CE1002020202020285332292000726164696FEE
:107CF100207365742070777220323000726164697C
:107D01006F2073657420637220342F3500726164B3
:107D1100696F2073657420627720313235005265B6
:107D210052756E205077725473743C53323E004941
:107D310073737565205065726F64696320545800D0
:107D4100726164696F2073657420637263206F6E62
:107D5100004D6F62696C65204D6F7465202D417017
:107D610070004E61766967617465202053656C65AA
:107D7100637400284E415629202020202853454C69
:107D8100292000726164696F2073657420776474BF
:107D91002030006D61632073657420616472206F0F
:107DA1006666004275696C6420446174652F54698C
:107DB1006D65006D61632073657420616472206F6D
:107DC1006E0020204357204D4F4445202020202085
:107DD100004D454E434F2D4C4F5245582020200019
:107DE1002020204275696C642043572D3120007298
:107DF1006164696F206377206F6E0D0A004C3A2031
:107E0100202020202020543A20006D6163207365DA
:107E1100742064722030006D616320736574206486
:107E2100722031006D6163207365742064722032A9
:107E3100006D6163207365742064722033006D618D
:107E410063207365742064722034006D6163207354
:107E510065742064722035006D6163207365742040
:107E610064722036006D6163207365742064722032
:107E71003700427574746F6E20546573743A004212
:107E81007574746F6E312050415353004275747490
:107E91006F6E32205041535300507265737320420C
:107EA1007574746F6E005553422048616E646C6541
:107EB10072004F6E20506F727420233A200072615D
:107EC10064696F5F74785F6F6B00737973206765A6
:107ED1007420766572004170722032332032303165
:107EE1003600427574746F6E204641494C00436FF1
:107EF1006D6D20546573743A00726164696F20740A
:107F01007820004D4F5445204D6F6465006D6163CD
:107F1100207061757365007365742070726C656E95
:107F210000736574206166636277004C4544205498
:107F31006573743A00434443204D6F646500537583
:107F410063636573732100525820524553455400B1
:107F51005458205245534554007365742073796E0B
:107F610063006D616320736176650053746172749F
:107F7100696E67007365742066646576004D6F54A1
:107F8100652076202E0030313A33363A31300052B6
:107F91004620546573743A00414443205465737418
:107FA10000436F6D6D616E640062656570204F4EB8
:107FB100007365742063726300736574206D6F6470
:107FC1000073657420707772007365742077647430
:107FD1000054656D7020203D004C69676874203D38
:107FE1000073657420736600736574206372007397
:0E7FF100657420627700524E0043007A000053
:020000040020DA
:08000000FFFFFFFFFFFFFFFF00
:020000040030CA
:0E00000021081F3EFFD181FF0FC00FE00F400F
:00000001FF
