:0610000055EF08F012009C
:101008005B82FACF4FF0FBCF50F0E1CF51F0E2CF47
:1010180052F0D9CF53F0DACF54F0F3CF55F0F4CFE4
:1010280056F0F6CF57F0F7CF58F0F8CF59F0F5CF84
:101038005AF09DB09EA005D048EC21F032EC21F08A
:1010480016D09DBA9EAA05D035EC21F09AEC22F074
:101058000ED09DB89EA803D0AEEC22F008D0A0BC5C
:10106800A1AC03D028EC21F002D039EC30F05AC002
:10107800F5FF59C0F8FF58C0F7FF57C0F6FF56C034
:10108800F4FF55C0F3FF54C0DAFF53C0D9FF52C074
:10109800E2FF51C0E1FF50C0FBFF4FC0FAFF5B9277
:0610A80011005FEF26F0CD
:10425000A19C1200CD801200BA8412002A501200D4
:10426000956B1200000195811200010E2A6E010C5F
:1042710095770101010101B96FB9C0F5F01200B9DB
:104281006FB9C0A2F01200BCCFB9F0B95112009EB3
:104291009086C0CFFF85C0CEFF12000001BA6F8AA1
:1042A1009ABA5176EF21F0BA6F8A8A0001BA517633
:1042B100EF21F00D0E99EC23F00A0E99EF23F0C7D0
:1042C1006A210EC66EC86AC688C79C1200B96F0003
:1042D10001B9B39B2BB9B7A02B12007A0EBA6E9B12
:1042E1000EBB6EBC6A9E922CEF21F0B96FC69EB9CF
:1042F100C0C9FFC7A0FED7C9501200A09C9C0E9850
:104301006E9A8A9A929A96A19CA09C9C0C0001BBE1
:104311006F8A98BB51AF084EEC21F08A881200B920
:1043210051BA11D8B41200B9C0F1F0BAC0F2F0120A
:1043310000B96FB9C0A9FFA69CA69EA68000F00097
:10434100F0A8501200BB6FB00E0001BB138A98BBDE
:10435100514EEC21F08A8812000001BB6FA60EBB02
:10436100278A98BB514EEC21F08A881200A00E7D5D
:104371006E010EC26E080EC16E8E0EC06EC36AC48F
:104381006A1200800E9B6E700ED36E100ED26ED22A
:10439100AEFED7900EB56E900C000E13EC22F0011C
:1043A1000E13EC22F0020E13EC22F0030E13EF2297
:1043B100F0A394205009E1B9C073F0BAC074F0BB06
:1043C100C099F0010E976F206EA3841200990EBA66
:1043D1006F7C0EBB6FD9EC25F09DB8FED70001BAFA
:1043E1006B140EB96FC2EF22F0648465986082018C
:1043F1000E00018E6F3C6A750E3B6E3D6A3E6A404F
:104401006A3F6AA1EF24F0BB6F8A980001BB390FA4
:104411000B10094EEC21F00001BB510F0B4EEC21AA
:10442100F08A8812000001C66FC76BC7C0BCF0C616
:10443100C0BDF0200EC8EC27F0C72B0F0EC765F5E5
:10444100D70F0CBB6F0001BA6B3A0EBB6105D02FC1
:104451000EBB6502D0010EBA6FBAC0B9F0B9311204
:1044610000C2EC21F036EC25F060EC21F040EC23A9
:10447100F06EEC21F02AEC23F0B7EC21F07EEF2175
:10448100F08E6B3C6A740E3B6E3D6A3E6A406A3F39
:104491006AA1EC24F06092649401D0659465A41241
:1044A10000FCD70001C06F060EC025B96FBA6BFFC3
:1044B1000EBA23BC6B050EBB6FC6EC24F0B951C11B
:1044C1006FC151120093949398939A72EC2EF0005D
:1044D1000EADEC21F0950E0001B96F770EBA6F9019
:1044E100EC21F0CDEF21F0B951BB03F3CFBDF0F4D6
:1044F100CFBEF0B951BC03F350BE27BA51BB03F391
:1045010050BE27BDC0B9F0BEC0BAF01200B96F0FDE
:104511000E0001B9170A0EB96103D0B951300F125B
:1045210000090EB965000C100EB961000CB95137C4
:104531000F1200ABA203D0AB98AB881200000E247F
:1045410024D96EDA6A020EDA22AECFDFFF242A3FC7
:104551000E246401D0246A232A1200400E26600F23
:10456100D0400E2824D96EDA6A020EDA22DF50AD6D
:104571006E282A3F0E286401D0286A262A12009D3F
:10458100981200BC6BBD6B0BD0100EBB6F940EE884
:104591002EFED7BB2FFCD700D00001BC4BBD2BB9E1
:1045A10051BC5DBA51BD59F0E31200BA6F080E005B
:1045B10001BB6FBC6BD890BA35BC35BC6FD890BA13
:1045C10037B951BC5D02E3B951BC5FBB2FF3D7BC16
:1045D1005112002EC034F02FC035F008D034C0D9AC
:1045E100FF35C0DAFF30C0DFFF344A352A3206D842
:1045F100A033063228F3E13328F1E11200B9C0BF3C
:10460100F0BAC0C0F008D0BFC0D9FFC0C0DAFFBB4C
:10461100C0DFFFBF4BC02BBD07D8A0BE07BD29F32C
:10462100E1BE29F1E112009D9A9D98480EB86E9065
:104631000EAB6E260EAC6E710EAF6E020EB06E2713
:104641006A286A400E266E246A256A236A9D8AAB0F
:104651008812009D9A9D98480EB86E900EAB6E26FA
:104661000EAC6E710EAF6E020EB06E276A286A40F4
:104671000E266E246A256A236A9D8AAB881200CDB4
:104681006ACC6AD00ECF6E200ECE6ECE50CFCFB98F
:10469100F00001BA6BB9C0BAF0B96BB911856FBA44
:1046A10051866F9E909D802AEF21F09151D8A412DE
:1046B10000606A646A160E626E9F0E666E7B0E64FF
:1046C1006ED08EA584A384F28E01D0608660A6FD93
:1046D100D7010E916F010C0001B96B000EB925D9FC
:1046E1006EDA6A020EDA22DF6AB92B3F0EB965F57E
:1046F100D7246A256A236A9D98276A286A400E266C
:104701006E400C01D0898E2350FDE09D9A000E254C
:1047110024D96EDA6A020EDA22DF500001B96F2560
:104721002A3F0E256401D0256A23069D8AB95112BC
:10473100000001B96F2650FEE09DB803D0B9C0ADAD
:10474100FF0FD09D98400E2724D96EDA6A020EDA47
:1047510022B9C0DFFF272A3F0E276401D0276A262E
:10476100069D881200396E36A404D02E6A3950BFD6
:10477100EC28F036A205D0010E2E6E3950BFEC2880
:10478100F06A0E3924376E386A0F0E382237C0D9D5
:10479100FF38C0DAFF36C0DFFF0F0CBA6F0001BC73
:1047A1006BB95114E0010EBB6F03D0D890B937BB80
:1047B1002BB9AFFBD7D890BC37B951BA5D03E3B978
:1047C10051BA5FBC81D890B933BB2FF4D7BC511219
:1047D1000086EC25F0B46B080EB66FB56BB06B4B71
:1047E1000EB16FB26BB36B14EC23F03A6A180E3A48
:1047F10024D96EDA6A010EDA22DF6A3A2A3F0E3ACA
:1048010064F5D71A6A196A12000001BD6FBDC0BBF9
:10481100F0BB47BB47C250BB19830BBB19C26EC269
:1048210080140EE82EFED7C282C2B2FED7C4500059
:1048310001BC6FBB6BC350BB25B96F000EBC21BA65
:104841006F1200BA6F000EF2BE010E0001BB6FBA0B
:10485100C0A9FFB9C0A8FFA69EA69CA684F29E553A
:104861000EA76EAA0EA76EA682A6B2FED7A69400C8
:1048710001BBB102D0F29E01D0F28E12006AA01BE0
:10488100D015C0D9FF16C0DAFF800EDE1813E10F74
:10489100C0D9FF10C0DAFF840EDE180CE115C0D9B3
:1048A100FF16C0DAFF0C0EDF6E15C0D9FF16C0DA95
:1048B100FF000EDB8E6A90659A1200C251C3111778
:1048C100E0010EC46F04D0D890C237C337C42BC3E4
:1048D100AFFAD7C251C05DC351C15904E3C251C03F
:1048E1005FC351C15BD890C333C233C42FF2D7C069
:1048F100C0C0F0C1C0C1F012000001B96BB951765E
:104901000FD96EDA6ADF6AB92B020EB965F7D7BA29
:104911006B000EBA25D96EDA6A010EDA22DF6ABAA5
:104921002B210EBA65F5D7BB6B100EBB25D96EDAFC
:104931006A010EDA22DF6ABB2B090EBB65F5D709C6
:104941000C3BC041F03CC042F0425004E07F0AD829
:10495100A4120019D04150010A02E1E9EF23F0034A
:104961000AD8B41200010A02E103EF29F0060AD8BD
:10497100B41200770AD8B41200010AD8B4120007A1
:104981000AD8A4010A1200411C1200BE6BBF6BBB06
:1049910051BC111BE0010EBD6F04D0D890BB37BCD8
:1049A10037BD2BBCAFFAD7D890BE37BF37BB51B993
:1049B1005DBC51BA5905E3BB51B95FBC51BA5BBE8D
:1049C10081D890BC33BB33BD2FEED7BEC0B9F0BF89
:1049D100C0BAF012000001BA6B23501FE082EC2331
:1049E100F0BB6F0D0EBB190BE1980E2924D96EDABD
:1049F1006A010EDA22DF6A010EBA6F296A0ED0BB94
:104A0100510CE00A0EBB1909E0980E2924D96EDA7F
:104A11006A010EDA22BBC0DFFF292ABA51120082D5
:104A2100A002D082B214D0662B000E6723682369DE
:104A310023370E661967116811691107E1A36B82AB
:104A4100B002D0010E0FD0020E0DD0B96B0CD014F4
:104A51000EA31906E1666B676B686B696BA36B014B
:104A6100D0A32B030EB96FB951120092809282929A
:104A71008492869298929A929C929E93909392930A
:104A8100949396939A948094829484949C948E9314
:104A91009C938E8988899A899C899E8A948A908A16
:104AA1009A8A9C8A9E8B948B9C0F015B915B835BA2
:104AB100855B875D9F5D9D1200020E211802E13E1C
:104AC100EF32F0216A8D511FE120EE01F01750D92C
:104AD100261850DA22080EDF6E20EE02F01750D9A8
:104AE100261850DA22300EDE6E040EDD6E17C0D9A4
:104AF100FF18C0DAFF0C0EDF6E17C0D9FF18C0DA3D
:104B0100FF000EDB8E000C8D6B12000001B06B4BB1
:104B11000EB16FB26BB36BB46BB56B080EB66F9819
:104B21006B1A0E366E010EB3EC23F01E0E366E02BA
:104B31000EB3EC23F0000E2E6E400E2F6E050E30DC
:104B41006E400E316E020E22EC2AF02EC07BF02F49
:104B5100C07CF00001796B7A6B206A1200D8C1B079
:104B6100F0D9C1B1F0DAC1B2F0DBC1B3F02E6A1BEA
:104B71000E2F6EB70E306E316AB0C032F0B1C03355
:104B8100F0B2C034F0B3C035F08DEC27F0FF0E2E3B
:104B9100243B6EFF0E2F203C6EFF0E30203D6EFF3A
:104BA1000E31203E6E3BC0AFFF3CC0B0FF14EF237F
:104BB100F015D0BAC0F6FFBBC0F7FFF86A070EF7D1
:104BC1006403D00800F55005D0F6CFE1FFF7CFE23E
:104BD100FFE75099EC23F00001BA4BBB2BBAC0F6AA
:104BE100FFBBC0F7FFF86A070EF76403D00800F5B2
:104BF1005005D0F6CFE1FFF7CFE2FFE7500009D92A
:104C0100E15AEF21F0CD6F0A0E0001B96FCD51D6F7
:104C1100EC22F0300FD06F0A0EB96FCD51CEEC23DC
:104C2100F0CD6F0A0EB96FCD51D6EC22F0300FCF17
:104C31006F0A0EB96FCD51CEEC23F0CD6F0A0EB9CC
:104C41006FCD51D6EC22F0300FCE6FD16BCE0EC6A8
:104C51006FC76BCBC0C8F0CCC0C9F0F0EF26F02B0A
:104C61006A1E6A8F6B906B8D6B216A0FC0D9FF1022
:104C7100C0DAFF7F0EDF16040E0F1A0FC0D9FF1026
:104C8100C0DAFF7F0EDF16040E0F1A17C0D9FF1806
:104C9100C0DAFF7F0EDF160C6A0D6A0E6A046A0520
:104CA1006A066A71EC2AF03C6A030E3B6E3D6A3E6D
:104CB1006A406A3F6AA1EC24F04DEF2FF002EE004A
:104CC100F0800EEE6AE806FDE101EE00F0EA0EEE7C
:104CD1006AE806FDE100EE60F0590EEE6AE806FDB5
:104CE100E100EE01F02D0EEE6AE806FDE1710EF62F
:104CF1006E420EF76E000EF86E00EEF1F010EE0748
:104D0100F00900F5CFEEFFE550E150FAE15B905B71
:104D110092000EF86E000118EF2CF0BE6F0001BD7D
:104D210051A60FD96EDA6A0A0EB96FBE51D6EC22BE
:104D3100F0300FDF6E0A0EB96FBE51CEEC23F0BE1C
:104D41006FBD51A50FD96EDA6A0A0EB96FBE51D681
:104D5100EC22F0300FDF6E0A0EB96FBE51CEEC239C
:104D6100F0BE6FBD51A40FD96EDA6A0A0EB96FBEDB
:104D710051D6EC22F0300FDF6E1200C06BBE6BBF5C
:104D81006BAC9A8B9CBA6B0A0EB96FC2EC22F0AC79
:104D91008ABA6B050EB96FC2EC22F0550EAD6EAC3E
:104DA100A2FED7FD0EBA6F7F0EBB6FD9EC25F000C6
:104DB10001BA6B280EB96FC2EC22F00ED0EBEC24D5
:104DC100F0000903E0010EC06F07D0BE4BBF2B8975
:104DD1000EBE5D130EBF59F6E2C051F0E11200C8DC
:104DE100C0CAF00F0ECA6501D00F0CC6C0F6FFC7CE
:104DF100C0F7FFF86A070EF76403D00800F5500505
:104E0100D0F6CFE1FFF7CFE2FFE7500009D8B412A7
:104E110000CAC0BCF0C9C0BDF0C6C0F6FFC7C0F72C
:104E2100FFF86A070EF76403D00800F55005D0F6C5
:104E3100CFE1FFF7CFE2FFE750C8EC27F0C64BC741
:104E41002BCA2BCFD729D0B9C0D9FFBAC0DAFFDF1F
:104E5100500DE0B9C0D9FFBAC0DAFFDF50BF6FBB58
:104E6100C0F6FFBCC0F7FF0800F51812E0B9C0D9C1
:104E7100FFBAC0DAFFDF50BF6FBBC0F6FFBCC0F79F
:104E8100FF0800F550BF5DB96FBA6BD8A0BA071221
:104E910000B94BBA2BBB4BBC2BBD07D8A0BE07BD7D
:104EA10029D2E1BE29D0E1B96BBA6B120082A2FE10
:104EB100D7E7EC21F0010E87EC21F0C290F29EF2CF
:104EC1009EF29C0F015B81A08C878087828784F290
:104ED10086825082508250F290A19C00F003000023
:104EE100F06CEC23F0F296879087928794A09CF265
:104EF1008E36EC25F02AEC23F0F2A002D0F29003DA
:104F0100D00A0E0001A06F0F015B91000E87EC210A
:104F1100F063EC22F0BEEF26F0366A376A386A3960
:104F21006A325033103410351029E0010E3A6E0602
:104F3100D0D89032363336343635363A2A35AEF853
:104F4100D7D890363637363836393632502E5C332C
:104F5100502F58345030583550315809E332502EC3
:104F61005E33502F5A3450305A3550315A3680D82A
:104F71009035323432333232323A2EE2D736C02EC5
:104F8100F037C02FF038C030F039C031F0120000D6
:104F910001C46FBD51A3EC21F00001BC51080DF318
:104FA1005004EC22F08A980001C56BBE6BBF69C446
:104FB10051C06FC16BD890C037C137D890C037C1CD
:104FC10037D890C037C137F1C0C2F0F2C0C3F0C0CA
:104FD10051C227C151C323C551C227000EC323BEED
:104FE10051C227BF51C323C2C0F6FFC3C0F7FF0898
:104FF10000F55054EC21F00001C52B070EC565D515
:10500100D78A88070C2ED0FFD7CDEC21F0320EC6FF
:105011006F7F0EC76F010EC86FC96BF0EC26F0836E
:105021000E0001C66F7F0EC76F020EC86F010EC959
:105031006FF0EC26F0890E0001C66F7E0EC76FC8B7
:105041006B020EC96FF0EC26F0010E000105D020B5
:105051000E916101D00ED0020EA26F0BD0BDEC2BD0
:10506100F008D00001A251D0E0010AF1E0030AF6F4
:10507100E0CAD780B0F6D700F012000401386B39CE
:105081006B2AD00C8E1D042EE138832CD00C8E2A75
:10509100D00C8E34BF06D034510F0B020DF350608B
:1050A1000F05D034510F0B020DF3500F0FD96EDAEB
:1050B1006ADECF2EF0DDCF2FF02EC0D9FF2FC0DA60
:1050C100FFDFAE10D02EC0D9FF2FC0DAFFDFA40A58
:1050D100D0010E386F07D030511F0BD3E0010AD633
:1050E100E0030AD6E00CAE1200380E096E040E0A77
:1050F1006E0C80020E0D6E020CB9C0D9FFBAC0DA77
:10510100FFDF50BF6FBBC0F6FFBCC0F7FF0800F563
:10511100CFC1F0BF512CE0020EB927000EBA23C156
:1051210051BF1925E12FEEFFF0B951D926BA51DA55
:1051310022DF50C06FBB29BD6F000EBC21BE6FBD09
:10514100C0F6FFBEC0F7FF0800F5CFC1F0C05107A0
:10515100E1C151C05DB96FBA6BD8A0BA07120002A4
:105161000EBB27000EBC23C051C119F2E1C5D7C146
:1051710051BF5DB96FBA6BD8A0BA071200336E3454
:105181006A040E356E2E502F6E306AD8902F36304D
:10519100363350316E326AD89031363236D890314A
:1051A1003632362F50312630503222D890313632B5
:1051B10036D8903136323631503426325035223499
:1051C100C0D9FF35C0DAFFDF9E2E5005E133500212
:1051D1000DF350600F04D03350020DF3500F0FD96F
:1051E1006EDA6A34C0DEFF35C0DDFF34C0D9FF3569
:1051F100C0DAFFDF9C20EE04F03450D9263550DAB6
:1052010022DF8C1200040130511F0BE80601E0126D
:10521100003039E832030BE80601E0120034512D69
:10522100E034052BE01200E20E096E010E0A6E0E4B
:105231006A080E0D6E0C800C8E080CE20E096E01D0
:105241000E0A6E0C8E120036C405F037C406F0D873
:105251000E016E010E026E5E0E076E4B0E086E049D
:105261008E1200B00E096E0A6A0E6A070E0D6EC12B
:105271000E0C6EC10C32510C8E12003151D4E00172
:105281000ADCE0210AE0E0010AECE0030AF3E012A3
:10529100008F6B906B020E21181FE120EE01F017B9
:1052A10050D9261850DA22080EDF6E20EE02F017D0
:1052B10050D9261850DA22380EDE6E040EDD6E1734
:1052C100C0D9FF18C0DAFF480EDF6E17C0D9FF182A
:1052D100C0DAFF000EDB8E000C0D500401365D0EAE
:1052E10050375904E236C40DF037C40EF0D3EC2C1C
:1052F100F020EE02F00F50D9261050DA22380EDEDF
:105301006E040EDD6E0FC0D9FF10C0DAFF480EDF4C
:105311006E0FC0D9FF10C0DAFF000EDB8E000C98B3
:105321006B7B517C1109E07BC0D9FF7CC0DAFF01A6
:105331000EDFAE000EC46F01D0C46BC56BC451C586
:105341001134E120EE01F07B51D9267C51DA22C2E1
:1053510051DE5C08E220EE01F07B51D9267C51DA66
:1053610022DF50C26F986B0FD0400E9825D96EDAAC
:105371006A050EDA229851C025E16E000EC121E2C4
:105381006EDFCFE7FF982BC251985DEEE3000EB9B7
:105391006F400EBA6F050EBB6F400EBC6F020EC0A0
:1053A100EC2AF0B9C07BF0BAC07CF0985112000B26
:1053B100D0BAC0F6FFBBC0F7FF0800F55099EC2347
:1053C100F00001BA4BBB2BBAC0F6FFBBC0F7FF0818
:1053D10000F550EEE1BF6BBC51BF25D96EDA6ADF33
:1053E1005099EC23F00001BF2B020EBF65F4D7BC2E
:1053F10051D96EDA6A030ED926DF5099EC23F004F5
:105401000E0001C06F19D0BC51C025D96EDA6ADF18
:1054110050BE6FBE390F0B87EC22F099EC23F000E0
:1054210001BC51C025D96EDA6ADF500F0B87EC221F
:10543100F099EC23F00001C02BBD51C05DE4E35AAB
:10544100EF21F0326E2E5005E03250020DF3500F75
:105451000F04D03250020DF350600FD96EDA6ADEBC
:10546100CF33F0DDCF34F03350341003E12E6A2F07
:105471006A120020EE02F03350D9263450DA222F7E
:10548100C0DEFF30C0DDFF20EE01F03350D92634FD
:1054910050DA2231C0DFFF33C0D9FF34C0DAFF4018
:1054A1000EDF1633C0D9FF34C0DAFF000EDB8633BE
:1054B100C0D9FF34C0DAFFDB8E2E5005E032500236
:1054C1000DF3500F0F04D03250020DF350600FD97D
:1054D1006EDA6A040EDF1A33C02EF034C02FF004E6
:1054E1000C04013039E832030B2AE012000C8E085B
:1054F1000E0001916F080C2C0E096E0A6A0C8001D6
:105501000E0D6E0C8E010C3451B70F4A6E4AC00954
:10551100F00A6A0C80010E0D6E0C8E010C0C8E349B
:1055210051B70FD96EDA6A32C4DFFF12003C6A024A
:105531000E3B6E3D6A3E6A406A3F6AA1EF24F0313C
:105541005102E13EEF28F0010A02E184EF34F0025A
:105551000A02E184EF34F0060AC9E0030A02E138E5
:10556100EF31F0010AE3E00F0AC6E0010A02E1109F
:10557100EF2BF0030AC8E0010AD1E0070A1200BDCF
:105581006F0001B95105E0BD51020DF3500F0F0439
:10559100D0BD51020DF350600FD96EDA6ADECFBE75
:1055A100F0DDCFBFF0BE51BF1103E1B96BBA6B1291
:1055B1000020EE02F0BE51D926BF51DA22BAC0DE78
:1055C100FFBBC0DDFF20EE01F0BE51D926BF51DA8D
:1055D10022BCC0DFFFBEC0D9FFBFC0DAFF400EDF73
:1055E10016BEC0D9FFBFC0DAFF000EDB86BEC0D930
:1055F100FFBFC0DAFFDB8EB95105E0BD51020DF3EB
:10560100500F0F04D0BD51020DF350600FD96EDA67
:105611006A040EDF1ABEC0B9F0BFC0BAF0040C0CA8
:105621008E6B0E2E6E0F0E2F6E316A306A336A0248
:105631000E326EEAEC22F02E6A040E2F6E316A30C1
:105641006A336A300E326EEAEC22F0608C436A43B0
:10565100506A0FD96EDA6ADF6A43506D0FD96EDA7C
:105661006ADF6A432A020E4364F2D7B70E2E6E2F09
:105671006A316A306A336A020E326EEAEC22F060F5
:105681009C080E0F6E040E106E000E156E040E16A1
:105691006E15C017F016C018F032C42CF02C50044F
:1056A100E1100E0001916F100C3C6A010E3B6E2C53
:1056B1000E3D6E3E6A406A010E3F6EA1EC24F02061
:1056C1000E0001916F200C2D0E1F6E2DC04BF0FDB1
:1056D1000E4B164BE1D8902D303F0B040D000EF30D
:1056E10024156E040EF420166E15C017F016C0189E
:1056F100F0040E171A15C0D9FF16C0DAFFDF30E823
:10570100320F0B0D0A02E05DEF25F04D6A20EE022B
:10571100F01550D9261650DA22DECF4BF0DDCF4CF2
:10572100F04BC0D9FF4CC0DAFF300E4D24E16EE2E0
:105731006A040EE222DFCFE7FF20EE02F01550D916
:10574100261650DA22DE2A000EDD224D2A070E4DE2
:1057510064DDD720EE02F01550D9261650DA22303A
:105761000EDE6E040EDD6E30EF26F02D50FD0B04C3
:105771000AD8B434EC2DF012001F0E91651F0C6095
:10578100B21F0C1B500EE1180EC06F010EC16F400D
:105791000EC26F90EC29F0196E195003E0010E1B37
:1057A1006E1C6A1B5010E0ACA20ED0180E1C24D93E
:1057B1006EDA6A010EDA22DF5099EC23F01C2A1905
:1057C100501C1801E11B6A23501CE02EEC21F00053
:1057D1000918E03F0E1A6015D000F082EC23F0C6E4
:1057E1006F180E1A24D96EDA6A010EDA22C6C0DFEA
:1057F100FF1A2A180E1A24D96EDA6A010EDA22DF8C
:105801006A2A6A205002E0B8EF30F01A5002E1B87B
:10581100EF30F0180E0001B96F010EBA6F1AC0BB5C
:10582100F0D9EC21F002EC08F01A6AB8EF30F0314F
:10583100EC22F063EC22F09BEC2DF056EC23F0F21D
:105841008CF28E010EBA6F2C0EB96FC2EC22F0BE33
:10585100EC26F0010EBA6F2C0EB96FC2EC22F000EB
:105861000E99EC21F000019D6B000E40EC21F0CD72
:10587100EC21F0E90EC66F7E0EC76FC86BC96BF0E5
:10588100EC26F0280E0001C66F7F0EC76FC86B01B2
:105891000EC96FF0EC26F0970E0001C66F7D0EC7A2
:1058A1006FC86B030EC96FF0EC26F0020E0001BA4F
:1058B1006FBC0EB96FC2EC22F011D0FFD703EC28F8
:1058C100F0010E00019D6F3CEC21F008D094EC3307
:1058D100F0040A04E19D6B000E40EC21F000019DF3
:1058E10051EDE0010AF3E0E9D700019251D8A41289
:1058F10000010E926F9351D8A41200010E936F0212
:105901000E211814E120EE01F00F50D9261050DAC3
:1059110022DF6A0FC0D9FF10C0DAFF480EDF6E0F19
:10592100C0D9FF10C0DAFF000EDB8E000C2104D8B5
:10593100A412008D6B20EE01F01550D9261650DA15
:1059410022080EDF6E20EE02F01550D9261650DA2D
:1059510022300EDE6E040EDD6E15C0D9FF16C0DAE0
:10596100FFDF6E15C0D9FF16C0DAFF000EDB8E0116
:105971000E8D6F20EE01F01750D9261850DA22084B
:105981000EDF6E20EE02F01750D9261850DA2230C1
:105991000EDE6E040EDD6E17C0D9FF18C0DAFF806F
:1059A1000EDF6E800C080E2E6E0E500DE1080E0DEE
:1059B1005C0AE20DC02EF02B5002E1010E03D02B48
:1059C1000402E1020E2B6E2E500D5E000E0E5A20C7
:1059D100EE01F00F50D9261050DA222EC0DFFF3829
:1059E1000E00017F6F040E806F0CB03AD01BD009FE
:1059F100C0F6FF0AC0F7FFF86A7FC0D9FF80C0DA9E
:105A0100FF070EF76403D00800F55005D0F6CFE18B
:105A1100FFF7CFE2FFE750DF6E094A0A2A00017F54
:105A21004B802B2E062E50E3E1120009C0F6FF0A2F
:105A3100C0F7FFF86A7FC0D9FF80C0DAFF070EF711
:105A41006403D00800F55005D0F6CFE1FFF7CFE2AF
:105A5100FFE750DF6E094A0A2A00017F4B802B2E97
:105A6100062E50E3E112000FC0D9FF10C0DAFF008B
:105A71000EDFBC010E3F6E040E0F1A080E91190ABB
:105A8100E1040132517F0B636E6350100ED8B404F0
:105A91000E0001916F210438E120EE02F00F50D980
:105AA100261050DA22380EDE6E040EDD6ED3EC2C99
:105AB100F0020E2B180DE10FC0D9FF10C0DAFF0460
:105AC1000EDF6E0FC0D9FF10C0DAFF000EDB8E00B3
:105AD1000C3F500DE10FC0D9FF10C0DAFF480EDFB7
:105AE1006E0FC0D9FF10C0DAFF000EDB8E000C0F65
:105AF100C0D9FF10C0DAFF080EDF6E0FC0D9FF104A
:105B0100C0DAFF000EDB8E000C04AE12D007500885
:105B1100100EE020EE07F001D80AD00500FA6EDE83
:105B210050FD6EDE50FE6EF850FF6EFA501200040A
:105B31009E216A1200A394676A656A6A6A6B0EB94C
:105B41006F0F0EBA6FBC6BBB6BBE6B020EBD6FFFEE
:105B5100EC22F0160E626E9F0E666E7B0E646EC1B5
:105B61006BC151040D000EF324D96E040EF420DA3A
:105B71006EDE6ADE6ADE6ADD6AC12B0B0EC165F07C
:105B8100D7608C636A6098609C05D065960C6A0446
:105B91006A056A066A65B6F9D7010E926F936F8F2F
:105BA1006B906B8E6BC16BC151020DF3500F0FD90E
:105BB1006EDA6ADE6ADD6AC151020DF350600FD9F7
:105BC1006EDA6ADE6ADD6AC1516A0FD96EDA6ADF9E
:105BD1006AC1516D0FD96EDA6ADF6AC12B020EC13B
:105BE10065E2D7080E0F6E040E106E160E6A6E0473
:105BF1000E0401036F300E026F080E016F040E00D8
:105C01006F008F2C6A0001916B1200A394676A6583
:105C11006A6A6A6B0E2E6E0F0E2F6E316A306A330E
:105C21006A020E326EEAEC22F0160E626E9F0E666A
:105C31006E7B0E646E366A3650040D000EF324D965
:105C41006E040EF420DA6EDE6ADE6ADE6ADD6A3622
:105C51002A0B0E3664F0D7608C636A6098609C05ED
:105C6100D065960C6A046A056A066A65B6F9D701B9
:105C71000E0001926F936F8F6B906B8E6B366A364D
:105C810050020DF3500F0FD96EDA6ADE6ADD6A3603
:105C910050020DF350600FD96EDA6ADE6ADD6A36A2
:105CA100506A0FD96EDA6ADF6A36506D0FD96EDA33
:105CB1006ADF6A362A020E3664E2D7080E0F6E04D6
:105CC1000E106E160E6A6E040E0401036F300E0282
:105CD1006F080E016F040E006F008F2C6A00019196
:105CE1006B12008A888A8A8A84500EE82EFED78A2F
:105CF10094040E0001BB6F1C0EE82EFED7BB2FFCD7
:105D0100D700D08A848A98040E0001BB6F1C0EE86C
:105D11002EFED7BB2FFCD700D08A9A040E0001BB00
:105D21006F1C0EE82EFED7BB2FFCD700D0AE0E4E57
:105D3100EC21F0D50E4EEC21F0800E4EEC21F0A8B6
:105D41000E4EEC21F01F0E4EEC21F0D30E4EEC2145
:105D5100F0000E4EEC21F08D0E4EEC21F0140E4EA3
:105D6100EC21F0400E4EEC21F0A60E4EEC21F0A4F9
:105D71000E4EEC21F0A00E4EEC21F0C00E4EEC21A7
:105D8100F0DA0E4EEC21F0420E4EEC21F0810E4E77
:105D9100EC21F07F0E4EEC21F0D90E4EEC21F0F10A
:105DA1000E4EEC21F0DB0E4EEC21F0400E4EEC21BC
:105DB100F0AF0E4EEC21F08A881200894B8A2B89B4
:105DC100C0C0F08AC0C1F0C36B0A0EC26F5EEC2482
:105DD100F0C051C111D8A41200958389C0C0F08AC6
:105DE100C0C1F0C36B640EC26F5EEC24F0C051C140
:105DF10011D8A41200958589C0C0F08AC0C1F003F2
:105E01000EC36FE80EC26F5EEC24F0C051C111D811
:105E1100A41200958789C0C0F08AC0C1F0EA0EC300
:105E21006F600EC26F5EEC24F0C051C111D8A41294
:105E310000874B882B958987C0C0F088C0C1F0C30B
:105E41006B3C0EC26F5EEC24F0C051C111D8A4129C
:105E510000958B87C0C0F088C0C1F0020EC36FD01F
:105E61000EC26F5EEC24F0C051C111D8A41200958E
:105E71008D87C0C0F088C0C1F0050EC36FA00EC2EF
:105E81006F5EEC24F0C051C111D8A41200958F8926
:105E91006B8A6B876B886B120060980CBE37D004DD
:105EA100AE0AD0020E216E0001905102E149EC29A7
:105EB100F0936B926B120020EE01F01750D9261867
:105EC10050DA22080EDF6E20EE02F01750D92618A4
:105ED10050DA22300EDE6E040EDD6E17C0D9FF18C7
:105EE100C0DAFF0C0EDF6E17C0D9FF18C0DAFF0051
:105EF1000EDB8E0FC0D9FF10C0DAFF040EDF6E0F6C
:105F0100C0D9FF10C0DAFF000EDB8E000C04013097
:105F1100AF0ED0010E216E00018F5102E149EC2933
:105F2100F0936B926B1E50D8A4120075EF2CF00207
:105F31000E216E20EE01F01750D9261850DA2208F2
:105F41000EDF6E20EE02F01750D9261850DA2230FB
:105F51000EDE6E040EDD6E17C0D9FF18C0DAFFDF4A
:105F61006E17C0D9FF18C0DAFF000EDB8E00019357
:105F71006B926B1E5002E175EF2CF01200CBC0C08A
:105F8100F0CCC0C1F0C36B0A0EC26F5EEC24F0C04E
:105F910051300FD36FCBC0B9F0CCC0BAF0BC6B0A93
:105FA1000EBB6FC6EC24F0B9C0CBF0BAC0CCF0CBBD
:105FB100C0C0F0CCC0C1F0C36B0A0EC26F5EEC244E
:105FC100F0C051300FD26FCBC0B9F0CCC0BAF0BC29
:105FD1006B0A0EBB6FC6EC24F0B9C0CBF0BAC0CCD3
:105FE100F0CBC0C0F0CCC0C1F0C36B0A0EC26F5E73
:105FF100EC24F0C051300FD16FCBC0B9F0CCC0BA96
:10600100F0BC6B0A0EBB6FC6EC24F0B9C0CBF0BA82
:10601100C0CCF0CBC0C0F0CCC0C1F0C36B0A0EC283
:106021006F5EEC24F0C051300FD06FCBC0B9F0CC13
:10603100C0BAF0BC6B0A0EBB6FC6EC24F0B9C0CB82
:10604100F0BAC0CCF0CBC0C0F0CCC0C1F0C36B0A79
:106051000EC26F5EEC24F0C051300FCF6FD46BCF06
:106061000EC66FC76BCDC0C8F0CEC0C9F0F0EF2629
:10607100F00001910507E160BA05D0656A648064AA
:1060810088020E916F65B464A403D0659441EC223B
:10609100F060A202D0A494120065B064A006D006FC
:1060A100EC2EF0A384040E916F659065B864A8038B
:1060B100D0F5EC21F0659865AC14D064AC0AD03C05
:1060C1006A730E3B6E3D6A3E6A406A010E3F6EA1E5
:1060D100EC24F0659C1F5001E01F061F5002E17582
:1060E100EC2CF065BA64AA02D03FEC24F065B264EE
:1060F100A20BD07F0E3C6E3B683D6A3E6A406A014E
:106101000E3F6EA1EC24F0676A040E00019161025A
:10611100D0A494040C64A629D04E6A65A626D06149
:10612100CF2DF02D30E832E8320F0B226E65962D1F
:10613100B403D022506D0F02D022506A0FD96EDA0B
:106141006A0001DF70225003E164EC2BF00AD03CBD
:106151006A720E3B6E2D0E3D6E3E6A406A3F6AA129
:10616100EC24F04E2A030E4E64D8D7A4941200A357
:1061710094000179517A1109E079C0D9FF7AC0DA26
:10618100FF010EDFAE000EC06F01D0C06BC16BC04E
:1061910051C11102E0A3841200030E201801E12075
:1061A1006A205002E1A3841200020E201810E101BE
:1061B1000EB96F000EBA6FBB6FBC6F020EC0EC2A36
:1061C100F0B9C079F0BAC07AF0030E206E4ED0203B
:1061D100044CE1400E996502D0C36F02D099C0C34F
:1061E100F0C351995F000E706F050E716FC3C0C28D
:1061F100F0975110E021D073C0D9FF74C0DAFF705D
:10620100C0E1FF71C0E2FFDFCFE7FF704B712B737D
:106211004B742BC207C25112E0EED773C0D9FF7481
:10622100C0DAFF70C0E1FF71C0E2FFDFCFE7FF70AE
:106231004B712B734B742BC207C251EFE19951067D
:10624100E1400EC319020ED8A4030E206E010EB94F
:106251006F000EBA6F050EBB6FC3C0BCF0020EC05B
:10626100EC2AF0B9C079F0BAC07AF0A384120080A8
:106271000E04013019D8A41200C00E0C6E71D0406A
:106281000E096E7B0E0A6E0E6A120E0D6E120C3224
:10629100513DE13251020D930EF324F66E770EF467
:1062A10020F76E0900F5CF09F00A00F5CF0AF002D8
:1062B1000E09242E6E000E0A202F6E2EC0F6FF2F1F
:1062C100C0F7FFF86A070EF76403D00800F5500520
:1062D100D0F6CFE1FFF7CFE2FFE7500D6E030E09D5
:1062E100242E6E000E0A202F6E2EC0F6FF2FC0F74F
:1062F100FFF86A070EF76403D00800F55005D0F6E1
:10630100CFE1FFF7CFE2FFE7500E6E12000C6A12E9
:1063110000030E326121D03251020D8D0EF324F6AD
:106321006E770EF420F76E0900F5CF09F00A00F53B
:10633100CF0AF009C0F6FF0AC0F7FFF86A070EF7A7
:106341006403D00800F55005D0F6CFE1FFF7CFE2A6
:10635100FFE7500D6E0E6A12000C6A12000C6A12F1
:10636100003351010A8CE0030A92E0010AD1E0F600
:10637100D7C751A80FD96EDA6AC5C0C0F0C6C0C16F
:10638100F0C36B0A0EC26F5EEC24F0C051300FDF18
:106391006EC5C0B9F0C6C0BAF0BC6B0A0EBB6FC601
:1063A100EC24F0B9C0C5F0BAC0C6F0C751A70FD9E7
:1063B1006EDA6AC5C0C0F0C6C0C1F0C36B0A0EC2B6
:1063C1006F5EEC24F0C051300FDF6EC5C0B9F0C66E
:1063D100C0BAF0BC6B0A0EBB6FC6EC24F0B9C0C5E5
:1063E100F0BAC0C6F0C751A60FD96EDA6AC5C0C0EF
:1063F100F0C6C0C1F0C36B0A0EC26F5EEC24F0C0E0
:1064010051300FDF6EC5C0B9F0C6C0BAF0BC6B0A1F
:106411000EBB6FC6EC24F0B9C0C5F0BAC0C6F0C758
:1064210051A50FD96EDA6AC5C0C0F0C6C0C1F0C3AC
:106431006B0A0EC26F5EEC24F0C051300FDF6EC5E7
:10644100C0B9F0C6C0BAF0BC6B0A0EBB6FC6EC2473
:10645100F0B9C0C5F0BAC0C6F0C751A40FD96EDA01
:106461006AC5C0C0F0C6C0C1F0C36B0A0EC26F5E80
:10647100EC24F0C051300FDF6E120020EE01F01558
:1064810050D9261650DA22DF50406E4050055C008C
:106491000E065802E205C040F04050055E000E06AF
:1064A1005A3F6A0FD0380E3F24D96EDA6A040EDAE9
:1064B1002201C0E1FF02C0E2FFDFCFE7FF014A0294
:1064C1002A3F2A40503F5CEEE30550061032E0209F
:1064D100EE01F01750D9261850DA22080EDF6E208F
:1064E100EE02F01750D9261850DA22380EDE6E046B
:1064F1000EDD6E15C0D9FF16C0DAFFDFBC0DD01757
:10650100C0D9FF18C0DAFF480EDF6E17C0D9FF18D7
:10651100C0DAFF000EDB8E000C17C0D9FF18C0DAFD
:10652100FF080EDF6E17C0D9FF18C0DAFF000EDBBF
:106531008E000C20EE01F01750D9261850DA2208EF
:106541000EDF6E20EE02F01750D9261850DA2230F5
:106551000EDE6E040EDD6E17C0D9FF18C0DAFFDF44
:106561006E17C0D9FF18C0DAFF000EDB8E07500886
:10657100100EE020EE07F001D80AD00500FA6EDE19
:1065810050FD6EDE50FE6EF850FF6EFA50120004A0
:106591009E1E50D8B475EC2CF012000001D75101A9
:1065A100E1BFD0200EA165B9D0DA6BDB6BBA6B0A03
:1065B1000EB96FC2EC22F0200EDC6F030E05EC2445
:1065C100F07D51B9277E51BA23D890BA31D86FB92D
:1065D100317D6FD8C07EF0DC07DC51EFE1BA6B0A88
:1065E1000EB96FC2EC22F0200EDD6F020E05EC2415
:1065F100F0DA51B927DB51BA23D890BA31D86FB943
:1066010031DA6FD8C0DBF0DD07DD51EFE1DA51524D
:10661100EC22F0836F846BA16BCDEC21F0F10EC6FF
:106621006F7C0EC76FC86BC96BF0EC26F0950E003E
:1066310001C66F7E0EC76FC86B010EC96FF0EC26E5
:10664100F00A0E0001CB6F010ECC6F9E5103EC26B8
:10665100F0D30E0001C66F7D0EC76FC86B020EC965
:106661006FF0EC26F07DC0CBF07EC0CCF0030E00C5
:1066710001CD6F020ECE6FBFEC2FF00C0E0001CBDF
:106681006F020ECC6F835103EC26F0570E0001C64A
:106691006F7D0EC76FC86B030EC96FF0EC26F07DDE
:1066A100EC24F044EC21F09E6F9E5103E1050E9E17
:1066B1006F05D0DF0E9E6502D0CE0E9E27BD6B9E6C
:1066C100518EEC26F0200EA76F7DC0C5F07EC0C6AE
:1066D100F0040EC76FB9EC31F0090EBD6F83518E16
:1066E100EC26F000F0850E0001C66F7B0EC76F0F20
:1066F1000EC86F010EC96FF0EC26F0000E0001BA52
:106701006F7F0EBB6FA40EBC6F0C0EBD6FD8EC2952
:10671100F0070E0001A06F080E02D0A12B0E0E9FF4
:106721006F57EC27F0FFD70101EA6BEB6BEE6B8043
:10673100A003D0040E0001F56F000195A107D03030
:10674100EC21F0DEEC2EF0955167EC21F010EC25F8
:10675100F00101EF6FEF0506E10001A06B010E01F1
:1067610001EB6F08D0020EEF1905E10001A06B01EA
:106771000E0101EE6FEBEC24F0000904E0010E01C3
:1067810001F26F02D00101F26B060E00019F1903A5
:10679100E0020E9F1946E1040E9B6543D00101EC16
:1067A1006BED6B0001BA6B0A0EB96FC2EC22F020DF
:1067B1000E0101F06F030E05EC24F07D51B9277E27
:1067C10051BA23D890BA31EF6FB9317D6FEFC07EE6
:1067D100F00101F007F051EEE10001BA6B0A0EB9C8
:1067E1006FC2EC22F0200E0101F16F020E05EC24C4
:1067F100F00101EC510001B9270101ED510001BA8D
:1068010023D890BA31EF6FB9310101EC6FEFC0EDD0
:10681100F1F107F151EAE1EC5152EC22F0836F847E
:106821006B9B6BA05164E0090EA06561D0010E0164
:1068310001EA6F0001A06B5BD0FFD7CDEC21F00A1C
:106841000EC66F7F0EC76F010EC86FC96BF0EC26C5
:10685100F0560E0001C66F7F0EC76F020EC86F01A2
:106861000EC96FF0EC26F0E00E0001C66F7C0EC77A
:106871006FC86B030EC96FF0EC26F00001946B0238
:106881000E29D0EEC1DEF00101F25154EC37F000D7
:106891000937E0CDEC21F0350EC66F7D0EC76FC80C
:1068A1006BC96BF0EC26F0460E0001C66F7D0EC77A
:1068B1006FC86B020EC96FF0EC26F0BE0E0001C668
:1068C1006F7C0EC76FC86B030EC96FF0EC26F0002A
:1068D100019F6B030EF56F14D0EEC1D5F0F2C1D656
:1068E100F0EAC1D7F00101EB51CEEC32F009D0F55D
:1068F10051010AA3E0030AC5E0010AEEE0070A9C80
:10690100E10001F5511200040132050BE130511F84
:106911000B08E10C8E030E311903E1010E1D6E010E
:10692100D01D6A3251D8A4120030511F0B020AD86F
:10693100A4120034510F0BD8B4120034510F0B4381
:106941006E030E4360030C200E00019119D8A412AE
:10695100000C8E040134BF11D034510F0B020DF322
:1069610050600FD96EDA6ADECF48F0DDCF49F034DE
:10697100510F0B436E43506D0F10D034510F0B026A
:106981000DF3500F0FD96EDA6ADECF48F0DDCF4933
:10699100F034510F0B436E43506A0FD96EDA6ADF40
:1069A10050476E47B002D0489401D0488434BF06A6
:1069B100D034510F0B020DF350600F05D034510F3D
:1069C1000B020DF3500F0FD96EDA6A48C0DEFF4992
:1069D100C0DDFF030E311923E148C0D9FF49C0DAF8
:1069E100FFDFAE11D034BF06D034510F0B436E43DD
:1069F100506D0F05D034510F0B436E43506A0FD9C0
:106A01006EDA6A0001DF8248C0D9FF49C0DAFF00AF
:106A11000EDB8448C0D9FF49C0DAFFDB8E000C04CD
:106A21000E481A48C0D9FF49C0DAFFDFAE19D04875
:106A3100C0D9FF49C0DAFF7F0EDF1648C0D9FF4930
:106A4100C0DAFF000EDB8C3C6A050E3B6E48C03D90
:106A5100F049C03EF0406A020E3F6EA1EC24F00600
:106A6100D048C0D9FF49C0DAFF000EDB8C040E48C4
:106A71001A47B206D048C0D9FF49C0DAFFDFAE25B8
:106A8100D0040134BF06D034510F0B436E43506D17
:106A91000F05D034510F0B436E43506A0FD96EDA94
:106AA1006A0001DF9248C0D9FF49C0DAFF3B0EDF1F
:106AB100163C6A050E3B6E48C03DF049C03EF040B1
:106AC1006A020E3F6EA1EC24F006D048C0D9FF49FE
:106AD100C0DAFF3B0EDF16040134510F0B436E4445
:106AE1006A6A0E4324456E0F0E4420466E45C0D996
:106AF100FF46C0DAFFFE0EDF16FE0CC90ED56FC1D0
:106B0100D1250EDD1909E0C5C0D9FFC6C0DAFFDD08
:106B1100C0DFFFC54BC62BB5D1DB6BDC6BDA6B037A
:106B2100D0DA85C74BC82BC7C0F6FFC8C0F7FF082E
:106B310000F550300AF5E0C7C0F6FFC8C0F7FF08FE
:106B410000F55022EC22F001E287D0DB6BDC6BDB3D
:106B5100C0B9F0DCC0BAF0BC6B0A0EBB6F74EC229A
:106B6100F0B9C0DBF0BAC0DCF0D00ECD6FCE69C792
:106B7100C0F6FFC8C0F7FF0800F550CF6FD06BCD4E
:106B810051CF27CE51D023CF51DB27D051DC23C7A2
:106B91004BC82BC7C0F6FFC8C0F7FF0800F550224D
:106BA100EC22F05AE3D4D7DA8F6ED0D551D96EDA10
:106BB1006ADECFD3F0DDCFD4F0020ED527D351D486
:106BC1001104E1AB0ED36F7F0ED46FD66BD76B027E
:106BD100D0D64BD72BD651D325CD6FD751D421CE7B
:106BE1006FCDC0F6FFCEC0F7FF0800F550F1E1DB35
:106BF10051D65DDC51D75905E2D651DB5FD751DC67
:106C01005B0BD0DB6BDC6B08D0C5C0D9FFC6C0DA2B
:106C1100FF200EDF6EC54BC62BDB07D8A0DC07DBE0
:106C210029F3E1DC2910E0F0D7D3C0F6FFD4C0F797
:106C3100FFC5C0D9FFC6C0DAFF0800F5CFDFFFD31B
:106C41004BD42BC54BC62BD607D8A0D707D629ECDA
:106C5100E1D72901E116D1E8D7C7C0F6FFC8C0F7CF
:106C6100FFC74BC82B0800F5CFDDF0DD5101E11561
:106C7100D1580A99E03C0A07E00D0A05E01A0A9585
:106C8100E00B0A91E0FED0DABF12D0D551D96EDA0D
:106C91006ADECFD8F0DDCFD9F0020ED527D9AF3DCE
:106CA100D0030EDA13D86DD91FD8B0D92B36D0D571
:106CB10051D96EDA6ADECFD8F0DDCFD9F0020ED528
:106CC100272CD0010EDD6FDD51020D7B0EF324F672
:106CD1006E770EF420F76E0900F550D85D0900F5C6
:106CE10050D95920E3DD2B050EDD191CE0ECD7014D
:106CF1000EDD6FDD51020D850EF324F66E770EF475
:106D010020F76E0900F550D85D0900F550D9590AF0
:106D1100E3DD2B040EDD1906E0ECD7DA51800BD14F
:106D2100E0800AE5E0DB51DC1108E0DAC0CDF003D8
:106D31000ECD1703E0DB07D8A0DC07800EDDBF7F97
:106D41000ECD6FDB51DD5DDC51800ACD5907E2DDEF
:106D510051DB5F000EDDBFFF0EDC5B02D0DB6BDCC5
:106D61006BDAA51CD0DAC0CDF0030ECD1708E0C553
:106D7100C0D9FFC6C0DAFF2D0EDF6EC54BC62BDBB7
:106D810051DC112AE0C5C0D9FFC6C0DAFF300EDFE1
:106D91006EC54BC62BDB07D8A0DC07F1D7DB51DC76
:106DA100110EE0C5C0D9FFC6C0DAFF200EDF6EC5E7
:106DB1004BC62BDB07D8A0DC07DB51DC11F2E1DA93
:106DC100C0CDF0030ECD1708E0C5C0D9FFC6C0DAAB
:106DD100FF2D0EDF6EC54BC62BDDC0D2F04FD0D2DA
:106DE10051020D7B0EF324F66E770EF420F76E0937
:106DF10000F5CFBBF00A00F5CFBCF0D8C0B9F0D98F
:106E0100C0BAF0C6EC24F0B9C0C0F0BAC0C1F0C33A
:106E11006B0A0EC26F5EEC24F0C051300FDD6F269D
:106E2100D0D8C0B9F0D9C0BAF0D251020D850EF355
:106E310024F66E770EF420F76E0900F5CFBBF00A49
:106E410000F5CFBCF0C6EC24F0B9510F0BD16FADFA
:106E51000ED125F66EF76A7C0EF7220800F5CFDD1C
:106E6100F005D0DA51800BBBE0800ADAE0C5C0D969
:106E7100FFC6C0DAFFDDC0DFFFC54BC62BD207D28C
:106E810029F0E1C7C0F6FFC8C0F7FFC74BC82B0800
:106E910000F5CFDDF0DD5101E033D6C5C0D9FFC625
:106EA100C0DAFFDF6A000C0001EE6FE96B80EF3B97
:106EB100F0FFD7899E899CEBEC24F00009FCE1AD41
:106EC1000EBA6F7E0EBB6FD9EC25F0CDEC21F0B17F
:106ED1000EC66F7E0EC76FC86BC96BF0EC26F00053
:106EE10001BA6B640EB96FC2EC22F0020EDDD3EE73
:106EF1005102E1BAEF3BF09A0EB96F010EBA6FF889
:106F01000EBB6F7F0EBC6FBE6B040EBD6F23EC27F3
:106F1100F0B951BA1118E1200EBA6F7C0EBB6FD9CE
:106F2100EC25F0CDEC21F0A10EC66F7E0EC76FC827
:106F31006BC96BF0EC26F00001BA6B500EB96FC251
:106F4100EC22F0030EB1D3CDEC21F0980EC66F0107
:106F51000EC76FC86B030EC96FF0EC26F0030E006D
:106F610001BA6FE80EB96FC2EC22F0946BBAEF3B35
:106F7100F0EE5102E1BAEF3BF0980EB96F010EBA93
:106F81006FB30EBB6F7D0EBC6F7DEC28F0B951BAAB
:106F910011ECE1870EBA6F7B0EBB6FD9EC25F0CDFA
:106FA100EC21F0C50EC66F7E0EC76FC86BC96BF0C2
:106FB100EC26F00001BA6B500EB96FC2EC22F0045E
:106FC1000E73D3EE5101E1D5D3980EB96F010EBA0C
:106FD1006FB30EBB6F7D0EBC6F7DEC28F0B951BA5B
:106FE10011C4E1560EBA6F7B0EBB6FD9EC25F0CD03
:106FF100EC21F0B90EC66F7E0EC76FC86BC96BF07E
:10700100EC26F00001BA6B500EB96FC2EC22F0050C
:107011000E4BD3EE5101E1ADD3980EB96F010EBA0B
:107021006FB30EBB6F7D0EBC6F7DEC28F0B951BA0A
:10703100119CE1770EBA6F7D0EBB6FD9EC25F0CDB7
:10704100EC21F0930EC66F7F0EC76FC86BC96BF052
:10705100EC26F00001BA6B500EB96FC2EC22F006BB
:107061000E23D3EE5101E185D3980EB96F010EBA0B
:107071006FB30EBB6F7D0EBC6F7DEC28F0B951BABA
:107081001101E073D7670EBA6F7D0EBB6FD9EC2586
:10709100F0CDEC21F03B0EC66F7F0EC76FC86BC9F8
:1070A1006BF0EC26F00001BA6B500EB96FC2EC2206
:1070B100F0080EFAD2EE5101E15CD3980EB96F01DE
:1070C1000EBA6FB30EBB6F7D0EBC6F7DEC28F0B9AD
:1070D10051BA1101E04AD7510EBA6F7C0EBB6FD97C
:1070E100EC25F0CDEC21F08B0EC66F7F0EC76FC87B
:1070F1006BC96BF0EC26F00001BA6B500EB96FC290
:10710100EC22F08B6B8C6B070ECFD2EE5101E1318B
:10711100D3980EB96F010EBA6FB30EBB6F7D0EBC63
:107121006F7DEC28F0B951BA1101E01FD78CBF0C6B
:10713100D08C5103E1080E8B5D07E38CBF09D08C25
:107141005103E1100E8B5D04E3830EE16F7D0E03AD
:10715100D0C20EE16F7D0EE26F580EC56F010EC6F3
:107161006F810EC76F7C0EC86F8BC0C9F08CC0CA0F
:10717100F0E1C0CBF0E2C0CCF07EEC35F0580EBAB5
:107181006F010EBB6FD9EC25F0CDEC21F0EA0EC6F4
:107191006F7F0EC76FC86BC96BF0EC26F06A0E00EB
:1071A10001C66F010EC76FC86B010EC96FF0EC26E7
:1071B100F00001BA6B500EB96FC2EC22F08B4B8C10
:1071C1002B8CBFA1D78C5103E1480E8B5D9CE30949
:1071D1000E6BD2EE5101E1CDD2980EB96F010EBA0C
:1071E1006FB30EBB6F7D0EBC6F7DEC28F0B951BA49
:1071F1001101E0BBD6BA6BC80EB96FC2EC22F048E0
:107201000EBA6F7E0EBB6FD9EC25F0CDEC21F04CA0
:107211000EC66F7E0EC76FC86BC96BF0EC26F0000F
:1072210001BA6B500EB96FC2EC22F00A0E3DD2EEDC
:107231005101E19FD2980EB96F010EBA6FB30EBB27
:107241006F7D0EBC6F7DEC28F0B951BA1101E08D54
:10725100D6CDEC21F0CF0EC66F7C0EC76FC86BC9BF
:107261006BF0EC26F00001BA6B500EB96FC2EC2244
:10727100F00B0E1AD2EE5101E17CD2980EB96F01DA
:107281000EBA6F440EBB6F7F0EBC6F7DEC28F0B958
:1072910051BA111AE1390EBA6F7C0EBB6FD9EC25C8
:1072A100F0CDEC21F0F10EC66F7F0EC76FC86BC930
:1072B1006BF0EC26F00001BA6B960EB96FC2EC22AE
:1072C100F00C0E946F898C55D2CDEC21F0020EC6D4
:1072D1006F7D0EC76FC86BC96BF0EC26F00001948F
:1072E1006B010EBA6FF40EB96FC2EC22F023D0EE2F
:1072F1005101E13FD2980EB96F010EBA6FB30EBBC7
:107301006F7D0EBC6F7DEC28F0B951BA1115E1CD3E
:10731100EC21F0A70EC66F7D0EC76FC86BC96BF06D
:10732100EC26F00B0E0001BA6FB80EB96FC2EC2259
:10733100F00D0E946F898E1DD2CDEC21F0140EC686
:107341006F7F0EC76FC86BC96BF0EC26F00001941C
:107351006B010EBA6FF40EB96FC2EC22F0899C0971
:10736100D2898E899CCDEC21F0B90EC66F7F0EC7F4
:107371006FC86BC96BF0EC26F00001965104E1E394
:107381000EE36F7F0E03D0B20EE36F7F0EE46FE367
:10739100C0C6F0E4C0C7F0060EC86FC96BF0EC269A
:1073A100F0240E0001C66F7D0EC76FC86B010EC9B8
:1073B1006FF0EC26F0130E0001C66F7D0EC76FC88B
:1073C1006B020EC96FF0EC26F00001BA6B500EB9DA
:1073D1006FC2EC22F08B6B8C6B0E0E66D196510254
:1073E100E19C5102E08B4B8C2BBA6B640EB96FC2DE
:1073F100EC22F0000E82B0010EF36F000E82B2019A
:107401000EF46FF35123E1F60521E19651010ED8F7
:10741100A4000E966FB90EC66F7F0EC76FC86BC9F9
:107421006BF0EC26F00001965104E1E30EE56F7F6D
:107431000E03D0B20EE56F7F0EE66FE5C0C6F0E633
:10744100C0C7F0060EC86FC96BF0EC26F00001F45E
:107451005104E1F70502E1010E9C6FF3C0F6F0F46F
:10746100C0F7F08CBF86D18C5104E1150E8B5D0104
:10747100E280D19C6B8B6B8C6BEA6BEB6BBA6B0A0A
:107481000EB96FC2EC22F0200EEC6FEC5110E0034C
:107491000E05EC24F07D51B9277E51BA23D890BA5C
:1074A10031DF6FB9317D6FDFC07EF0EC07EED7BA07
:1074B1006B0A0EB96FC2EC22F0200EED6FED511088
:1074C100E0020E05EC24F0EA51B927EB51BA23D8BA
:1074D10090BA31DF6FB931EA6FDFC0EBF0ED07EE43
:1074E100D7EA5152EC22F0836F846B9B6B814B8204
:1074F1002BCDEC21F0B90EC66F7F0EC76FC86BC9DB
:107501006BF0EC26F00001965104E1E30EE76F7F8A
:107511000E03D0B20EE76F7F0EE86FE7C0C6F0E84A
:10752100C0C7F0060EC86FC96BF0EC26F0D50E008F
:1075310001C66F7F0EC76FC86B010EC96FF0EC26D5
:10754100F0C00E0001C66F7F0EC76FC86B020EC977
:107551006FF0EC26F0850E0001C66F7B0EC76F0C35
:107561000EC86F020EC96FF0EC26F07DC0CBF07E25
:10757100C0CCF0060E0001CD6F010ECE6FBFEC2F17
:10758100F083C0CBF084C0CCF0060E0001CD6F02B9
:107591000ECE6FBFEC2FF0DC0E0001C66F7F0EC761
:1075A1006FC86B030EC96FF0EC26F081C0CBF0827F
:1075B100C0CCF0060E0001CD6F030ECE6FBFEC2FD5
:1075C100F0580E0001C56F010EC66F690EC76F7CC2
:1075D1000EC86F81C0C9F082C0CAF09AC0CBF0CC8E
:1075E1006B7EEC35F0580EBA6F010EBB6FD9EC25EE
:1075F100F00F0E59D0CE0EC66F7F0EC76FC86B034A
:107601000EC96FF0EC26F081C0CBF082C0CCF00641
:107611000E0001CD6F030ECE6FBFEC2FF00001BA4B
:107621006B500EB96FC2EC22F0100E3ED0EE51013C
:10763100E1A0D0980EB96F010EBA6FAC0EBB6F7D91
:107641000EBC6F7DEC28F0B951BA1101E092D09ACD
:1076510029030B9A6F580EC56F010EC66FC50EC771
:107661006F7D0EC86F9AC0C9F0CA6B7EEC35F058B9
:107671000EBA6F010EBB6FD9EC25F0C70E0001C623
:107681006F7F0EC76FC86B030EC96FF0EC26F081D8
:10769100C0CBF082C0CCF0060E0001CD6F030ECE40
:1076A1006FBFEC2FF0010E0001946F63D0EE5161BA
:1076B100E0980EB96F010EBA6FB30EBB6F7D0EBCB1
:1076C1006F7DEC28F0B951BA1101E186D652D00193
:1076D1000EE96FBA6B500EB96FC2EC22F04AD000BE
:1076E1000EB96B22EC24F082B002D082A2FCD7004A
:1076F10001BA6B280EB96FC2EC22F0FF003AD094A8
:107701005102E15AEF37F0010AD1E0030A02E178B0
:10771100EF37F0010A01E12CD4070A01E152D4014B
:107721000A01E177D4030A01E19CD4010A01E1EDE8
:10773100D40F0A01E1BFD4010A01E14BD5030A01CB
:10774100E176D5010A01E196D5070A01E1D0D5011B
:107751000A01E106D6030A01E141D6010A01E14A23
:10776100D71F0A01E163D7010AB2E0030AB8E05961
:10777100EF37F00001E95112000001000A00640036
:10778100E80310270100100000010010527BD87A95
:107791000C7B957A00000000000000000000005FF3
:1077A100000000000000030003000000643C2664A8
:1077B1003C2624002649497F4949320042251208C6
:1077C1002452210020504E55225828000000000369
:1077D1000000000000001C224100000000000041E8
:1077E100221C00000015150E0E1515000008083E9C
:1077F10008080000000000503000000000080808E0
:1078010008080000000000400000000040201008AF
:1078110004020100003E4141413E00000000417F61
:107821004000000000426151496E000000224149C0
:1078310049360000001814127F1000000027494942
:1078410049710000003C4A49487000000043211181
:107851000D03000000364949493600000006094978
:10786100291E00000000001200000000000000526C
:107871003000000000000814142200000014141449
:10788100141414000000221414080000000201590D
:10789100050200003E415D554D512E00407C4A09D4
:1078A1004A7C4000417F4949494936001C224141F7
:1078B10041412200417F414141221C00417F494910
:1078C1005D416300417F49091D0103001C224149BB
:1078D100493A0800417F0808087F41000041417F83
:1078E10041410000304041413F010100417F080C0E
:1078F10012614100417F414040406000417F420CA4
:10790100427F4100417F420C117F01001C22414115
:1079110041221C00417F4909090906000C1221215D
:1079210061524C00417F090919694600664949497C
:10793100494933000301417F41010300013F4140B7
:10794100413F0100010F3140310F0100011F61145E
:10795100611F01004141360836414100010344786D
:1079610044030100436151494543610000007F41E7
:1079710041000000010204081020400000004141C4
:107981007F000000000402010102040000404040A9
:1079910040404000000102000000000000344A4A5B
:1079A1004A3C400000413F4848483000003C4242C8
:1079B1004224000000304848493F4000003C4A4A08
:1079C1004A2C00000000487E490900000026494970
:1079D100493F0100417F4804447840000000447D54
:1079E10040000000000040443D000000417F1018AD
:1079F100244242000040417F40400000427E027C20
:107A0100027E4000427E4402427C4000003C4242F1
:107A1100423C000000417F490909060000060909AE
:107A2100497F410000427E440202040000644A4A48
:107A31004A36000000043F444420000000023E405A
:107A410040227E40020E3240320E0200021E6218B7
:107A5100621E02004262140814624200014345386A
:107A610005030100004662524A46620000000836E2
:107A7100410000000000007F000000000000004104
:107A8100360800000018080810101800AA55AA5559
:107A9100AA55AA5509024300020100C03209040097
:107AA1000001020201000524001001042402020564
:107AB10024060001052401000107058103080002D5
:107AC10009040100020A000000070502024000004B
:107AD1000705820240000034034D00690063007213
:107AE100006F0063006800690070002000540065A9
:107AF10000630068006E006F006C006F0067007922
:107B010000200049006E0063002E0034034300444E
:107B11000043002000520053002D00320033003298
:107B210000200045006D0075006C00610074006963
:107B3100006F006E002000440065006D006F0012B0
:107B410001000202000008D8040A0000010102003D
:107B510001040309046D616320736574206E776B02
:107B6100736B6579203242374531353136323841D0
:107B71004544324136414246373135383830394350
:107B81004634463343006D61632073657420617030
:107B910070736B6579203242374531353136323871
:107BA1004145443241364142463731353838303922
:107BB10043463446334300737973207365742070F0
:107BC100696E646967204750494F313020300D0A92
:107BD10000737973207365742070696E646967201E
:107BE1004750494F313120300D0A007379732073AA
:107BF10065742070696E646967204750494F313060
:107C010020310D0A00737973207365742070696ED9
:107C1100646967204750494F313120310D0A006DA9
:107C210061632073657420646576616464722044C5
:107C310045414430304131006D61632074782075D5
:107C41006E636E662031203030303030303030009D
:107C51006D61632073657420727832203820393267
:107C610033333030303030006D61632074782075EB
:107C71006E636E662031202530345825303458002B
:107C81006D6163207365742063682073746174751A
:107C9100732025642025730073797320736C6565E7
:107CA100702039393939393939393900303132337C
:107CB100343536373839414243444546002028534C
:107CC10031292020202020202853322920005761EB
:107CD10069742061636365707465642E2E2E005291
:107CE1006552756E205077725473743C53323E0066
:107CF1004973737565205065726F646963205458C8
:107D0100006D6F7465576169744163636570746573
:107D110064005332203D206D616E75616C20736586
:107D21006E64005331203D206175746F206F6E2F9A
:107D31006F6666004D6F62696C65204D6F746520DA
:107D41002D417070004E6176696761746520205322
:107D5100656C65637400284E415629202020202837
:107D610053454C2920006D6163207365742073793C
:107D71006E63203334006D61632073657420616428
:107D810072206F6666004275696C64204461746597
:107D91002F54696D65002020206275696C64203064
:107DA10031322020200077616974206D61635F7436
:107DB100785F6F6B006D616320736574206164721D
:107DC100206F6E006D6163207365742064722025DD
:107DD10064004C3A20202020202020543A20006DBD
:107DE1006163207365742064722030006D616320CB
:107DF1007365742064722031006D61632073657452
:107E01002064722032006D61632073657420647296
:107E11002033006D61632073657420647220340027
:107E21006D6163207365742064722035006D616338
:107E3100207365742064722036006D616320736560
:107E4100742064722037006D6163206A6F696E204F
:107E510061627000427574746F6E20546573743A78
:107E610000427574746F6E31205041535300427556
:107E710074746F6E322050415353005072657373A6
:107E810020427574746F6E005553422048616E64D0
:107E91006C6572004F6E20506F727420233A20007F
:107EA100736574206465766164647200737973200C
:107EB1006765742076657200736574206E776B73E5
:107EC1006B65790073657420617070736B657900FF
:107ED1004A756E2032332032303136004275747467
:107EE1006F6E204641494C004C6F526120536967C7
:107EF1004D617000436F6D6D20546573743A00726B
:107F01006164696F20747820004D4F5445204D6F96
:107F11006465006D6F7465496E695478004C454421
:107F210020546573743A00204465763A204131202B
:107F310000434443204D6F64650073657420737979
:107F41006E63006163636570746564006D616320D5
:107F510073617665005374617274696E67004D6F69
:107F610054652076202E0031343A34363A323600C8
:107F7100524620546573743A00414443205465735A
:107F81007400436F6D6D616E640073657420727867
:107F91003200736574206164720054656D70202035
:107FA1003D004C69676874203D00286E756C6C2932
:107FB100004155544F2020004D6F64653A20005414
:107FC100656D70203A00506B74732D3A00506B74DC
:107FD100732F3A004C696768743A00506B74737C74
:107FE1003A004D414E55414C007365742063680061
:0F7FF100696E692074780032393033007A0000ED
:020000040020DA
:08000000FFFFFFFFFFFFFFFF00
:020000040030CA
:0E00000021081F3EFFD181FF0FC00FE00F400F
:00000001FF
