:0610000053EF08F012009E
:10100800FACF53F0FBCF54F0E1CF55F0E2CF56F0D2
:10101800D9CF57F0DACF58F0F3CF59F0F4CF5AF0D0
:10102800F6CF5BF0F7CF5CF0F8CF5DF0F5CF5EF070
:101038009DB09EA005D07CEC1AF0DDEC19F016D01E
:101048009DBA9EAA05D0EAEC19F042EC1BF00ED02E
:101058009DB89EA803D057EC1BF008D0A0BCA1AC4B
:1010680003D0DBEC19F002D091EC2BF05EC0F5FF59
:101078005DC0F8FF5CC0F7FF5BC0F6FF5AC0F4FF25
:1010880059C0F3FF58C0DAFF57C0D9FF56C0E2FF76
:1010980055C0E1FF54C0FBFF53C0FAFF110015EF24
:0210A8001FF037
:1033B600A19C12008C811200CD801200BA841200EA
:0833C600265012008C6B12006E
:1033CF004976020101010E266E010CC66FC6C0FBC5
:1033DF00F01200C66FC6C09AF01200C66FC6C08B3F
:1033EF00F01200C66FC6C0FAF01200BCCFC6F0C60E
:1033FF00511200C76F8A8AC75127EF1AF00001C711
:10340F006F8A9AC75127EF1AF0C66FC6B3912BC6B2
:10341F00B7972B12000D0E79EC1CF00A0E79EF1CEA
:10342F00F0C76A210EC66EC86AC688C79C12007A9A
:10343F000EBA6E9B0EBB6EBC6A9E92E1EF19F0C680
:10344F006FC69EC6C0C9FFC7A0FED7C9501200A045
:10345F009C9C0E986E9A8A9A929A96A19CA09C9C7C
:10346F000CC86FB00EC8138A98C85106EC1AF08AB0
:10347F008812000001C86F8A98C851AF0806EC1A6D
:10348F00F08A881200C86FA60EC8278A98C85106FE
:10349F00EC1AF08A881200C751C611D8B41200C7AF
:1034AF00C0F9F0C6C0F8F01200C66FC6C0A9FFA6DB
:1034BF009CA69EA68000F000F0A8501200A00E7DE2
:1034CF006E010EC26E080EC16E8E0EC06EC36AC440
:1034DF006A1200800E9B6E700ED36E100ED26ED2DB
:1034EF00AEFED7900EB56E900C9E90000181C0304D
:1034FF00F030C031F0326A3150CF6E80C0CEFF1243
:10350F0000000EAFEC1AF0010EAFEC1AF0020EAF86
:10351F00EC1AF0030EAFEF1AF0C86F8A98C8390F84
:10352F000B100906EC1AF0C8510F0B06EC1AF08AB3
:10353F00881200A3941E6609D0C7C074F0C6C0736A
:10354F00F0C8C08EF0010E8D6F1E6EA3841200D3D3
:10355F006FD46BD4C0C9F0D3C0CAF0200EA6EC2034
:10356F00F0D42B0F0ED465F5D70F0C7A0EC86F72EF
:10357F000EC76F96EC1BF09DB8FED70001C76B14FA
:10358F000EC66F81EF1BF0648465986082010E0098
:10359F0001866F406A750E3F6E426A416A446A4304
:1035AF006AD4EF1DF071EC1AF064EC1DF018EC1AF0
:1035BF00F0D6EC1BF01FEC1AF003EC1CF066EC1AC3
:1035CF00F02FEF1AF0CD6F060ECD25C66FC76BFF2C
:1035DF000EC723C96B050EC86FAAEC1DF0C651CEDE
:1035EF006FCE51120093949398939A46EC29F00062
:1035FF000E4AEC1AF0760EC76F490EC66F53EC1ACF
:10360F00F088EF1AF0866B406A740E3F6E000E4220
:10361F006A416A446A436ACFEC1DF0609264940178
:10362F00D0659465A41200FCD7C76F080EC86FC988
:10363F006BD890C735C935C96FD890C737C651C930
:10364F005D02E3C651C95FC82FF3D7C9511200C637
:10365F006F0F0EC6170A0EC65D03E2C651300F126A
:10366F0000090EC665000C100EC65D03E2C6513789
:10367F000F1200000CABA203D0AB98AB8812000066
:10368F000E2124D96EDA6A010EDA22AECFDFFF21C6
:10369F002A3F0E216401D0216A0001902B120040B5
:1036AF000E235C10E20201000E2524D96EDA6A02A5
:1036BF000EDA22DF50AD6E252A3F0E256401D0258C
:1036CF006A232A12009D98120089671200606A64AB
:1036DF006A160E626E9F0E666E7B0E646ED08EA59E
:1036EF0084A384F28E01D0608660A6FDD7010E8977
:1036FF006F010CC96BCA6B0BD0100EC86F940EE81C
:10370F002EFED7C82FFCD700D00001C94BCA2BC63D
:10371F0051C95DC751CA59D8B01200EED70BD0C7E7
:10372F00C0F6FFC8C0F7FF0800F55079EC1CF00099
:10373F0001C74BC82BC7C0F6FFC8C0F7FF0800F57D
:10374F0050EEE112EF1AF00001C66F2F0EC665069C
:10375F00D03A0EC65D03E2C651D00F1200400EC61E
:10376F00652D0C470EC65D03E2C651C90F12002D21
:10377F000C31C037F030C036F008D036C0D9FF3723
:10378F00C0DAFF32C0DFFF364A372A3406D8A035F9
:10379F00063428D8B43528D8B41200EFD7CD6ACC68
:1037AF006AD00ECF6E200ECE6ECE50CFCFC6F000A9
:1037BF0001C76BC6C0C7F0C66BC611806FC75181FA
:1037CF006F9E909D80DFEF19F09D9A9D98480EB8DF
:1037DF006E900EAB6E260EAC6E710EAF6E020EB00B
:1037EF006E246A256A400E236E216A226A000190B8
:1037FF006B9D8AAB8812009D9A9D98480EB86E906B
:10380F000EAB6E260EAC6E710EAF6E020EB06E2446
:10381F006A256A400E236E216A226A0001906B9D11
:10382F008AAB881200C7C0CDF0C6C0CCF008D0CC90
:10383F00C0D9FFCDC0DAFFC8C0DFFFCC4BCD2BCA3C
:10384F0007D8A0CB070001CA29D8B4CB29D8B41206
:10385F0000EED701D0898E00019051FCE09D9A00B7
:10386F000E2224D96EDA6A010EDA22DF50C66F22D9
:10387F002A3F0E226401D0226A90079D8AC65112F8
:10388F00000001C66B000E0001C625D96EDA6A0171
:10389F000EDA22DF6AC62B3F0EC665F4D7216A22E5
:1038AF006A906B9D98246A256A400E236E400CC760
:1038BF006FC96BC65114E0010EC86F03D0D890C604
:1038CF0037C82BC6AFFBD7D890C937C651C75D03D2
:1038DF00E3C651C75FC981D890C633C82FF4D7C983
:1038EF005112000001C66F2350FEE09DB803D0C6F1
:1038FF00C0ADFF10D09D98000E2424D96EDA6A0255
:10390F000EDA220001C6C0DFFF242A3F0E24640115
:10391F00D0246A23069D881200C76F000EF2BE01E5
:10392F000EC86FC7C0A9FFC6C0A8FFA69EA69CA6BB
:10393F0084F29E550EA76EAA0EA76EA682A6B2FEA1
:10394F00D7A694C8B102D0F29E01D0F28E1200CA4F
:10395F006FCAC0C8F0C847C847C250C819830BC840
:10396F0019C26EC280140EE82EFED7C282C2B2FEFA
:10397F00D7C4500001C96FC86BC350C825C66F00AC
:10398F000EC921C76F120054EC21F00001C76B1450
:10399F000EC66F81EC1BF00BEC25F088EC1AF0C70C
:1039AF006B140EC66F81EC1BF0E8EC1EF092EC1E50
:1039BF00F01BEC26F0C76B140EC66F81EF1BF041A6
:1039CF00EC1EF0BE6B080EC06FBF6BBA6B4B0EBB1D
:1039DF006F000EBC6BBD6BECEC1BF03E6A0101403F
:1039EF000E3E24D96EDA6A010EDA22DF6A3E2A3FD2
:1039FF000E3E64F4D7156A146A12006AA01BD080B9
:103A0F000E0FC0D9FF10C0DAFFDF6213D0840E098A
:103A1F00C0D9FF0AC0DAFFDF620CD00FC0D9FF1088
:103A2F00C0DAFF0C0EDF6E0FC0D9FF10C0DAFF0037
:103A3F000EDB8E6A90659A1200C951C81117E0010A
:103A4F000ECA6F04D0D890C837C937CA2BC9AFFA7E
:103A5F00D7C851C65DC951C75904E3C851C65FC91C
:103A6F0051C75BD890C933C833CA2FF2D7C6C0C667
:103A7F00F0C7C0C7F012003D6E38A404D0306A3DC5
:103A8F005055EC22F038A205D0010E306E3D505546
:103A9F00EC22F06A0E396E0F0E3A6E3D5039260049
:103AAF000E3A2239C03BF03AC03CF03BC0D9FF3C44
:103ABF00C0DAFF38C0DFFF000C92809282928492AE
:103ACF00869298929A929C929E93909392939493AB
:103ADF0096939A948094829484949C948E898889E6
:103AEF009A899C899E8A948A908A9A8B948B9C0F30
:103AFF00015B915B835B855B875D9F5D9D12000022
:103B0F0001C66BC651C10FD96EDA6ADF6AC62B02C6
:103B1F000EC665F7D7C76BC00E0001C725D96EDA81
:103B2F006A010EDA22DF6AC72B210EC765F4D7C8E8
:103B3F006BC851B20FD96EDA6ADF6AC82B090EC88B
:103B4F0065F7D7090CCB6BCC6BC951C8111BE001C2
:103B5F000ECA6F04D0D890C837C937CA2BC9AFFA6D
:103B6F00D7D890CB37CC37C851C65DC951C7590587
:103B7F00E3C851C65FC951C75BCB81D890C933C861
:103B8F0033CA2FEED7CBC0C6F0CCC0C7F01200049B
:103B9F00D0E7EF1CF076EF23F03FC045F040C04672
:103BAF00F0465004E07F0AD8A4120015D04550010A
:103BBF000AEFE0030AD8B41200010AECE0060AD8B3
:103BCF00B41200770AD8B41200010AD8B412000751
:103BDF000AD8A4010A1200451C1200C76B9051218C
:103BEF00E031EC1CF0C86FC8510D0A0CE1800E00DB
:103BFF00019225D96EDA6A010EDA22DF6A010EC749
:103C0F006F926B0FD0C8510DE0C8510A0A0AE080BD
:103C1F000E00019225D96EDA6A010EDA22C8C0DFD2
:103C2F00FF922BC751120082A002D082B214D0662D
:103C3F002B000E6723682369236651370A671168C3
:103C4F0011691107E19B6B82B002D0010E0FD002F8
:103C5F000E0DD0C66B0CD09B51140A06E1666B6734
:103C6F006B686B696B9B6B01D09B2B030EC66FC68A
:103C7F005112000001BA6B4B0EBB6FBC6BBD6BBE1C
:103C8F006BBF6B080EC06F1D6A1A0E386E010E43A4
:103C9F00EC1DF01E0E386E020E43EC1DF0306A055F
:103CAF0001050E326E400E316E336E020E63EC2440
:103CBF00F030C078F031C079F00001766B776B1E71
:103CCF006A12001F50020A02E119EF2DF01F6A134A
:103CDF00661FD020EE01F01150D9261250DA2208BB
:103CEF000EDF6E20EE02F01150D9261250DA22307C
:103CFF000EDE6E040EDD6E11C0D9FF12C0DAFF0C9E
:103D0F000EDF6E11C0D9FF12C0DAFF000EDB8E007E
:103D1F000C136A12007F0ED46F230ED36FD56B0175
:103D2F000ED66F08EC20F0898C898E010E0001C72A
:103D3F006FF40EC66F81EC1BF0899C899E010EC734
:103D4F006FF40EC66F81EC1BF0898C898E010EC744
:103D5F006FF40EC66F81EC1BF0899C899E010EC714
:103D6F006FF40EC66F81EF1BF0DA6F0A0EC66FDAB3
:103D7F00511CEC1BF0300FDD6F0A0EC66FDA515F6E
:103D8F00EC1CF0DA6F0A0EC66FDA511CEC1BF03028
:103D9F000FDC6F0A0EC66FDA515FEC1CF0DA6F0A98
:103DAF000EC66FDA511CEC1BF0300FDB6FDE6BD4DD
:103DBF006BDB0ED36FD8C0D5F0D9C0D6F008EF208B
:103DCF00F07E0ED46FE60ED36F000ED56BD66B0858
:103DDF00EC20F0010E3CEC20F0010EC76FF40EC684
:103DEF006F81EC1BF0000E3CEC20F0010EC76FF45E
:103DFF000EC66F81EC1BF0010E3CEC20F0010EC7DC
:103E0F006FF40EC66F81EC1BF0000E3CEC20F0013E
:103E1F000EC76FF40EC66F81EF1BF002EE00F0407D
:103E2F000EEE6AE806FDE101EE00F0D80EEE6AE84C
:103E3F0006FDE100EE60F0660EEE6AE806FDE100B9
:103E4F00EE01F02F0EEE6AE806FDE1CF0EF66E33AF
:103E5F000EF76E000EF86E00EEF8F010EE05F0099A
:103E6F0000F5CFEEFFE550E150FAE1000EF86E00DD
:103E7F00019BEF27F0CB6FCA519E0FD96EDA6A0AFA
:103E8F000EC66FCB511CEC1BF0300FDF6E0A0EC647
:103E9F006FCB515FEC1CF0CB6FCA519D0FD96EDA0F
:103EAF006A0A0EC66FCB511CEC1BF0300FDF6E0A87
:103EBF000EC66FCB515FEC1CF0CB6FCA519C0FD964
:103ECF006EDA6A0A0EC66FCB511CEC1BF0300FDF97
:103EDF006E1200276A196A0001876B886B136A1FBD
:103EEF006A09C0D9FF0AC0DAFF7F0EDF16040E0978
:103EFF001A09C0D9FF0AC0DAFF7F0EDF16040E09B8
:103F0F001A11C0D9FF12C0DAFF7F0EDF162B6A2CF1
:103F1F006A2D6A046A056A066A13EC24F0406A0384
:103F2F000E3F6E000E426A416A446A436ACFEC1D2F
:103F3F00F004EF28F0A8C0BAF0A9C0BBF0AAC0BC2B
:103F4F00F0ABC0BDF0306A1B0E316EB70E326E0093
:103F5F000E336ABAC034F0BBC035F0BCC036F0BD0A
:103F6F00C037F0DEEC20F030C03DF031C03EF03213
:103F7F00C03FF033C040F0FF0E3D24416EFF0E3EB8
:103F8F0020426EFF0E3F20436EFF0E4020446E41D5
:103F9F00C0AFFF42C0B0FFECEF1BF0CD6BCB6BCCD3
:103FAF006BAC9A8B9CC76B0A0EC66F81EC1BF0AC87
:103FBF008AC76B050EC66F81EC1BF0550EAD6EAC4C
:103FCF00A2FED77F0EC86FFD0EC76F96EC1BF000D9
:103FDF0001C76B280EC66F81EC1BF00FD0F5EC1DDF
:103FEF00F0000903E0010ECD6F08D0CB4BCC2B892D
:103FFF000E0001CB5D130ECC59F5E2CD67EFD71252
:10400F0000D5C0D7F00F0ED76501D00F0CD3C0F677
:10401F00FFD4C0F7FFF86A070EF76403D00800F566
:10402F005005D0F6CFE1FFF7CFE2FFE7500009D8F8
:10403F00B41200D7C0C9F0D6C0CAF00001D3C0F681
:10404F00FFD4C0F7FFF86A070EF76403D00800F536
:10405F005005D0F6CFE1FFF7CFE2FFE750A6EC20F7
:10406F00F0D34BD42BD72BCED70001CB6FC76B32EE
:10407F000EC66F81EC1BF0CB5113E07A0EC86F3E6A
:10408F000EC76F96EC1BF00001C76B320EC66F8127
:10409F00EC1BF07A0EC86F580EC76F96EC1BF01220
:1040AF00D07A0EC86F0A0EC76F96EC1BF00001C7CF
:1040BF006B320EC66F81EC1BF07A0EC86F240EC7E1
:1040CF006F96EC1BF00001C76B320EC66F81EF1BB2
:1040DF00F02AD0C6C0D9FFC7C0DAFFDF500EE0C844
:1040EF00C0F6FFC9C0F7FF0800F5CFCCF0C6C0D9A6
:1040FF00FFC7C0DAFFDF50CC1912E0C6C0D9FFC727
:10410F00C0DAFFDF50CC6FC8C0F6FFC9C0F7FF0899
:10411F0000F550CC5DC66FC76BD8A0C7071200C69D
:10412F004BC72BC84BC92BCA07D8A0CB070001CA56
:10413F0029D8B4CB29CEE1C66BC76B12000001D1D1
:10414F006FCA5138EC1AF0C951080DF35094EC1A9C
:10415F00F08A98D26BCB6BCC69D151CD6FCE6BD827
:10416F0090CD37CE37D890CD37CE37D890CD37CEFC
:10417F0037F8C0CFF0F9C0D0F0CD51CF27CE51D006
:10418F0023D251CF27000ED023CB51CF27CC51D0E4
:10419F0023CFC0F6FFD0C0F7FF0800F55001EC1A8F
:1041AF00F0D22B070ED265D6D78A88070C386A391A
:1041BF006A3A6A3B6A375034103510361029E001DD
:1041CF000E3C6E06D0D89034363536363637363C00
:1041DF002A37AEF8D7D890383639363A363B363498
:1041EF0050305C35503158365032583750335809AB
:1041FF00E33450305E3550315A3650325A375033DF
:10420F005A3880D89037323632353234323C2EE23B
:10421F00D738C030F039C031F03AC032F03BC0333C
:10422F00F012002ED0FFD788EC1AF07F0ED46F2D2E
:10423F000ED36F010ED56F000ED66B08EC20F07FFA
:10424F000E0001D46F870ED36F020ED56F010ED6FD
:10425F006F08EC20F07E0E0001D46F370ED36FD5B0
:10426F006B020ED66F08EC20F0010E000104D02077
:10427F000E895D0EE3020E9A6F0BD0BFEC25F0088E
:10428F00D000019A51D0E0010AF2E0030AF6E0CA29
:10429F00D780B0F6D700F0120088EC1AF07F0ED45A
:1042AF006F630ED36F000ED56BD66B08EC20F07CCE
:1042BF000E0001D46F860ED36FD56B060ED66F0826
:1042CF00EC20F07C0E0001D46F950ED36FD56B08E8
:1042DF000ED66F08EC20F07C0E0001D46F3C0ED38D
:1042EF006FD56B010ED66F08EC20F07E0E0001D457
:1042FF006F970ED36FD56B020ED66F08EC20F07F41
:10430F000E0001D46F6C0ED36FD56B030ED66F08F2
:10431F00EF20F082A2FED7BDEC1AF0010E41EC1A8D
:10432F00F0C290F29EF29EF29C0F015B81A08C87EF
:10433F008087828784F2868250825082500001FCEF
:10434F0051D8A4D180F290A19C00F0030000F0D1CD
:10435F009048EC1CF0F296879087928794A09CF27D
:10436F008E64EC1DF003EC1CF0F2A004D0F290016F
:10437F000ED56F03D00A0E976FD56B0F015B9100AF
:10438F000E41EC1AF0FAEC1AF0D5EC1FF0D55112E1
:10439F00000401386B396B2CD02B8E180430E138A8
:1043AF00832ED02B8E2CD02B8E34BF07D034510FB1
:1043BF000B020DF3500001600F05D034510F0B02AB
:1043CF000DF350090FD96EDA6ADECF30F0DDCF3141
:1043DF00F030C0D9FF31C0DAFFDFAE11D030C0D915
:1043EF00FF31C0DAFFDFA40BD0010E0401386F07D5
:1043FF00D030511F0BD1E0010AD4E0030AD4E02BD7
:10440F00AE12000401040E296E380E286E2B8002A6
:10441F000E2C6E020CC6C0D9FFC7C0DAFFDF50CC1E
:10442F006FC8C0F6FFC9C0F7FF0800F5CFCEF0CCBC
:10443F006701D02CD0020EC627000EC723CC51CE59
:10444F001925E12FEEFFF0C651D926C751DA22DF29
:10445F0050CD6FC829CA6F000EC921CB6FCAC0F6E5
:10446F00FFCBC0F7FF0800F5CFCEF0CD6707D0CE5A
:10447F0051CD5DC66FC76BD8A0C7071200020EC81B
:10448F0027000EC923CE51CD19F2E1C4D7CE51CC9E
:10449F005DC66FC76BD8A0C7071200356E04010445
:1044AF000E376E366A3050316E326AD890313632EE
:1044BF00363550336E346AD89033363436D890331D
:1044CF003634363150332632503422D89033363486
:1044DF0036D890333634363350362634503722366A
:1044EF00C0D9FF37C0DAFFDF9E306606D0355002E5
:1044FF000DF3500001600F04D03550020DF3500939
:10450F000FD96EDA6A36C0DEFF37C0DDFF36C0D98D
:10451F00FF37C0DAFFDF9C20EE04F03650D9263784
:10452F0050DA22DF8C1200876B886B1F50020A1F34
:10453F00E120EE01F01150D9261250DA22080EDFD9
:10454F006E20EE02F01150D9261250DA22380EDE0C
:10455F006E040EDD6E11C0D9FF12C0DAFF480EDFF8
:10456F006E11C0D9FF12C0DAFF000EDB8E000C2CCB
:10457F00500401365D2D50375904E236C42CF03704
:10458F00C42DF0D4EC26F020EE02F00950D9260A03
:10459F0050DA22380EDE6E040EDD6E09C0D9FF0A26
:1045AF00C0DAFF480EDF6E09C0D9FF0AC0DAFF007C
:1045BF000EDB8E000C1D6A7951781109E078C0D995
:1045CF00FF79C0DAFF010EDFAE000ED16F01D0D13F
:1045DF006BD26BD251D11136E120EE01F07851D967
:1045EF00267951DA22DF50D06FCF51D05D08E2200B
:1045FF00EE01F07851D9267951DA22DF50CF6F1DB5
:10460F006A10D0400E1D24D96EDA6A050EDA221D0B
:10461F00500001CD25E16E000ECE21E26EDFCFE717
:10462F00FF1D2ACF511D5CEDE3C66B050E0001C8BF
:10463F006F400EC76FC96F020EC4EC23F0C6C0786F
:10464F00F0C7C079F01D5012000BD0C7C0F6FFC8DD
:10465F00C0F7FF0800F55079EC1CF00001C74BC8FC
:10466F002BC7C0F6FFC8C0F7FF0800F550EEE1CC2E
:10467F006BC951CC25D96EDA6ADF5079EC1CF0008A
:10468F0001CC2B020ECC65F4D7C951D96EDA6A036F
:10469F000ED926DF5079EC1CF0040E0001CD6F19F6
:1046AF00D0C951CD25D96EDA6ADF50CB6FCB390F18
:1046BF000B2FEC1BF079EC1CF00001C951CD25D963
:1046CF006EDA6ADF500F0B2FEC1BF079EC1CF00049
:1046DF0001CD2BCA51CD5DE4E312EF1AF004013086
:1046EF00511F0B306E3004D8A412003039E832035A
:1046FF000B306E3004D8A41200345132E03405D898
:10470F00A412002ED00101010E296ED00E286E00CA
:10471F000E2D6E080E2C6E2B802B8E080C010101B6
:10472F000E296ED00E286E2B8E120036C405F03770
:10473F00C406F00001A80E016E3F0E086E440E076E
:10474F006E048E1200296A0001BA0E286E000E2D1B
:10475F006E070E2C6EC10E2B6EC10C32512B8E12AA
:10476F00003151D0E0010ADAE0210ADFE0010AEA64
:10477F00E0030AD8A41200F1D7CA6FC65105E0CAE8
:10478F0051020DF350090F04D0CA51020DF35060BE
:10479F000FD96EDA6ADECFCBF0DDCFCCF0CC51CBB8
:1047AF001103E1C66BC76B120020EE02F0CB51D99B
:1047BF0026CC51DA22C7C0DEFFC8C0DDFF20EE01D4
:1047CF00F0CB51D926CC51DA22C9C0DFFFCBC0D9EB
:1047DF00FFCCC0DAFF400EDF16CBC0D9FFCCC0DA5A
:1047EF00FF000EDB86CBC0D9FFCCC0DAFFDB8EC655
:1047FF005105E0CA51020DF350090F04D0CA5102FE
:10480F000DF350600FD96EDA6A040EDF1ACCC0C7F1
:10481F00F0CBC0C6F0040C04013039E832030BD8DA
:10482F00A4120033D02B8E080E0001896F080C12D2
:10483F00EF2CF0B4EF24F0296A2E0E286E2B800196
:10484F000E2C6E2B8E010CD0EF21F07BEF2EF0345F
:10485F00510001C40F4E6E296A4EC028F02B800103
:10486F000E2C6E2B8E010C2B8E3451C40FD96EDA99
:10487F006A040132C4DFFF1200406A020E3F6E422B
:10488F006A416A446A436AD4EF1DF03151DCE0019A
:10489F000ADCE0020ADAE0060AC5E0030AC8E00112
:1048AF000AEBE00F0AC8E0010AC4E0030AD0E001F6
:1048BF000ADAE0070A1200346E305005E034500275
:1048CF000DF350090F05D03450020DF35000016065
:1048DF000FD96EDA6ADECF35F0DDCF36F0365035D0
:1048EF001003E1306A316A120020EE02F03550D920
:1048FF00263650DA2231C0DEFF32C0DDFF20EE0156
:10490F00F03550D9263650DA2233C0DFFF35C0D903
:10491F00FF36C0DAFF400EDF1635C0D9FF36C0DADA
:10492F00FF000EDB8635C0D9FF36C0DAFFDB8E30D5
:10493F005005E03450020DF350090F05D0345002EA
:10494F000DF3500001600FD96EDA6A040EDF1A36CC
:10495F00C031F035C030F0040C2B8E0F0E316E6B62
:10496F000E306E336A326A356A020E346EC0EC1B3B
:10497F00F00401040E316E306A336A326A356A30E0
:10498F000E346EC0EC1BF0608C476A475000016A12
:10499F000FD96EDA6ADF6A47506D0FD96EDA6ADFA8
:1049AF006A472A020E4764F1D7316AC40E306E335C
:1049BF006A326A356A020E346EC0EC1BF0609C04DA
:1049CF0001040E0A6E080E096E040E106E000E0F13
:1049DF006E10C012F00FC011F032C42EF02E66040C
:1049EF00D0100E0001896F100C406A010E3F6E420D
:1049FF006A2E0E416E446A010E436ECFEC1DF020FD
:104A0F000E0001896F200C010ED96FF40ED86FDAEA
:104A1F006B88EC1AF07E0ED46F030ED36F000ED599
:104A2F006BD66B08EC20F082A002D082B20BD07E46
:104A3F000E0001D46FA30ED36FD56B030ED66F0884
:104A4F00EC20F030D07E0E0001D46F2A0ED36FD53C
:104A5F006B010ED66F08EC20F025D082B00CD07E03
:104A6F000ED46F100ED36FD56B020ED66F08EC20DD
:104A7F00F0080E0001DA2782B20CD07E0ED46F1D23
:104A8F000ED36FD56B030ED66F08EC20F0800E009F
:104A9F0001DA27DA51880AD8B41200C76B0A0EC69A
:104AAF006F81EC1BF00001D807D8A0D907D829D8FF
:104ABF00B4D929D8B41200D1D71A661200010E1A30
:104ACF006E1B66010C1B6E1F50020A15E120EE01D2
:104ADF00F00950D9260A50DA22000EDF6E09C0D92C
:104AEF00FF0AC0DAFF480EDF6E09C0D9FF0AC0DA2D
:104AFF00FF000EDB8E000C1F04D8A41200136A20D7
:104B0F00EE01F00F50D9261050DA22080EDF6E207A
:104B1F00EE02F00F50D9261050DA22300EDE6E045E
:104B2F000EDD6E0FC0D9FF10C0DAFFDF6E0FC0D9D8
:104B3F00FF10C0DAFF000EDB8E010E136E20EE01A8
:104B4F00F01150D9261250DA22080EDF6E20EE0235
:104B5F00F01150D9261250DA22300EDE6E040EDD1F
:104B6F006E11C0D9FF12C0DAFF800EDF6E800C1FEE
:104B7F000E89651F0C60B21F0C16660FD0010E0058
:104B8F0001CE6F400ECD6F400ECF6FE2EC22F014CE
:104B9F006E145003E0010E166E176A1650D8A4ACAF
:104BAF00A20FD00101400E1724D96EDA6A010EDA76
:104BBF0022DF5079EC1CF0172A1450176201D0161F
:104BCF006A000190511DE0E3EC19F0000919E03F74
:104BDF000E155C16E200F031EC1CF0D36F400E1591
:104BEF0024D96EDA6A010EDA22D3C0DFFF152A400C
:104BFF000E1524D96EDA6A010EDA22000EDF6A264C
:104C0F006A1E6611EF2BF015500CE0010E0001C764
:104C1F006F400EC66F15C0C8F0A1EC1AF002EC0879
:104C2F00F0156A11EF2BF088EC1AF07F0ED46F7E1F
:104C3F000ED36F000ED56BD66B08EC20F07F0E00F5
:104C4F0001D46FA70ED36FD56B010ED66F08EC2072
:104C5F00F00E0E0001C96F010ECA6F430EA6EC20B5
:104C6F00F07F0ED46FAF0ED36FD56B020ED66F08D9
:104C7F00EC20F00001E76BC76B320EC66F81EC1BA7
:104C8F00F0020EAFEC1CF0C6C0E4F0C7C0E5F0E4D4
:104C9F0051EAEC1AF0E66FC76B320EC66F81EC1B50
:104CAF00F0030EAFEC1CF0C6C0E2F0C7C0E3F00A91
:104CBF000ED86F010ED96FE651BCEC1EF0E2C0D8D2
:104CCF00F0E3C0D9F00A0E0001DA6F020EDB6F9726
:104CDF00EC2AF00001E72B310EE765CDD7310C2D13
:104CEF000E1C6E2FC04FF0FD0E4F164CE1D8902FBB
:104CFF00303F0B040D0401000EF3240F6E040EF46D
:104D0F0020106E10C012F00FC011F0040E111A0F08
:104D1F00C0D9FF10C0DAFFDF30E8320F0B0D0A30B9
:104D2F00E1516A20EE02F00F50D9261050DA22DE40
:104D3F00CF4FF0DDCF50F04FC0D9FF50C0DAFF306A
:104D4F000E5124E16EE26A040EE222DFCFE7FF206C
:104D5F00EE02F00F50D9261050DA22DE2A000EDDB7
:104D6F0022512A070E5164DDD720EE02F00F50D9E1
:104D7F00261050DA22300EDE6E040EDD6E71EF1F3C
:104D8F00F069EF1EF02FC04FF0FD0E4F164F50047D
:104D9F000AD8B434EC27F01200080E306E2C5C00E9
:104DAF000E2D580AE22CC030F0276602D0010E03F8
:104DBF00D0270402E1020E276E30502C5E000E2D1C
:104DCF005A20EE01F00950D9260A50DA2230C0DFFE
:104DDF00FF040E00017D6F380E7C6F2BA01CD039A5
:104DEF00D028C0F6FF29C0F7FFF86A7CC0D9FF7D35
:104DFF00C0DAFF070EF76403D00800F55005D0F6B0
:104E0F00CFE1FFF7CFE2FFE750DF6E284A292A00F4
:104E1F00017C4B7D2B30063066E3D7120028C0F69D
:104E2F00FF29C0F7FFF86A7CC0D9FF7DC0DAFF0702
:104E3F000EF76403D00800F55005D0F6CFE1FFF769
:104E4F00CFE2FFE750DF6E284A292A00017C4B7D15
:104E5F002B30063066E3D7120009C0D9FF0AC0DA3B
:104E6F00FF000EDFBC010E456E040E091A895108B2
:104E7F000A0AE1040132517F0B636E6350100ED8A2
:104E8F00B4040E0001896F1F0438E120EE02F0090F
:104E9F0050D9260A50DA22380EDE6E040EDD6ED49B
:104EAF00EC26F02750020A0DE109C0D9FF0AC0DA3B
:104EBF00FF040EDF6E09C0D9FF0AC0DAFF000EDB58
:104ECF008E000C45660DD009C0D9FF0AC0DAFF4825
:104EDF000EDF6E09C0D9FF0AC0DAFF000EDB8E00AD
:104EEF000C09C0D9FF0AC0DAFF080EDF6E09C0D95E
:104EFF00FF0AC0DAFF000EDB8E000C04AE12D008E2
:104F0F005007100EE020EE07F001D80AD00500FA86
:104F1F006EDE50FD6EDE50FE6EF850FF6EFA5012D0
:104F2F0000049E1F6A1200DAEC1AF0FAEC1AF0DA9B
:104F3F00EC28F06CEC1BF0F28CF28E010EC76F2C8C
:104F4F000EC66F81EC1BF0D5EC1FF0010EC76F2C56
:104F5F000EC66F81EC1BF0000E5CEC1AF000019492
:104F6F006F9451550A07E0CBEC1CF0550EC66F003D
:104F7F000E94EC1CF00001936B000EF1EC19F0880D
:104F8F00EC1AF07D0ED46F2D0ED36F000ED56BD6AD
:104F9F006B08EC20F07D0E0001D46F1E0ED36FD581
:104FAF006B010ED66F08EC20F07D0E0001D46F0F51
:104FBF000ED36FD56B030ED66F08EC20F0020E00E8
:104FCF0001C76FBC0EC66F81EC1BF011D0FFD71954
:104FDF00EC21F0010E0001936FEDEC19F008D0A653
:104FEF00EC2DF0040A04E1936B000EF1EC19F09331
:104FFF0051EEE0010AF4E0EAD760982BBE37D004F7
:10500F00AE0AD0020E1F6E0001886702D09BEC2201
:10501F00F01B6A1A6A120020EE01F01150D9261205
:10502F0050DA22080EDF6E20EE02F01150D9261250
:10503F0050DA22300EDE6E040EDD6E11C0D9FF1273
:10504F00C0DAFF0C0EDF6E11C0D9FF12C0DAFF00FD
:10505F000EDB8E09C0D9FF0AC0DAFF040EDF6E091E
:10506F00C0D9FF0AC0DAFF000EDB8E000C0401303E
:10507F00AF0DD0010E1F6E0001876702D09BEC228F
:10508F00F01B6A1A6A1966120064EF25F0020E1FF0
:10509F006E20EE01F01150D9261250DA22080EDFE1
:1050AF006E20EE02F01150D9261250DA22300EDEA9
:1050BF006E040EDD6E11C0D9FF12C0DAFFDF6E1164
:1050CF00C0D9FF12C0DAFF000EDB8EDAD7A39467C8
:1050DF006A656A6A6A0F0E316E6B0E306E336A3212
:1050EF006A356A020E346EC0EC1BF0160E626E9FAC
:1050FF000E666E7B0E646E386A3850040D000EF328
:10510F0024D96E040EF420DA6EDE6ADE6ADE6ADD02
:10511F006A382A0B0E3864F0D7608C636A60986027
:10512F009C05D065962B6A046A056A066A65B6F90E
:10513F00D7010E1A6E1B6E0001876B886B866B385A
:10514F006A3850020DF350090FD96EDA6ADE6ADD44
:10515F006A3850020DF350600FD96EDA6ADE6ADDDD
:10516F006A38506A0FD96EDA6ADF6A38506D0FD914
:10517F006EDA6ADF6A382A020E3864E2D704010455
:10518F000E0A6E080E096E160E6A6E040E036F304D
:10519F000E026F080E016F040E006F008F2E6A0053
:1051AF0001896B1200A394676A656A6A6A0F0EC75A
:1051BF006F6B0EC66FC96BC86BCB6B020ECA6F1AC3
:1051CF00EC1CF0160E626E9F0E666E7B0E646ECE3A
:1051DF006BCE51040D000EF324D96E040EF420DAB9
:1051EF006EDE6ADE6ADE6ADD6A0001CE2B0B0ECE42
:1051FF0065EFD7608C636A6098609C05D065962BCD
:10520F006A046A056A066A65B6F9D7010E1A6E1B3B
:10521F006E876B886B866BCE6BCE51020DF3500988
:10522F000FD96EDA6ADE6ADD6ACE51020DF3506075
:10523F000FD96EDA6ADE6ADD6ACE516A0FD96EDA7D
:10524F006ADF6ACE516D0FD96EDA6ADF6ACE2B0232
:10525F000ECE65E2D70401040E0A6E080E096E1613
:10526F000E6A6E040E036F300E026F080E016F048C
:10527F000E006F008F2E6A0001896B12008A888AD8
:10528F008A8A84500EE82EFED78A94040E0001C835
:10529F006F1C0EE82EFED7C82FFCD700D08A848A49
:1052AF0098040E0001C86F1C0EE82EFED7C82FFC05
:1052BF00D700D08A9A040E0001C86F1C0EE82EFE8C
:1052CF00D7C82FFCD700D0AE0E06EC1AF0D50E06BD
:1052DF00EC1AF0800E06EC1AF0A80E06EC1AF01F6E
:1052EF000E06EC1AF0D30E06EC1AF0000E06EC1AAE
:1052FF00F08D0E06EC1AF0140E06EC1AF0400E06A6
:10530F00EC1AF0A60E06EC1AF0A40E06EC1AF0A09A
:10531F000E06EC1AF0C00E06EC1AF0DA0E06EC1AB6
:10532F00F0420E06EC1AF0810E06EC1AF07F0E0614
:10533F00EC1AF0D90E06EC1AF0F10E06EC1AF0DBAF
:10534F000E06EC1AF0400E06EC1AF0AF0E06EC1A31
:10535F00F08A881200844B852B84C0C6F085C0C7A5
:10536F00F0C96B0A0EC86F24EC1DF0C751C611D8D7
:10537F00A412008C8384C0C6F085C0C7F0C96B64CB
:10538F000EC86F24EC1DF0C751C611D8A412008CA3
:10539F008584C0C6F085C0C7F0030EC96FE80EC87C
:1053AF006F24EC1DF0C751C611D8A412008C87844E
:1053BF00C0C6F085C0C7F0EA0EC96F600EC86F2473
:1053CF00EC1DF0C751C611D8A41200824B832B8C51
:1053DF008982C0C6F083C0C7F0C96B3C0EC86F246A
:1053EF00EC1DF0C751C611D8A412008C8B82C0C619
:1053FF00F083C0C7F0020EC96FD00EC86F24EC1D2A
:10540F00F0C751C611D8A412008C8D82C0C6F0838C
:10541F00C0C7F0050EC96FA00EC86F24EC1DF0C7F2
:10542F0051C611D8A412008C8F846B856B826B834D
:10543F006B1200C76B640EC66F81EC1BF08B510DA6
:10544F00E07D0EC86F000EC76F96EC1BF00001C712
:10545F006B640EC66F81EC1BF03FD07C0EC86F1CC7
:10546F000EC76F96EC1BF0F2D77D0EC86F8E0EC76E
:10547F006F96EC1BF041D07D0EC86F9B0EC76F96D9
:10548F00EC1BF03AD07D0EC86FA80EC76F96EC1BC1
:10549F00F033D07D0EC86FB50EC76F96EC1BF02C96
:1054AF00D07D0EC86FC20EC76F96EC1BF025D07D56
:1054BF000EC86FCF0EC76F96EC1BF01ED07D0EC8B7
:1054CF006FDC0EC76F96EC1BF017D07D0EC86FE91F
:1054DF000EC76F96EC1BF010D0FA51C6E0010ACB45
:1054EF00E0030AD0E0010AD5E0070ADAE0010ADF9B
:1054FF00E0030AE4E0010AE9E00001C76B640EC6AD
:10550F006F81EC1BF07F0EC86F480EC76F96EC1BB8
:10551F00F0010E0001C76F2C0EC66F81EF1BF0D884
:10552F00C0C6F0D9C0C7F0C96B0A0EC86F24EC1DF6
:10553F00F0C651300FE06FD8C0C6F0D9C0C7F0C960
:10554F006B0A0EC86FAAEC1DF0C6C0D8F0C7C0D941
:10555F00F0D8C0C6F0D9C0C7F0C96B0A0EC86F2407
:10556F00EC1DF0C651300FDF6FD8C0C6F0D9C0C7E1
:10557F00F0C96B0A0EC86FAAEC1DF0C6C0D8F0C7F1
:10558F00C0D9F0D8C0C6F0D9C0C7F0C96B0A0EC8D1
:10559F006F24EC1DF0C651300FDE6FD8C0C6F0D9A6
:1055AF00C0C7F0C96B0A0EC86FAAEC1DF0C6C0D8F1
:1055BF00F0C7C0D9F0D8C0C6F0D9C0C7F0C96B0AC0
:1055CF000EC86F24EC1DF0C651300FDD6FD8C0C66A
:1055DF00F0D9C0C7F0C96B0A0EC86FAAEC1DF0C690
:1055EF00C0D8F0C7C0D9F0D8C0C6F0D9C0C7F0C96D
:1055FF006B0A0EC86F24EC1DF0C651300FDC6FE143
:10560F006BD46BDC0ED36FDAC0D5F0DBC0D6F008ED
:10561F00EF20F0A39400017751761109E076C0D9FD
:10562F00FF77C0DAFF010EDFAE000ECD6F01D0CDD8
:10563F006BCE6BCE51CD1102E0A38412001E50032E
:10564F000AD8B41E6A1E6602D0A38412001E50022E
:10565F000A0FE1010EC66FC86BC76BC96B020EC490
:10566F00EC23F0C6C076F0C7C077F0030E1E6E4F66
:10567F00D01E044DE1400E8E6502D0D06F02D08E49
:10568F00C0D0F0D0518E5F050E0001716F000E700B
:10569F006BD0C0CFF08D6722D00FD073C0D9FF74FD
:1056AF00C0DAFF70C0E1FF71C0E2FFDFCFE7FF702C
:1056BF004B712B734B742BCF07CF67EFD711D07371
:1056CF00C0D9FF74C0DAFF70C0E1FF71C0E2FFDF25
:1056DF00CFE7FF704B712B734B742BCF07CF67EF57
:1056EF00D78E6706D0D051400A020ED8A4030E1EE3
:1056FF006E010EC66F050E0001C86FC76BD0C0C913
:10570F00F0020EC4EC23F0C6C076F0C7C077F0A34A
:10571F0084120000018905D8B460BA05D0656A64A7
:10572F00806488020E896F65B464A403D065940AFF
:10573F00EC1BF060A202D0A494120065B064A00626
:10574F00D06EEC28F0A384040E896F659065B86461
:10575F00A803D0CBEC1AF0659865AC14D064AC0AF2
:10576F00D0406A730E3F6E426A416A446A010E432B
:10577F006ECFEC1DF0659C1C50D8A41C061C660255
:10578F00D064EC25F065BA64AA02D005EC1DF06573
:10579F00B264A20BD07F0E406E3F68426A416A44EA
:1057AF006A010E436ECFEC1DF0676A040E0001898B
:1057BF005D02E2A494120064A62BD0526A65A6285B
:1057CF00D061CF2FF02F30E832E8320F0B206E650B
:1057DF00962FB404D0205000016D0F03D02050003D
:1057EF00016A0FD96EDA6ADF70206603D077EC2674
:1057FF00F00BD0406A720E3F6E426A2F0E416E0060
:10580F000E446A436ACFEC1DF0522A030E5264D63F
:10581F00D7A494120004013051800AD8A41200C0FA
:10582F000E2B6E72D0790E296EF40E286E000E2D8F
:10583F006E120E2C6E120C32673DD03251020D4794
:10584F000EF324F66E760EF420F76E0900F5CF28CE
:10585F00F00A00F5CF29F0020E2824306E000E2931
:10586F0020316E30C0F6FF31C0F7FFF86A070EF730
:10587F006403D00800F55005D0F6CFE1FFF7CFE273
:10588F00FFE7502C6E030E2824306E000E292031B6
:10589F006E30C0F6FF31C0F7FFF86A070EF76403EA
:1058AF00D00800F55005D0F6CFE1FFF7CFE2FFE7C4
:1058BF00502D6E12002B6A1200030E325D21E23260
:1058CF0051020D410EF324F66E760EF420F76E0999
:1058DF0000F5CF28F00A00F5CF29F028C0F6FF29F0
:1058EF00C0F7FFF86A070EF76403D00800F55005FC
:1058FF00D0F6CFE1FFF7CFE2FFE7502C6E2D6A1203
:10590F00002B6A12002B6A12003351010A8BE0033D
:10591F000A92E0010AD1E0F6D7CF51A00FD96EDA83
:10592F006ACDC0C6F0CEC0C7F0C96B0A0EC86F24CF
:10593F00EC1DF0C651300FDF6ECDC0C6F0CEC0C724
:10594F00F0C96B0A0EC86FAAEC1DF0C6C0CDF0C728
:10595F00C0CEF0CF519F0FD96EDA6ACDC0C6F0CE50
:10596F00C0C7F0C96B0A0EC86F24EC1DF0C65130CA
:10597F000FDF6ECDC0C6F0CEC0C7F0C96B0A0EC820
:10598F006FAAEC1DF0C6C0CDF0C7C0CEF0CF519EB0
:10599F000FD96EDA6ACDC0C6F0CEC0C7F0C96B0A98
:1059AF000EC86F24EC1DF0C651300FDF6ECDC0C690
:1059BF00F0CEC0C7F0C96B0A0EC86FAAEC1DF0C6B7
:1059CF00C0CDF0C7C0CEF0CF519D0FD96EDA6ACDE2
:1059DF00C0C6F0CEC0C7F0C96B0A0EC86F24EC1D4D
:1059EF00F0C651300FDF6ECDC0C6F0CEC0C7F0C9C4
:1059FF006B0A0EC86FAAEC1DF0C6C0CDF0C7C0CEA3
:105A0F00F0CF519C0FD96EDA6ACDC0C6F0CEC0C7A9
:105A1F00F0C96B0A0EC86F24EC1DF0C651300FDFB2
:105A2F006E120020EE01F00F50D9261050DA22DF4F
:105A3F0050466E4650055C000E0658D8A005C0466D
:105A4F00F04650055E000E065A456A0DD0380E45D9
:105A5F0024D96EDA6A040EDA220150E16EE26ADFAF
:105A6F00CFE7FF012A452A4650455CF0E306500573
:105A7F001032E020EE01F01150D9261250DA220830
:105A8F000EDF6E20EE02F01150D9261250DA2238B6
:105A9F000EDE6E040EDD6E0FC0D9FF10C0DAFFDF11
:105AAF00BC0DD011C0D9FF12C0DAFF480EDF6E1146
:105ABF00C0D9FF12C0DAFF000EDB8E000C11C0D967
:105ACF00FF12C0DAFF080EDF6E11C0D9FF12C0DA65
:105ADF00FF000EDB8E000C20EE01F01150D92612C4
:105AEF0050DA22080EDF6E20EE02F01150D9261286
:105AFF0050DA22300EDE6E040EDD6E11C0D9FF12A9
:105B0F00C0DAFFDF6E11C0D9FF12C0DAFF000EDB63
:105B1F008E085007100EE020EE07F001D80AD005CE
:105B2F0000FA6EDE50FD6EDE50FE6EF850FF6EFA1C
:105B3F00501200049E1966120064EF25F00001EF69
:105B4F006BF06BF36B80A002D0040EFB6F8CA10780
:105B5F00D0E5EC19F0B2EC29F08C510CEC1AF01BDB
:105B6F00EC1EF0F46FF40504E1976B010EF06F0675
:105B7F00D0F451020A03E1976B010EF36FF5EC1DA0
:105B8F00F0000903E0010EF76F01D0F76B96510695
:105B9F000A03E09651020A37E1040E916534D0F101
:105BAF006BF26BC76B0A0EC66F81EC1BF0200EF504
:105BBF006F030EAFEC1CF07A51C6277B51C723D869
:105BCF0090C7317B6FC6317A6FF507F567F1D7C78D
:105BDF006B0A0EC66F81EC1BF0200EF66F020EAF34
:105BEF00EC1CF0F151C627F251C723D890C731F200
:105BFF006FC631F16FF607F667F1D7F151EAEC1A7C
:105C0F00F07E6F7F6B916B975162E0090E97655F26
:105C1F00D0010EEF6F976B5BD0FFD788EC1AF07F38
:105C2F000ED46F050ED36F010ED56F000ED66B0815
:105C3F00EC20F07F0E0001D46F510ED36F020ED502
:105C4F006F010ED66F08EC20F07B0E0001D46F545D
:105C5F000ED36FD56B030ED66F08EC20F000018AC0
:105C6F006B020E29D0F3C0D8F0F7517CEC2FF00067
:105C7F000937E088EC1AF07B0ED46FA90ED36F00B2
:105C8F000ED56BD66B08EC20F07B0E0001D46FBAEB
:105C9F000ED36FD56B020ED66F08EC20F07B0E0083
:105CAF0001D46F100ED36FD56B030ED66F08EC2097
:105CBF00F00001966B030EFB6F13D0F3C0E2F0F709
:105CCF00C0E3F0EFC0E4F0F0511CEC32F009D0FB70
:105CDF0051010AA3E0030AC6E0010AEFE0070A9C9C
:105CEF00E10001FB511200040132050BE130511F9D
:105CFF000B08E12B8E3151030A03E1010E186E01DF
:105D0F00D0186A3267120030511F0B020AD8A41242
:105D1F000034510F0BD8B4120034510F0B476E03E0
:105D2F000E475CD8B0120000018951200AD8A41286
:105D3F00002B8E040134BF11D034510F0B020DF321
:105D4F0050600FD96EDA6ADECF4CF0DDCF4DF034F4
:105D5F00510F0B476E47506D0F10D034510F0B0280
:105D6F000DF350090FD96EDA6ADECF4CF0DDCF4D4F
:105D7F00F034510F0B476E47506A0FD96EDA6ADF56
:105D8F00504B6E4BB002D04C9401D04C8404013474
:105D9F00BF06D034510F0B020DF350600F05D034F6
:105DAF00510F0B020DF350090FD96EDA6A4CC0DE9A
:105DBF00FF4DC0DDFF04013151030A24E14CC0D96E
:105DCF00FF4DC0DAFFDFAE12D034BF07D034510F12
:105DDF000B476E475000016D0F06D034510F0B4724
:105DEF006E475000016A0FD96EDA6ADF824CC0D954
:105DFF00FF4DC0DAFF000EDB844CC0D9FF4DC0DA77
:105E0F00FFDB8E000C040E4C1A4CC0D9FF4DC0DACC
:105E1F00FFDFAE19D04CC0D9FF4DC0DAFF7F0EDFC8
:105E2F00164CC0D9FF4DC0DAFF000EDB8C406A055F
:105E3F000E3F6E4DC042F04CC041F0446A020E431B
:105E4F006ECFEC1DF006D04CC0D9FF4DC0DAFF006D
:105E5F000EDB8C040E4C1A4BB206D04CC0D9FF4D42
:105E6F00C0DAFFDFAE26D0040134BF07D034510FA4
:105E7F000B476E475000016D0F06D034510F0B4783
:105E8F006E475000016A0FD96EDA6ADF924CC0D9A3
:105E9F00FF4DC0DAFF3B0EDF16406A050E3F6E4D19
:105EAF00C042F04CC041F0446A020E436ECFEC1D6D
:105EBF00F006D04CC0D9FF4DC0DAFF3B0EDF166A9B
:105ECF000E476E0F0E486E040134510F0B4726001C
:105EDF000E482247C049F048C04AF049C0D9FF4A8E
:105EEF00C0DAFFFE0EDF16FE0CDB6FD96BD8510147
:105EFF00E175D20C0E8A6F82B271D2FDD7FFD77EB9
:105F0F000EC86F8B0EC76F96EC1BF00001C76B327C
:105F1F000EC66F81EC1BF0010E21D0DB5101E18128
:105F2F00D2010E0001C76F800EC66F7F0EC96FEFD3
:105F3F000EC86FCB6B020ECA6F70EC20F0C751C644
:105F4F00110FE17D0EC86FF60EC76F96EC1BF000B8
:105F5F0001C76B320EC66F81EC1BF0020E000122DF
:105F6F00D200018A6B5ED2DB5101E15BD2010E00E0
:105F7F0001C76F800EC66F7F0EC96FF20EC86F120A
:105F8F00EC22F0C751C61102E1030E0CD2010E0034
:105F9F0001C76F800EC66F7D0EC96F660EC86F1278
:105FAF00EC22F0C751C61143E188EC1AF07F0ED4F2
:105FBF006F5A0ED36F010ED56F000ED66B08EC2003
:105FCF00F07F0E0001D46F9F0ED36F020ED56F01BD
:105FDF000ED66F08EC20F0010E0001C76FF40EC64D
:105FEF006F81EC1BF088EC1AF07E0ED46F730ED31A
:105FFF006F010ED56F000ED66B08EC20F07F0E00F0
:10600F0001D46F140ED36F020ED56F010ED66F0829
:10601F00EC20F00001C76BC80EC66F81EC1BF07D42
:10602F000EC86F4A0EC76F96EC1BF0040E97D77D04
:10603F000EC86FF60EC76F96EC1BF08FD7DB5101B2
:10604F00E1F0D1010E0001C76F800EC66F7F0EC940
:10605F006F3F0EC86F12EC22F0C751C6111DE188B9
:10606F00EC1AF07E0ED46FFB0ED36F000ED56BD6ED
:10607F006B08EC20F07E0E0001D46FC50ED36FD5E8
:10608F006B010ED66F08EC20F00001C76BFA0EC63D
:10609F006F81EC1BF0060E86D1010E0001C76F80D9
:1060AF000EC66F7F0EC96FCC0EC86F12EC22F0C7F1
:1060BF0051C61107E17D0EC86FF60EC76F96EC1B28
:1060CF00F04CD77F0EC86F190EC76F96EC1BF023DD
:1060DF00D7DB5101E1A6D1010E0001C76F800EC6BB
:1060EF006F7F0EC96FF20EC86F12EC22F0C751C648
:1060FF001102E1050E57D1010E0001C76F800EC6C8
:10610F006F7D0EC96F660EC86F12EC22F0C751C6B5
:10611F001117E188EC1AF07E0ED46FDB0ED36F00EF
:10612F000ED56BD66B08EC20F07F0E0001D46F36C6
:10613F000ED36FD56B010ED66F08EC20F00B0E0E41
:10614F00D7010E0001C76F800EC66F7D0EC96F5845
:10615F000EC86F12EC22F0C751C61107E17D0EC8B1
:10616F006F4A0EC76F96EC1BF0F8D6010E0001C7F1
:10617F006F800EC66F7E0EC96FBA0EC86F12EC22FB
:10618F00F0C751C61101E1ECD64CD1DB5101E14909
:10619F00D1010E0001C76F800EC66F7F0EC96F3F12
:1061AF000EC86F12EC22F0C751C6111DE188EC1A10
:1061BF00F07E0ED46FAF0ED36F000ED56BD66B087B
:1061CF00EC20F07E0E0001D46FC50ED36FD56B019E
:1061DF000ED66F08EC20F0010E0001C76FF40EC64B
:1061EF006F81EC1BF057D7010E0001C76F800EC6F1
:1061FF006F7F0EC96FCC0EC86F12EC22F0C751C65D
:10620F001125E188EC1AF07F0ED46F0F0ED36F01BA
:10621F000ED56F000ED66B08EC20F07F0E0001D468
:10622F006FC50ED36F020ED56F010ED66F08EC201F
:10623F00F07D0E0001C86F4A0EC76F96EC1BF00081
:10624F0001C76B640EC66F81EC1BF0EFD6010E0019
:10625F0001C76F800EC66F7E0EC96FBA0EC86F1260
:10626F00EC22F0C751C61101E0DCD088EC1AF07FA8
:10627F000ED46F8F0ED36F010ED56F000ED66B0835
:10628F00EC20F07F0E0001D46F970ED36F020ED566
:10629F006F010ED66F08EC20F063D67E0EC86F7FAD
:1062AF000EC76F96EC1BF00001C76B640EC66F81B3
:1062BF00EC1BF0080E77D0DB5101E1B3D0010E00DB
:1062CF0001C76F800EC66F7D0EC96F0C0EC86FCBE6
:1062DF006B020ECA6F70EC20F0C751C6110BE101B3
:1062EF000EF5EC19F07E0EC86FD00EC76F96EC1B33
:1062FF00F0070E34D6010E0001C76F800EC66F7CFB
:10630F000EC96F280EC86FCB6B020ECA6F70EC20D0
:10631F00F0C751C61101E0BED6000EF5EC19F07EA4
:10632F000EC86FD00EC76F96EC1BF0E2D7DB51791A
:10633F00E0010E0001C76F800EC66F7D0EC96F584A
:10634F000EC86F12EC22F0C751C61107E17E0EC8BE
:10635F006FD00EC76F96EC1BF0CBD701018051D0D9
:10636F000F0001DA6F060EDA6502D0020EDA6FDA6D
:10637F0051F9EC19F021EC2AF0090E14D0DB515130
:10638F00E0010E0001C76F800EC66F7F0EC96FF25E
:10639F000EC86FCB6B020ECA6F70EC20F0C751C6E0
:1063AF001103E10A0E8A6F3DD07E0EC86FD00EC763
:1063BF006F96EC1BF09DD7010ED96F33D0000EC630
:1063CF006B94EC1CF082B002D082A2FCD70001C704
:1063DF006B280EC66F81EC1BF0FF0023D08A510192
:1063EF00E18ED5010A01E199D5030A01E1BCD5017E
:1063FF000A01E124D6070A01E16BD6010A01E1C5C2
:10640F00D6030A01E14AD7010A91E00F0A01E153CD
:10641F00D7010AB4E0030ACFE0010A03E0070ACE6E
:10642F00E06DD50001D9511200EE6FE45102E1F693
:10643F00EF3AF0FC5102E1F6EF3AF0200E9865D7F3
:10644F00D0E56BE66BC76B0A0EC66F81EC1BF020B5
:10645F000EE76FE76701D00ED0030EAFEC1CF07A9A
:10646F0051C6277B51C723D890C7317B6FC6317A6E
:10647F006FE707EFD7C76B0A0EC66F81EC1BF020D3
:10648F000EE86FE86701D00ED0020EAFEC1CF0E5FE
:10649F0051C627E651C723D890C731E66FC631E5FD
:1064AF006FE807EFD7E551EAEC1AF07E6F7F6B9834
:1064BF006B88EC1AF07B0ED46F650ED36F000ED580
:1064CF006BD66B08EC20F07E0E0001D46F430ED319
:1064DF006FD56B010ED66F08EC20F00A0E0001D8B5
:1064EF006F010ED96F9551BCEC1EF07D0E0001D4DB
:1064FF006F810ED36FD56B020ED66F08EC20F07A3A
:10650F00C0D8F07BC0D9F0030E0001DA6F020EDBAA
:10651F006F97EC2AF00C0E0001D86F020ED96F7E28
:10652F0051BCEC1EF07B0E0001D46FFC0ED36FD567
:10653F006B030ED66F08EC20F087EC1DF0FDEC1905
:10654F00F0956F956703D0050E956F05D0DF0E950B
:10655F006502D0CE0E9527CA6B955142EC1FF020E5
:10656F000E9F6F7AC0CDF07BC0CEF0040ECF6F942C
:10657F00EC2CF0090ECA6F7E5142EC1FF000F000B8
:10658F0001992B030E996517D0996B7F0ED46FF974
:10659F000ED36F0F0ED56F010ED66F08EC20F07E65
:1065AF000E0001C86F670EC76F9C0EC96F0C0ECA25
:1065BF006F2CEC23F015D07F0ED46FFB0ED36F0F23
:1065CF000ED56F010ED66F08EC20F07D0E0001C8BE
:1065DF006F3C0EC76F9C0EC96F0C0ECA6F2CEC234D
:1065EF00F0070E0001976F080E966FF6EF3AF098CE
:1065FF002B0E0E966F010EE26FF6EF3AF0FFD7EE0D
:10660F006703D0E251D8B4120088EC1AF07B0ED495
:10661F006FEC0ED36F000ED56BD66B08EC20F07BB2
:10662F000E0001D46FDC0ED36FD56B010ED66F0841
:10663F00EC20F07B0E0001D46FFC0ED36FD56B03F3
:10664F000ED66F08EC20F0010E0001966F010CEED4
:10665F005123E088EC1AF07A0ED46FCC0ED36F0072
:10666F000ED56BD66B08EC20F07A0E0001D46FBB01
:10667F000ED36FD56B010ED66F08EC20F07B0E009A
:10668F0001D46FFC0ED36FD56B030ED66F08EC20C1
:10669F00F0030E0001966F030CE251D8B41200887C
:1066AF00EC1AF07B0ED46FEC0ED36F000ED56BD6B9
:1066BF006B08EC20F07F0E0001D46FBE0ED36FD5A8
:1066CF006B010ED66F08EC20F07F0E0001D46FB770
:1066DF000ED36FD56B020ED66F08EC20F07F0E0035
:1066EF0001D46FF90ED36F0C0ED56F020ED66F0853
:1066FF00EC20F000017F517E1115E07AC0D8F07BBD
:10670F00C0D9F0060EDA6F010EDB6F97EC2AF07E20
:10671F00C0D8F07FC0D9F0060E0001DA6F020EDB91
:10672F006F97EC2AF0020E0001966F020C7AC0D818
:10673F00F07BC0D9F0060EDA6F010EDB6F97EC2AF3
:10674F00F07EC0D8F07FC0D9F0060E0001DA6F02DC
:10675F000EDB6F97EC2AF00001EE6703D0E251D801
:10676F00B4120088EC1AF07B0ED46FEC0ED36F00CE
:10677F000ED56BD66B08EC20F07B0E0001D46FDCCE
:10678F000ED36FD56B010ED66F08EC20F07B0E0089
:10679F0001D46FFC0ED36FD56B030ED66F08EC20B0
:1067AF00F052D7EE5123E088EC1AF07A0ED46FFF37
:1067BF000ED36F000ED56BD66B08EC20F07B0E005E
:1067CF0001D46F320ED36FD56B010ED66F08EC204C
:1067DF00F07B0E0001D46FFC0ED36FD56B030ED67A
:1067EF006F08EC20F0060E0001966F060CE251D8F0
:1067FF00B4120088EC1AF07F0ED46FF70ED36F0F20
:10680F000ED56F000ED66B08EC20F07C0E0001D475
:10681F006F790ED36F000ED56BD66B08EC20F07C22
:10682F000E0001D46F880ED36FD56B010ED66F0893
:10683F00EC20F07C0E0001D46F970ED36FD56B0256
:10684F000ED66F08EC20F07C0E0001D46FA60ED38D
:10685F006FD56B030ED66F08EC20F00001FA670BB3
:10686F00D07F0ED46FF50ED36F0E0ED56F000ED6F0
:10687F006B08EC20F028D0FA050BE17F0ED46FF5F2
:10688F000ED36F0E0ED56F010ED66F08EC20F01BD6
:10689F00D0FA51020A0BE17F0ED46FF50ED36F0EB3
:1068AF000ED56F020ED66F08EC20F00DD0FA510303
:1068BF000A0AE17F0ED46FF50ED36F0E0ED56F035C
:1068CF000ED66F08EC20F0040E0001966F040CEE4C
:1068DF005101E1E9D28F2B090E8F65C6D28F6BC4A0
:1068EF00D288EC1AF07F0ED46FF70ED36F0F0ED540
:1068FF006F000ED66B08EC20F07C0E0001D46F7980
:10690F000ED36F000ED56BD66B08EC20F07C0E000B
:10691F0001D46F880ED36FD56B010ED66F08EC20A4
:10692F00F07C0E0001D46F970ED36FD56B020ED68D
:10693F006F08EC20F07C0E0001D46FA60ED36FD53C
:10694F006B030ED66F08EC20F00001FA6701D04000
:10695F00D2FA0501E1D4D0FA51020A01E1DCD0FAF2
:10696F0051030A86D088EC1AF07F0ED46FF70ED33E
:10697F006F0F0ED56F000ED66B08EC20F07C0E005B
:10698F0001D46F880ED36F000ED56BD66B08EC2039
:10699F00F07C0E0001D46F970ED36FD56B010ED61E
:1069AF006F08EC20F07C0E0001D46FA60ED36FD5CC
:1069BF006B020ED66F08EC20F07C0E0001D46FB581
:1069CF000ED36FD56B030ED66F08EC20F00001FAD3
:1069DF000501E1FED1FA51020A01E191D0FA51030A
:1069EF000A01E199D0FA51040A43D088EC1AF07FDA
:1069FF000ED46FF70ED36F0F0ED56F000ED66B0838
:106A0F00EC20F07C0E0001D46F970ED36F000ED5E3
:106A1F006BD66B08EC20F07C0E0001D46FA60ED362
:106A2F006FD56B010ED66F08EC20F07C0E0001D4F1
:106A3F006FB50ED36FD56B020ED66F08EC20F07CBE
:106A4F000E0001D46FC40ED36FD56B030ED66F0833
:106A5F00EC20F00001FA51020A01E1BAD1FA510318
:106A6F000A01E14DD0FA51040A01E155D0FA51055E
:106A7F000AD8A412007F0ED46FF50ED36F0E0ED569
:106A8F006F030EBBEF3AF088EC1AF07F0ED46FF75E
:106A9F000ED36F0F0ED56F000ED66B08EC20F07C67
:106AAF000E0001D46FA60ED36F000ED56BD66B08F8
:106ABF00EC20F07C0E0001D46FB50ED36FD56B01B7
:106ACF000ED66F08EC20F07C0E0001D46FC40ED3ED
:106ADF006FD56B020ED66F08EC20F07C0E0001D440
:106AEF006FD30ED36FD56B030ED66F08EC20F0006B
:106AFF0001FA51030A01E16CD1FA51040A09E17F4D
:106B0F000ED46FF50ED36F0E0ED56F010EBBEF3A8D
:106B1F00F0FA51050A07E17F0ED46FF50ED36F0E11
:106B2F000ED56F44D0FA51060AA3D788EC1AF07F1E
:106B3F000ED46FF70ED36F0F0ED56F000ED66B08F6
:106B4F00EC20F07C0E0001D46FB50ED36F000ED584
:106B5F006BD66B08EC20F07C0E0001D46FC40ED303
:106B6F006FD56B010ED66F08EC20F07C0E0001D4B0
:106B7F006FD30ED36FD56B020ED66F08EC20F07C5F
:106B8F000E0001D46FE20ED36FD56B030ED66F08D4
:106B9F00EC20F00001FA51040A01E11AD1FA510573
:106BAF000A01E1ADD7FA51060A04E1B5D7020EBBCF
:106BBF00EF3AF0FA51070A5CD788EC1AF07F0ED43F
:106BCF006FF70ED36F0F0ED56F000ED66B08EC203C
:106BDF00F07C0E0001D46FC40ED36F000ED56BD6B0
:106BEF006B08EC20F07C0E0001D46FD30ED36FD561
:106BFF006B010ED66F08EC20F07C0E0001D46FE213
:106C0F000ED36FD56B020ED66F08EC20F07C0E0002
:106C1F0001D46FF10ED36FD56B030ED66F08EC2036
:106C2F00F00001FA51050A01E1D3D0FA51060A0129
:106C3F00E166D7FA51070A01E16ED78B51D8B4122A
:106C4F00007F0ED46FF50ED36F0E0ED56F030EBBF4
:106C5F00EF3AF088EC1AF07F0ED46FF70ED36F0F68
:106C6F000ED56F000ED66B08EC20F07C0E0001D411
:106C7F006FD30ED36F000ED56BD66B08EC20F07C64
:106C8F000E0001D46FE20ED36FD56B010ED66F08D5
:106C9F00EC20F07C0E0001D46FF10ED36FD56B0298
:106CAF000ED66F08EC20F07C0E0001D46F4C0ED383
:106CBF006FD56B030ED66F08EC20F00001FA51066A
:106CCF000A01E186D0FA51070A01E119D78B51D891
:106CDF00B4120021D788EC1AF07F0ED46FF70ED3C1
:106CEF006F0F0ED56F000ED66B08EC20F07C0E00E8
:106CFF0001D46FE20ED36F000ED56BD66B08EC206C
:106D0F00F07C0E0001D46FF10ED36FD56B010ED650
:106D1F006F08EC20F07C0E0001D46F4C0ED36FD5B2
:106D2F006B020ED66F08EC20F07C0E0001D46F7949
:106D3F000ED36FD56B030ED66F08EC20F00001FA5F
:106D4F0051070A01E145D08B5101E0D9D6FA6712FC
:106D5F00007F0ED46FF50ED36F0E0ED56F030EBBE3
:106D6F00EF3AF088EC1AF07F0ED46FF70ED36F0F57
:106D7F000ED56F000ED66B08EC20F07C0E0001D400
:106D8F006FF10ED36F000ED56BD66B08EC20F07C35
:106D9F000E0001D46F4C0ED36FD56B010ED66F085A
:106DAF00EC20F07C0E0001D46F790ED36FD56B02FF
:106DBF000ED66F08EC20F07C0E0001D46F880ED336
:106DCF006FD56B030ED66F08EC20F000018B5109C5
:106DDF00E07F0ED46FF50ED36F0E0ED56FD66B0806
:106DEF00EF20F0FA6701D097D6FA0542D688EC1A51
:106DFF00F07F0ED46FF70ED36F0F0ED56F000ED638
:106E0F006B08EC20F07C0E0001D46F4C0ED36F009A
:106E1F000ED56BD66B08EC20F07C0E0001D46F7989
:106E2F000ED36FD56B010ED66F08EC20F07C0E00E1
:106E3F0001D46F880ED36FD56B020ED66F08EC207E
:106E4F00F07C0E0001D46F970ED36FD56B030ED667
:106E5F006F08EC20F00001FA6701D051D6FA050156
:106E6F00E15AD6FA51020A04D68F5101E139D50100
:106E7F000A01E178D5030A01E1B8D5010A01E1035E
:106E8F00D6070A01E152D6010A01E196D6030A019B
:106E9F00E1E0D6010A01E11ED70F0A01E162D70135
:106EAF000AD8A41200A3D7E251D8B412008F510907
:106EBF000A22E188EC1AF08F6B7A0ED46FCC0ED3C6
:106ECF006F000ED56BD66B08EC20F07A0E0001D454
:106EDF006FBB0ED36FD56B010ED66F08EC20F07B16
:106EEF000E0001D46FFC0ED36FD56B030ED66F0857
:106EFF00EC20F050EF33F08F51080A1DE18B510D4C
:106F0F00E07C0ED46F590ED36F0E0ED56F000ED6D8
:106F1F006B08EC20F000018B6B18D07F0ED46FF54F
:106F2F000ED36F0E0ED56F000ED66B08EC20F0014E
:106F3F000E00018B6F0AD07F0ED46FF50ED36F0E3C
:106F4F000ED56F000ED66B08EC20F07C0E0001D42E
:106F5F006F590ED36F0E0ED56F010ED66F08EC2042
:106F6F00F07C0E0001D46F590ED36F0E0ED56F0249
:106F7F000ED66F08EC20F07C0E0001D46F590ED3A3
:106F8F006F0E0ED56F030ED66F08EC20F000018B3D
:106F9F0051F5EC19F08F51F9EC19F021EC2AF007AB
:106FAF000E8A6F070CEE5123E088EC1AF07A0ED49C
:106FBF006FEE0ED36F000ED56BD66B08EC20F07A08
:106FCF000E0001D46FDD0ED36FD56B010ED66F0897
:106FDF00EC20F07B0E0001D46FFC0ED36FD56B034A
:106FEF000ED66F08EC20F00A0E0001966F0A0CE225
:106FFF0051D8B41200986B88EC1AF07B0ED46F98AE
:10700F000ED36F000ED56BD66B08EC20F07D0E0003
:10701F0001D46F740ED36FD56B010ED66F08EC20B1
:10702F00F07A0E0001D46F860ED36FD56B030ED698
:10703F006F08EC20F087EC1DF0FDEC19F0956F95C3
:10704F006703D0050E956F05D0DF0E956502D0CE84
:10705F000E95270C0ED86F010ED96F9551BCEC1EF3
:10706F00F00001CA6B955142EC1FF0200E9F6F7A12
:10707F00C0CDF07BC0CEF0040ECF6F94EC2CF00996
:10708F000ECA6F7E5142EC1FF000F0070E00019602
:10709F006F070CEE510AE07D0EC86F3C0EC76F9C58
:1070AF000EC96F0C0ECA6F2CEC23F00001E2510ACF
:1070BF00E07E0EC86F670EC76F9C0EC96F0C0ECAAD
:1070CF006F2CEC23F00001EE6703D0E251D8B4121D
:1070DF000088EC1AF07E0ED46F5B0ED36F000ED5C6
:1070EF006BD66B08EC20F07D0E0001D46F810ED3B0
:1070FF006FD56B010ED66F08EC20F07AC0D8F07BFD
:10710F00C0D9F0030E0001DA6F020EDB6F97EC2A85
:10711F00F00C0E0001D86F020ED96F7E51BCEC1E21
:10712F00F07E0E0001D46F4F0ED36FD56B010ED6CC
:10713F006F08EC20F00C0E0001D86F010ED96F957F
:10714F0051BCEC1EF0899C080E0001966F080CE3F1
:10715F005101E10ED1010E0001C76F800EC66F7F86
:10716F000EC96FF20EC86F12EC22F0C751C6110391
:10717F00E1898C080E966F010E0001C76F800EC655
:10718F006F7F0EC96FE10EC86FCB6B060ECA6F70A3
:10719F00EC20F0C751C61101E094D0070EED6F80BF
:1071AF000E0001ED25D96EDA6A010EDA22DF50C129
:1071BF006FED2B800EED25D96EDA6A010EDA22DF24
:1071CF0050C26FED2BC251200A0DE0800EED25D974
:1071DF006EDA6A010EDA22DF50C36FED2BC3512036
:1071EF000AD8A4ED2BEB6B0F0EEB6501D028D080E6
:1071FF000E0001ED25D96EDA6A0101010EDA22DFE8
:10720F0050ABEC1BF0E96FED2B800E0001ED25D993
:10721F006EDA6A0101010EDA22DF50ABEC1BF0EAE5
:10722F006FED2BC00E0001EB25D96EDA6A010EDA75
:10723F0022E951100DF350EA25DF6EEB2BD4D7ED79
:10724F002BED2BEC6B070EEC6501D025D0800E00DB
:10725F0001ED25D96EDA6A0101010EDA22DF50AB9A
:10726F00EC1BF0E96FED2B800E0001ED25D96EDAE6
:10727F006A0101010EDA22DF50ABEC1BF0EA6FED71
:10728F002BEC51B20FD96EDA6AE951100DF350EAB7
:10729F0025DF6EEC2BD7D7898E899C7B0ED46F217F
:1072AF000ED36FD56B020ED66F08EC20F07A0E005E
:1072BF0001D46FAA0ED36FD56B030ED66F08EC20D7
:1072CF00F051D0010E0001C76F800EC66F7F0EC93F
:1072DF006FE80EC86FCB6B060ECA6F70EC20F0C74D
:1072EF0051C6110BE1899C7B0ED46F760ED36FD5EF
:1072FF006B030ED66F08EC20F035D0010E0001C7DE
:10730F006F800EC66F7F0EC96FDA0EC86FCB6B061C
:10731F000ECA6F70EC20F0C751C6110AE17A0ED475
:10732F006F980ED36FD56B030ED66F08EC20F01A43
:10733F00D0010E0001C76F800EC66F7F0EC96FD3CD
:10734F000EC86FCB6B060ECA6F70EC20F0C751C61C
:10735F001109E17C0ED46F2C0ED36FD56B030ED6B3
:10736F006F08EC20F00001C76B140EC66F81EC1B89
:10737F00F0EE6703D0E251D8B4120088EC1AF07A1D
:10738F000ED46FFF0ED36F000ED56BD66B08EC20AB
:10739F00F07B0E0001D46F320ED36FD56B010ED67A
:1073AF006F08EC20F07B0E0001D46FFC0ED36FD56D
:1073BF006B030ED66F08EC20F0FAEF33F0EE512F7F
:1073CF00E088EC1AF07B0ED46F430ED36F000ED50E
:1073DF006BD66B08EC20F00001FC510AE07C0ED458
:1073EF006F5B0ED36FD56B020ED66F08EC20F009D2
:1073FF00D07C0ED46F6A0ED36FD56B020ED66F088A
:10740F00EC20F07B0E0001D46FFC0ED36FD56B0315
:10741F000ED66F08EC20F00C0E0001966F0C0CE2EC
:10742F0051D8B4120088EC1AF0899E7B0ED46FCB22
:10743F000ED36F000ED56BD66B08EC20F07E0E00CE
:10744F0001D46FF10ED36FD56B010ED66F08EC2000
:10745F00F00001D46BC10ED36F090ED56F010ED69C
:10746F006F08EC20F07E0E0001D46F600ED36FD545
:10747F006B020ED66F08EC20F00001D46BB20ED366
:10748F006F060ED56F020ED66F08EC20F07C0E0043
:10749F0001D46F590ED36F0B0ED56F020ED66F0836
:1074AF00EC20F00001D46BB70ED36F0C0ED56F022A
:1074BF000ED66F08EC20F0010E0001D46FC00ED372
:1074CF006FD56B030ED66F08EC20F00B0E000196F4
:1074DF006F0B0CEE6703D0E251D8B4120088EC1A90
:1074EF00F07A0ED46FEE0ED36F000ED56BD66B08FD
:1074FF00EC20F07A0E0001D46FDD0ED36FD56B0147
:10750F000ED66F08EC20F07B0E0001D46FFC0ED36B
:10751F006FD56B030ED66F08EC20F065D5EE5119C1
:10752F00E088EC1AF07B0ED46F870ED36F000ED568
:10753F006BD66B08EC20F07C0E0001D46F0C0ED3D1
:10754F006FD56B030ED66F08EC20F00E0E00019670
:10755F006F0E0CE251D8B41200FC5108E0FC6B7CAA
:10756F000ED46F6A0E08D0D66F08EF20F0010EFC14
:10757F006F7C0ED46F5B0ED36FD56BDEEF35F0E201
:10758F005109E091EC21F0000903E0010EEE6F02CA
:10759F00D0090E976FEE51D8B4120088EC1AF07B19
:1075AF000ED46FEC0ED36F000ED56BD66B08EC209C
:1075BF00F07B0E0001D46FDC0ED36FD56B010ED6AE
:1075CF006F08EC20F07B0E0001D46FFC0ED36FD54B
:1075DF006B030ED66F08EC20F02BEF33F0965102B1
:1075EF00E107EF33F0010A02E12FEF33F0030A0254
:1075FF00E19EEF33F0010A02E1D9EF33F0070A02FF
:10760F00E16FEF34F0020A01E1CDD4010A01E1414B
:10761F00D50F0A01E19CD5020A01E1D0D6010A017A
:10762F00E158D7070A01E17AD7020AA9E006EF333A
:10763F00F000067A8C79C0794979000000000000CB
:10764F0000000000005F00000000000003000300C6
:10765F000000643C26643C2624002649497F4949A2
:10766F003200422512082452210020504E55225834
:10767F002800000000030000000000001C22410051
:10768F00000000000041221C00000015150E0E1511
:10769F0015000008083E08080000000000503000E8
:1076AF000000000808080808000000000040000063
:1076BF0000004020100804020100003E4141413EFD
:1076CF0000000000417F4000000000426151496E00
:1076DF0000000022414949360000001814127F10A3
:1076EF0000000027494949710000003C4A49487091
:1076FF000000004321110D030000003649494936AF
:10770F00000000060949291E0000000000120000B9
:10771F000000000000523000000000000814142286
:10772F000000001414141414140000002214140880
:10773F00000000020159050200003E415D554D5108
:10774F002E00407C4A094A7C4000417F4949494903
:10775F0036001C22414141412200417F41414122DB
:10776F001C00417F49495D416300417F49091D016B
:10777F0003001C224149493A0800417F0808087F4D
:10778F0041000041417F41410000304041413F01F4
:10779F000100417F080C12614100417F4140404090
:1077AF006000417F420C427F4100417F420C117FBC
:1077BF0001001C22414141221C00417F4909090956
:1077CF0006000C12212161524C00417F09091969F1
:1077DF00460066494949494933000301417F410148
:1077EF000300013F4140413F0100010F3140310F84
:1077FF000100011F6114611F01004141360836412C
:10780F00410001034478440301004361514945435A
:10781F00610000007F4141000000010204081020B8
:10782F004000000041417F000000000402010102FE
:10783F0004000040404040404000000102000000B2
:10784F00000000344A4A4A3C400000413F48484843
:10785F003000003C42424224000000304848493F7B
:10786F004000003C4A4A4A2C00000000487E49096B
:10787F00000000264949493F0100417F48044478F0
:10788F0040000000447D40000000000040443D00E7
:10789F000000417F1018244242000040417F4040C9
:1078AF000000427E027C027E4000427E4402427C07
:1078BF004000003C4242423C000000417F49090920
:1078CF00060000060909497F410000427E4402027A
:1078DF00040000644A4A4A36000000043F44442032
:1078EF00000000023E4040227E40020E3240320E27
:1078FF000200021E6218621E020042621408146225
:10790F0042000143453805030100004662524A46D2
:10791F00620000000836410000000000007F0000F8
:10792F000000000000413608000000180808101081
:10793F001800AA55AA55AA55AA55090243000201D3
:10794F0000C03209040000010202010005240010EA
:10795F000104240202052406000105240100010789
:10796F0005810308000209040100020A0000000754
:10797F000502024000000705820240000034034D5B
:10798F00006900630072006F006300680069007097
:10799F0000200054006500630068006E006F006CEB
:1079AF00006F0067007900200049006E0063002E11
:1079BF000034034300440043002000520053002DC5
:1079CF0000320033003200200045006D0075006C5E
:1079DF00006100740069006F006E002000440065B4
:1079EF00006D006F001201000202000008D8040AA7
:1079FF00000001010200010403090473797320736D
:107A0F0065742070696E646967204750494F313043
:107A1F0020300D0A00737973207365742070696EBE
:107A2F00646967204750494F313120300D0A007388
:107A3F007973207365742070696E6469672047508D
:107A4F00494F313020310D0A0073797320736574FB
:107A5F002070696E646967204750494F313120317A
:107A6F000D0A0073797320736C656570203939398D
:107A7F003939393939390028554E434E4629202096
:107A8F00202028434E462920004D61632045727205
:107A9F006F72204F6363757265640020202020523F
:107AAF0065636569766564202020200020202044CE
:107ABF0061746120526174652020202000202053C2
:107ACF00656C656374204C6F52612020200020206C
:107ADF004C617374204D65737361676520200020BE
:107AEF005669657720446F776E6C696E6B20200046
:107AFF00202049737375652055706C696E6B20205B
:107B0F0000202853312920202020202028533229DB
:107B1F00200053657276657220526573706F6E73B5
:107B2F00652000204C6F526157414E205061636BAE
:107B3F006574200020547820536C6565702045765D
:107B4F00656E742000526552756E205077725473B3
:107B5F00743C53323E004973737565205065726FE4
:107B6F006469632054580044617461205472616EDB
:107B7F00736D697474656400456E74657220536C1F
:107B8F00656570204D6F64650055706C696E6B2074
:107B9F0050636B742054797065004D6F62696C652A
:107BAF00204D6F7465202D417070004E61766967AE
:107BBF00617465202053656C65637400446F776E44
:107BCF006C696E6B20446973706C617900202020A2
:107BDF0020446973706C617920202020002020538D
:107BEF00656E736F722044617461202000284E41CE
:107BFF005629202020202853454C292000284E416B
:107C0F0056292020202028534C502920006D6163D5
:107C1F002073657420616472206F6666004E6F205A
:107C2F0046726565204368616E6E656C00427569CA
:107C3F006C6420446174652F54696D6500457869E3
:107C4F0074204D656E7520202020200020202020DC
:107C5F00456E61626C656420202000202020204446
:107C6F00697361626C656420200044617461205205
:107C7F006174653A202020300044617461205261A4
:107C8F0074653A2020203100446174612052617480
:107C9F00653A20202032004461746120526174657E
:107CAF003A20202033004461746120526174653A98
:107CBF0020202034004461746120526174653A20A1
:107CCF00202035004461746120526174653A202090
:107CDF002036004461746120526174653A2020207F
:107CEF0037004175746F204461746120526174656F
:107CFF00006D61632073657420616472206F6E0084
:107D0F0020202052433320436F6465202020002021
:107D1F0020204C6F52612044656D6F2020004D690B
:107D2F0063726F63686970204D6F7465006D616376
:107D3F0020747820756E636E6620006D6163206A13
:107D4F006F696E206F74616100696E76616C696432
:107D5F005F706172616D006B6579735F6E6F745FD9
:107D6F00696E6974005468726F7520506F72742356
:107D7F0020004C3A20202020202020543A20006D53
:107D8F006163207365742064722030006D6163201D
:107D9F007365742064722031006D616320736574A4
:107DAF002064722032006D616320736574206472E9
:107DBF002033006D6163207365742064722034007A
:107DCF006D6163207365742064722035006D61638B
:107DDF00207365742064722036006D6163207365B3
:107DEF00742064722037006D6163206A6F696E20A2
:107DFF0061627000427574746F6E20546573743ACB
:107E0F0000427574746F6E312050415353004275A8
:107E1F0074746F6E322050415353005072657373F8
:107E2F0020427574746F6E005553422048616E6422
:107E3F006C6572004F6E20506F727420233A2000D1
:107E4F00547820506F727420233A200053656E745B
:107E5F0020446174613A20006D616320747820635F
:107E6F006E662000547279696E67204F544141004D
:107E7F006D6163206765742061647200737973208C
:107E8F0067657420766572004E6F7620313320322D
:107E9F0030313500427574746F6E204641494C0085
:107EAF004F544141204A6F696E20006E6F5F6672BA
:107EBF0065655F6368005375636365737366756C9F
:107ECF00006D6163206765742064720056616C6990
:107EDF0064204B65797300436F6D6D205465737427
:107EEF003A00527820506F72742320004142502084
:107EFF004A6F696E20004D4F5445204D6F646500E9
:107F0F004F544141204A6F696E006D616320726565
:107F1F00736574004C454420546573743A004344B0
:107F2F0043204D6F64650052657175697265640019
:107F3F006163636570746564006D6163207361765E
:107F4F0065005374617274696E6700414250204A34
:107F5F006F696E004D6F54652076202E0031323AD6
:107F6F0033333A323600524620546573743A004127
:107F7F004443205465737400436F6D6D616E6400EC
:107F8F004E4F2046524545004348414E4E454C000A
:107F9F004E6F204B6579730054656D7020203D0046
:107FAF004C69676874203D0054656D70203A004C31
:107FBF00696768743A0044656E6965640064656E4C
:107FCF00696564006E6F5F667265006D61635F6502
:107FDF0072006D61635F7278006D61635F7478002A
:107FEF00524E006F6B002A003C00430055007A0090
:027FFF0000FF81
:020000040020DA
:08000000FFFFFFFFFFFFFFFF00
:020000040030CA
:0E00000021081F3EFFD181FF0FC00FE00F400F
:00000001FF
