:0400000055EF00F0C8
:100008005B82FACF4FF0FBCF50F0E1CF51F0E2CF57
:1000180052F0D9CF53F0DACF54F0F3CF55F0F4CFF4
:1000280056F0F6CF57F0F7CF58F0F8CF59F0F5CF94
:100038005AF09DB09EA005D0FDEC20F01AEC21F0FE
:1000480016D09DBA9EAA05D017EC21F0BFEC1FF080
:100058000ED09DB89EA803D0ABEC1FF008D0A0BC72
:10006800A1AC03D028EC21F002D09CEC0FF05AC0D0
:10007800F5FF59C0F8FF58C0F7FF57C0F6FF56C044
:10008800F4FF55C0F3FF54C0DAFF53C0D9FF52C084
:10009800E2FF51C0E1FF50C0FBFF4FC0FAFF5B9287
:1000A800110074EF1BF00001F26FE65102E1E7EF77
:1000B80008F0F95102E1E7EF08F0200E9A65D8D070
:1000C800E96BEA6BC96B0A0EC86F97EC1FF0200E3C
:1000D800EB6FEB5110E0030EE9EC1DF07A51C827E5
:1000E8007B51C923D890C931E76FC8317A6FE7C00F
:1000F8007BF0EB07EED7C96B0A0EC86F97EC1FF0C1
:10010800200EEC6FEC5110E0020EE9EC1DF0E95105
:10011800C827EA51C923D890C931E76FC831E96FB8
:10012800E7C0EAF0EC07EED7E951F7EC1FF07E6F75
:100138007F6B9A6B72EC20F0650ED56F7B0ED66FD5
:10014800D76BD86BDFEC1AF0430E0001D56F7E0E2B
:10015800D66FD76B010ED86FDFEC1AF00A0E0001CC
:10016800DA6F010EDB6F9751D2EC1BF0810E0001A4
:10017800D56F7D0ED66FD76B020ED86FDFEC1AF0F5
:100188007AC0DAF07BC0DBF0030E0001DC6F020EF0
:10019800DD6F1BEC10F00C0E0001DA6F020EDB6F46
:1001A8007E51D2EC1BF0FC0E0001D56F7B0ED66F92
:1001B800D76B030ED86FDFEC1AF089EC1DF003EC57
:1001C80021F0976F975103E1050E976F05D0DF0E69
:1001D800976502D0CE0E9727CC6B975144EC1BF055
:1001E800200EA16F7AC0CFF07BC0D0F0040ED16F83
:1001F80016EC0EF0090ECC6F7E5144EC1BF000F0AB
:1002080000019B2B030E9B6517D09B6BF90ED56FD6
:100218007F0ED66F0F0ED76F010ED86FDFEC1AF076
:10022800670E0001C96F7E0ECA6F9E0ECB6F0C0E53
:10023800CC6F67EC17F015D0FB0ED56F7F0ED66F1D
:100248000F0ED76F010ED86FDFEC1AF03C0E0001CD
:10025800C96F7D0ECA6F9E0ECB6F0C0ECC6F67EC0C
:1002680017F0070E0001996F080E986FE7EF08F076
:100278009A2B0E0E986F010EE46FE7EF08F0FFD788
:10028800F25103E1E451D8B4120072EC20F0EC0E04
:10029800D56F7B0ED66FD76BD86BDFEC1AF0DC0E00
:1002A8000001D56F7B0ED66FD76B010ED86FDFECD0
:1002B8001AF0FC0E0001D56F7B0ED66FD76B030EBC
:1002C800D86FDFEC1AF0010E0001986F010CF251A3
:1002D80022E072EC20F0CC0ED56F7A0ED66FD76B79
:1002E800D86BDFEC1AF0BB0E0001D56F7A0ED66F13
:1002F800D76B010ED86FDFEC1AF0FC0E0001D56F3A
:100308007B0ED66FD76B030ED86FDFEC1AF0030E97
:100318000001986F030CE451D8B4120072EC20F07D
:10032800EC0ED56F7B0ED66FD76BD86BDFEC1AF05F
:10033800BE0E0001D56F7F0ED66FD76B010ED86F3A
:10034800DFEC1AF0B70E0001D56F7F0ED66FD76BB2
:10035800020ED86FDFEC1AF0F90E0001D56F7F0E90
:10036800D66F0C0ED76F020ED86FDFEC1AF00001B3
:100378007E517F1115E07AC0DAF07BC0DBF0060E03
:10038800DC6F010EDD6F1BEC10F07EC0DAF07FC071
:10039800DBF0060E0001DC6F020EDD6F1BEC10F0C7
:1003A800020E0001986F020C7AC0DAF07BC0DBF015
:1003B800060EDC6F010EDD6F1BEC10F07EC0DAF06C
:1003C8007FC0DBF0060E0001DC6F020EDD6F1BEC58
:1003D80010F00001F25103E1E451D8B4120072ECBC
:1003E80020F0EC0ED56F7B0ED66FD76BD86BDFEC99
:1003F8001AF0DC0E0001D56F7B0ED66FD76B010E9D
:10040800D86FDFEC1AF0FC0E0001D56F7B0ED66FAB
:10041800D76B030ED86FDFEC1AF055D7F25122E0F4
:1004280072EC20F0FF0ED56F7A0ED66FD76BD86BB3
:10043800DFEC1AF0320E0001D56F7B0ED66FD76B4A
:10044800010ED86FDFEC1AF0FC0E0001D56F7B0EA1
:10045800D66FD76B030ED86FDFEC1AF0060E0001CB
:10046800986F060CE451D8B4120072EC20F0F70E25
:10047800D56F7F0ED66F0F0ED76FD86BDFEC1AF0E3
:10048800790E0001D56F7C0ED66FD76BD86BDFEC79
:100498001AF0880E0001D56F7C0ED66FD76B010E4F
:1004A800D86FDFEC1AF0970E0001D56F7C0ED66F6F
:1004B800D76B020ED86FDFEC1AF0A60E0001D56FCD
:1004C8007C0ED66FD76B030ED86FDFEC1AF00001E5
:1004D800F7510AE1F50ED56F7F0ED66F0E0ED76F66
:1004E800D86BDFEC1AF028D0F7050BE1F50ED56FC5
:1004F8007F0ED66F0E0ED76F010ED86FDFEC1AF095
:100508001BD0020EF7190BE1F50ED56F7F0ED66FD3
:100518000E0ED76F020ED86FDFEC1AF00DD0030E57
:10052800F7190AE1F50ED56F7F0ED66F0E0ED76F4D
:10053800030ED86FDFEC1AF0040E0001986F040C5C
:10054800F25101E1C0D2932B090E93659DD2936BB2
:100558009BD272EC20F0F70ED56F7F0ED66F0F0E80
:10056800D76FD86BDFEC1AF0790E0001D56F7C0ECF
:10057800D66FD76BD86BDFEC1AF0880E0001D56FF9
:100588007C0ED66FD76B010ED86FDFEC1AF0970E82
:100598000001D56F7C0ED66FD76B020ED86FDFECDB
:1005A8001AF0A60E0001D56F7C0ED66FD76B030E1E
:1005B800D86FDFEC1AF00001F75101E114D2F7050A
:1005C80001E1C2D0020EF71901E1CAD0030E80D0B2
:1005D80072EC20F0F70ED56F7F0ED66F0F0ED76F27
:1005E800D86BDFEC1AF0880E0001D56F7C0ED66F41
:1005F800D76BD86BDFEC1AF0970E0001D56F7C0E25
:10060800D66FD76B010ED86FDFEC1AF0A60E00017B
:10061800D56F7C0ED66FD76B020ED86FDFEC1AF051
:10062800B50E0001D56F7C0ED66FD76B030ED86F51
:10063800DFEC1AF00001F70501E1D5D1020EF71938
:1006480001E182D0030EF71901E18AD0040E40D0EF
:1006580072EC20F0F70ED56F7F0ED66F0F0ED76FA6
:10066800D86BDFEC1AF0970E0001D56F7C0ED66FB1
:10067800D76BD86BDFEC1AF0A60E0001D56F7C0E95
:10068800D66FD76B010ED86FDFEC1AF0B50E0001EC
:10069800D56F7C0ED66FD76B020ED86FDFEC1AF0D1
:1006A800C40E0001D56F7C0ED66FD76B030ED86FC2
:1006B800DFEC1AF0020E0001F71901E194D1030EE4
:1006C800F71901E141D0040EF71901E149D0050EEF
:1006D800F7194FD072EC20F0F70ED56F7F0ED66F5A
:1006E8000F0ED76FD86BDFEC1AF0A60E0001D56F8E
:1006F8007C0ED66FD76BD86BDFEC1AF0B50E000105
:10070800D56F7C0ED66FD76B010ED86FDFEC1AF061
:10071800C40E0001D56F7C0ED66FD76B020ED86F52
:10072800DFEC1AF0D30E0001D56F7C0ED66FD76BB5
:10073800030ED86FDFEC1AF0030E0001F71901E180
:1007480052D1040EF71909E1F50ED56F7F0ED66F59
:100758000E0ED76F010EADEF08F0050EF71907E181
:10076800F50ED56F7F0ED66F0E0ED76F44D0060EDE
:10077800AFD7D8A4120080D172EC20F0F70ED56F55
:100788007F0ED66F0F0ED76FD86BDFEC1AF0B50E51
:100798000001D56F7C0ED66FD76BD86BDFEC1AF0E3
:1007A800C40E0001D56F7C0ED66FD76B010ED86FC3
:1007B800DFEC1AF0D30E0001D56F7C0ED66FD76B25
:1007C800020ED86FDFEC1AF0E20E0001D56F7C0E36
:1007D800D66FD76B030ED86FDFEC1AF0040E00014A
:1007E800F71901E100D1050EF71901E1ADD7060EA1
:1007F800F71904E1B5D7020EADEF08F0070E68D778
:1008080072EC20F0F70ED56F7F0ED66F0F0ED76FF4
:10081800D86BDFEC1AF0C40E0001D56F7C0ED66FD2
:10082800D76BD86BDFEC1AF0D30E0001D56F7C0EB6
:10083800D66FD76B010ED86FDFEC1AF0E20E00010D
:10084800D56F7C0ED66FD76B020ED86FDFEC1AF01F
:10085800F10E0001D56F7C0ED66FD76B030ED86FE3
:10086800DFEC1AF0050E0001F71901E1BCD0060E05
:10087800F71901E169D7070EF71901E171D78E5110
:10088800D8B41200F9D072EC20F0F70ED56F7F0EB5
:10089800D66F0F0ED76FD86BDFEC1AF0D30E0001AE
:1008A800D56F7C0ED66FD76BD86BDFEC1AF0E20EE3
:1008B8000001D56F7C0ED66FD76B010ED86FDFECB9
:1008C8001AF0F10E0001D56F7C0ED66FD76B020EB1
:1008D800D86FDFEC1AF04C0E0001D56F7C0ED66F86
:1008E800D76B030ED86FDFEC1AF0060E0001F7196C
:1008F80001E179D0070EF71901E126D78E51D8B456
:1009080012002ED772EC20F0F70ED56F7F0ED66F3F
:100918000F0ED76FD86BDFEC1AF0E20E0001D56F1F
:100928007C0ED66FD76BD86BDFEC1AF0F10E000196
:10093800D56F7C0ED66FD76B010ED86FDFEC1AF02F
:100948004C0E0001D56F7C0ED66FD76B020ED86F98
:10095800DFEC1AF0790E0001D56F7C0ED66FD76BDD
:10096800030ED86FDFEC1AF0070E0001F71901E14A
:100978003AD08E5101E0E8D6F751FBD672EC20F060
:10098800F70ED56F7F0ED66F0F0ED76FD86BDFECD3
:100998001AF0F10E0001D56F7C0ED66FD76BD86BAD
:1009A800DFEC1AF04C0E0001D56F7C0ED66FD76BBA
:1009B800010ED86FDFEC1AF0790E0001D56F7C0EAE
:1009C800D66FD76B020ED86FDFEC1AF0880E0001D5
:1009D800D56F7C0ED66FD76B030ED86FDFEC1AF08D
:1009E80000018E5109E0F50ED56F7F0ED66F0E0E01
:1009F800D76FD86BDFEF1AF0F75101E1B1D6F705E1
:100A0800B8D672EC20F0F70ED56F7F0ED66F0F0EAA
:100A1800D76FD86BDFEC1AF04C0E0001D56F7C0E47
:100A2800D66FD76BD86BDFEC1AF0790E0001D56F53
:100A38007C0ED66FD76B010ED86FDFEC1AF0880EDC
:100A48000001D56F7C0ED66FD76B020ED86FDFEC26
:100A58001AF0970E0001D56F7C0ED66FD76B030E78
:100A6800D86FDFEC1AF00001F75101E16DD6F705F8
:100A780001E176D6020E2CD6F50ED56F7F0ED66F15
:100A88000E0ED76F030E65D3935101E162D5010AAB
:100A980001E19ED5030A01E1DBD5010A01E11AD67D
:100AA800070A01E169D6010A01E1AAD6030A01E1B0
:100AB800EAD6010A01E126D70F0A01E15FD7010A48
:100AC800D8A412009ED7E451D8B41200090E931985
:100AD80021E172EC20F0936BCC0ED56F7A0ED66FB5
:100AE800D76BD86BDFEC1AF0BB0E0001D56F7A0E0E
:100AF800D66FD76B010ED86FDFEC1AF0FC0E000131
:100B0800D56F7B0ED66FD76B030ED86FDFEC1AF05C
:100B18008BEF01F0080E93191BE18E510CE0590E72
:100B2800D56F7C0ED66F0E0ED76FD86BDFEC1AF030
:100B380000018E6B16D0F50ED56F7F0ED66F0E0E98
:100B4800D76FD86BDFEC1AF0010E00018E6F09D059
:100B5800F50ED56F7F0ED66F0E0ED76FD86BDFEC04
:100B68001AF0590E0001D56F7C0ED66F0E0ED76F96
:100B7800010ED86FDFEC1AF0590E0001D56F7C0E0C
:100B8800D66F0E0ED76F020ED86FDFEC1AF0590E23
:100B98000001D56F7C0ED66F0E0ED76F030ED86F7F
:100BA800DFEC1AF000018E510BEC21F0000193519B
:100BB80007EC21F095EC10F0070E8D6F070CF25141
:100BC80022E072EC20F0EE0ED56F7A0ED66FD76B5E
:100BD800D86BDFEC1AF0DD0E0001D56F7A0ED66FF8
:100BE800D76B010ED86FDFEC1AF0FC0E0001D56F41
:100BF8007B0ED66FD76B030ED86FDFEC1AF00A0E98
:100C08000001986F0A0CE451D8B412009A6B72EC88
:100C180020F0980ED56F7B0ED66FD76BD86BDFECB4
:100C28001AF0740E0001D56F7D0ED66FD76B010ECA
:100C3800D86FDFEC1AF0860E0001D56F7A0ED66FEA
:100C4800D76B030ED86FDFEC1AF089EC1DF003ECBC
:100C580021F0976F975103E1050E976F05D0DF0ECE
:100C6800976502D0CE0E97270C0EDA6F010EDB6F58
:100C78009751D2EC1BF00001CC6B975144EC1BF060
:100C8800200EA16F7AC0CFF07BC0D0F0040ED16FD8
:100C980016EC0EF0090ECC6F7E5144EC1BF000F000
:100CA800070E0001986F070CF2510AE03C0EC96F5D
:100CB8007D0ECA6F9E0ECB6F0C0ECC6F67EC17F0D3
:100CC8000001E4510AE0670EC96F7E0ECA6F9E0EDE
:100CD800CB6F0C0ECC6F67EC17F00001F25103E1FB
:100CE800E451D8B4120072EC20F05B0ED56F7E0E82
:100CF800D66FD76BD86BDFEC1AF0810E0001D56F79
:100D08007D0ED66FD76B010ED86FDFEC1AF07AC064
:100D1800DAF07BC0DBF0030E0001DC6F020EDD6F42
:100D28001BEC10F00C0E0001DA6F020EDB6F7E5127
:100D3800D2EC1BF04F0E0001D56F7E0ED66FD76B2D
:100D4800010ED86FDFEC1AF00C0E0001DA6F010EFD
:100D5800DB6F9751D2EC1BF0899C080E0001986F4D
:100D6800080CE55101E1FFD0800EC86F010EC96F74
:100D7800F20ECA6F7F0ECB6FC8EC18F0C851C911BC
:100D880003E1898C080E986F800EC86F010EC96F39
:100D9800E10ECA6F7F0ECB6FCD6B060ECC6FABEC3E
:100DA8001AF0C851C91101E08AD0070EF16F800E00
:100DB800F125D96EDA6A010EDA22DF50C36FF12B02
:100DC800800EF125D96EDA6A010EDA22DF50C46F7F
:100DD800F12B200EC4190DE0800EF125D96EDA6AC8
:100DE800010EDA22DF50C56FF12B200EC51901E084
:100DF800F12BEF6B0F0EEF6501D023D0800EF1259C
:100E0800D96EDA6A010EDA22DF506FEC1FF0ED6F4F
:100E1800F12B800EF125D96EDA6A010EDA22DF5045
:100E28006FEC1FF0EE6FF12BC00EEF25D96EDA6A6A
:100E3800010EDA22ED51100DF350EE25DF6EEF2B87
:100E4800D9D7F12BF12BF06B070EF06501D021D02B
:100E5800800EF125D96EDA6A010EDA22DF506FECC6
:100E68001FF0ED6FF12B800EF125D96EDA6A010EB5
:100E7800DA22DF506FEC1FF0EE6FF12BF051B40F58
:100E8800D96EDA6AED51100DF350EE25DF6EF02BB6
:100E9800DBD7898E899C210ED56F7B0ED66FD76BD9
:100EA800020ED86FDFEC1AF0AA0E0001D56F7A0E89
:100EB800D66FD76B030ED86FDFEC1AF04ED0800ECA
:100EC800C86F010EC96FE80ECA6F7F0ECB6FCD6B6E
:100ED800060ECC6FABEC1AF0C851C9110BE1899C16
:100EE800760ED56F7B0ED66FD76B030ED86FDFECFF
:100EF8001AF033D0800EC86F010EC96FDA0ECA6FB0
:100F08007F0ECB6FCD6B060ECC6FABEC1AF0C851D1
:100F1800C9110AE1980ED56F7A0ED66FD76B030EFA
:100F2800D86FDFEC1AF019D0800EC86F010EC96FA8
:100F3800D30ECA6F7F0ECB6FCD6B060ECC6FABECAA
:100F48001AF0C851C91109E12C0ED56F7C0ED66F65
:100F5800D76B030ED86FDFEC1AF00001C96B140EC3
:100F6800C86F97EC1FF0F25103E1E451D8B41200B6
:100F780072EC20F0FF0ED56F7A0ED66FD76BD86B58
:100F8800DFEC1AF0320E0001D56F7B0ED66FD76BEF
:100F9800010ED86FDFEC1AF0FC0E0001D56F7B0E46
:100FA800D66FD76B030ED86FDFEC1AF032EF02F072
:100FB800F2512EE072EC20F0430ED56F7B0ED66F07
:100FC800D76BD86BDFEC1AF00001F9510AE05B0E21
:100FD800D56F7C0ED66FD76B020ED86FDFEC1AF088
:100FE80009D06A0ED56F7C0ED66FD76B020ED86FFC
:100FF800DFEC1AF0FC0E0001D56F7B0ED66FD76BB5
:10100800030ED86FDFEC1AF00C0E0001986F0C0C71
:10101800E451D8B4120072EC20F0899ECB0ED56F43
:101028007B0ED66FD76BD86BDFEC1AF0F10E000190
:10103800D56F7E0ED66FD76B010ED86FDFEC1AF026
:10104800C30E0001D56FD66B090ED76F010ED86F8E
:10105800DFEC1AF0600E0001D56F7E0ED66FD76BED
:10106800020ED86FDFEC1AF0B40E0001D56FD66B04
:10107800060ED76F020ED86FDFEC1AF0590E00017A
:10108800D56F7C0ED66F0B0ED76F020ED86FDFECC4
:101098001AF0B90E0001D56FD66B0C0ED76F020E81
:1010A800D86FDFEC1AF0C00E0001D56F010ED66FB5
:1010B800D76B030ED86FDFEC1AF00B0E0001986F98
:1010C8000B0CF25103E1E451D8B4120072EC20F099
:1010D800EE0ED56F7A0ED66FD76BD86BDFEC1AF0A1
:1010E800DD0E0001D56F7A0ED66FD76B010ED86F63
:1010F800DFEC1AF0FC0E0001D56F7B0ED66FD76BB4
:10110800030ED86FDFEC1AF07AD5F25118E072ECC2
:1011180020F0870ED56F7B0ED66FD76BD86BDFECC0
:101128001AF00C0E0001D56F7C0ED66FD76B030E2C
:10113800D86FDFEC1AF00E0E0001986F0E0CE45118
:10114800D8B41200F95108E0F96B6A0ED56F7C0E1D
:1011580008D0D86FDFEF1AF0010EF96F5B0ED56F6C
:101168007C0ED66FD76BFFEF03F0E45109E00AEC71
:1011780019F0000903E0010EF26F02D0090E996F11
:10118800F251D8B4120072EC20F0EC0ED56F7B0E41
:10119800D66FD76BD86BDFEC1AF0DC0E0001D56F79
:1011A8007B0ED66FD76B010ED86FDFEC1AF0FC0EF2
:1011B8000001D56F7B0ED66FD76B030ED86FDFECAF
:1011C8001AF067EF01F0985102E144EF01F0010ACB
:1011D80002E16BEF01F0030A02E1D8EF01F0010A26
:1011E80002E112EF02F0070A02E1A4EF02F0020A9C
:1011F80001E1E5D4010A01E157D50F0A01E1B1D5B2
:10120800020A01E1D5D6010A01E15BD7070A01E12B
:101218007CD7020AAAE043EF01F00001DD6FDB6B27
:10122800DA5101E160D20C0E8D6F82A2FED75BD23B
:10123800FFD78B0EC96F7E0ECA6F30EC1FF000010E
:10124800C96B320EC86F97EC1FF0010E20D0DD512C
:1012580001E16DD2800EC86F010EC96FEF0ECA6F23
:101268007F0ECB6FCD6B020ECC6FABEC1AF0C85172
:10127800C9110FE1F60EC96F7D0ECA6F30EC1FF071
:101288000001C96B320EC86F97EC1FF0020E000107
:101298000ED200018D6B4BD2DD5101E148D2800E98
:1012A800C86F010EC96FF20ECA6F7F0ECB6FC8EC04
:1012B80018F0C851C91102E1030EF9D1800EC86FA8
:1012C800010EC96F660ECA6F7D0ECB6FC8EC18F0A1
:1012D800C851C91141E172EC20F05A0ED56F7F0E4A
:1012E800D66F010ED76FD86BDFEC1AF09F0E000196
:1012F800D56F7F0ED66F020ED76F010ED86FDFEC59
:101308001AF0010E0001C96FF40EC86F97EC1FF0B8
:1013180072EC20F0730ED56F7E0ED66F010ED76F6C
:10132800D86BDFEC1AF0140E0001D56F7F0ED66F64
:10133800020ED76F010ED86FDFEC1AF00001C96BEF
:10134800C80EC86F97EC1FF04A0EC96F7D0ECA6FA2
:1013580030EC1FF0040E9BD7F60EC96F7D0ECA6FD6
:1013680030EC1FF093D7DD5101E1E1D1800EC86F59
:10137800010EC96F3F0ECA6F7F0ECB6FC8EC18F015
:10138800C851C9111CE172EC20F0FB0ED56F7E0E1E
:10139800D66FD76BD86BDFEC1AF0C50E0001D56F8E
:1013A8007E0ED66FD76B010ED86FDFEC1AF00001F6
:1013B800C96BFA0EC86F97EC1FF0060E78D1800E35
:1013C800C86F010EC96FCC0ECA6F7F0ECB6FC8EC09
:1013D80018F0C851C91107E1F60EC96F7D0ECA6F22
:1013E80030EC1FF053D7190EC96F7F0ECA6F30EC5F
:1013F8001FF02BD7DD5101E19AD1800EC86F010E85
:10140800C96FF20ECA6F7F0ECB6FC8EC18F0C851C7
:10141800C91102E1050E4BD1800EC86F010EC96FCC
:10142800660ECA6F7D0ECB6FC8EC18F0C851C91193
:1014380016E172EC20F0DB0ED56F7E0ED66FD76BFF
:10144800D86BDFEC1AF0360E0001D56F7F0ED66F21
:10145800D76B010ED86FDFEC1AF00B0E18D7800E81
:10146800C86F010EC96F580ECA6F7D0ECB6FC8ECDE
:1014780018F0C851C91107E14A0EC96F7D0ECA6F2D
:1014880030EC1FF003D7800EC86F010EC96FBA0E7B
:10149800CA6F7E0ECB6FC8EC18F0C851C91101E1B4
:1014A800F8D645D1DD5101E142D1800EC86F010E59
:1014B800C96F3F0ECA6F7F0ECB6FC8EC18F0C851CA
:1014C800C9111CE172EC20F0AF0ED56F7E0ED66FFD
:1014D800D76BD86BDFEC1AF0C50E0001D56F7E0E06
:1014E800D66FD76B010ED86FDFEC1AF0010E000132
:1014F800C96FF40EC86F97EC1FF05FD7800EC86FE6
:10150800010EC96FCC0ECA6F7F0ECB6FC8EC18F0F6
:10151800C851C91124E172EC20F00F0ED56F7F0E6F
:10152800D66F010ED76FD86BDFEC1AF0C50E00012D
:10153800D56F7F0ED66F020ED76F010ED86FDFEC16
:101548001AF04A0E0001C96F7D0ECA6F30EC1FF009
:101558000001C96B640EC86F97EC1FF0FBD6800EB4
:10156800C86F010EC96FBA0ECA6F7E0ECB6FC8EC7A
:1015780018F0C851C91101E0DAD072EC20F08F0ED2
:10158800D56F7F0ED66F010ED76FD86BDFEC1AF0D0
:10159800970E0001D56F7F0ED66F020ED76F010E22
:1015A800D86FDFEC1AF075D67F0EC96F7E0ECA6F42
:1015B80030EC1FF00001C96B640EC86F97EC1FF088
:1015C800080E75D0DD5101E1B2D0800EC86F010E52
:1015D800C96F0C0ECA6F7D0ECB6FCD6B020ECC6F30
:1015E800ABEC1AF0C851C9110CE1010E0BEC21F05B
:1015F800D00E0001C96F7E0ECA6F30EC1FF0070EC7
:1016080046D6800EC86F010EC96F280ECA6F7C0EB1
:10161800CB6FCD6B020ECC6FABEC1AF0C851C91171
:1016280001E0CBD6000E0BEC21F0D00E0001C96F03
:101638007E0ECA6F30EC1FF0E2D7DD5178E0800EE5
:10164800C86F010EC96F580ECA6F7D0ECB6FC8ECFC
:1016580018F0C851C91107E1D00EC96F7E0ECA6FC4
:1016680030EC1FF0CCD701018051D00F0001DC6FA6
:10167800060EDC6502D0020EDC6FDC5107EC21F0AF
:1016880095EC10F0090E13D0DD5151E0800EC86FB3
:10169800010EC96FF20ECA6F7F0ECB6FCD6B020EB3
:1016A800CC6FABEC1AF0C851C91103E10A0E8D6F6B
:1016B8003ED0D00EC96F7E0ECA6F30EC1FF09FD798
:1016C800010EDB6F34D0000EC86B06EC1EF082B042
:1016D80002D082A2FCD70001C96B280EC86F97EC14
:1016E8001FF0FF0024D000018D5101E1A2D5010AAD
:1016F80001E1ADD5030A01E1CFD5010A01E133D6F5
:10170800070A01E177D6010A01E1CCD6030A01E113
:101718004BD7010A92E00F0A01E154D7010AB4E05D
:10172800030ACEE0010A03E0070ACDE081D50001F3
:10173800DB511200040132050BE130511F0B08E1A7
:101748000C8E030E311903E1010E1D6E01D01D6AC6
:101758003251D8A4120030511F0B020AD8A412002B
:1017680034510F0BD8B4120034510F0B436E030ED3
:101778004360030C200E00018A19D8A412000C8EB5
:10178800040134BF11D034510F0B020DF350600F18
:10179800D96EDA6ADECF48F0DDCF49F034510F0B4D
:1017A800436E43506D0F10D034510F0B020DF350A0
:1017B8000F0FD96EDA6ADECF48F0DDCF49F0345129
:1017C8000F0B436E43506A0FD96EDA6ADF50476ECB
:1017D80047B002D0489401D0488434BF06D0345171
:1017E8000F0B020DF350600F05D034510F0B020D93
:1017F800F3500F0FD96EDA6A48C0DEFF49C0DDFF2B
:10180800030E311923E148C0D9FF49C0DAFFDFAE22
:1018180011D034BF06D034510F0B436E43506D0FB7
:1018280005D034510F0B436E43506A0FD96EDA6AF4
:101838000001DF8248C0D9FF49C0DAFF000EDB840F
:1018480048C0D9FF49C0DAFFDB8E000C040E481AE5
:1018580048C0D9FF49C0DAFFDFAE19D048C0D9FF68
:1018680049C0DAFF7F0EDF1648C0D9FF49C0DAFF4A
:10187800000EDB8C3C6A050E3B6E48C03DF049C04B
:101888003EF0406A020E3F6E41EC1DF006D048C0A3
:10189800D9FF49C0DAFF000EDB8C040E481A47B2A4
:1018A80006D048C0D9FF49C0DAFFDFAE25D0040111
:1018B80034BF06D034510F0B436E43506D0F05D023
:1018C80034510F0B436E43506A0FD96EDA6A000128
:1018D800DF9248C0D9FF49C0DAFF3B0EDF163C6AE9
:1018E800050E3B6E48C03DF049C03EF0406A020E0E
:1018F8003F6E41EC1DF006D048C0D9FF49C0DAFF61
:101908003B0EDF16040134510F0B436E446A6A0E16
:101918004324456E0F0E4420466E45C0D9FF46C08D
:10192800DAFFFE0EDF16FE0C0101D86BD96BDC6BFB
:1019380080A003D0040E0001F86F00018FA107D02A
:1019480020EC21F07EEC11F08F51DDEC20F0D1EC91
:101958001CF00101DD6FDD0506E10001996B010E48
:101968000101D96F08D0020EDD1905E10001996B5C
:10197800010E0101DC6FF7EC1CF0000904E0010E18
:101988000101E06F02D00101E06B060E0001981919
:1019980003E0020E981946E1040E946543D0010154
:1019A800DA6BDB6B0001C96B0A0EC86F97EC1FF08E
:1019B800200E0101DE6F030EE9EC1DF07A51C827F5
:1019C8007B51C923D890C931F36FC8317A6FF3C0FE
:1019D8007BF00101DE07DE51EEE10001C96B0A0E62
:1019E800C86F97EC1FF0200E0101DF6F020EE9ECC3
:1019F8001DF00101DA510001C8270101DB51000186
:101A0800C923D890C931F36FC8310101DA6FF3C027
:101A1800DBF1DF07DF51EAE1DA51F7EC1FF07E6F07
:101A28007F6B946B995164E0090E996561D0010E42
:101A38000101D86F0001996B5BD0FFD772EC20F0E1
:101A4800050ED56F7F0ED66F010ED76FD86BDFEC02
:101A58001AF0510E0001D56F7F0ED66F020ED76FA8
:101A6800010ED86FDFEC1AF0540E0001D56F7B0E13
:101A7800D66FD76B030ED86FDFEC1AF000018D6BB1
:101A8800020E29D0DCC1DAF00101E05111EC09F0B5
:101A9800000937E072EC20F0A90ED56F7B0ED66FE7
:101AA800D76BD86BDFEC1AF0BA0E0001D56F7B0E3E
:101AB800D66FD76B020ED86FDFEC1AF0100E00014C
:101AC800D56F7B0ED66FD76B030ED86FDFEC1AF08D
:101AD8000001986B030EF86F14D0DCC1E4F0E0C18C
:101AE800E5F0D8C1E6F00101D95157EC00F009D072
:101AF800F851010AA3E0030AC5E0010AEEE0070A6B
:101B08009CE10001F851120020EE01F01550D92691
:101B18001650DA22DF50406E4050055C000E065821
:101B280002E205C040F04050055E000E065A3F6ACA
:101B38000DD0380E3F24D96EDA6A040EDA2201502D
:101B4800E16EE26ADFCFE7FF012A3F2A40503F5C9F
:101B5800F0E30550061032E020EE01F01750D926C8
:101B68001850DA22080EDF6E20EE02F01750D92640
:101B78001850DA22380EDE6E040EDD6E15C0D9FF5D
:101B880016C0DAFFDFBC0DD017C0D9FF18C0DAFFC6
:101B9800480EDF6E17C0D9FF18C0DAFF000EDB8EC3
:101BA800000C17C0D9FF18C0DAFF080EDF6E17C087
:101BB800D9FF18C0DAFF000EDB8E000C20EE01F012
:101BC8001750D9261850DA22080EDF6E20EE02F0E0
:101BD8001750D9261850DA22300EDE6E040EDD6E4C
:101BE80017C0D9FF18C0DAFFDF6E17C0D9FF18C0B9
:101BF800DAFF000EDB8E075008100EE020EE07F02B
:101C080001D80AD00500FA6EDE50FD6EDE50FE6E79
:101C1800F850FF6EFA501200049E1E50D8B461ECC2
:101C280014F01200D151A20FD96EDA6ACFC0C8F0F1
:101C3800D0C0C9F0CB6B0A0ECA6FABEC1DF0C8510F
:101C4800300FDF6ECFC0C8F0D0C0C9F0CB6B0A0E22
:101C5800CA6F1CEC1DF0C8C0CFF0C9C0D0F0D1517C
:101C6800A10FD96EDA6ACFC0C8F0D0C0C9F0CB6B6B
:101C78000A0ECA6FABEC1DF0C851300FDF6ECFC033
:101C8800C8F0D0C0C9F0CB6B0A0ECA6F1CEC1DF0AF
:101C9800C8C0CFF0C9C0D0F0D151A00FD96EDA6A50
:101CA800CFC0C8F0D0C0C9F0CB6B0A0ECA6FABEC7E
:101CB8001DF0C851300FDF6ECFC0C8F0D0C0C9F0DA
:101CC800CB6B0A0ECA6F1CEC1DF0C8C0CFF0C9C0A0
:101CD800D0F0D1519F0FD96EDA6ACFC0C8F0D0C00A
:101CE800C9F0CB6B0A0ECA6FABEC1DF0C851300FB0
:101CF800DF6ECFC0C8F0D0C0C9F0CB6B0A0ECA6F78
:101D08001CEC1DF0C8C0CFF0C9C0D0F0D1519E0F57
:101D1800D96EDA6ACFC0C8F0D0C0C9F0CB6B0A0E52
:101D2800CA6FABEC1DF0C851300FDF6E1200800E89
:101D380004013019D8A41200C00E0C6E71D0F40E34
:101D4800096E790E0A6E0E6A120E0D6E120C325161
:101D58003DE13251020D470EF324F66E760EF42063
:101D6800F76E0900F5CF09F00A00F5CF0AF0020E68
:101D780009242E6E000E0A202F6E2EC0F6FF2FC0EB
:101D8800F7FFF86A070EF76403D00800F55005D08E
:101D9800F6CFE1FFF7CFE2FFE7500D6E030E0924FF
:101DA8002E6E000E0A202F6E2EC0F6FF2FC0F7FFF2
:101DB800F86A070EF76403D00800F55005D0F6CF8F
:101DC800E1FFF7CFE2FFE7500E6E12000C6A120037
:101DD800030E326121D03251020D410EF324F66E0A
:101DE800760EF420F76E0900F5CF09F00A00F5CF5A
:101DF8000AF009C0F6FF0AC0F7FFF86A070EF76491
:101E080003D00800F55005D0F6CFE1FFF7CFE2FF89
:101E1800E7500D6E0E6A12000C6A12000C6A12006E
:101E28003351010A8CE0030A92E0010AD1E0F6D7A7
:101E3800A39400017651771109E076C0D9FF77C0E5
:101E4800DAFF010EDFAE000ECF6F01D0CF6BD06B83
:101E5800CF51D01102E0A3841200030E201801E133
:101E6800206A205002E1A3841200020E201810E11B
:101E7800010EC86F000EC96FCA6FCB6F020E79ECE6
:101E880016F0C8C076F0C9C077F0030E206E4ED0A9
:101E980020044CE1400E926502D0D26F02D092C06D
:101EA800D2F0D251925F000E706F050E716FD2C0E2
:101EB800D1F0905110E021D073C0D9FF74C0DAFF7F
:101EC80070C0E1FF71C0E2FFDFCFE7FF704B712BFD
:101ED800734B742BD107D15112E0EED773C0D9FFE1
:101EE80074C0DAFF70C0E1FF71C0E2FFDFCFE7FF27
:101EF800704B712B734B742BD107D151EFE1925179
:101F080006E1400ED219020ED8A4030E206E010E6F
:101F1800C86F000EC96F050ECA6FD2C0CBF0020E93
:101F280079EC16F0C8C076F0C9C077F0A384120027
:101F380000018A0507E160BA05D0656A6480648893
:101F4800020E8A6F65B464A403D0659408EC20F08F
:101F580060A202D0A494120065B064A006D059EC27
:101F680012F0A384040E8A6F659065B864A803D044
:101F780047EC20F0659865AC14D064AC0AD03C6A94
:101F8800730E3B6E3D6A3E6A406A010E3F6E41EC3D
:101F98001DF0659C1F5001E01F061F5002E161EC17
:101FA80014F065BA64AA02D0CAEC1DF065B264A246
:101FB8000BD07F0E3C6E3B683D6A3E6A406A010E5C
:101FC8003F6E41EC1DF0676A040E00018A6102D081
:101FD800A494040C64A629D04E6A65A626D061CFC5
:101FE8002DF02D30E832E8320F0B226E65962DB4B5
:101FF80003D022506D0F02D022506A0FD96EDA6AD0
:102008000001DF70225003E175EC15F00AD03C6A3C
:10201800720E3B6E2D0E3D6E3E6A406A3F6A41EC81
:102028001DF04E2A030E4E64D8D7A4941200DAC0CD
:10203800C8F0DBC0C9F0CB6B0A0ECA6FABEC1DF061
:10204800C851300FE26FDAC0C8F0DBC0C9F0CB6B03
:102058000A0ECA6F1CEC1DF0C8C0DAF0C9C0DBF06C
:10206800DAC0C8F0DBC0C9F0CB6B0A0ECA6FABECA4
:102078001DF0C851300FE16FDAC0C8F0DBC0C9F0FD
:10208800CB6B0A0ECA6F1CEC1DF0C8C0DAF0C9C0D1
:10209800DBF0DAC0C8F0DBC0C9F0CB6B0A0ECA6F40
:1020A800ABEC1DF0C851300FE06FDAC0C8F0DBC0F0
:1020B800C9F0CB6B0A0ECA6F1CEC1DF0C8C0DAF071
:1020C800C9C0DBF0DAC0C8F0DBC0C9F0CB6B0A0EC0
:1020D800CA6FABEC1DF0C851300FDF6FDAC0C8F023
:1020E800DBC0C9F0CB6B0A0ECA6F1CEC1DF0C8C070
:1020F800DAF0C9C0DBF0DAC0C8F0DBC0C9F0CB6BDE
:102108000A0ECA6FABEC1DF0C851300FDE6FE36BDF
:10211800DE0ED56FD66BDCC0D7F0DDC0D8F0DFEFB0
:102128001AF00001C96B640EC86F97EC1FF08E514E
:102138000DE0000EC96F7D0ECA6F30EC1FF0000174
:10214800C96B640EC86F97EC1FF03FD01C0EC96FA7
:102158007C0ECA6F30EC1FF0F2D78E0EC96F7D0E61
:10216800CA6F30EC1FF041D09B0EC96F7D0ECA6F4D
:1021780030EC1FF03AD0A80EC96F7D0ECA6F30EC54
:102188001FF033D0B50EC96F7D0ECA6F30EC1FF04B
:102198002CD0C20EC96F7D0ECA6F30EC1FF025D04F
:1021A800CF0EC96F7D0ECA6F30EC1FF01ED0DC0E4B
:1021B800C96F7D0ECA6F30EC1FF017D0E90EC96FDA
:1021C8007D0ECA6F30EC1FF010D0F751C6E0010A3F
:1021D800CBE0030AD0E0010AD5E0070ADAE0010AF9
:1021E800DFE0030AE4E0010AE9E00001C96B640EDC
:1021F800C86F97EC1FF0480EC96F7F0ECA6F30EC9E
:102208001FF0010E0001C96F2C0EC86F97EF1FF069
:1022180060980CBE37D004AE0AD0020E216E0001C1
:10222800895102E1F9EC17F08C6B8B6B120020EEF0
:1022380001F01750D9261850DA22080EDF6E20EE6A
:1022480002F01750D9261850DA22300EDE6E040E2E
:10225800DD6E17C0D9FF18C0DAFF0C0EDF6E17C08D
:10226800D9FF18C0DAFF000EDB8E0FC0D9FF10C0EF
:10227800DAFF040EDF6E0FC0D9FF10C0DAFF000EC0
:10228800DB8E000C040130AF0ED0010E216E000170
:10229800885102E1F9EC17F08C6B8B6B1E50D8A4B7
:1022A800120061EF14F0020E216E20EE01F01750BB
:1022B800D9261850DA22080EDF6E20EE02F01750E9
:1022C800D9261850DA22300EDE6E040EDD6E17C0E5
:1022D800D9FF18C0DAFFDF6E17C0D9FF18C0DAFFC0
:1022E800000EDB8E00018C6B8B6B1E5002E161EFE0
:1022F80014F01200844B852B84C0C8F085C0C9F047
:10230800CB6B0A0ECA6FABEC1DF0C851C911D8A42B
:1023180012008F8384C0C8F085C0C9F0CB6B640EEF
:10232800CA6FABEC1DF0C851C911D8A412008F8533
:1023380084C0C8F085C0C9F0030ECB6FE80ECA6F21
:10234800ABEC1DF0C851C911D8A412008F8784C006
:10235800C8F085C0C9F0EA0ECB6F600ECA6FABEC4F
:102368001DF0C851C911D8A41200824B832B8F8944
:1023780082C0C8F083C0C9F0CB6B3C0ECA6FABEC0F
:102388001DF0C851C911D8A412008F8B82C0C8F0A3
:1023980083C0C9F0020ECB6FD00ECA6FABEC1DF034
:1023A800C851C911D8A412008F8D82C0C8F083C04B
:1023B800C9F0050ECB6FA00ECA6FABEC1DF0C8516B
:1023C800C911D8A412008F8F846B856B826B836BC5
:1023D80012008A888A8A8A84500EE82EFED78A9448
:1023E800040E0001CA6F1C0EE82EFED7CA2FFCD7B8
:1023F80000D08A848A98040E0001CA6F1C0EE82E49
:10240800FED7CA2FFCD700D08A9A040E0001CA6FE3
:102418001C0EE82EFED7CA2FFCD700D0AE0EF7EC64
:1024280020F0D50EF7EC20F0800EF7EC20F0A80E87
:10243800F7EC20F01F0EF7EC20F0D30EF7EC20F0AD
:10244800000EF7EC20F08D0EF7EC20F0140EF7ECF0
:1024580020F0400EF7EC20F0A60EF7EC20F0A40ECA
:10246800F7EC20F0A00EF7EC20F0C00EF7EC20F00F
:10247800DA0EF7EC20F0420EF7EC20F0810EF7ECC4
:1024880020F07F0EF7EC20F0D90EF7EC20F0F10EDB
:10249800F7EC20F0DB0EF7EC20F0400EF7EC20F024
:1024A800AF0EF7EC20F08A881200A394676A656A79
:1024B8006A6A6B0E2E6E0F0E2F6E316A306A336A9F
:1024C800020E326E5AEC1FF0160E626E9F0E666E8A
:1024D8007B0E646E366A3650040D000EF324D96EF6
:1024E800040EF420DA6EDE6ADE6ADE6ADD6A362AF7
:1024F8000B0E3664F0D7608C636A6098609C05D0D8
:1025080065960C6A046A056A066A65B6F9D7010E0B
:1025180000018B6F8C6F886B896B876B366A3650BE
:10252800020DF3500F0FD96EDA6ADE6ADD6A365093
:10253800020DF350600FD96EDA6ADE6ADD6A365032
:102548006A0FD96EDA6ADF6A36506D0FD96EDA6AA9
:10255800DF6A362A020E3664E2D7080E0F6E040EC2
:10256800106E160E6A6E040E0401036F300E026FB1
:10257800080E016F040E006F008F2C6A00018A6B31
:102588001200A394676A656A6A6A6B0EC86F0F0EB9
:10259800C96FCB6BCA6BCD6B020ECC6F45EC1FF0CD
:1025A800160E626E9F0E666E7B0E646ED06BD051F7
:1025B800040D000EF324D96E040EF420DA6EDE6AE0
:1025C800DE6ADE6ADD6AD02B0B0ED065F0D7608C30
:1025D800636A6098609C05D065960C6A046A056A0F
:1025E800066A65B6F9D7010E8B6F8C6F886B896B9D
:1025F800876BD06BD051020DF3500F0FD96EDA6A8A
:10260800DE6ADD6AD051020DF350600FD96EDA6AC6
:10261800DE6ADD6AD0516A0FD96EDA6ADF6AD05194
:102628006D0FD96EDA6ADF6AD02B020ED065E2D759
:10263800080E0F6E040E106E160E6A6E040E04015C
:10264800036F300E026F080E016F040E006F008FCB
:102658002C6A00018A6B120019EC20F0E6EC1FF0DE
:10266800C5EC12F0D8EC1EF0F28CF28E010EC96F98
:102678002C0EC86F97EC1FF012EC1BF0010EC96FFF
:102688002C0EC86F97EC1FF0000EA8EC20F000018C
:10269800966F550E961907E023EC1EF0550EC86F7D
:1026A800000E06EC1EF00001956B000E0FEC21F0F9
:1026B80072EC20F02D0ED56F7D0ED66FD76BD86BD0
:1026C800DFEC1AF01E0E0001D56F7D0ED66FD76BAA
:1026D800010ED86FDFEC1AF00F0E0001D56F7D0EDA
:1026E800D66FD76B030ED86FDFEC1AF0020E00011D
:1026F800C96FBC0EC86F97EC1FF011D0FFD7C6EC9E
:1027080019F0010E0001956F13EC21F008D098EC38
:102718000CF0040A04E1956B000E0FEC21F00001A7
:102728009551EDE0010AF3E0E9D70FC0D9FF10C0D9
:10273800DAFF000EDFBC010E3F6E040E0F1A080E02
:102748008A190AE1040132517F0B636E6350100E3F
:10275800D8B4040E00018A6F210438E120EE02F09B
:102768000F50D9261050DA22380EDE6E040EDD6EB8
:1027780000EC14F0020E2B180DE10FC0D9FF10C0A9
:10278800DAFF040EDF6E0FC0D9FF10C0DAFF000EAB
:10279800DB8E000C3F500DE10FC0D9FF10C0DAFFEF
:1027A800480EDF6E0FC0D9FF10C0DAFF000EDB8EB7
:1027B800000C0FC0D9FF10C0DAFF080EDF6E0FC083
:1027C800D9FF10C0DAFF000EDB8E000C04AE12D069
:1027D800075008100EE020EE07F001D80AD00500D7
:1027E800FA6EDE50FD6EDE50FE6EF850FF6EFA5047
:1027F8001200049E216A1200080E2E6E0E500DE182
:10280800080E0D5C0AE20DC02EF02B5002E1010EFD
:1028180003D02B0402E1020E2B6E2E500D5E000E2B
:102828000E5A20EE01F00F50D9261050DA222EC091
:10283800DFFF380E00017C6F040E7D6F0CB03AD0BC
:102848001BD009C0F6FF0AC0F7FFF86A7CC0D9FFA1
:102858007DC0DAFF070EF76403D00800F55005D0F5
:10286800F6CFE1FFF7CFE2FFE750DF6E094A0A2A09
:1028780000017C4B7D2B2E062E50E3E1120009C08F
:10288800F6FF0AC0F7FFF86A7CC0D9FF7DC0DAFFFF
:10289800070EF76403D00800F55005D0F6CFE1FF26
:1028A800F7CFE2FFE750DF6E094A0A2A00017C4BA6
:1028B8007D2B2E062E50E3E1120000018B51D8A487
:1028C8001200010E8B6F8C51D8A41200010E8C6F70
:1028D800020E211814E120EE01F00F50D9261050F5
:1028E800DA22DF6A0FC0D9FF10C0DAFF480EDF6EA8
:1028F8000FC0D9FF10C0DAFF000EDB8E000C2104D8
:10290800D8A41200866B20EE01F01550D926165077
:10291800DA22080EDF6E20EE02F01550D926165086
:10292800DA22300EDE6E040EDD6E15C0D9FF16C039
:10293800DAFFDF6E15C0D9FF16C0DAFF000EDB8E96
:10294800010E866F20EE01F01750D9261850DA22B2
:10295800080EDF6E20EE02F01750D9261850DA2242
:10296800300EDE6E040EDD6E17C0D9FF18C0DAFF18
:10297800800EDF6E800C72EC20F07E0ED56F7F0E1D
:10298800D66FD76BD86BDFEC1AF0A70E0001D56FA6
:102998007F0ED66FD76B010ED86FDFEC1AF00E0ED4
:1029A8000001CB6F010ECC6F430E01EC1AF0AF0E95
:1029B800D56F7F0ED66FD76B020ED86FDFEC1AF08B
:1029C8000001E96BC96B320EC86F97EC1FF0020E5D
:1029D800E9EC1DF0C8C0E6F0C9C0E7F0E651F7EC35
:1029E8001FF0E86FC96B320EC86F97EC1FF0030E2B
:1029F800E9EC1DF0C8C0E4F0C9C0E5F00A0EDA6FD2
:102A0800010EDB6FE851D2EC1BF0E4C0DAF0E5C050
:102A1800DBF00A0E0001DC6F020EDD6F1BEC10F01C
:102A28000001E92B310EE965CDD7310C1F0E8A65FF
:102A38001F0C60B21F0C1B500EE1400ECF6F010E31
:102A4800D06F400ED16FB1EC17F0196E195003E03A
:102A5800010E1B6E1C6A1B5010E0ACA20ED0400E7B
:102A68001C24D96EDA6A010EDA22DF5091EC1EF0CE
:102A78001C2A19501C1801E11B6A23501CE022EC87
:102A880021F0000918E03F0E1A6015D000F0ABECF9
:102A98001EF0D56F400E1A24D96EDA6A010EDA22BA
:102AA800D5C0DFFF1A2A400E1A24D96EDA6A010E41
:102AB800DA22DF6A2A6A205002E01CEF0FF01A506F
:102AC80002E11CEF0FF0400E0001C86F010EC96F44
:102AD8001AC0CAF064EC20F02AEC21F01A6A1CEF44
:102AE8000FF02D0E1F6E2DC04BF0FD0E4B164BE157
:102AF800D8902D303F0B040D000EF324156E040EF4
:102B0800F420166E15C017F016C018F0040E171A28
:102B180015C0D9FF16C0DAFFDF30E8320F0B0D0AF7
:102B280002E0A8EF1CF04D6A20EE02F01550D926FD
:102B38001650DA22DECF4BF0DDCF4CF04BC0D9FF78
:102B48004CC0DAFF300E4D24E16EE26A040EE22238
:102B5800DFCFE7FF20EE02F01550D9261650DA2213
:102B6800DE2A000EDD224D2A070E4D64DDD720EE49
:102B780002F01550D9261650DA22300EDE6E040EF9
:102B8800DD6EA3EF1BF02D50FD0B040AD8B499ECB1
:102B980013F01200010EDB6FF40EDA6FDC6B72ECCF
:102BA80020F0030ED56F7E0ED66FD76BD86BDFEC97
:102BB8001AF082A002D082B20BD0A30E0001D56F0A
:102BC8007E0ED66FD76B030ED86FDFEC1AF030D0BD
:102BD8002A0E0001D56F7E0ED66FD76B010ED86F07
:102BE800DFEC1AF025D082B00CD0100ED56F7E0E17
:102BF800D66FD76B020ED86FDFEC1AF0080E000103
:102C0800DC2782B20CD01D0ED56F7E0ED66FD76B27
:102C1800030ED86FDFEC1AF0800E0001DC27880E57
:102C2800DC1901E11200C96B0A0EC86F97EC1FF09E
:102C38000001DA07D8A0DB07DA29D5E1DB29D3E1DF
:102C480012000C8E6B0E2E6E0F0E2F6E316A306ACC
:102C5800336A020E326E5AEC1FF02E6A040E2F6E83
:102C6800316A306A336A300E326E5AEC1FF0608C6B
:102C7800436A43506A0FD96EDA6ADF6A43506D0FB0
:102C8800D96EDA6ADF6A432A020E4364F2D7C60EA7
:102C98002E6E2F6A316A306A336A020E326E5AEC2F
:102CA8001FF0609C080E0F6E040E106E000E156E5D
:102CB800040E166E15C017F016C018F032C42CF0AA
:102CC8002C5004E1100E00018A6F100C3C6A010EB2
:102CD8003B6E2C0E3D6E3E6A406A010E3F6E41EC23
:102CE8001DF0200E00018A6F200CCC6F0001C85126
:102CF80005E0CC51020DF3500F0F04D0CC51020D5A
:102D0800F350600FD96EDA6ADECFCDF0DDCFCEF0AA
:102D1800CD51CE1103E1C86BC96B120020EE02F051
:102D2800CD51D926CE51DA22C9C0DEFFCAC0DDFF97
:102D380020EE01F0CD51D926CE51DA22CBC0DFFFEB
:102D4800CDC0D9FFCEC0DAFF400EDF16CDC0D9FF07
:102D5800CEC0DAFF000EDB86CDC0D9FFCEC0DAFFC9
:102D6800DB8EC85105E0CC51020DF3500F0F04D093
:102D7800CC51020DF350600FD96EDA6A040EDF1AD7
:102D8800CDC0C8F0CEC0C9F0040C04013039E83217
:102D9800030B2AE012000C8E080E00018A6F080C43
:102DA8002C0E096E0A6A0C80010E0D6E0C8E010C39
:102DB8003451C60F4A6E4AC009F00A6A0C80010EE7
:102DC8000D6E0C8E010C0C8E3451C60FD96EDA6A5A
:102DD80032C4DFFF12003C6A020E3B6E3D6A3E6A57
:102DE800406A3F6A41EF1DF0315102E14BEF19F0A3
:102DF800010A02E19EEF0BF0020A02E19EEF0BF0DE
:102E0800060AC9E0030A02E19BEF0EF0010AE3E0BB
:102E18000F0AC6E0010A02E125EF16F0030AC8E02E
:102E2800010AD1E0070A1200326E2E5005E0325036
:102E3800020DF3500F0F04D03250020DF350600F03
:102E4800D96EDA6ADECF33F0DDCF34F03350341088
:102E580003E12E6A2F6A120020EE02F03350D926C1
:102E68003450DA222FC0DEFF30C0DDFF20EE01F043
:102E78003350D9263450DA2231C0DFFF33C0D9FFAE
:102E880034C0DAFF400EDF1633C0D9FF34C0DAFF92
:102E9800000EDB8633C0D9FF34C0DAFFDB8E2E503C
:102EA80005E03250020DF3500F0F04D03250020DDE
:102EB800F350600FD96EDA6A040EDF1A33C02EF0B1
:102EC80034C02FF0040C0BD0C9C0F6FFCAC0F7FFFE
:102ED8000800F55091EC1EF00001C94BCA2BC9C07F
:102EE800F6FFCAC0F7FF0800F550EEE1CE6BCB51F4
:102EF800CE25D96EDA6ADF5091EC1EF00001CE2B98
:102F0800020ECE65F4D7CB51D96EDA6A030ED926F4
:102F1800DF5091EC1EF0040E0001CF6F19D0CB5199
:102F2800CF25D96EDA6ADF50CD6FCD390F0BD3ECD0
:102F38001FF091EC1EF00001CB51CF25D96EDA6A53
:102F4800DF500F0BD3EC1FF091EC1EF00001CF2BDC
:102F5800CC51CF5DE4E3EBEF20F0916B7851791120
:102F680009E078C0D9FF79C0DAFF010EDFAE000EA4
:102F7800D36F01D0D36BD46BD351D41134E120EE8D
:102F880001F07851D9267951DA22D151DE5C08E274
:102F980020EE01F07851D9267951DA22DF50D16F2D
:102FA800916B0FD0400E9125D96EDA6A050EDA22A0
:102FB8009151CF25E16E000ED021E26EDFCFE7FF01
:102FC800912BD151915DEEE3000EC86F400EC96F91
:102FD800050ECA6F400ECB6F020E79EC16F0C8C012
:102FE80078F0C9C079F091511200886B896B020E94
:102FF80021181FE120EE01F01750D9261850DA22C7
:10300800080EDF6E20EE02F01750D9261850DA228B
:10301800380EDE6E040EDD6E17C0D9FF18C0DAFF59
:10302800480EDF6E17C0D9FF18C0DAFF000EDB8E1E
:10303800000C0D500401365D0E50375904E236C4B9
:103048000DF037C40EF000EC14F020EE02F00F5033
:10305800D9261050DA22380EDE6E040EDD6E0FC04F
:10306800D9FF10C0DAFF480EDF6E0FC0D9FF10C0BD
:10307800DAFF000EDB8E000C336E346A040E356EF8
:103088002E502F6E306AD8902F3630363350316E2E
:10309800326AD89031363236D890313632362F509F
:1030A800312630503222D89031363236D8903136E7
:1030B8003236315034263250352234C0D9FF35C02B
:1030C800DAFFDF9E2E5005E13350020DF350600FFA
:1030D80004D03350020DF3500F0FD96EDA6A34C0A2
:1030E800DEFF35C0DDFF34C0D9FF35C0DAFFDF9C15
:1030F80020EE04F03450D9263550DA22DF8C120045
:10310800040130511F0BE80601E012003039E832A3
:10311800030BE80601E0120034512BE0340529E0E6
:103128001200D00E096E010E0A6E0E6A080E0D6EA0
:103138000C800C8E080CD00E096E010E0A6E0C8ED7
:10314800120036C405F037C406F0AA0E016EAA0EA6
:10315800076E380E086E048E1200BC0E096E0A6ADD
:103168000E6A070E0D6EC10E0C6EC10C32510C8E1C
:1031780012003151D6E0010ADEE0210AE2E0010A3C
:10318800ECE0030AF3E01200C8C0D9FFC9C0DAFFB7
:10319800DF50CE6FCAC0F6FFCBC0F7FF0800F5CFEF
:1031A800D0F0CE512CE0020EC827000EC923D05112
:1031B800CE1925E12FEEFFF0C851D926C951DA22E0
:1031C800DF50CF6FCA29CC6F000ECB21CD6FCCC09A
:1031D800F6FFCDC0F7FF0800F5CFD0F0CF5107E1DB
:1031E800D051CF5DC86FC96BD8A0C9071200020EB5
:1031F800CA27000ECB23CF51D019F2E1C5D7D05141
:10320800CE5DC86FC96BD8A0C907120082A2FED7CD
:1032180056EC20F0010EBBEC20F0C290F29EF29E1C
:10322800F29C0F015B81A08C878087828784F2865D
:103238008250825082500001F95101E0D180F29011
:10324800A19C00F0030000F0D190C2EC1EF0F296B1
:10325800879087928794A09CF28E66EC1DF004EC10
:103268001FF0F2A005D0F290010E0001D76F04D034
:103278000A0E0001996FD76B0F015B91000EBBEC32
:1032880020F0E6EC1FF012EC1BF0D75112000401FD
:10329800386B396B2AD00C8E1D042EE138832CD064
:1032A8000C8E2AD00C8E34BF06D034510F0B020D71
:1032B800F350600F05D034510F0B020DF3500F0F70
:1032C800D96EDA6ADECF2EF0DDCF2FF02EC0D9FF0F
:1032D8002FC0DAFFDFAE10D02EC0D9FF2FC0DAFF23
:1032E800DFA40AD0010E386F07D030511F0BD3E08E
:1032F800010AD6E0030AD6E00CAE1200380E096EB9
:10330800040E0A6E0C80020E0D6E020C72EC20F098
:10331800630ED56F7F0ED66FD76BD86BDFEC1AF0C4
:10332800860E0001D56F7C0ED66FD76B060ED86F50
:10333800DFEC1AF0950E0001D56F7C0ED66FD76BB7
:10334800080ED86FDFEC1AF03C0E0001D56F7C0E2A
:10335800D66FD76B010ED86FDFEC1AF0970E00010D
:10336800D56F7E0ED66FD76B020ED86FDFEC1AF0D2
:103378006C0E0001D56F7F0ED66FD76B030ED86F1A
:10338800DFEF1AF02ED0FFD772EC20F02D0ED56F9C
:103398007F0ED66F010ED76FD86BDFEC1AF0870E51
:1033A8000001D56F7F0ED66F020ED76F010ED86F52
:1033B800DFEC1AF0370E0001D56F7E0ED66FD76B93
:1033C800020ED86FDFEC1AF0010E000105D0200EB6
:1033D8008A6101D00ED0020E9C6F0BD01AEC15F04A
:1033E80008D000019C51D0E0010AF1E0030AF6E0A0
:1033F800CAD780B0F6D700F012000001D36FCC51C5
:103408009EEC20F00001CB51080DF35038EC20F071
:103418008A980001D46BCD6BCE69D351CF6FD06B36
:10342800D890CF37D037D890CF37D037D890CF373C
:10343800D037F5C0D1F0F6C0D2F0CF51D127D05156
:10344800D223D451D127000ED223CD51D127CE512A
:10345800D223D1C0F6FFD2C0F7FF0800F550F1EC37
:1034680020F00001D42B070ED465D5D78A88070C25
:10347800366A376A386A396A325033103410351070
:1034880029E0010E3A6E06D0D890323633363436FB
:1034980035363A2A35AEF8D7D890363637363836F4
:1034A800393632502E5C33502F58345030583550FE
:1034B800315809E332502E5E33502F5A3450305A67
:1034C8003550315A3680D890353234323332323230
:1034D8003A2EE2D736C02EF037C02FF038C030F081
:1034E80039C031F012000001CD6FC96B320EC86FC0
:1034F80097EC1FF0CD5113E03E0EC96F7A0ECA6FDC
:1035080030EC1FF00001C96B320EC86F97EC1FF04A
:10351800580EC96F7A0ECA6F30EC1FF012D00A0E1F
:10352800C96F7A0ECA6F30EC1FF00001C96B320EFA
:10353800C86F97EC1FF0240EC96F7A0ECA6F30EC73
:103548001FF00001C96B320EC86F97EF1FF029D02A
:10355800C8C0D9FFC9C0DAFFDF500DE0C8C0D9FF25
:10356800C9C0DAFFDF50CE6FCAC0F6FFCBC0F7FF85
:103578000800F51812E0C8C0D9FFC9C0DAFFDF504B
:10358800CE6FCAC0F6FFCBC0F7FF0800F550CE5D7E
:10359800C86FC96BD8A0C9071200C84BC92BCA4B42
:1035A800CB2BCC07D8A0CD07CC29D2E1CD29D0E1AF
:1035B800C86BC96B1200D7C0D9F00F0ED96501D0FE
:1035C8000F0CD5C0F6FFD6C0F7FFF86A070EF764F0
:1035D80003D00800F55005D0F6CFE1FFF7CFE2FFA2
:1035E800E7500009D8B41200D9C0CBF0D8C0CCF04D
:1035F800D5C0F6FFD6C0F7FFF86A070EF76403D008
:103608000800F55005D0F6CFE1FFF7CFE2FFE7500D
:1036180001EC1AF0D54BD62BD92BCFD7CF6BCD6B6E
:10362800CE6BAC9A8B9CC96B0A0EC86F97EC1FF0D7
:10363800AC8AC96B050EC86F97EC1FF0550EAD6EBE
:10364800ACA2FED7FD0EC96F7F0ECA6F30EC1FF01B
:103658000001C96B280EC86F97EC1FF00ED0F7EC6D
:103668001CF0000903E0010ECF6F07D0CD4BCE2B25
:10367800890ECD5D130ECE59F6E2CF51F0E112005E
:10368800CD6F0001CC51A00FD96EDA6A0A0EC86F4F
:10369800CD5183EC1FF0300FDF6E0A0EC86FCD518D
:1036A8005BEC1EF0CD6FCC519F0FD96EDA6A0A0E13
:1036B800C86FCD5183EC1FF0300FDF6E0A0EC86F54
:1036C800CD515BEC1EF0CD6FCC519E0FD96EDA6AEE
:1036D8000A0EC86FCD5183EC1FF0300FDF6E120059
:1036E80002EE00F0400EEE6AE806FDE101EE00F0A1
:1036F800D80EEE6AE806FDE100EE60F0680EEE6AAC
:10370800E806FDE100EE01F02D0EEE6AE806FDE1A7
:103718003A0EF66E420EF76E000EF86E00EEF5F0F9
:1037280010EE05F00900F5CFEEFFE550E150FAE1A3
:103738005B905B92000EF86E000130EF13F02B6A7D
:103748001E6A886B896B866B216A0FC0D9FF10C00F
:10375800DAFF7F0EDF16040E0F1A0FC0D9FF10C054
:10376800DAFF7F0EDF16040E0F1A17C0D9FF18C034
:10377800DAFF7F0EDF160C6A0D6A0E6A046A056AA4
:10378800066AC9EC16F03C6A030E3B6E3D6A3E6A57
:10379800406A3F6A41EC1DF00CEF11F0DC6F0A0E35
:1037A8000001C86FDC5183EC1FF0300FDF6F0A0E89
:1037B800C86FDC515BEC1EF0DC6F0A0EC86FDC5181
:1037C80083EC1FF0300FDE6F0A0EC86FDC515BEC24
:1037D8001EF0DC6F0A0EC86FDC5183EC1FF0300F4F
:1037E800DD6FE06BDD0ED56FD66BDAC0D7F0DBC0CE
:1037F800D8F0DFEF1AF0E60ED56F7E0ED66FD76BD6
:10380800D86BDFEC1AF0010E77EC1AF0010EC96FD5
:10381800F40EC86F97EC1FF0000E77EC1AF0010E4B
:10382800C96FF40EC86F97EC1FF0010E77EC1AF011
:10383800010EC96FF40EC86F97EC1FF0000E77ECFD
:103848001AF0010EC96FF40EC86F97EF1FF0230E20
:10385800D56F7F0ED66FD76B010ED86FDFEC1AF0DD
:10386800898C898E010E0001C96FF40EC86F97EC20
:103878001FF0899C899E010EC96FF40EC86F97ECE2
:103888001FF0898C898E010EC96FF40EC86F97ECF2
:103898001FF0899C899E010EC96FF40EC86F97EFBF
:1038A8001FF0AAC0BCF0ABC0BDF0ACC0BEF0ADC04C
:1038B800BFF02E6A1B0E2F6EB70E306E316ABCC079
:1038C80032F0BDC033F0BEC034F0BFC035F03CECC0
:1038D8001AF0FF0E2E243B6EFF0E2F203C6EFF0EBB
:1038E80030203D6EFF0E31203E6E3BC0AFFF3CC026
:1038F800B0FF1AEF1FF00001BC6B4B0EBD6FBE6B23
:10390800BF6BC06BC16B080EC26F916B1A0E366E1F
:10391800010E76EC1EF01E0E366E020E76EC1EF0D0
:10392800000E2E6E400E2F6E050E306E400E316E5C
:10393800020E18EC17F02EC078F02FC079F00001B5
:10394800766B776B206A1200020E211802E188EF6D
:103958000DF0216A86511FE120EE01F01750D9269B
:103968001850DA22080EDF6E20EE02F01750D92622
:103978001850DA22300EDE6E040EDD6E17C0D9FF45
:1039880018C0DAFF0C0EDF6E17C0D9FF18C0DAFFB7
:10399800000EDB8E000C866B120082A002D082B271
:1039A80014D0662B000E672368236923370E661927
:1039B80067116811691107E19D6B82B002D0010E91
:1039C8000FD0020E0DD0C86B0CD0140E9D1906E155
:1039D800666B676B686B696B9D6B01D09D2B030EE3
:1039E800C86FC85112000001C96B23501FE0ABEC2F
:1039F8001EF0CA6F0D0ECA190BE1800E2924D96E6C
:103A0800DA6A010EDA22DF6A010EC96F296A0ED05E
:103A1800CA510CE00A0ECA1909E0800E2924D96E91
:103A2800DA6A010EDA22CAC0DFFF292AC951120058
:103A3800CD6BCE6BCA51CB111BE0010ECC6F04D0FD
:103A4800D890CA37CB37CC2BCBAFFAD7D890CD3755
:103A5800CE37CA51C85DCB51C95905E3CA51C85FB1
:103A6800CB51C95BCD81D890CB33CA33CC2FEED79D
:103A7800CDC0C8F0CEC0C9F012003BC041F03CC078
:103A880042F0425004E07F0AD8A4120019D04150F5
:103A9800010A02E13FEF1EF0030AD8B41200010A3E
:103AA80002E184EF18F0060AD8B41200770AD8B4F5
:103AB8001200010AD8B41200070AD8A4010A120099
:103AC800411C120092809282928492869298929AD5
:103AD800929C929E9390939293949396939A9480A7
:103AE80094829484949C948E8988899A899C899ECE
:103AF8008A948A908A9A8B948B9C0F015B915B8342
:103B08005B855B875D9F5D9D12000001C86BC85196
:103B1800C30FD96EDA6ADF6AC82B020EC865F7D7F9
:103B2800C96BC00EC925D96EDA6A010EDA22DF6ABE
:103B3800C92B210EC965F5D7CA6BCA51B40FD96E06
:103B4800DA6ADF6ACA2B090ECA65F7D7090CCA51A7
:103B5800CB1117E0010ECC6F04D0D890CA37CB3701
:103B6800CC2BCBAFFAD7CA51C85DCB51C95904E3A6
:103B7800CA51C85FCB51C95BD890CB33CA33CC2F5D
:103B8800F2D7C8C0C8F0C9C0C9F012006AA01BD0DB
:103B980015C0D9FF16C0DAFF800EDE1813E10FC07A
:103BA800D9FF10C0DAFF840EDE180CE115C0D9FF6A
:103BB80016C0DAFF0C0EDF6E15C0D9FF16C0DAFF8B
:103BC800000EDB8E6A90659A12000001CC6FCCC0A3
:103BD800CAF0CA47CA47C250CA19830BCA19C26E6B
:103BE800C280140EE82EFED7C282C2B2FED7C450DD
:103BF8000001CB6FCA6BC350CA25C86F000ECB211A
:103C0800C96F1200C96F000EF2BE010E0001CA6F23
:103C1800C9C0A9FFC8C0A8FFA69EA69CA684F29EFC
:103C2800550EA76EAA0EA76EA682A6B2FED7A694B8
:103C38000001CAB102D0F29E01D0F28E12008AECC5
:103C480019F00001C96B140EC86F97EC1FF0CEEC89
:103C580015F072EC20F0C96B140EC86F97EC1FF0CA
:103C6800FFEC1BF02BEC1CF0BFEC14F0C96B140E2E
:103C7800C86F97EF1FF07FEC1CF0C06B080EC26F87
:103C8800C16BBC6B4B0EBD6FBE6BBF6B1AEC1FF0EC
:103C98003A6A400E3A24D96EDA6A010EDA22DF6AED
:103CA8003A2A3F0E3A64F5D71A6A196A1200C96FA0
:103CB8000001CB6BC85114E0010ECA6F03D0D89035
:103CC800C837CA2BC8AFFBD7D890CB37C851C95D06
:103CD80003E3C851C95FCB81D890C833CA2FF4D742
:103CE800CB511200396E36A404D02E6A395040ECFC
:103CF80018F036A205D0010E2E6E395040EC18F09F
:103D08006A0E3924376E386A0F0E382237C0D9FF49
:103D180038C0DAFF36C0DFFF0F0C0001C86F26502D
:103D2800FEE09DB803D0C8C0ADFF0FD09D98000E2F
:103D38002724D96EDA6A020EDA22C8C0DFFF272AE2
:103D48003F0E276401D0276A26069D88120001D0FD
:103D5800898E2350FDE09D9A000E2524D96EDA6ADB
:103D6800010EDA22DF500001C86F252A3F0E2564B4
:103D780001D0256A23069D8AC85112000001C86B2C
:103D8800000EC825D96EDA6A010EDA22DF6AC82B5E
:103D98003F0EC865F5D7246A256A236A9D98276A65
:103DA800286A400E266E400C8A51D8A41200606A18
:103DB800646A160E626E9F0E666E7B0E646ED08EFF
:103DC800A584A384F28E01D0608660A6FDD7010E7B
:103DD8008A6F010CCD6ACC6AD00ECF6E200ECE6EE3
:103DE800CE50CFCFC8F00001C96BC8C0C9F0C86BAE
:103DF800C811806FC951816F9E909D8026EF21F078
:103E08009D9A9D98480EB86E900EAB6E260EAC6EBD
:103E1800710EAF6E020EB06E276A286A400E266ECB
:103E2800246A256A236A9D8AAB8812009D9A9D9808
:103E3800480EB86E900EAB6E260EAC6E710EAF6E5D
:103E4800020EB06E276A286A400E266E246A256A1A
:103E5800236A9D8AAB8812000BD0C9C0F6FFCAC07E
:103E6800F7FF0800F55091EC1EF00001C94BCA2B72
:103E7800C9C0F6FFCAC0F7FF0800F550EEE1EBEF46
:103E880020F0C8C0CEF0C9C0CFF008D0CEC0D9FF4E
:103E9800CFC0DAFFCAC0DFFFCE4BCF2BCC07D8A0EC
:103EA800CD07CC29F3E1CD29F1E112002EC034F081
:103EB8002FC035F008D034C0D9FF35C0DAFF30C084
:103EC800DFFF344A352A3206D8A033063228F3E118
:103ED8003328F1E11200C86F2F0E0001C86506D023
:103EE8003A0EC86103D0C851D00F1200400EC86501
:103EF8002D0C470EC8612D0CC851C90F1200C96F8F
:103F0800080E0001CA6FCB6BD890C935CB35CB6F83
:103F1800D890C937C851CB5D02E3C851CB5FCA2FCF
:103F2800F3D7CB511200CB6BCC6B0BD0100ECA6FF2
:103F3800940EE82EFED7CA2FFCD700D00001CB4B39
:103F4800CC2BC851CB5DC951CC59F0E31200400EBF
:103F580026600FD0000E2824D96EDA6A020EDA2203
:103F6800DF50AD6E282A3F0E286401D0286A262A21
:103F780012009D981200ABA203D0AB98AB88120038
:103F8800000E2424D96EDA6A010EDA22AECFDFFFE2
:103F9800242A3F0E246401D0246A232A1200C86F01
:103FA8000F0E0001C8170A0EC86103D0C851300FA0
:103FB8001200090EC865000C100EC861000CC8512B
:103FC800370F120093949398939AEDEC11F0000E2A
:103FD80094EC20F0490E0001C86F760EC96FB2EC60
:103FE80020F072EF20F00001CF6F060ECF25C86FCA
:103FF800C96BFF0EC923CB6B050ECA6F1CEC1DF0F5
:10400800C851D06FD0511200876B3C6A740E3B6E5A
:104018003D6A3E6A406A3F6A41EC1DF060926494D2
:1040280001D0659465A41200FCD77EEC20F066EC04
:104038001DF0E4EC20F0EEEC1EF0D5EC20F004ECE2
:104048001FF089EC20F0C4EF20F00001D56FD66B8B
:10405800D6C0CBF0D5C0CCF0200E01EC1AF0D62B90
:104068000F0ED665F5D70F0CCA6F8A980001CA39AA
:104078000F0B1009F7EC20F00001CA510F0BF7ECF9
:1040880020F08A881200648465986082010E00011D
:10409800876F3C6A750E3B6E3D6A3E6A406A3F6AAE
:1040A80041EF1DF0720EC96F7A0ECA6F30EC1FF027
:1040B8009DB8FED70001C96B140EC86F97EF1FF0AB
:1040C800A394205009E1C8C073F0C9C074F0CAC0F5
:1040D80092F0010E906F206EA3841200000E29EC5E
:1040E80020F0010E29EC20F0020E29EC20F0030E3E
:1040F80029EF20F0800E9B6E700ED36E100ED26EDC
:10410800D2AEFED7900EB56E900CA00E7D6E010E4D
:10411800C26E080EC16E8E0EC06EC36AC46A1200EB
:104128000001CA6FA60ECA278A98CA51F7EC20F078
:104138008A881200CA6FB00E0001CA138A98CA5141
:10414800F7EC20F08A881200C86FC8C0A9FFA69CA7
:10415800A69EA68000F000F0A8501200C851C91110
:10416800D8B41200C8C0F5F0C9C0F6F012000001BA
:10417800CA6F8A98CA51AF08F7EC20F08A881200F3
:10418800A09C9C0E986E9A8A9A929A96A19CA09C42
:104198009C0CC86FC69EC8C0C9FFC7A0FED7C9502F
:1041A80012007A0EBA6E9B0EBB6EBC6A9E9224EF0A
:1041B80021F0C86F0001C8B3942BC8B7992B12001F
:1041C800C76A210EC66EC86AC688C79C12000D0E43
:1041D80091EC1EF00A0E91EF1EF0C96F8A8A000159
:1041E800C951CDEF20F00001C96F8A9AC951CDEFAE
:1041F80020F09E9081C0CFFF80C0CEFF1200BCCFC0
:10420800C8F0C8511200C86FC8C0F7F01200C86FD4
:10421800C8C08EF01200C86FC8C09CF01200C86FEA
:10422800C8C0F8F01200010E2A6E010C00018F813F
:0742380012004976020101AA
:104240008F6B12002A501200BA841200CD80120027
:06425000A19C1200120007
:1076400000067A8C79C079497900000000000000BA
:10765000000000005F0000000000000300030000C5
:1076600000643C26643C2624002649497F4949326F
:1076700000422512082452210020504E552258283D
:1076800000000000030000000000001C2241000078
:107690000000000041221C00000015150E0E1515FB
:1076A000000008083E0808000000000050300000FC
:1076B0000000080808080800000000004000000062
:1076C000004020100804020100003E4141413E00FC
:1076D000000000417F4000000000426151496E00FF
:1076E000000022414949360000001814127F1000A2
:1076F000000027494949710000003C4A4948700090
:1077000000004321110D03000000364949493600AD
:107710000000060949291E000000000012000000B8
:107720000000000052300000000000081414220085
:10773000000014141414141400000022141408007F
:107740000000020159050200003E415D554D512ED9
:1077500000407C4A094A7C4000417F4949494936FA
:10776000001C22414141412200417F414141221CF4
:1077700000417F49495D416300417F49091D010383
:10778000001C224149493A0800417F0808087F410E
:10779000000041417F41410000304041413F010133
:1077A00000417F080C12614100417F414040406030
:1077B00000417F420C427F4100417F420C117F011A
:1077C000001C22414141221C00417F490909090650
:1077D000000C12212161524C00417F0909196946B0
:1077E0000066494949494933000301417F4101038A
:1077F00000013F4140413F0100010F3140310F0185
:1078000000011F6114611F010041413608364141EA
:107810000001034478440301004361514945436139
:107820000000007F414100000001020408102040D8
:1078300000000041417F0000000004020101020439
:1078400000004040404040400000010200000000B5
:107850000000344A4A4A3C400000413F4848483012
:1078600000003C42424224000000304848493F406A
:1078700000003C4A4A4A2C00000000487E490900AA
:107880000000264949493F0100417F4804447840AF
:10789000000000447D40000000000040443D000026
:1078A00000417F1018244242000040417F404000C8
:1078B00000427E027C027E4000427E4402427C40C6
:1078C00000003C4242423C000000417F4909090659
:1078D0000000060909497F410000427E440202047B
:1078E0000000644A4A4A36000000043F4444200035
:1078F0000000023E4040227E40020E3240320E0224
:1079000000021E6218621E020042621408146242E3
:10791000000143453805030100004662524A4662B1
:107920000000000836410000000000007F00000059
:107930000000000041360800000018080810101868
:1079400000AA55AA55AA55AA5509024300020100EA
:10795000C0320904000001020201000524001001E8
:107960000424020205240600010524010001070584
:10797000810308000209040100020A000000070553
:1079800002024000000705820240000034034D005F
:107990006900630072006F00630068006900700096
:1079A000200054006500630068006E006F006C00EA
:1079B0006F0067007900200049006E0063002E0010
:1079C00034034300440043002000520053002D00C4
:1079D000320033003200200045006D0075006C005D
:1079E0006100740069006F006E00200044006500B3
:1079F0006D006F001201000202000008D8040A00A6
:107A00000001010200010403090473797320736506
:107A1000742070696E646967204750494F31302087
:107A2000300D0A00737973207365742070696E6479
:107A30006967204750494F313120300D0A00737972
:107A400073207365742070696E64696720475049BC
:107A50004F313020310D0A00737973207365742023
:107A600070696E646967204750494F313120310D8C
:107A70000A0073797320736C656570203939393960
:107A800039393939390028554E434E4629202020AE
:107A90002028434E462920004D6163204572726FB5
:107AA00072204F6363757265640020202020526548
:107AB00063656976656420202020002020204461D1
:107AC00074612052617465202020200020205365BD
:107AD0006C656374204C6F52612020200020204C84
:107AE000617374204D6573736167652020002056B3
:107AF00069657720446F776E6C696E6B202000207B
:107B00002049737375652055706C696E6B20200079
:107B100020285331292020202020202853322920BA
:107B20000053657276657220526573706F6E73656F
:107B30002000204C6F526157414E205061636B65AD
:107B400074200020547820536C656570204576655C
:107B50006E742000526552756E20507772547374A3
:107B60003C53323E004973737565205065726F64F3
:107B700069632054580044617461205472616E73CB
:107B80006D697474656400456E74657220536C652C
:107B90006570204D6F64650055706C696E6B205088
:107BA000636B742054797065004D6F62696C652059
:107BB0004D6F7465202D417070004E61766967616C
:107BC0007465202053656C65637400446F776E6C38
:107BD000696E6B20446973706C61790020202020ED
:107BE000446973706C617920202020002020536547
:107BF0006E736F722044617461202000284E4156DC
:107C000029202020202853454C292000284E415669
:107C1000292020202028534C502920006D6163200A
:107C200073657420616472206F6666004E6F204633
:107C3000726565204368616E6E656C004275696CA3
:107C40006420446174652F54696D650045786974DA
:107C5000204D656E7520202020200020202020450A
:107C60006E61626C65642020200020202020446921
:107C70007361626C6564202000446174612052610C
:107C800074653A2020203000446174612052617490
:107C9000653A20202031004461746120526174658E
:107CA0003A20202032004461746120526174653AA8
:107CB00020202033004461746120526174653A20B1
:107CC000202034004461746120526174653A2020A0
:107CD0002035004461746120526174653A2020208F
:107CE00036004461746120526174653A2020203767
:107CF000004175746F2044617461205261746500A5
:107D00006D61632073657420616472206F6E002062
:107D1000202052433320436F646520202000202020
:107D2000204C6F52612044656D6F2020004D6963C7
:107D3000726F63686970204D6F7465006D616320B8
:107D4000747820756E636E6620006D6163206A6FC3
:107D5000696E206F74616100696E76616C69645F41
:107D6000706172616D006B6579735F6E6F745F69CE
:107D70006E6974005468726F7520506F727423209E
:107D8000004C3A20202020202020543A20006D6111
:107D900063207365742064722030006D616320730A
:107DA00065742064722031006D61632073657420F6
:107DB00064722032006D61632073657420647220E8
:107DC00033006D6163207365742064722034006D2C
:107DD0006163207365742064722035006D616320D7
:107DE0007365742064722036006D6163207365745E
:107DF0002064722037006D6163206A6F696E2061B4
:107E0000627000427574746F6E20546573743A002A
:107E1000427574746F6E3120504153530042757433
:107E2000746F6E322050415353005072657373204B
:107E3000427574746F6E005553422048616E646CD5
:107E40006572004F6E20506F727420233A200054E8
:107E50007820506F727420233A200053656E74208E
:107E6000446174613A20006D616320747820636E10
:107E7000662000547279696E67204F544141006D4D
:107E80006163206765742061647200737973206791
:107E90006574207665720046656220323720323084
:107EA000313600427574746F6E204641494C004F64
:107EB000544141204A6F696E20006E6F5F667265A3
:107EC000655F6368005375636365737366756C0003
:107ED0006D6163206765742064720056616C69642B
:107EE000204B65797300436F6D6D20546573743A50
:107EF00000527820506F7274232000414250204A73
:107F00006F696E20004D4F5445204D6F6465004FE2
:107F1000544141204A6F696E006D61632072657340
:107F20006574004C454420546573743A00434443DF
:107F3000204D6F64650052657175697265640061FA
:107F400063636570746564006D6163207361766559
:107F5000005374617274696E6700414250204A6F29
:107F6000696E004D6F54652076202E0032323A3013
:107F7000383A343000524620546573743A00414414
:107F800043205465737400436F6D6D616E64004EE1
:107F90004F2046524545004348414E4E454C004E09
:107FA0006F204B6579730054656D7020203D004C47
:107FB00069676874203D0054656D70203A004C6913
:107FC0006768743A0044656E6965640064656E694B
:107FD0006564006E6F5F667265006D61635F6572F8
:107FE000006D61635F7278006D61635F7478005249
:107FF0004E006F6B002A003C00430055007A0000E1
:020000040020DA
:08000000FFFFFFFFFFFFFFFF00
:020000040030CA
:0E00000021081F3EFFD181FF0FC00FE00F400F
:00000001FF
